{
  "contractName": "BLXToken",
  "abi": [
    {
      "inputs": [
        {
          "internalType": "string",
          "name": "name",
          "type": "string"
        },
        {
          "internalType": "string",
          "name": "symbol",
          "type": "string"
        },
        {
          "internalType": "uint256",
          "name": "cap_",
          "type": "uint256"
        }
      ],
      "stateMutability": "nonpayable",
      "type": "constructor"
    },
    {
      "anonymous": false,
      "inputs": [
        {
          "indexed": true,
          "internalType": "address",
          "name": "owner",
          "type": "address"
        },
        {
          "indexed": true,
          "internalType": "address",
          "name": "spender",
          "type": "address"
        },
        {
          "indexed": false,
          "internalType": "uint256",
          "name": "value",
          "type": "uint256"
        }
      ],
      "name": "Approval",
      "type": "event"
    },
    {
      "anonymous": false,
      "inputs": [
        {
          "indexed": true,
          "internalType": "bytes32",
          "name": "role",
          "type": "bytes32"
        },
        {
          "indexed": true,
          "internalType": "bytes32",
          "name": "previousAdminRole",
          "type": "bytes32"
        },
        {
          "indexed": true,
          "internalType": "bytes32",
          "name": "newAdminRole",
          "type": "bytes32"
        }
      ],
      "name": "RoleAdminChanged",
      "type": "event"
    },
    {
      "anonymous": false,
      "inputs": [
        {
          "indexed": true,
          "internalType": "bytes32",
          "name": "role",
          "type": "bytes32"
        },
        {
          "indexed": true,
          "internalType": "address",
          "name": "account",
          "type": "address"
        },
        {
          "indexed": true,
          "internalType": "address",
          "name": "sender",
          "type": "address"
        }
      ],
      "name": "RoleGranted",
      "type": "event"
    },
    {
      "anonymous": false,
      "inputs": [
        {
          "indexed": true,
          "internalType": "bytes32",
          "name": "role",
          "type": "bytes32"
        },
        {
          "indexed": true,
          "internalType": "address",
          "name": "account",
          "type": "address"
        },
        {
          "indexed": true,
          "internalType": "address",
          "name": "sender",
          "type": "address"
        }
      ],
      "name": "RoleRevoked",
      "type": "event"
    },
    {
      "anonymous": false,
      "inputs": [
        {
          "indexed": true,
          "internalType": "address",
          "name": "from",
          "type": "address"
        },
        {
          "indexed": true,
          "internalType": "address",
          "name": "to",
          "type": "address"
        },
        {
          "indexed": false,
          "internalType": "uint256",
          "name": "value",
          "type": "uint256"
        }
      ],
      "name": "Transfer",
      "type": "event"
    },
    {
      "inputs": [],
      "name": "ADMIN_BURNER_ROLE",
      "outputs": [
        {
          "internalType": "bytes32",
          "name": "",
          "type": "bytes32"
        }
      ],
      "stateMutability": "view",
      "type": "function"
    },
    {
      "inputs": [],
      "name": "ADMIN_MINTER_ROLE",
      "outputs": [
        {
          "internalType": "bytes32",
          "name": "",
          "type": "bytes32"
        }
      ],
      "stateMutability": "view",
      "type": "function"
    },
    {
      "inputs": [],
      "name": "BURNER_ROLE",
      "outputs": [
        {
          "internalType": "bytes32",
          "name": "",
          "type": "bytes32"
        }
      ],
      "stateMutability": "view",
      "type": "function"
    },
    {
      "inputs": [],
      "name": "DEFAULT_ADMIN_ROLE",
      "outputs": [
        {
          "internalType": "bytes32",
          "name": "",
          "type": "bytes32"
        }
      ],
      "stateMutability": "view",
      "type": "function"
    },
    {
      "inputs": [],
      "name": "MINTER_ROLE",
      "outputs": [
        {
          "internalType": "bytes32",
          "name": "",
          "type": "bytes32"
        }
      ],
      "stateMutability": "view",
      "type": "function"
    },
    {
      "inputs": [
        {
          "internalType": "address",
          "name": "owner",
          "type": "address"
        },
        {
          "internalType": "address",
          "name": "spender",
          "type": "address"
        }
      ],
      "name": "allowance",
      "outputs": [
        {
          "internalType": "uint256",
          "name": "",
          "type": "uint256"
        }
      ],
      "stateMutability": "view",
      "type": "function"
    },
    {
      "inputs": [
        {
          "internalType": "address",
          "name": "spender",
          "type": "address"
        },
        {
          "internalType": "uint256",
          "name": "amount",
          "type": "uint256"
        }
      ],
      "name": "approve",
      "outputs": [
        {
          "internalType": "bool",
          "name": "",
          "type": "bool"
        }
      ],
      "stateMutability": "nonpayable",
      "type": "function"
    },
    {
      "inputs": [
        {
          "internalType": "address",
          "name": "account",
          "type": "address"
        }
      ],
      "name": "balanceOf",
      "outputs": [
        {
          "internalType": "uint256",
          "name": "",
          "type": "uint256"
        }
      ],
      "stateMutability": "view",
      "type": "function"
    },
    {
      "inputs": [],
      "name": "decimals",
      "outputs": [
        {
          "internalType": "uint8",
          "name": "",
          "type": "uint8"
        }
      ],
      "stateMutability": "view",
      "type": "function"
    },
    {
      "inputs": [
        {
          "internalType": "address",
          "name": "spender",
          "type": "address"
        },
        {
          "internalType": "uint256",
          "name": "subtractedValue",
          "type": "uint256"
        }
      ],
      "name": "decreaseAllowance",
      "outputs": [
        {
          "internalType": "bool",
          "name": "",
          "type": "bool"
        }
      ],
      "stateMutability": "nonpayable",
      "type": "function"
    },
    {
      "inputs": [
        {
          "internalType": "bytes32",
          "name": "role",
          "type": "bytes32"
        }
      ],
      "name": "getRoleAdmin",
      "outputs": [
        {
          "internalType": "bytes32",
          "name": "",
          "type": "bytes32"
        }
      ],
      "stateMutability": "view",
      "type": "function"
    },
    {
      "inputs": [
        {
          "internalType": "bytes32",
          "name": "role",
          "type": "bytes32"
        },
        {
          "internalType": "address",
          "name": "account",
          "type": "address"
        }
      ],
      "name": "grantRole",
      "outputs": [],
      "stateMutability": "nonpayable",
      "type": "function"
    },
    {
      "inputs": [
        {
          "internalType": "bytes32",
          "name": "role",
          "type": "bytes32"
        },
        {
          "internalType": "address",
          "name": "account",
          "type": "address"
        }
      ],
      "name": "hasRole",
      "outputs": [
        {
          "internalType": "bool",
          "name": "",
          "type": "bool"
        }
      ],
      "stateMutability": "view",
      "type": "function"
    },
    {
      "inputs": [
        {
          "internalType": "address",
          "name": "spender",
          "type": "address"
        },
        {
          "internalType": "uint256",
          "name": "addedValue",
          "type": "uint256"
        }
      ],
      "name": "increaseAllowance",
      "outputs": [
        {
          "internalType": "bool",
          "name": "",
          "type": "bool"
        }
      ],
      "stateMutability": "nonpayable",
      "type": "function"
    },
    {
      "inputs": [],
      "name": "name",
      "outputs": [
        {
          "internalType": "string",
          "name": "",
          "type": "string"
        }
      ],
      "stateMutability": "view",
      "type": "function"
    },
    {
      "inputs": [
        {
          "internalType": "bytes32",
          "name": "role",
          "type": "bytes32"
        },
        {
          "internalType": "address",
          "name": "account",
          "type": "address"
        }
      ],
      "name": "renounceRole",
      "outputs": [],
      "stateMutability": "nonpayable",
      "type": "function"
    },
    {
      "inputs": [
        {
          "internalType": "bytes32",
          "name": "role",
          "type": "bytes32"
        },
        {
          "internalType": "address",
          "name": "account",
          "type": "address"
        }
      ],
      "name": "revokeRole",
      "outputs": [],
      "stateMutability": "nonpayable",
      "type": "function"
    },
    {
      "inputs": [
        {
          "internalType": "bytes4",
          "name": "interfaceId",
          "type": "bytes4"
        }
      ],
      "name": "supportsInterface",
      "outputs": [
        {
          "internalType": "bool",
          "name": "",
          "type": "bool"
        }
      ],
      "stateMutability": "view",
      "type": "function"
    },
    {
      "inputs": [],
      "name": "symbol",
      "outputs": [
        {
          "internalType": "string",
          "name": "",
          "type": "string"
        }
      ],
      "stateMutability": "view",
      "type": "function"
    },
    {
      "inputs": [],
      "name": "totalSupply",
      "outputs": [
        {
          "internalType": "uint256",
          "name": "",
          "type": "uint256"
        }
      ],
      "stateMutability": "view",
      "type": "function"
    },
    {
      "inputs": [
        {
          "internalType": "address",
          "name": "to",
          "type": "address"
        },
        {
          "internalType": "uint256",
          "name": "amount",
          "type": "uint256"
        }
      ],
      "name": "transfer",
      "outputs": [
        {
          "internalType": "bool",
          "name": "",
          "type": "bool"
        }
      ],
      "stateMutability": "nonpayable",
      "type": "function"
    },
    {
      "inputs": [
        {
          "internalType": "address",
          "name": "from",
          "type": "address"
        },
        {
          "internalType": "address",
          "name": "to",
          "type": "address"
        },
        {
          "internalType": "uint256",
          "name": "amount",
          "type": "uint256"
        }
      ],
      "name": "transferFrom",
      "outputs": [
        {
          "internalType": "bool",
          "name": "",
          "type": "bool"
        }
      ],
      "stateMutability": "nonpayable",
      "type": "function"
    },
    {
      "inputs": [
        {
          "internalType": "address",
          "name": "to",
          "type": "address"
        },
        {
          "internalType": "uint256",
          "name": "amount",
          "type": "uint256"
        }
      ],
      "name": "mint",
      "outputs": [],
      "stateMutability": "nonpayable",
      "type": "function"
    },
    {
      "inputs": [
        {
          "internalType": "uint256",
          "name": "amount",
          "type": "uint256"
        }
      ],
      "name": "burn",
      "outputs": [],
      "stateMutability": "nonpayable",
      "type": "function"
    },
    {
      "inputs": [],
      "name": "cap",
      "outputs": [
        {
          "internalType": "uint256",
          "name": "",
          "type": "uint256"
        }
      ],
      "stateMutability": "view",
      "type": "function"
    }
  ],
  "bytecode": "0x60a06040523480156200001157600080fd5b5060405162001f8338038062001f838339810160408190526200003491620003d8565b82826003620000448382620004f3565b506004620000538282620004f3565b50505060008111620000c5576040517f08c379a000000000000000000000000000000000000000000000000000000000815260206004820152601560248201527f45524332304361707065643a2063617020697320300000000000000000000000604482015260640160405180910390fd5b6080819052620000e060003364010000000062000199810204565b620001077041444d494e5f4d494e5445525f524f4c456000640100000000620001b2810204565b6200012e7041444d494e5f4255524e45525f524f4c456000640100000000620001b2810204565b6200015f6a4d494e5445525f524f4c457041444d494e5f4d494e5445525f524f4c45640100000000620001b2810204565b620001906a4255524e45525f524f4c457041444d494e5f4255524e45525f524f4c45640100000000620001b2810204565b505050620005c5565b620001ae828264010000000062000210810204565b5050565b6000620001c883640100000000620002ae810204565b600084815260056020526040808220600101859055519192508391839186917fbd79b86ffe0ab8e8776151514217cd7cacd52c909f66475c3af44e129f0b00ff9190a4505050565b620002258282640100000000620002c3810204565b620001ae576000828152600560209081526040808320600160a060020a03851684529091529020805460ff191660011790556200026a640100000000620002ee810204565b600160a060020a031681600160a060020a0316837f2f8788117e7eff1d82e926ec794901d17c78024a50270940304540a733656f0d60405160405180910390a45050565b60009081526005602052604090206001015490565b6000918252600560209081526040808420600160a060020a0393909316845291905290205460ff1690565b3390565b7f4e487b7100000000000000000000000000000000000000000000000000000000600052604160045260246000fd5b600082601f8301126200033357600080fd5b81516001604060020a0380821115620003505762000350620002f2565b604051601f8301601f19908116603f011681019082821181831017156200037b576200037b620002f2565b816040528381526020925086838588010111156200039857600080fd5b600091505b83821015620003bc57858201830151818301840152908201906200039d565b83821115620003ce5760008385830101525b9695505050505050565b600080600060608486031215620003ee57600080fd5b83516001604060020a03808211156200040657600080fd5b620004148783880162000321565b945060208601519150808211156200042b57600080fd5b506200043a8682870162000321565b925050604084015190509250925092565b6002810460018216806200046057607f821691505b6020821081036200049a577f4e487b7100000000000000000000000000000000000000000000000000000000600052602260045260246000fd5b50919050565b601f821115620004ee576000818152602081206020601f86010481016020861015620004c95750805b6020601f860104820191505b81811015620004ea57828155600101620004d5565b5050505b505050565b81516001604060020a038111156200050f576200050f620002f2565b62000527816200052084546200044b565b84620004a0565b602080601f831160018114620005635760008415620005465750858301515b60028086026008870290910a6000190419821617865550620004ea565b600085815260208120601f198616915b82811015620005945788860151825594840194600190910190840162000573565b5085821015620005b557878501516008601f88160260020a60001904191681555b5050505050600202600101905550565b60805161199b620005e8600039600081816102aa0152610746015261199b6000f3fe608060405234801561001057600080fd5b50600436106101c0576000357c01000000000000000000000000000000000000000000000000000000009004806340c10f191161010b578063a217fddf116100b4578063cb4a4e681161008e578063cb4a4e68146103f3578063d53913931461041a578063d547741f14610441578063dd62ed3e1461045457600080fd5b8063a217fddf146103c5578063a457c2d7146103cd578063a9059cbb146103e057600080fd5b8063772906ac116100e5578063772906ac1461035057806391d148541461037757806395d89b41146103bd57600080fd5b806340c10f19146102f457806342966c681461030757806370a082311461031a57600080fd5b8063282c51f31161016d578063355274ea11610147578063355274ea146102a857806336568abe146102ce57806339509351146102e157600080fd5b8063282c51f31461025d5780632f2ff15d14610284578063313ce5671461029957600080fd5b806318160ddd1161019e57806318160ddd1461021557806323b872dd14610227578063248a9ca31461023a57600080fd5b806301ffc9a7146101c557806306fdde03146101ed578063095ea7b314610202575b600080fd5b6101d86101d33660046115e5565b61049a565b60405190151581526020015b60405180910390f35b6101f5610533565b6040516101e49190611653565b6101d86102103660046116af565b6105c5565b6002545b6040519081526020016101e4565b6101d86102353660046116d9565b6105dd565b610219610248366004611715565b60009081526005602052604090206001015490565b6102197f3c11d16cbaffd01df69ce1c404f6340ee057498f5f00246190ea54220576a84881565b61029761029236600461172e565b610601565b005b604051601281526020016101e4565b7f0000000000000000000000000000000000000000000000000000000000000000610219565b6102976102dc36600461172e565b61062b565b6101d86102ef3660046116af565b6106e3565b6102976103023660046116af565b61072f565b610297610315366004611715565b6107eb565b61021961032836600461175a565b73ffffffffffffffffffffffffffffffffffffffff1660009081526020819052604090205490565b6102197fbe6a453fdd049461aaa0af9a3f749ab4b8f74b99e5f20df66f381f07e8a3cf5b81565b6101d861038536600461172e565b600091825260056020908152604080842073ffffffffffffffffffffffffffffffffffffffff93909316845291905290205460ff1690565b6101f561080a565b610219600081565b6101d86103db3660046116af565b610819565b6101d86103ee3660046116af565b6108ea565b6102197f25e7ebc863fa4efd16243c82323b71f247c0cf439aca64c51b84a74afb73893681565b6102197f9f2df0fed2c77648de5860a4cc508cd0818c85b8b8a1ab4ceeef8d981c8956a681565b61029761044f36600461172e565b6108f8565b610219610462366004611775565b73ffffffffffffffffffffffffffffffffffffffff918216600090815260016020908152604080832093909416825291909152205490565b60007fffffffff0000000000000000000000000000000000000000000000000000000082167f7965db0b00000000000000000000000000000000000000000000000000000000148061052d57507f01ffc9a7000000000000000000000000000000000000000000000000000000007fffffffff000000000000000000000000000000000000000000000000000000008316145b92915050565b6060600380546105429061179f565b80601f016020809104026020016040519081016040528092919081815260200182805461056e9061179f565b80156105bb5780601f10610590576101008083540402835291602001916105bb565b820191906000526020600020905b81548152906001019060200180831161059e57829003601f168201915b5050505050905090565b6000336105d381858561091d565b5060019392505050565b6000336105eb858285610ad0565b6105f6858585610b89565b506001949350505050565b60008281526005602052604090206001015461061c81610e3c565b6106268383610e49565b505050565b73ffffffffffffffffffffffffffffffffffffffff811633146106d5576040517f08c379a000000000000000000000000000000000000000000000000000000000815260206004820152602f60248201527f416363657373436f6e74726f6c3a2063616e206f6e6c792072656e6f756e636560448201527f20726f6c657320666f722073656c66000000000000000000000000000000000060648201526084015b60405180910390fd5b6106df8282610f1f565b5050565b33600081815260016020908152604080832073ffffffffffffffffffffffffffffffffffffffff871684529091528120549091906105d3908290869061072a908790611821565b61091d565b6a4d494e5445525f524f4c4561074481610e3c565b7f00000000000000000000000000000000000000000000000000000000000000008261076f60025490565b6107799190611821565b11156107e1576040517f08c379a000000000000000000000000000000000000000000000000000000000815260206004820152601960248201527f45524332304361707065643a206361702065786365656465640000000000000060448201526064016106cc565b6106268383610fbc565b6a4255524e45525f524f4c4561080081610e3c565b6106df33836110dc565b6060600480546105429061179f565b33600081815260016020908152604080832073ffffffffffffffffffffffffffffffffffffffff87168452909152812054909190838110156108dd576040517f08c379a000000000000000000000000000000000000000000000000000000000815260206004820152602560248201527f45524332303a2064656372656173656420616c6c6f77616e63652062656c6f7760448201527f207a65726f00000000000000000000000000000000000000000000000000000060648201526084016106cc565b6105f6828686840361091d565b6000336105d3818585610b89565b60008281526005602052604090206001015461091381610e3c565b6106268383610f1f565b73ffffffffffffffffffffffffffffffffffffffff83166109bf576040517f08c379a0000000000000000000000000000000000000000000000000000000008152602060048201526024808201527f45524332303a20617070726f76652066726f6d20746865207a65726f2061646460448201527f726573730000000000000000000000000000000000000000000000000000000060648201526084016106cc565b73ffffffffffffffffffffffffffffffffffffffff8216610a62576040517f08c379a000000000000000000000000000000000000000000000000000000000815260206004820152602260248201527f45524332303a20617070726f766520746f20746865207a65726f20616464726560448201527f737300000000000000000000000000000000000000000000000000000000000060648201526084016106cc565b73ffffffffffffffffffffffffffffffffffffffff83811660008181526001602090815260408083209487168084529482529182902085905590518481527f8c5be1e5ebec7d5bd14f71427d1e84f3dd0314c0f7b2291e5b200ac8c7c3b925910160405180910390a3505050565b73ffffffffffffffffffffffffffffffffffffffff8381166000908152600160209081526040808320938616835292905220546000198114610b835781811015610b76576040517f08c379a000000000000000000000000000000000000000000000000000000000815260206004820152601d60248201527f45524332303a20696e73756666696369656e7420616c6c6f77616e636500000060448201526064016106cc565b610b83848484840361091d565b50505050565b73ffffffffffffffffffffffffffffffffffffffff8316610c2c576040517f08c379a000000000000000000000000000000000000000000000000000000000815260206004820152602560248201527f45524332303a207472616e736665722066726f6d20746865207a65726f20616460448201527f647265737300000000000000000000000000000000000000000000000000000060648201526084016106cc565b73ffffffffffffffffffffffffffffffffffffffff8216610ccf576040517f08c379a000000000000000000000000000000000000000000000000000000000815260206004820152602360248201527f45524332303a207472616e7366657220746f20746865207a65726f206164647260448201527f657373000000000000000000000000000000000000000000000000000000000060648201526084016106cc565b73ffffffffffffffffffffffffffffffffffffffff831660009081526020819052604090205481811015610d85576040517f08c379a000000000000000000000000000000000000000000000000000000000815260206004820152602660248201527f45524332303a207472616e7366657220616d6f756e742065786365656473206260448201527f616c616e6365000000000000000000000000000000000000000000000000000060648201526084016106cc565b73ffffffffffffffffffffffffffffffffffffffff808516600090815260208190526040808220858503905591851681529081208054849290610dc9908490611821565b925050819055508273ffffffffffffffffffffffffffffffffffffffff168473ffffffffffffffffffffffffffffffffffffffff167fddf252ad1be2c89b69c2b068fc378daa952ba7f163c4a11628f55a4df523b3ef84604051610e2f91815260200190565b60405180910390a3610b83565b610e4681336112c9565b50565b600082815260056020908152604080832073ffffffffffffffffffffffffffffffffffffffff8516845290915290205460ff166106df57600082815260056020908152604080832073ffffffffffffffffffffffffffffffffffffffff851684529091529020805460ff19166001179055610ec13390565b73ffffffffffffffffffffffffffffffffffffffff168173ffffffffffffffffffffffffffffffffffffffff16837f2f8788117e7eff1d82e926ec794901d17c78024a50270940304540a733656f0d60405160405180910390a45050565b600082815260056020908152604080832073ffffffffffffffffffffffffffffffffffffffff8516845290915290205460ff16156106df57600082815260056020908152604080832073ffffffffffffffffffffffffffffffffffffffff85168085529252808320805460ff1916905551339285917ff6391f5c32d9c69d2a47ea670b442974b53935d1edc7fd64eb21e047a839171b9190a45050565b73ffffffffffffffffffffffffffffffffffffffff8216611039576040517f08c379a000000000000000000000000000000000000000000000000000000000815260206004820152601f60248201527f45524332303a206d696e7420746f20746865207a65726f20616464726573730060448201526064016106cc565b806002600082825461104b9190611821565b909155505073ffffffffffffffffffffffffffffffffffffffff821660009081526020819052604081208054839290611085908490611821565b909155505060405181815273ffffffffffffffffffffffffffffffffffffffff8316906000907fddf252ad1be2c89b69c2b068fc378daa952ba7f163c4a11628f55a4df523b3ef9060200160405180910390a35050565b73ffffffffffffffffffffffffffffffffffffffff821661117f576040517f08c379a000000000000000000000000000000000000000000000000000000000815260206004820152602160248201527f45524332303a206275726e2066726f6d20746865207a65726f2061646472657360448201527f730000000000000000000000000000000000000000000000000000000000000060648201526084016106cc565b73ffffffffffffffffffffffffffffffffffffffff821660009081526020819052604090205481811015611235576040517f08c379a000000000000000000000000000000000000000000000000000000000815260206004820152602260248201527f45524332303a206275726e20616d6f756e7420657863656564732062616c616e60448201527f636500000000000000000000000000000000000000000000000000000000000060648201526084016106cc565b73ffffffffffffffffffffffffffffffffffffffff83166000908152602081905260408120838303905560028054849290611271908490611839565b909155505060405182815260009073ffffffffffffffffffffffffffffffffffffffff8516907fddf252ad1be2c89b69c2b068fc378daa952ba7f163c4a11628f55a4df523b3ef9060200160405180910390a3505050565b600082815260056020908152604080832073ffffffffffffffffffffffffffffffffffffffff8516845290915290205460ff166106df576113218173ffffffffffffffffffffffffffffffffffffffff16601461137d565b61132c83602061137d565b60405160200161133d929190611850565b60408051601f19818403018152908290527f08c379a00000000000000000000000000000000000000000000000000000000082526106cc91600401611653565b6060600061138c8360026118d1565b611397906002611821565b67ffffffffffffffff8111156113af576113af6118f0565b6040519080825280601f01601f1916602001820160405280156113d9576020820181803683370190505b5090507f3000000000000000000000000000000000000000000000000000000000000000816000815181106114105761141061191f565b60200101907effffffffffffffffffffffffffffffffffffffffffffffffffffffffffffff1916908160001a9053507f7800000000000000000000000000000000000000000000000000000000000000816001815181106114735761147361191f565b60200101907effffffffffffffffffffffffffffffffffffffffffffffffffffffffffffff1916908160001a90535060006114af8460026118d1565b6114ba906001611821565b90505b6001811115611575577f303132333435363738396162636465660000000000000000000000000000000085600f16601081106114fb576114fb61191f565b1a7f0100000000000000000000000000000000000000000000000000000000000000028282815181106115305761153061191f565b60200101907effffffffffffffffffffffffffffffffffffffffffffffffffffffffffffff1916908160001a90535060109094049361156e8161194e565b90506114bd565b5083156115de576040517f08c379a000000000000000000000000000000000000000000000000000000000815260206004820181905260248201527f537472696e67733a20686578206c656e67746820696e73756666696369656e7460448201526064016106cc565b9392505050565b6000602082840312156115f757600080fd5b81357fffffffff00000000000000000000000000000000000000000000000000000000811681146115de57600080fd5b60005b8381101561164257818101518382015260200161162a565b83811115610b835750506000910152565b6020815260008251806020840152611672816040850160208701611627565b601f01601f19169190910160400192915050565b803573ffffffffffffffffffffffffffffffffffffffff811681146116aa57600080fd5b919050565b600080604083850312156116c257600080fd5b6116cb83611686565b946020939093013593505050565b6000806000606084860312156116ee57600080fd5b6116f784611686565b925061170560208501611686565b9150604084013590509250925092565b60006020828403121561172757600080fd5b5035919050565b6000806040838503121561174157600080fd5b8235915061175160208401611686565b90509250929050565b60006020828403121561176c57600080fd5b6115de82611686565b6000806040838503121561178857600080fd5b61179183611686565b915061175160208401611686565b6002810460018216806117b357607f821691505b6020821081036117ec577f4e487b7100000000000000000000000000000000000000000000000000000000600052602260045260246000fd5b50919050565b7f4e487b7100000000000000000000000000000000000000000000000000000000600052601160045260246000fd5b60008219821115611834576118346117f2565b500190565b60008282101561184b5761184b6117f2565b500390565b7f416363657373436f6e74726f6c3a206163636f756e7420000000000000000000815260008351611888816017850160208801611627565b7f206973206d697373696e6720726f6c652000000000000000000000000000000060179184019182015283516118c5816028840160208801611627565b01602801949350505050565b60008160001904831182151516156118eb576118eb6117f2565b500290565b7f4e487b7100000000000000000000000000000000000000000000000000000000600052604160045260246000fd5b7f4e487b7100000000000000000000000000000000000000000000000000000000600052603260045260246000fd5b60008161195d5761195d6117f2565b50600019019056fea26469706673582212207132950139314e0338b2679ba29eeb007ae195316c7770137e460192dfb6385364736f6c634300080f0033",
  "immutableReferences": {
    "2411": [
      {
        "length": 32,
        "start": 682
      },
      {
        "length": 32,
        "start": 1862
      }
    ]
  },
  "source": "// SPDX-License-Identifier: BSD 3-Clause License\npragma solidity ^0.8.10;\n\nimport \"@openzeppelin/contracts/access/AccessControl.sol\";\nimport \"@openzeppelin/contracts/access/IAccessControl.sol\";\nimport \"@openzeppelin/contracts/token/ERC20/ERC20.sol\";\n\ncontract BLXToken is ERC20, AccessControl {\n    uint256 private immutable _cap;\n    //admin minter 0x00000000000000000000000000000041444d494e5f4d494e5445525f524f4c45\n    bytes32 public constant ADMIN_MINTER_ROLE = keccak256(\"ADMIN_MINTER_ROLE\");\n    //minter 0x0000000000000000000000000000000000000000004d494e5445525f524f4c45\n    bytes32 public constant MINTER_ROLE = keccak256(\"MINTER_ROLE\");\n    //admin burner 0x00000000000000000000000000000041444d494e5f4255524e45525f524f4c45\n    bytes32 public constant ADMIN_BURNER_ROLE = keccak256(\"ADMIN_BURNER_ROLE\");\n    //burner 0x0000000000000000000000000000000000000000004255524e45525f524f4c45\n    bytes32 public constant BURNER_ROLE = keccak256(\"BURNER_ROLE\");\n\n    constructor(\n        string memory name,\n        string memory symbol,\n        uint256 cap_\n    ) ERC20(name, symbol) {\n        require(cap_ > 0, \"ERC20Capped: cap is 0\");\n        _cap = cap_;\n        _setupRole(DEFAULT_ADMIN_ROLE, msg.sender);\n        _setRoleAdmin(\n            0x00000000000000000000000000000041444d494e5f4d494e5445525f524f4c45,\n            DEFAULT_ADMIN_ROLE\n        ); //deployer can set admin minter role\n        _setRoleAdmin(\n            0x00000000000000000000000000000041444d494e5f4255524e45525f524f4c45,\n            DEFAULT_ADMIN_ROLE\n        ); //deployer can set admin burner role\n        _setRoleAdmin(\n            0x0000000000000000000000000000000000000000004d494e5445525f524f4c45,\n            0x00000000000000000000000000000041444d494e5f4d494e5445525f524f4c45\n        ); // admin minter can set minter role\n        _setRoleAdmin(\n            0x0000000000000000000000000000000000000000004255524e45525f524f4c45,\n            0x00000000000000000000000000000041444d494e5f4255524e45525f524f4c45\n        ); // admin burner can set burner role\n    }\n\n    function mint(address to, uint256 amount)\n        public\n        onlyRole(\n            0x0000000000000000000000000000000000000000004d494e5445525f524f4c45\n        )\n    {\n        //only minter\n        require(\n            ERC20.totalSupply() + amount <= cap(),\n            \"ERC20Capped: cap exceeded\"\n        );\n        _mint(to, amount);\n    }\n\n    function burn(uint256 amount)\n        public\n        onlyRole(\n            0x0000000000000000000000000000000000000000004255524e45525f524f4c45\n        )\n    {\n        _burn(msg.sender, amount);\n    }\n\n    function cap() public view virtual returns (uint256) {\n        return _cap;\n    }\n}\n",
  "sourcePath": "/Users/artur/Desktop/Bloinx/bloinx-contracts/contracts/BLXToken.sol",
  "compiler": {
    "name": "solc",
    "version": "0.8.15+commit.e14f2714.Emscripten.clang"
  },
  "schemaVersion": "3.4.2",
  "updatedAt": "2022-07-03T21:31:07.202Z",
  "devdoc": {
    "kind": "dev",
    "methods": {
      "allowance(address,address)": {
        "details": "See {IERC20-allowance}."
      },
      "approve(address,uint256)": {
        "details": "See {IERC20-approve}. NOTE: If `amount` is the maximum `uint256`, the allowance is not updated on `transferFrom`. This is semantically equivalent to an infinite approval. Requirements: - `spender` cannot be the zero address."
      },
      "balanceOf(address)": {
        "details": "See {IERC20-balanceOf}."
      },
      "decimals()": {
        "details": "Returns the number of decimals used to get its user representation. For example, if `decimals` equals `2`, a balance of `505` tokens should be displayed to a user as `5.05` (`505 / 10 ** 2`). Tokens usually opt for a value of 18, imitating the relationship between Ether and Wei. This is the value {ERC20} uses, unless this function is overridden; NOTE: This information is only used for _display_ purposes: it in no way affects any of the arithmetic of the contract, including {IERC20-balanceOf} and {IERC20-transfer}."
      },
      "decreaseAllowance(address,uint256)": {
        "details": "Atomically decreases the allowance granted to `spender` by the caller. This is an alternative to {approve} that can be used as a mitigation for problems described in {IERC20-approve}. Emits an {Approval} event indicating the updated allowance. Requirements: - `spender` cannot be the zero address. - `spender` must have allowance for the caller of at least `subtractedValue`."
      },
      "getRoleAdmin(bytes32)": {
        "details": "Returns the admin role that controls `role`. See {grantRole} and {revokeRole}. To change a role's admin, use {_setRoleAdmin}."
      },
      "grantRole(bytes32,address)": {
        "details": "Grants `role` to `account`. If `account` had not been already granted `role`, emits a {RoleGranted} event. Requirements: - the caller must have ``role``'s admin role."
      },
      "hasRole(bytes32,address)": {
        "details": "Returns `true` if `account` has been granted `role`."
      },
      "increaseAllowance(address,uint256)": {
        "details": "Atomically increases the allowance granted to `spender` by the caller. This is an alternative to {approve} that can be used as a mitigation for problems described in {IERC20-approve}. Emits an {Approval} event indicating the updated allowance. Requirements: - `spender` cannot be the zero address."
      },
      "name()": {
        "details": "Returns the name of the token."
      },
      "renounceRole(bytes32,address)": {
        "details": "Revokes `role` from the calling account. Roles are often managed via {grantRole} and {revokeRole}: this function's purpose is to provide a mechanism for accounts to lose their privileges if they are compromised (such as when a trusted device is misplaced). If the calling account had been revoked `role`, emits a {RoleRevoked} event. Requirements: - the caller must be `account`."
      },
      "revokeRole(bytes32,address)": {
        "details": "Revokes `role` from `account`. If `account` had been granted `role`, emits a {RoleRevoked} event. Requirements: - the caller must have ``role``'s admin role."
      },
      "supportsInterface(bytes4)": {
        "details": "See {IERC165-supportsInterface}."
      },
      "symbol()": {
        "details": "Returns the symbol of the token, usually a shorter version of the name."
      },
      "totalSupply()": {
        "details": "See {IERC20-totalSupply}."
      },
      "transfer(address,uint256)": {
        "details": "See {IERC20-transfer}. Requirements: - `to` cannot be the zero address. - the caller must have a balance of at least `amount`."
      },
      "transferFrom(address,address,uint256)": {
        "details": "See {IERC20-transferFrom}. Emits an {Approval} event indicating the updated allowance. This is not required by the EIP. See the note at the beginning of {ERC20}. NOTE: Does not update the allowance if the current allowance is the maximum `uint256`. Requirements: - `from` and `to` cannot be the zero address. - `from` must have a balance of at least `amount`. - the caller must have allowance for ``from``'s tokens of at least `amount`."
      }
    },
    "version": 1
  },
  "userdoc": {
    "kind": "user",
    "methods": {},
    "version": 1
  }
}