{
  "contractName": "Main",
  "abi": [
    {
      "anonymous": false,
      "inputs": [
        {
          "indexed": false,
          "internalType": "contract SavingGroups",
          "name": "childTanda",
          "type": "address"
        }
      ],
      "name": "TandaCreated",
      "type": "event"
    },
    {
      "inputs": [
        {
          "internalType": "uint256",
          "name": "_garantia",
          "type": "uint256"
        },
        {
          "internalType": "uint256",
          "name": "_ahorro",
          "type": "uint256"
        },
        {
          "internalType": "uint256",
          "name": "_groupSize",
          "type": "uint256"
        },
        {
          "internalType": "uint256",
          "name": "_payTime",
          "type": "uint256"
        },
        {
          "internalType": "uint256",
          "name": "_withdrawTime",
          "type": "uint256"
        }
      ],
      "name": "createTanda",
      "outputs": [
        {
          "internalType": "address",
          "name": "",
          "type": "address"
        }
      ],
      "stateMutability": "payable",
      "type": "function"
    }
  ],
  "bytecode": "0x608060405234801561001057600080fd5b5061335b806100206000396000f3fe60806040526004361061001e5760003560e01c80636cbd1e8d14610023575b600080fd5b610077600480360360a081101561003957600080fd5b8101908080359060200190929190803590602001909291908035906020019092919080359060200190929190803590602001909291905050506100a3565b604051808273ffffffffffffffffffffffffffffffffffffffff16815260200191505060405180910390f35b6000808686863387876040516100b890610174565b808781526020018681526020018581526020018473ffffffffffffffffffffffffffffffffffffffff1681526020018381526020018281526020019650505050505050604051809103906000f080158015610117573d6000803e3d6000fd5b5090507fa990b0feed19232d29bd87b5ac745ba0982019f89d3c2739422d61327850be0081604051808273ffffffffffffffffffffffffffffffffffffffff16815260200191505060405180910390a18091505095945050505050565b6131a4806101828339019056fe608060405260006005556001600655600060085560006009556000600b5562093a80600e5562093a80600f553480156200003857600080fd5b50604051620031a4380380620031a483398181016040528101906200005e919062000300565b82600160006101000a81548173ffffffffffffffffffffffffffffffffffffffff021916908373ffffffffffffffffffffffffffffffffffffffff16021790555067016345785d8a0000860260028190555067016345785d8a00008502600381905550836004819055506000600a819055506000600d60006101000a81548160ff02191690836002811115620000f057fe5b02179055508367ffffffffffffffff811180156200010d57600080fd5b506040519080825280602002602001820160405280156200013d5781602001602082028036833780820191505090505b50600c90805190602001906200015592919062000206565b50600082116200019c576040517f08c379a0000000000000000000000000000000000000000000000000000000008152600401620001939062000466565b60405180910390fd5b60008111620001e2576040517f08c379a0000000000000000000000000000000000000000000000000000000008152600401620001d99062000488565b60405180910390fd5b816201518002600e81905550806201518002600f819055505050505050506200052d565b82805482825590600052602060002090810192821562000282579160200282015b82811115620002815782518260006101000a81548173ffffffffffffffffffffffffffffffffffffffff021916908373ffffffffffffffffffffffffffffffffffffffff1602179055509160200191906001019062000227565b5b50905062000291919062000295565b5090565b5b80821115620002ce57600081816101000a81549073ffffffffffffffffffffffffffffffffffffffff02191690555060010162000296565b5090565b600081519050620002e381620004f9565b92915050565b600081519050620002fa8162000513565b92915050565b60008060008060008060c087890312156200031a57600080fd5b60006200032a89828a01620002e9565b96505060206200033d89828a01620002e9565b95505060406200035089828a01620002e9565b94505060606200036389828a01620002d2565b93505060806200037689828a01620002e9565b92505060a06200038989828a01620002e9565b9150509295509295509295565b6000620003a5603083620004aa565b91507f456c207469656d706f2070617261207061676172206e6f20707565646520736560008301527f72206d656e6f72206120756e20646961000000000000000000000000000000006020830152604082019050919050565b60006200040d603d83620004aa565b91507f456c207469656d706f20706172612072657469726172206c6f7320666f6e646f60008301527f73206e6f20707565646520736572206d656e6f72206120756e206469610000006020830152604082019050919050565b60006020820190508181036000830152620004818162000396565b9050919050565b60006020820190508181036000830152620004a381620003fe565b9050919050565b600082825260208201905092915050565b6000620004c882620004cf565b9050919050565b600073ffffffffffffffffffffffffffffffffffffffff82169050919050565b6000819050919050565b6200050481620004bb565b81146200051057600080fd5b50565b6200051e81620004ef565b81146200052a57600080fd5b50565b612c67806200053d6000396000f3fe6080604052600436106101145760003560e01c80636f3d7e64116100a0578063b4bde59e11610064578063b4bde59e146102a2578063b6a26cab146102cd578063b842478b146102d7578063c040e6b814610302578063f851a4401461032d57610114565b80636f3d7e641461021957806371c5061c146102235780637dab75311461022d5780638b29990314610237578063a87430ba1461026257610114565b806330fceb6c116100e757806330fceb6c146101655780635394dda81461016f57806355e3f086146101ac57806363b635ea146101c357806364f9a17c146101ee57610114565b806311dc470314610119578063193e76c7146101355780631bbfae0e1461013f5780632d14252f1461015b575b600080fd5b610133600480360381019061012e919061235e565b610358565b005b61013d6106f7565b005b6101596004803603810190610154919061235e565b610a0b565b005b610163610d2b565b005b61016d611069565b005b34801561017b57600080fd5b506101966004803603810190610191919061235e565b611403565b6040516101a3919061289f565b60405180910390f35b3480156101b857600080fd5b506101c161143f565b005b3480156101cf57600080fd5b506101d8611578565b6040516101e59190612b35565b60405180910390f35b3480156101fa57600080fd5b5061020361157e565b6040516102109190612b35565b60405180910390f35b610221611584565b005b61022b6117ff565b005b610235611a33565b005b34801561024357600080fd5b5061024c611cc6565b6040516102599190612b35565b60405180910390f35b34801561026e57600080fd5b5061028960048036038101906102849190612335565b611ccc565b60405161029994939291906128d5565b60405180910390f35b3480156102ae57600080fd5b506102b7611d43565b6040516102c49190612b35565b60405180910390f35b6102d5611d49565b005b3480156102e357600080fd5b506102ec611f88565b6040516102f99190612b35565b60405180910390f35b34801561030e57600080fd5b50610317611f8e565b604051610324919061291a565b60405180910390f35b34801561033957600080fd5b50610342611fa1565b60405161034f91906128ba565b60405180910390f35b600160009054906101000a900473ffffffffffffffffffffffffffffffffffffffff168073ffffffffffffffffffffffffffffffffffffffff163373ffffffffffffffffffffffffffffffffffffffff16146103e9576040517f08c379a00000000000000000000000000000000000000000000000000000000081526004016103e090612975565b60405180910390fd5b60008060028111156103f757fe5b600d60009054906101000a900460ff16600281111561041257fe5b1461041c57600080fd5b600073ffffffffffffffffffffffffffffffffffffffff16600c600185038154811061044457fe5b9060005260206000200160009054906101000a900473ffffffffffffffffffffffffffffffffffffffff1673ffffffffffffffffffffffffffffffffffffffff1614156104c6576040517f08c379a00000000000000000000000000000000000000000000000000000000081526004016104bd906129d5565b60405180910390fd5b6000600c60018503815481106104d857fe5b9060005260206000200160009054906101000a900473ffffffffffffffffffffffffffffffffffffffff16905060008060008373ffffffffffffffffffffffffffffffffffffffff1673ffffffffffffffffffffffffffffffffffffffff16815260200190815260200160002060000160169054906101000a900460ff1660ff16141561061757600254600954036009819055506000808273ffffffffffffffffffffffffffffffffffffffff1673ffffffffffffffffffffffffffffffffffffffff16815260200190815260200160002060000160009054906101000a900473ffffffffffffffffffffffffffffffffffffffff1673ffffffffffffffffffffffffffffffffffffffff166108fc6002549081150290604051600060405180830381858888f19350505050158015610615573d6000803e3d6000fd5b505b6000600c600186038154811061062957fe5b9060005260206000200160006101000a81548173ffffffffffffffffffffffffffffffffffffffff021916908373ffffffffffffffffffffffffffffffffffffffff16021790555060056000815480929190600190039190505550600a600081548092919060019003919050555060008060008373ffffffffffffffffffffffffffffffffffffffff1673ffffffffffffffffffffffffffffffffffffffff16815260200190815260200160002060000160156101000a81548160ff02191690831515021790555050505050565b6000803373ffffffffffffffffffffffffffffffffffffffff1673ffffffffffffffffffffffffffffffffffffffff16815260200190815260200160002060000160159054906101000a900460ff16600115158115151461078d576040517f08c379a0000000000000000000000000000000000000000000000000000000008152600401610784906129f5565b60405180910390fd5b346002548082146107d3576040517f08c379a00000000000000000000000000000000000000000000000000000000081526004016107ca90612ab5565b60405180910390fd5b600c600160065403815481106107e557fe5b9060005260206000200160009054906101000a900473ffffffffffffffffffffffffffffffffffffffff168073ffffffffffffffffffffffffffffffffffffffff163373ffffffffffffffffffffffffffffffffffffffff16141561087f576040517f08c379a000000000000000000000000000000000000000000000000000000000815260040161087690612af5565b60405180910390fd5b600180600281111561088d57fe5b600d60009054906101000a900460ff1660028111156108a857fe5b146108b257600080fd5b600015156000803373ffffffffffffffffffffffffffffffffffffffff1673ffffffffffffffffffffffffffffffffffffffff16815260200190815260200160002060000160149054906101000a900460ff16151514610947576040517f08c379a000000000000000000000000000000000000000000000000000000000815260040161093e90612a55565b60405180910390fd5b600f5460016006540302600e5460065402600754010142111561099f576040517f08c379a000000000000000000000000000000000000000000000000000000000815260040161099690612ad5565b60405180910390fd5b346008540160088190555060016000803373ffffffffffffffffffffffffffffffffffffffff1673ffffffffffffffffffffffffffffffffffffffff16815260200190815260200160002060000160146101000a81548160ff0219169083151502179055505050505050565b34600254808214610a51576040517f08c379a0000000000000000000000000000000000000000000000000000000008152600401610a4890612ab5565b60405180910390fd5b6000806002811115610a5f57fe5b600d60009054906101000a900460ff166002811115610a7a57fe5b14610a8457600080fd5b60045460055410610aca576040517f08c379a0000000000000000000000000000000000000000000000000000000008152600401610ac190612a35565b60405180910390fd5b600073ffffffffffffffffffffffffffffffffffffffff16600c6001860381548110610af257fe5b9060005260206000200160009054906101000a900473ffffffffffffffffffffffffffffffffffffffff1673ffffffffffffffffffffffffffffffffffffffff1614610b73576040517f08c379a0000000000000000000000000000000000000000000000000000000008152600401610b6a90612995565b60405180910390fd5b6005600081548092919060010191905055503460095401600981905550600a6000815480929190600101919050555060405180608001604052803373ffffffffffffffffffffffffffffffffffffffff168152602001600015158152602001600115158152602001600060ff168152506000803373ffffffffffffffffffffffffffffffffffffffff1673ffffffffffffffffffffffffffffffffffffffff16815260200190815260200160002060008201518160000160006101000a81548173ffffffffffffffffffffffffffffffffffffffff021916908373ffffffffffffffffffffffffffffffffffffffff16021790555060208201518160000160146101000a81548160ff02191690831515021790555060408201518160000160156101000a81548160ff02191690831515021790555060608201518160000160166101000a81548160ff021916908360ff16021790555090505033600c6001860381548110610cdd57fe5b9060005260206000200160006101000a81548173ffffffffffffffffffffffffffffffffffffffff021916908373ffffffffffffffffffffffffffffffffffffffff16021790555050505050565b6002806002811115610d3957fe5b600d60009054906101000a900460ff166002811115610d5457fe5b14610d5e57600080fd5b600160009054906101000a900473ffffffffffffffffffffffffffffffffffffffff168073ffffffffffffffffffffffffffffffffffffffff163373ffffffffffffffffffffffffffffffffffffffff1614610def576040517f08c379a0000000000000000000000000000000000000000000000000000000008152600401610de690612975565b60405180910390fd5b600a5460095481610dfc57fe5b04600b8190555060005b6004548160ff161015611038576000600c8260ff1681548110610e2557fe5b9060005260206000200160009054906101000a900473ffffffffffffffffffffffffffffffffffffffff169050600a54600254026009541015610fd05760008060008373ffffffffffffffffffffffffffffffffffffffff1673ffffffffffffffffffffffffffffffffffffffff16815260200190815260200160002060000160169054906101000a900460ff1660ff161415610f74576000808273ffffffffffffffffffffffffffffffffffffffff1673ffffffffffffffffffffffffffffffffffffffff16815260200190815260200160002060000160009054906101000a900473ffffffffffffffffffffffffffffffffffffffff1673ffffffffffffffffffffffffffffffffffffffff166108fc600b549081150290604051600060405180830381858888f19350505050158015610f65573d6000803e3d6000fd5b50600b54600954036009819055505b60016000808373ffffffffffffffffffffffffffffffffffffffff1673ffffffffffffffffffffffffffffffffffffffff16815260200190815260200160002060000160166101000a81548160ff021916908360ff1602179055505b60008060008373ffffffffffffffffffffffffffffffffffffffff1673ffffffffffffffffffffffffffffffffffffffff16815260200190815260200160002060000160146101000a81548160ff021916908315150217905550508080600101915050610e06565b5060016006819055506000600d60006101000a81548160ff0219169083600281111561106057fe5b02179055505050565b6000803373ffffffffffffffffffffffffffffffffffffffff1673ffffffffffffffffffffffffffffffffffffffff16815260200190815260200160002060000160159054906101000a900460ff1660011515811515146110ff576040517f08c379a00000000000000000000000000000000000000000000000000000000081526004016110f6906129f5565b60405180910390fd5b600180600281111561110d57fe5b600d60009054906101000a900460ff16600281111561112857fe5b1461113257600080fd5b600c6001600654038154811061114457fe5b9060005260206000200160009054906101000a900473ffffffffffffffffffffffffffffffffffffffff168073ffffffffffffffffffffffffffffffffffffffff163373ffffffffffffffffffffffffffffffffffffffff16146111dd576040517f08c379a00000000000000000000000000000000000000000000000000000000081526004016111d490612b15565b60405180910390fd5b600f5460065402600e54600654026007540101421115611232576040517f08c379a000000000000000000000000000000000000000000000000000000000815260040161122990612a95565b60405180910390fd5b42600f5460016006540302600e54600654026007540101108015611260575060035460016004540302600854105b1561126e5761126d611fc7565b5b60035460016004540302600854146112bb576040517f08c379a00000000000000000000000000000000000000000000000000000000081526004016112b290612a15565b60405180910390fd5b6000600c600160065403815481106112cf57fe5b9060005260206000200160009054906101000a900473ffffffffffffffffffffffffffffffffffffffff1690506000808273ffffffffffffffffffffffffffffffffffffffff1673ffffffffffffffffffffffffffffffffffffffff16815260200190815260200160002060000160009054906101000a900473ffffffffffffffffffffffffffffffffffffffff1673ffffffffffffffffffffffffffffffffffffffff166108fc6008549081150290604051600060405180830381858888f193505050501580156113a5573d6000803e3d6000fd5b506000600881905550600454600654106113e2576002600d60006101000a81548160ff021916908360028111156113d857fe5b02179055506113eb565b6113ea612251565b5b60066000815480929190600101919050555050505050565b600c818154811061141057fe5b906000526020600020016000915054906101000a900473ffffffffffffffffffffffffffffffffffffffff1681565b600160009054906101000a900473ffffffffffffffffffffffffffffffffffffffff168073ffffffffffffffffffffffffffffffffffffffff163373ffffffffffffffffffffffffffffffffffffffff16146114d0576040517f08c379a00000000000000000000000000000000000000000000000000000000081526004016114c790612975565b60405180910390fd5b60008060028111156114de57fe5b600d60009054906101000a900460ff1660028111156114f957fe5b1461150357600080fd5b600454600a5414611549576040517f08c379a0000000000000000000000000000000000000000000000000000000008152600401611540906129b5565b60405180910390fd5b6001600d60006101000a81548160ff0219169083600281111561156857fe5b0217905550426007819055505050565b60045481565b60085481565b600160009054906101000a900473ffffffffffffffffffffffffffffffffffffffff168073ffffffffffffffffffffffffffffffffffffffff163373ffffffffffffffffffffffffffffffffffffffff1614611615576040517f08c379a000000000000000000000000000000000000000000000000000000000815260040161160c90612975565b60405180910390fd5b600180600281111561162357fe5b600d60009054906101000a900460ff16600281111561163e57fe5b1461164857600080fd5b42600f5460065402600e546006540260075401011061169c576040517f08c379a000000000000000000000000000000000000000000000000000000000815260040161169390612955565b60405180910390fd5b6003546001600454030260085410156116b8576116b7611fc7565b5b6000600c600160065403815481106116cc57fe5b9060005260206000200160009054906101000a900473ffffffffffffffffffffffffffffffffffffffff1690506000808273ffffffffffffffffffffffffffffffffffffffff1673ffffffffffffffffffffffffffffffffffffffff16815260200190815260200160002060000160009054906101000a900473ffffffffffffffffffffffffffffffffffffffff1673ffffffffffffffffffffffffffffffffffffffff166108fc6008549081150290604051600060405180830381858888f193505050501580156117a2573d6000803e3d6000fd5b506000600881905550600454600654106117df576002600d60006101000a81548160ff021916908360028111156117d557fe5b02179055506117e8565b6117e7612251565b5b600660008154809291906001019190505550505050565b600080600281111561180d57fe5b600d60009054906101000a900460ff16600281111561182857fe5b1461183257600080fd5b6000803373ffffffffffffffffffffffffffffffffffffffff1673ffffffffffffffffffffffffffffffffffffffff16815260200190815260200160002060000160159054906101000a900460ff1660011515811515146118c8576040517f08c379a00000000000000000000000000000000000000000000000000000000081526004016118bf906129f5565b60405180910390fd5b60008060003373ffffffffffffffffffffffffffffffffffffffff1673ffffffffffffffffffffffffffffffffffffffff16815260200190815260200160002060000160169054906101000a900460ff1660ff161161195c576040517f08c379a000000000000000000000000000000000000000000000000000000000815260040161195390612a75565b60405180910390fd5b60025434146119a0576040517f08c379a000000000000000000000000000000000000000000000000000000000815260040161199790612ab5565b60405180910390fd5b34600954016009819055506000803373ffffffffffffffffffffffffffffffffffffffff1673ffffffffffffffffffffffffffffffffffffffff168152602001908152602001600020600001601681819054906101000a900460ff16809291906001900391906101000a81548160ff021916908360ff16021790555050600a600081548092919060010191905055505050565b6000803373ffffffffffffffffffffffffffffffffffffffff1673ffffffffffffffffffffffffffffffffffffffff16815260200190815260200160002060000160159054906101000a900460ff166001151581151514611ac9576040517f08c379a0000000000000000000000000000000000000000000000000000000008152600401611ac0906129f5565b60405180910390fd5b34600254808214611b0f576040517f08c379a0000000000000000000000000000000000000000000000000000000008152600401611b0690612ab5565b60405180910390fd5b6001806002811115611b1d57fe5b600d60009054906101000a900460ff166002811115611b3857fe5b14611b4257600080fd5b60008060003373ffffffffffffffffffffffffffffffffffffffff1673ffffffffffffffffffffffffffffffffffffffff16815260200190815260200160002060000160169054906101000a900460ff1660ff1611611bd6576040517f08c379a0000000000000000000000000000000000000000000000000000000008152600401611bcd90612935565b60405180910390fd5b34600954016009819055506000803373ffffffffffffffffffffffffffffffffffffffff1673ffffffffffffffffffffffffffffffffffffffff168152602001908152602001600020600001601681819054906101000a900460ff16809291906001900391906101000a81548160ff021916908360ff1602179055505060008060003373ffffffffffffffffffffffffffffffffffffffff1673ffffffffffffffffffffffffffffffffffffffff16815260200190815260200160002060000160169054906101000a900460ff1660ff161415611cc057600a600081548092919060010191905055505b50505050565b60065481565b60006020528060005260406000206000915090508060000160009054906101000a900473ffffffffffffffffffffffffffffffffffffffff16908060000160149054906101000a900460ff16908060000160159054906101000a900460ff16908060000160169054906101000a900460ff16905084565b60095481565b6002806002811115611d5757fe5b600d60009054906101000a900460ff166002811115611d7257fe5b14611d7c57600080fd5b600160009054906101000a900473ffffffffffffffffffffffffffffffffffffffff168073ffffffffffffffffffffffffffffffffffffffff163373ffffffffffffffffffffffffffffffffffffffff1614611e0d576040517f08c379a0000000000000000000000000000000000000000000000000000000008152600401611e0490612975565b60405180910390fd5b600a5460095481611e1a57fe5b04600b8190555060005b6004548160ff161015611f83576000600c8260ff1681548110611e4357fe5b9060005260206000200160009054906101000a900473ffffffffffffffffffffffffffffffffffffffff16905060008060008373ffffffffffffffffffffffffffffffffffffffff1673ffffffffffffffffffffffffffffffffffffffff16815260200190815260200160002060000160169054906101000a900460ff1660ff161415611f75576000808273ffffffffffffffffffffffffffffffffffffffff1673ffffffffffffffffffffffffffffffffffffffff16815260200190815260200160002060000160009054906101000a900473ffffffffffffffffffffffffffffffffffffffff1673ffffffffffffffffffffffffffffffffffffffff166108fc600b549081150290604051600060405180830381858888f19350505050158015611f73573d6000803e3d6000fd5b505b508080600101915050611e24565b505050565b600a5481565b600d60009054906101000a900460ff1681565b600160009054906101000a900473ffffffffffffffffffffffffffffffffffffffff1681565b60005b6004548160ff16101561224e576000600c8260ff1681548110611fe957fe5b9060005260206000200160009054906101000a900473ffffffffffffffffffffffffffffffffffffffff169050600015156000808373ffffffffffffffffffffffffffffffffffffffff1673ffffffffffffffffffffffffffffffffffffffff16815260200190815260200160002060000160149054906101000a900460ff16151514801561214157506000808273ffffffffffffffffffffffffffffffffffffffff1673ffffffffffffffffffffffffffffffffffffffff16815260200190815260200160002060000160009054906101000a900473ffffffffffffffffffffffffffffffffffffffff1673ffffffffffffffffffffffffffffffffffffffff16600c600160065403815481106120fd57fe5b9060005260206000200160009054906101000a900473ffffffffffffffffffffffffffffffffffffffff1673ffffffffffffffffffffffffffffffffffffffff1614155b1561224057600354600954036009819055506003546008540160088190555060008060008373ffffffffffffffffffffffffffffffffffffffff1673ffffffffffffffffffffffffffffffffffffffff16815260200190815260200160002060000160169054906101000a900460ff1660ff1614156121ce57600a60008154809291906001900391905055505b6000808273ffffffffffffffffffffffffffffffffffffffff1673ffffffffffffffffffffffffffffffffffffffff168152602001908152602001600020600001601681819054906101000a900460ff168092919060010191906101000a81548160ff021916908360ff160217905550505b508080600101915050611fca565b50565b60005b6004548160ff161015612308576000600c8260ff168154811061227357fe5b9060005260206000200160009054906101000a900473ffffffffffffffffffffffffffffffffffffffff16905060008060008373ffffffffffffffffffffffffffffffffffffffff1673ffffffffffffffffffffffffffffffffffffffff16815260200190815260200160002060000160146101000a81548160ff021916908315150217905550508080600101915050612254565b50565b60008135905061231a81612c03565b92915050565b60008135905061232f81612c1a565b92915050565b60006020828403121561234757600080fd5b60006123558482850161230b565b91505092915050565b60006020828403121561237057600080fd5b600061237e84828501612320565b91505092915050565b61239081612b73565b82525050565b61239f81612b61565b82525050565b6123ae81612b85565b82525050565b6123bd81612bdb565b82525050565b60006123d0601b83612b50565b91507f457374617320616c20636f727269656e746520656e207061676f7300000000006000830152602082019050919050565b6000612410602583612b50565b91507f456c207573756172696f20656e207475726e6f2061756e20707565646520726560008301527f74697261720000000000000000000000000000000000000000000000000000006020830152604082019050919050565b6000612476602583612b50565b91507f536f6c6f20656c2061646d696e207075656465206c6c616d6172206c6120667560008301527f6e63696f6e0000000000000000000000000000000000000000000000000000006020830152604082019050919050565b60006124dc601a83612b50565b91507f45737465206c756761722079612065737461206f63757061646f0000000000006000830152602082019050919050565b600061251c603e83612b50565b91507f41756e20686179206c7567617265732073696e20617369676e6172206f20616c60008301527f677569656e206e6f2068612070616761646f206c6120676172616e74696100006020830152604082019050919050565b6000612582601583612b50565b91507f45737465207475726e6f206573746120766163696f00000000000000000000006000830152602082019050919050565b60006125c2601583612b50565b91507f5573756172696f206e6f207265676973747261646f00000000000000000000006000830152602082019050919050565b6000612602602b83612b50565b91507f4573706572612061207175652074656e67616d6f7320656c206d6f6e746f206460008301527f652074752061686f72726f0000000000000000000000000000000000000000006020830152604082019050919050565b6000612668601683612b50565b91507f456c20677275706f206573746120636f6d706c65746f000000000000000000006000830152602082019050919050565b60006126a8601783612b50565b91507f59612061686f7272617374652065737465207475726e6f0000000000000000006000830152602082019050919050565b60006126e8601e83612b50565b91507f59612074656e656d6f732072656769737261646f2074752043617368496e00006000830152602082019050919050565b6000612728601b83612b50565b91507f5465726d696e6f20656c207469656d706f2064652072657469726f00000000006000830152602082019050919050565b6000612768601483612b50565b91507f466f6e646f7320496e737566696369656e7465730000000000000000000000006000830152602082019050919050565b60006127a8600b83612b50565b91507f5061676f2074617264696f0000000000000000000000000000000000000000006000830152602082019050919050565b60006127e8601a83612b50565b91507f456e2065737465207475726e6f206e6f206465706f73697461730000000000006000830152602082019050919050565b6000612828602383612b50565b91507f44656265732065737065726172207475207475726e6f2070617261207265746960008301527f72617200000000000000000000000000000000000000000000000000000000006020830152604082019050919050565b61288a81612bc4565b82525050565b61289981612bce565b82525050565b60006020820190506128b46000830184612396565b92915050565b60006020820190506128cf6000830184612387565b92915050565b60006080820190506128ea6000830187612387565b6128f760208301866123a5565b61290460408301856123a5565b6129116060830184612890565b95945050505050565b600060208201905061292f60008301846123b4565b92915050565b6000602082019050818103600083015261294e816123c3565b9050919050565b6000602082019050818103600083015261296e81612403565b9050919050565b6000602082019050818103600083015261298e81612469565b9050919050565b600060208201905081810360008301526129ae816124cf565b9050919050565b600060208201905081810360008301526129ce8161250f565b9050919050565b600060208201905081810360008301526129ee81612575565b9050919050565b60006020820190508181036000830152612a0e816125b5565b9050919050565b60006020820190508181036000830152612a2e816125f5565b9050919050565b60006020820190508181036000830152612a4e8161265b565b9050919050565b60006020820190508181036000830152612a6e8161269b565b9050919050565b60006020820190508181036000830152612a8e816126db565b9050919050565b60006020820190508181036000830152612aae8161271b565b9050919050565b60006020820190508181036000830152612ace8161275b565b9050919050565b60006020820190508181036000830152612aee8161279b565b9050919050565b60006020820190508181036000830152612b0e816127db565b9050919050565b60006020820190508181036000830152612b2e8161281b565b9050919050565b6000602082019050612b4a6000830184612881565b92915050565b600082825260208201905092915050565b6000612b6c82612ba4565b9050919050565b6000612b7e82612ba4565b9050919050565b60008115159050919050565b6000819050612b9f82612bef565b919050565b600073ffffffffffffffffffffffffffffffffffffffff82169050919050565b6000819050919050565b600060ff82169050919050565b6000612be682612b91565b9050919050565bfe5b60038110612c0057612bff612bed565b5b50565b612c0c81612b61565b8114612c1757600080fd5b50565b612c2381612bc4565b8114612c2e57600080fd5b5056fea264697066735822122005a8cf835c7caa3ec41a9cdb5edf95da45d3174e4005da883b1448166abdc04064736f6c63430007020033a26469706673582212203d6c5c030090dcc82df727de57364073818cc1fc7d66dadb80c48e72f0bc536764736f6c63430007020033",
  "immutableReferences": {},
  "source": "// SPDX-License-Identifier: MIT\npragma solidity ^0.7.2;\n\nimport \"./SavingGroups.sol\";\n\ncontract Main{\n    event TandaCreated(SavingGroups childTanda);\n\n    function createTanda(uint256 _garantia, uint256 _ahorro, uint256 _groupSize, uint256 _payTime, uint256 _withdrawTime) external payable returns(address) {\n\n        SavingGroups newTanda = new SavingGroups(_garantia, _ahorro, _groupSize, msg.sender, _payTime, _withdrawTime);\n        emit TandaCreated(newTanda);\n        return address(newTanda);\n    }\n}\n",
  "sourcePath": "/Users/federico/Desktop/BloinxWeb/bloinxContracts/contracts/Main.sol",
  "compiler": {
    "name": "solc",
    "version": "0.7.2+commit.51b20bc0.Emscripten.clang"
  },
  "schemaVersion": "3.3.1",
  "updatedAt": "2021-06-22T03:02:46.385Z",
  "devdoc": {
    "kind": "dev",
    "methods": {},
    "version": 1
  },
  "userdoc": {
    "kind": "user",
    "methods": {},
    "version": 1
  }
}