{
  "contractName": "Main",
  "abi": [
    {
      "anonymous": false,
      "inputs": [
        {
          "indexed": true,
          "internalType": "address",
          "name": "previousOwner",
          "type": "address"
        },
        {
          "indexed": true,
          "internalType": "address",
          "name": "newOwner",
          "type": "address"
        }
      ],
      "name": "OwnershipTransferred",
      "type": "event"
    },
    {
      "anonymous": false,
      "inputs": [
        {
          "indexed": false,
          "internalType": "contract SavingGroups",
          "name": "childRound",
          "type": "address"
        }
      ],
      "name": "RoundCreated",
      "type": "event"
    },
    {
      "inputs": [],
      "name": "devAddress",
      "outputs": [
        {
          "internalType": "address",
          "name": "",
          "type": "address"
        }
      ],
      "stateMutability": "view",
      "type": "function",
      "constant": true
    },
    {
      "inputs": [],
      "name": "owner",
      "outputs": [
        {
          "internalType": "address",
          "name": "",
          "type": "address"
        }
      ],
      "stateMutability": "view",
      "type": "function",
      "constant": true
    },
    {
      "inputs": [],
      "name": "renounceOwnership",
      "outputs": [],
      "stateMutability": "nonpayable",
      "type": "function"
    },
    {
      "inputs": [
        {
          "internalType": "address",
          "name": "newOwner",
          "type": "address"
        }
      ],
      "name": "transferOwnership",
      "outputs": [],
      "stateMutability": "nonpayable",
      "type": "function"
    },
    {
      "inputs": [
        {
          "internalType": "uint256",
          "name": "_warranty",
          "type": "uint256"
        },
        {
          "internalType": "uint256",
          "name": "_saving",
          "type": "uint256"
        },
        {
          "internalType": "uint256",
          "name": "_groupSize",
          "type": "uint256"
        },
        {
          "internalType": "uint256",
          "name": "_adminFee",
          "type": "uint256"
        },
        {
          "internalType": "uint256",
          "name": "_payTime",
          "type": "uint256"
        },
        {
          "internalType": "contract IERC20",
          "name": "_token",
          "type": "address"
        }
      ],
      "name": "createRound",
      "outputs": [
        {
          "internalType": "address",
          "name": "",
          "type": "address"
        }
      ],
      "stateMutability": "payable",
      "type": "function",
      "payable": true
    },
    {
      "inputs": [
        {
          "internalType": "address",
          "name": "_devAddress",
          "type": "address"
        }
      ],
      "name": "setDevAddress",
      "outputs": [],
      "stateMutability": "nonpayable",
      "type": "function"
    }
  ],
  "bytecode": "0x608060405260018054600160a060020a031916734bfaf8ff960622b702e653c18b3bf747abab436817905534801561003657600080fd5b5061005961004b64010000000061005e810204565b640100000000610062810204565b6100b2565b3390565b60008054600160a060020a03838116600160a060020a0319831681178455604051919092169283917f8be0079c531659141344cd1fd0a4f28419497f9722a3daafe3b4186f6b6457e09190a35050565b613631806100c16000396000f3fe6080604052600436106200008a576000357c010000000000000000000000000000000000000000000000000000000090048063d0d41fe11162000065578063d0d41fe1146200012e578063e8fc59d01462000153578063f2fde38b146200016a57600080fd5b80633ad10ef6146200008f578063715018a614620000e75780638da5cb5b1462000101575b600080fd5b3480156200009c57600080fd5b50600154620000be9073ffffffffffffffffffffffffffffffffffffffff1681565b60405173ffffffffffffffffffffffffffffffffffffffff909116815260200160405180910390f35b348015620000f457600080fd5b50620000ff6200018f565b005b3480156200010e57600080fd5b5060005473ffffffffffffffffffffffffffffffffffffffff16620000be565b3480156200013b57600080fd5b50620000ff6200014d366004620005c9565b62000224565b620000be62000164366004620005f0565b620002ee565b3480156200017757600080fd5b50620000ff62000189366004620005c9565b620003ed565b60005473ffffffffffffffffffffffffffffffffffffffff16331462000216576040517f08c379a000000000000000000000000000000000000000000000000000000000815260206004820181905260248201527f4f776e61626c653a2063616c6c6572206973206e6f7420746865206f776e657260448201526064015b60405180910390fd5b62000222600062000523565b565b60005473ffffffffffffffffffffffffffffffffffffffff163314620002a7576040517f08c379a000000000000000000000000000000000000000000000000000000000815260206004820181905260248201527f4f776e61626c653a2063616c6c6572206973206e6f7420746865206f776e657260448201526064016200020d565b600180547fffffffffffffffffffffffff00000000000000000000000000000000000000001673ffffffffffffffffffffffffffffffffffffffff92909216919091179055565b60008087878733888888600160009054906101000a900473ffffffffffffffffffffffffffffffffffffffff16604051620003299062000598565b9788526020880196909652604087019490945273ffffffffffffffffffffffffffffffffffffffff9283166060870152608086019190915260a085015290811660c08401521660e082015261010001604051809103906000f08015801562000395573d6000803e3d6000fd5b5060405173ffffffffffffffffffffffffffffffffffffffff821681529091507ffdebb0c30fbd3c4fe101775e6bf17ea692258188ce7edb5666366f58f1529ffc9060200160405180910390a1979650505050505050565b60005473ffffffffffffffffffffffffffffffffffffffff16331462000470576040517f08c379a000000000000000000000000000000000000000000000000000000000815260206004820181905260248201527f4f776e61626c653a2063616c6c6572206973206e6f7420746865206f776e657260448201526064016200020d565b73ffffffffffffffffffffffffffffffffffffffff811662000515576040517f08c379a000000000000000000000000000000000000000000000000000000000815260206004820152602660248201527f4f776e61626c653a206e6577206f776e657220697320746865207a65726f206160448201527f646472657373000000000000000000000000000000000000000000000000000060648201526084016200020d565b620005208162000523565b50565b6000805473ffffffffffffffffffffffffffffffffffffffff8381167fffffffffffffffffffffffff0000000000000000000000000000000000000000831681178455604051919092169283917f8be0079c531659141344cd1fd0a4f28419497f9722a3daafe3b4186f6b6457e09190a35050565b612fb3806200064983390190565b73ffffffffffffffffffffffffffffffffffffffff811681146200052057600080fd5b600060208284031215620005dc57600080fd5b8135620005e981620005a6565b9392505050565b60008060008060008060c087890312156200060a57600080fd5b863595506020870135945060408701359350606087013592506080870135915060a08701356200063a81620005a6565b80915050929550929550929556fe6080604052600060078190556008805460ff19166001179055600b819055600c805461ff0019169055600d819055600e553480156200003d57600080fd5b5060405162002fb338038062002fb383398101604081905262000060916200040a565b600f8054600160a060020a031916600160a060020a0384811691909117909155851662000114576040517f08c379a000000000000000000000000000000000000000000000000000000000815260206004820152603060248201527f4c6120646972656363696f6e2064656c2061646d696e6973747261646f72206e60448201527f6f20707565646520736572206365726f0000000000000000000000000000000060648201526084015b60405180910390fd5b600186118015620001265750600a8611155b620001b4576040517f08c379a000000000000000000000000000000000000000000000000000000000815260206004820152603e60248201527f456c2074616d616e696f2064656c20677275706f206465626520736572206d6160448201527f796f72206120756e6f2079206d656e6f72206f20696775616c2061203130000060648201526084016200010b565b6064841115620001c357600080fd5b60018054600160a060020a031916600160a060020a0387161790556005849055620001f788670de0b6b3a764000062000490565b6002556200020e87670de0b6b3a764000062000490565b600355600486905560068054600160a060020a031916600160a060020a038316179055600c805460ff191690558567ffffffffffffffff811115620002575762000257620004d7565b60405190808252806020026020018201604052801562000281578160200160208202803683370190505b5080516200029891600a9160209091019062000370565b50600083116200032b576040517f08c379a000000000000000000000000000000000000000000000000000000000815260206004820152603060248201527f456c207469656d706f2070617261207061676172206e6f20707565646520736560448201527f72206d656e6f72206120756e206469610000000000000000000000000000000060648201526084016200010b565b6200033a836201518062000490565b600d556003546127109062000352906101f462000490565b6200035e919062000506565b600e5550620005429650505050505050565b828054828255906000526020600020908101928215620003c8579160200282015b82811115620003c85782518254600160a060020a031916600160a060020a0390911617825560209092019160019091019062000391565b50620003d6929150620003da565b5090565b5b80821115620003d65760008155600101620003db565b600160a060020a03811681146200040757600080fd5b50565b600080600080600080600080610100898b0312156200042857600080fd5b88519750602089015196506040890151955060608901516200044a81620003f1565b809550506080890151935060a0890151925060c08901516200046c81620003f1565b60e08a01519092506200047f81620003f1565b809150509295985092959890939650565b6000816000190483118215151615620004d2577f4e487b7100000000000000000000000000000000000000000000000000000000600052601160045260246000fd5b500290565b7f4e487b7100000000000000000000000000000000000000000000000000000000600052604160045260246000fd5b6000826200053d577f4e487b7100000000000000000000000000000000000000000000000000000000600052601260045260246000fd5b500490565b612a6180620005526000396000f3fe608060405234801561001057600080fd5b5060043610610228576000357c010000000000000000000000000000000000000000000000000000000090048063743c81ab11610147578063a0be06f9116100da578063c040e6b8116100a9578063db2e21bc1161008e578063db2e21bc146104f7578063e8f49631146104ff578063f851a4401461051257600080fd5b8063c040e6b8146104ca578063c949cb83146104e457600080fd5b8063a0be06f9146103d5578063a87430ba146103de578063b4501f39146104b9578063b4bde59e146104c157600080fd5b806385f0f3781161011657806385f0f378146103805780638930361d146103a25780638b299903146103b5578063a0a8427e146103c257600080fd5b8063743c81ab1461035d578063749aa2d9146103665780637826e78f1461036e57806378e979251461037757600080fd5b80633ad10ef6116101bf5780635394dda81161018e5780635394dda81461032657806355e3f086146103395780635b6397e11461034157806363b635ea1461035457600080fd5b80633ad10ef6146102da5780634210a8d1146102ed578063466afa0d14610300578063504fc51d1461031357600080fd5b80631fccf672116101fb5780631fccf672146102845780632055baf4146102af5780632d50e80d146102c957806330fceb6c146102d257600080fd5b806302b8c8cd1461022d57806303ee306114610242578063086a29e7146102685780631e5806151461027b575b600080fd5b61024061023b366004612776565b610525565b005b610255610250366004612776565b61099c565b6040519081526020015b60405180910390f35b610240610276366004612776565b6109ea565b61025560025481565b600f5461029790600160a060020a031681565b604051600160a060020a03909116815260200161025f565b6102b7610dfe565b60405160ff909116815260200161025f565b610255600d5481565b610240610ec4565b60065461029790600160a060020a031681565b6102556102fb366004612776565b611190565b6102b761030e366004612776565b6111de565b6102556103213660046127a0565b61122f565b6102976103343660046127c9565b6112ba565b6102406112e4565b61025561034f366004612776565b611472565b61025560045481565b61025560035481565b6102406114c0565b610255600e5481565b61025560095481565b600c5461039290610100900460ff1681565b604051901515815260200161025f565b6103926103b0366004612776565b61190d565b6008546102b79060ff1681565b6102556103d0366004612776565b61195e565b61025560055481565b6104576103ec3660046127a0565b600060208190529081526040902080546001820154600283015460038401546004850154600586015460068701546007880154600890980154600160a060020a0388169860ff740100000000000000000000000000000000000000009099048916989384169316908a565b60408051600160a060020a03909b168b5260ff998a1660208c01528a01979097526060890195909552608088019390935260a08701919091529390931660c085015260e08401929092529015156101008301526101208201526101400161025f565b6102556119ac565b610255600b5481565b600c546104d79060ff1681565b60405161025f9190612811565b6102406104f23660046127c9565b611a0d565b610240611e9e565b61025561050d366004612776565b61205b565b60015461029790600160a060020a031681565b600080600c5460ff16600381111561053f5761053f6127e2565b146105bf57604051600080516020612a0c833981519152815260206004820152602960248201527f537461676520696e636f72726563746f207061726120656a656375746172206c60448201527f612066756e63696f6e000000000000000000000000000000000000000000000060648201526084015b60405180910390fd5b3360009081526020819052604090206007015460ff161561065057604051600080516020612a0c833981519152815260206004820152602160248201527f5961206573746173207265676973747261646f20656e206573746120726f6e6460448201527f610000000000000000000000000000000000000000000000000000000000000060648201526084016105b6565b600454600754106106ab57604051600080516020612a0c833981519152815260206004820152601660248201527f456c20677275706f206573746120636f6d706c65746f0000000000000000000060448201526064016105b6565b6000600a6106ba600185612881565b60ff16815481106106cd576106cd6128a4565b600091825260209091200154600160a060020a03161461073757604051600080516020612a0c833981519152815260206004820152601a60248201527f45737465206c756761722079612065737461206f63757061646f00000000000060448201526064016105b6565b60078054906000610747836128d3565b909155505060408051610140810182523380825260ff8086166020808501918252600280548688019081526000606088018181526080890182815260a08a0183815260c08b0184815260e08c0185815260016101008e018181526101208f018881529d8852998790529d86209c518d549a518c1674010000000000000000000000000000000000000000027fffffffffffffffffffffff000000000000000000000000000000000000000000909b16600160a060020a039190911617999099178c5594519b8b019b909b5590518985015551600389015597516004880155516005870180549190951660ff19918216179094559151600686015551600785018054911515919093161790915590516008909201919091555461086a9030906120a9565b6040519091508115159033907f4480e10f92b8eb473ee375c618f546a95bb106e9ac08855a51628a55f2f043e290600090a3600654600e546000916108ba91600160a060020a03909116906120a9565b6040519091508115159033907ffcc9de8628256fd80a029af5f9f600bdfc8ec089f618a40d63f7063060d227a590600090a3600254600b600082825461090091906128ec565b90915550339050600a610914600187612881565b60ff1681548110610927576109276128a4565b6000918252602082200180547fffffffffffffffffffffffff000000000000000000000000000000000000000016600160a060020a03939093169290921790915560405160ff86169133917f976bbd2f6af68a7eee78f5300f40d037367b165e65f157e6af4ae073b2befd499190a350505050565b600080600a6109ac600185612881565b60ff16815481106109bf576109bf6128a4565b6000918252602080832090910154600160a060020a0316825281905260409020600601549392505050565b600080600c5460ff166003811115610a0457610a046127e2565b14610a7f57604051600080516020612a0c833981519152815260206004820152602960248201527f537461676520696e636f72726563746f207061726120656a656375746172206c60448201527f612066756e63696f6e000000000000000000000000000000000000000000000060648201526084016105b6565b600154600160a060020a0316331480610acb5750600a610aa0600184612881565b60ff1681548110610ab357610ab36128a4565b600091825260209091200154600160a060020a031633145b610b4557604051600080516020612a0c833981519152815260206004820152603360248201527f4e6f207469656e6573206175746f72697a6163696f6e207061726120656c696d60448201527f696e617220612065737465207573756172696f0000000000000000000000000060648201526084016105b6565b6000600a610b54600185612881565b60ff1681548110610b6757610b676128a4565b600091825260209091200154600160a060020a031603610bd157604051600080516020612a0c833981519152815260206004820152601560248201527f45737465207475726e6f206573746120766163696f000000000000000000000060448201526064016105b6565b600a610bde600184612881565b60ff1681548110610bf157610bf16128a4565b600091825260209091200154600154600160a060020a03918216911603610c8857604051600080516020612a0c833981519152815260206004820152602f60248201527f4e6f2070756564657320656c696d696e617220616c2061646d696e697374726160448201527f646f72206465206c6120726f6e6461000000000000000000000000000000000060648201526084016105b6565b6000600a610c97600185612881565b60ff1681548110610caa57610caa6128a4565b6000918252602080832090910154600160a060020a03168083529082905260409091206001015490915015610d3257600160a060020a03811660009081526020819052604081206001018054919055600b54610d07908290612904565b600b55600160a060020a03808316600090815260208190526040902054610d2f91168261214c565b50505b6000600a610d41600186612881565b60ff1681548110610d5457610d546128a4565b6000918252602082200180547fffffffffffffffffffffffff000000000000000000000000000000000000000016600160a060020a0393909316929092179091556007805491610da38361291b565b9091555050600160a060020a038116600081815260208190526040808220600701805460ff191690555160ff8616929133917fadfd51f69b0ad07e1815c54508f0be97ccfacda3e7553aef7b19e0cfc374be2b9190a4505050565b6000600180600c5460ff166003811115610e1a57610e1a6127e2565b14610e9557604051600080516020612a0c833981519152815260206004820152602960248201527f537461676520696e636f72726563746f207061726120656a656375746172206c60448201527f612066756e63696f6e000000000000000000000000000000000000000000000060648201526084016105b6565b6000600d5460095442610ea89190612904565b610eb29190612932565b610ebd90600161296d565b9250505090565b3360009081526020819052604090206007015460ff16801515600114610f3457604051600080516020612a0c833981519152815260206004820152601560248201527f5573756172696f206e6f207265676973747261646f000000000000000000000060448201526064016105b6565b600180600c5460ff166003811115610f4e57610f4e6127e2565b14610fc957604051600080516020612a0c833981519152815260206004820152602960248201527f537461676520696e636f72726563746f207061726120656a656375746172206c60448201527f612066756e63696f6e000000000000000000000000000000000000000000000060648201526084016105b6565b3360009081526020819052604081205474010000000000000000000000000000000000000000900460ff1690610ffd610dfe565b90508160ff168160ff161161105c57604051600080516020612a0c833981519152815260206004820152601a60248201527f4573706572612061206c6c656761722061207475207475726e6f00000000000060448201526064016105b6565b336000908152602081905260409020600801541561107957600080fd5b60085460ff80831691161015611098576008546110989060ff166121a2565b33600081815260208190526040902060030154906110b59061122f565b11156110c4576110c433612645565b3360009081526020819052604081206002810180549083905560089091018054919283926110f39084906128ec565b90915550503360009081526020819052604081205461111b90600160a060020a03168361214c565b33600090815260208190526040808220549051929350831515928592600160a060020a03909216917fd62c1f6f3c4444a52e394381f609a885a10cc992ad4b59f0815f22db3cc5923291a4600c5460009250610100900460ff161561118857600c805460ff191660031790555b505050505050565b600080600a6111a0600185612881565b60ff16815481106111b3576111b36128a4565b6000918252602080832090910154600160a060020a0316825281905260409020600301549392505050565b600080600a6111ee600185612881565b60ff1681548110611201576112016128a4565b6000918252602080832090910154600160a060020a03168252819052604090206005015460ff169392505050565b600854600160a060020a0382166000908152602081905260408120549091829160ff918216740100000000000000000000000000000000000000009091049091161161129e576008546112879060019060ff16612881565b60ff166003546112979190612992565b90506112b4565b6008546003546112b19160ff1690612992565b90505b92915050565b600a81815481106112ca57600080fd5b600091825260209091200154600160a060020a0316905081565b600154600160a060020a031633811461136d57604051600080516020612a0c833981519152815260206004820152602560248201527f536f6c6f20656c2061646d696e207075656465206c6c616d6172206c6120667560448201527f6e63696f6e00000000000000000000000000000000000000000000000000000060648201526084016105b6565b600080600c5460ff166003811115611387576113876127e2565b1461140257604051600080516020612a0c833981519152815260206004820152602960248201527f537461676520696e636f72726563746f207061726120656a656375746172206c60448201527f612066756e63696f6e000000000000000000000000000000000000000000000060648201526084016105b6565b6004546007541461145d57604051600080516020612a0c833981519152815260206004820152601b60248201527f41756e20686179206c7567617265732073696e20617369676e6172000000000060448201526064016105b6565b5050600c805460ff1916600117905542600955565b600080600a611482600185612881565b60ff1681548110611495576114956128a4565b6000918252602080832090910154600160a060020a0316825281905260409020600101549392505050565b600180600c5460ff1660038111156114da576114da6127e2565b1461155557604051600080516020612a0c833981519152815260206004820152602960248201527f537461676520696e636f72726563746f207061726120656a656375746172206c60448201527f612066756e63696f6e000000000000000000000000000000000000000000000060648201526084016105b6565b600454611560610dfe565b60ff16116115b857604051600080516020612a0c833981519152815260206004820152601860248201527f4e6f206861207465726d696e61646f206c6120726f6e6461000000000000000060448201526064016105b6565b60085460ff165b6004548160ff16116115e6576115d4816121a2565b806115de816129b1565b9150506115bf565b506000805b6004548160ff16101561168b576000600a8260ff1681548110611610576116106128a4565b6000918252602080832090910154600160a060020a031680835290829052604090912060068101546002909101549192501161164f5761164f81612645565b600160a060020a03811660009081526020819052604090206001015461167590846128ec565b9250508080611683906129b1565b9150506115eb565b50600c54610100900460ff166118275760005b6004548160ff161015611822576000600a8260ff16815481106116c3576116c36128a4565b6000918252602080832090910154600b54600160a060020a0390911680845291839052604083206001015491935085916116fd9190612992565b6117079190612932565b600160a060020a03831660009081526020819052604090206002015461172d91906128ec565b600160a060020a03831660009081526020819052604081206002810182905560018101829055600701805460ff19169055600554919250906064906117729084612992565b61177c9190612932565b9050600061178a8284612904565b600160a060020a038086166000908152602081905260409020549192506117b291168261214c565b506001546117c990600160a060020a03168361214c565b50600c805460ff191660021790556009546040516000945042919030907f52a298e98008bccb662279d4de296612fe9d9fe846a899e25d485e12a0152545908790a450505050808061181a906129b1565b91505061169e565b505050565b60005b6004548160ff161015611822576000600a8260ff168154811061184f5761184f6128a4565b6000918252602080832090910154600b54600160a060020a0390911680845291839052604083206001015491935085916118899190612992565b6118939190612932565b600160a060020a0383166000908152602081905260409020600201546118b991906128ec565b5050600160a060020a03166000908152602081905260408120600281018290556001810191909155600701805460ff19908116909155600c8054909116600317905580611905816129b1565b91505061182a565b600080600a61191d600185612881565b60ff1681548110611930576119306128a4565b6000918252602080832090910154600160a060020a03168252819052604090206007015460ff169392505050565b600080600a61196e600185612881565b60ff1681548110611981576119816128a4565b6000918252602080832090910154600160a060020a0316825281905260409020600201549392505050565b60008060016004546119be9190612904565b6003546119cb9190612992565b3360009081526020819052604081206006810154600482015460039092015493945091926119f99085612904565b611a039190612904565b610ebd91906128ec565b3360009081526020819052604090206007015460ff16801515600114611a7d57604051600080516020612a0c833981519152815260206004820152601560248201527f5573756172696f206e6f207265676973747261646f000000000000000000000060448201526064016105b6565b600180600c5460ff166003811115611a9757611a976127e2565b14611b1257604051600080516020612a0c833981519152815260206004820152602960248201527f537461676520696e636f72726563746f207061726120656a656375746172206c60448201527f612066756e63696f6e000000000000000000000000000000000000000000000060648201526084016105b6565b611b1a6119ac565b8311158015611b295750600083115b611b7d57604051600080516020612a0c833981519152815260206004820152600f60248201527f5061676f20696e636f72726563746f000000000000000000000000000000000060448201526064016105b6565b6000611b87610dfe565b60085490915060ff80831691161015611ba957600854611ba99060ff166121a2565b600854600090600a90611bc19060019060ff16612881565b60ff1681548110611bd457611bd46128a4565b600091825260208083209091015433835290829052604082206004018054600160a060020a03909216935087928392611c0e9084906128ec565b9091555060009050611c1f3361122f565b336000908152602081905260408120600301549192509081908311611c475760009150611d07565b33600090815260208190526040902060030154611c649084612904565b9150600160a060020a0385163314611d075783821015611c85575080611c88565b50825b3360009081526020819052604081206004018054839290611caa908490612904565b9091555050600160a060020a03851660009081526020819052604081206002018054839290611cda9084906128ec565b90915550503360009081526020819052604081206003018054839290611d019084906128ec565b90915550505b3360009081526020819052604090206006015415801590611d3957503360009081526020819052604090206004015415155b15611dec57336000908152602081905260408120600481015460069091015411611d76575033600090815260208190526040902060060154611d8b565b50336000908152602081905260409020600401545b3360009081526020819052604081206004018054839290611dad908490612904565b9091555050600b54611dc09082906128ec565b600b553360009081526020819052604081206006018054839290611de5908490612904565b9091555050505b600254336000908152602081905260409020600601541015611e405733600090815260208190526040902060060154600254611e289190612904565b33600090815260208190526040902060010155611e54565b336000908152602081905260408120600101555b6000611e60308b6120a9565b6040519091508115159033907f02d1bc4c41f0968b82fd72dc5877b3df473c2bcab943abd81229c5b825b2132190600090a350505050505050505050565b600380600c5460ff166003811115611eb857611eb86127e2565b14611f3357604051600080516020612a0c833981519152815260206004820152602960248201527f537461676520696e636f72726563746f207061726120656a656375746172206c60448201527f612066756e63696f6e000000000000000000000000000000000000000000000060648201526084016105b6565b600f546040517f70a08231000000000000000000000000000000000000000000000000000000008152306004820152600091600160a060020a0316906370a0823190602401602060405180830381865afa158015611f95573d6000803e3d6000fd5b505050506040513d601f19601f82011682018060405250810190611fb991906129d0565b90506000811161201357604051600080516020612a0c833981519152815260206004820152601260248201527f4e6f206573206d61796f722061204365726f000000000000000000000000000060448201526064016105b6565b60065461202990600160a060020a03168261214c565b50604051819030907f5fafa99d0643513820be26656b45130b01e1c03062e1266bf36f88cbd3bd969590600090a35050565b600080600a61206b600185612881565b60ff168154811061207e5761207e6128a4565b6000918252602080832090910154600160a060020a0316825281905260409020600401549392505050565b600f546040517f23b872dd000000000000000000000000000000000000000000000000000000008152336004820152600160a060020a0384811660248301526044820184905260009283929116906323b872dd906064015b6020604051808303816000875af1158015612120573d6000803e3d6000fd5b505050506040513d601f19601f8201168201806040525081019061214491906129e9565b949350505050565b600f546040517fa9059cbb000000000000000000000000000000000000000000000000000000008152600160a060020a03848116600483015260248201849052600092839291169063a9059cbb90604401612101565b600180600c5460ff1660038111156121bc576121bc6127e2565b1461223757604051600080516020612a0c833981519152815260206004820152602960248201527f537461676520696e636f72726563746f207061726120656a656375746172206c60448201527f612066756e63696f6e000000000000000000000000000000000000000000000060648201526084016105b6565b60005b6004548160ff161015612614576000600a8260ff168154811061225f5761225f6128a4565b6000918252602082200154600160a060020a03169150600a612282600187612881565b60ff1681548110612295576122956128a4565b6000918252602082200154600160a060020a031691506122b48361122f565b9050600082600160a060020a031684600160a060020a0316146125fd57600160a060020a03841660009081526020819052604090206003015482111561232157600160a060020a03841660009081526020819052604090206003015461231a9083612904565b9050612325565b5060005b80156125fd57600160a060020a0384166000908152602081905260409020600401541561246257600160a060020a038416600090815260208190526040812060040154821015612376575080612394565b50600160a060020a0384166000908152602081905260409020600401545b600160a060020a0385166000908152602081905260409020600401546123bb908290612904565b600160a060020a03861660009081526020819052604090206004810191909155600301546123ea9082906128ec565b600160a060020a0380871660009081526020819052604080822060030193909355908616815220600201546124209082906128ec565b600160a060020a0380861660009081526020819052604080822060020193909355908716815220600301546124548661122f565b61245e9190612904565b9150505b80156125fd57600160a060020a0384166000908152602081905260408120600501805460ff1691612492836129b1565b91906101000a81548160ff021916908360ff1602179055505080600b54106125615780600b60008282546124c69190612904565b9091555050600160a060020a038416600090815260208190526040812060030180548392906124f69084906128ec565b9091555050600160a060020a038416600090815260208190526040812060060180548392906125269084906128ec565b9091555050600160a060020a038316600090815260208190526040812060020180548392906125569084906128ec565b909155506125719050565b600c805461ff0019166101001790555b600254600160a060020a03851660009081526020819052604090206006015410156125e057600160a060020a0384166000908152602081905260409020600601546002546125bf9190612904565b600160a060020a0385166000908152602081905260409020600101556125fd565b600160a060020a0384166000908152602081905260408120600101555b50505050808061260c906129b1565b91505061223a565b506008805460ff16906000612628836129b1565b91906101000a81548160ff021916908360ff160217905550505050565b600180600c5460ff16600381111561265f5761265f6127e2565b146126da57604051600080516020612a0c833981519152815260206004820152602960248201527f537461676520696e636f72726563746f207061726120656a656375746172206c60448201527f612066756e63696f6e000000000000000000000000000000000000000000000060648201526084016105b6565b600160a060020a03821660009081526020819052604081206006810154600290910180549192909161270d908490612904565b9091555050600160a060020a038216600090815260208190526040812060060154600b8054919290916127419084906128ec565b9091555050600254600160a060020a039092166000908152602081905260408120600181019390935560069092019190915550565b60006020828403121561278857600080fd5b813560ff8116811461279957600080fd5b9392505050565b6000602082840312156127b257600080fd5b8135600160a060020a038116811461279957600080fd5b6000602082840312156127db57600080fd5b5035919050565b7f4e487b7100000000000000000000000000000000000000000000000000000000600052602160045260246000fd5b602081016004831061284c577f4e487b7100000000000000000000000000000000000000000000000000000000600052602160045260246000fd5b91905290565b7f4e487b7100000000000000000000000000000000000000000000000000000000600052601160045260246000fd5b600060ff821660ff84168082101561289b5761289b612852565b90039392505050565b7f4e487b7100000000000000000000000000000000000000000000000000000000600052603260045260246000fd5b6000600182016128e5576128e5612852565b5060010190565b600082198211156128ff576128ff612852565b500190565b60008282101561291657612916612852565b500390565b60008161292a5761292a612852565b506000190190565b600082612968577f4e487b7100000000000000000000000000000000000000000000000000000000600052601260045260246000fd5b500490565b600060ff821660ff84168060ff0382111561298a5761298a612852565b019392505050565b60008160001904831182151516156129ac576129ac612852565b500290565b600060ff821660ff81036129c7576129c7612852565b60010192915050565b6000602082840312156129e257600080fd5b5051919050565b6000602082840312156129fb57600080fd5b8151801515811461279957600080fdfe08c379a000000000000000000000000000000000000000000000000000000000a2646970667358221220b961c0bf943f9941f1d7f1171717ed178a30131f475abc127203f457b9fb45d464736f6c634300080d0033a2646970667358221220e8524aa559ae24c74927017f7915c324f1bbf8e0420f880faa8a0f79ac880ba464736f6c634300080d0033",
  "immutableReferences": {},
  "source": "// SPDX-License-Identifier: BSD 3-Clause License\npragma solidity ^0.8.0;\n\nimport \"./SavingGroups.sol\";\nimport \"@openzeppelin/contracts/token/ERC20/IERC20.sol\";\nimport \"@openzeppelin/contracts/access/Ownable.sol\";\n\ncontract Main is Ownable{\n\n    address public devAddress = 0x4bFaF8ff960622b702e653C18b3bF747Abab4368;\n\n    event RoundCreated(SavingGroups childRound);\n\n    function createRound(\n        uint256 _warranty ,\n        uint256 _saving,\n        uint256 _groupSize,\n        uint256 _adminFee,\n        uint256 _payTime,\n        IERC20 _token\n    ) external payable returns(address) {\n\n        SavingGroups newRound = new SavingGroups(\n            _warranty,\n            _saving,\n            _groupSize,\n            msg.sender,\n            _adminFee,\n            _payTime,\n            _token ,\n            devAddress\n        );\n        emit RoundCreated(newRound);\n        return address(newRound);\n    }\n\n    function setDevAddress (address _devAddress) public onlyOwner{\n        devAddress = _devAddress;\n    }\n}\n",
  "sourcePath": "/Users/artur/Desktop/Bloinx/bloinx-contracts/contracts/Main.sol",
  "compiler": {
    "name": "solc",
    "version": "0.8.13+commit.abaa5c0e.Emscripten.clang"
  },
  "schemaVersion": "3.4.2",
  "updatedAt": "2022-04-02T04:33:06.772Z",
  "networkType": "ethereum",
  "devdoc": {
    "kind": "dev",
    "methods": {
      "owner()": {
        "details": "Returns the address of the current owner."
      },
      "renounceOwnership()": {
        "details": "Leaves the contract without owner. It will not be possible to call `onlyOwner` functions anymore. Can only be called by the current owner. NOTE: Renouncing ownership will leave the contract without an owner, thereby removing any functionality that is only available to the owner."
      },
      "transferOwnership(address)": {
        "details": "Transfers ownership of the contract to a new account (`newOwner`). Can only be called by the current owner."
      }
    },
    "version": 1
  },
  "userdoc": {
    "kind": "user",
    "methods": {},
    "version": 1
  }
}