{
  "contractName": "Main",
  "abi": [
    {
      "inputs": [],
      "stateMutability": "nonpayable",
      "type": "constructor"
    },
    {
      "anonymous": false,
      "inputs": [
        {
          "indexed": false,
          "internalType": "contract SavingGroupsMXN",
          "name": "childRoundMXN",
          "type": "address"
        }
      ],
      "name": "MxnRoundCreated",
      "type": "event"
    },
    {
      "anonymous": false,
      "inputs": [
        {
          "indexed": true,
          "internalType": "bytes32",
          "name": "role",
          "type": "bytes32"
        },
        {
          "indexed": true,
          "internalType": "bytes32",
          "name": "previousAdminRole",
          "type": "bytes32"
        },
        {
          "indexed": true,
          "internalType": "bytes32",
          "name": "newAdminRole",
          "type": "bytes32"
        }
      ],
      "name": "RoleAdminChanged",
      "type": "event"
    },
    {
      "anonymous": false,
      "inputs": [
        {
          "indexed": true,
          "internalType": "bytes32",
          "name": "role",
          "type": "bytes32"
        },
        {
          "indexed": true,
          "internalType": "address",
          "name": "account",
          "type": "address"
        },
        {
          "indexed": true,
          "internalType": "address",
          "name": "sender",
          "type": "address"
        }
      ],
      "name": "RoleGranted",
      "type": "event"
    },
    {
      "anonymous": false,
      "inputs": [
        {
          "indexed": true,
          "internalType": "bytes32",
          "name": "role",
          "type": "bytes32"
        },
        {
          "indexed": true,
          "internalType": "address",
          "name": "account",
          "type": "address"
        },
        {
          "indexed": true,
          "internalType": "address",
          "name": "sender",
          "type": "address"
        }
      ],
      "name": "RoleRevoked",
      "type": "event"
    },
    {
      "anonymous": false,
      "inputs": [
        {
          "indexed": false,
          "internalType": "contract SavingGroups",
          "name": "childRound",
          "type": "address"
        }
      ],
      "name": "UsdRoundCreated",
      "type": "event"
    },
    {
      "inputs": [],
      "name": "DEFAULT_ADMIN_ROLE",
      "outputs": [
        {
          "internalType": "bytes32",
          "name": "",
          "type": "bytes32"
        }
      ],
      "stateMutability": "view",
      "type": "function"
    },
    {
      "inputs": [],
      "name": "Iblx",
      "outputs": [
        {
          "internalType": "contract IAccessControl",
          "name": "",
          "type": "address"
        }
      ],
      "stateMutability": "view",
      "type": "function"
    },
    {
      "inputs": [],
      "name": "blx",
      "outputs": [
        {
          "internalType": "contract BLXToken",
          "name": "",
          "type": "address"
        }
      ],
      "stateMutability": "view",
      "type": "function"
    },
    {
      "inputs": [],
      "name": "devFund",
      "outputs": [
        {
          "internalType": "address",
          "name": "",
          "type": "address"
        }
      ],
      "stateMutability": "view",
      "type": "function"
    },
    {
      "inputs": [],
      "name": "fee",
      "outputs": [
        {
          "internalType": "uint256",
          "name": "",
          "type": "uint256"
        }
      ],
      "stateMutability": "view",
      "type": "function"
    },
    {
      "inputs": [
        {
          "internalType": "bytes32",
          "name": "role",
          "type": "bytes32"
        }
      ],
      "name": "getRoleAdmin",
      "outputs": [
        {
          "internalType": "bytes32",
          "name": "",
          "type": "bytes32"
        }
      ],
      "stateMutability": "view",
      "type": "function"
    },
    {
      "inputs": [
        {
          "internalType": "bytes32",
          "name": "role",
          "type": "bytes32"
        },
        {
          "internalType": "address",
          "name": "account",
          "type": "address"
        }
      ],
      "name": "grantRole",
      "outputs": [],
      "stateMutability": "nonpayable",
      "type": "function"
    },
    {
      "inputs": [
        {
          "internalType": "bytes32",
          "name": "role",
          "type": "bytes32"
        },
        {
          "internalType": "address",
          "name": "account",
          "type": "address"
        }
      ],
      "name": "hasRole",
      "outputs": [
        {
          "internalType": "bool",
          "name": "",
          "type": "bool"
        }
      ],
      "stateMutability": "view",
      "type": "function"
    },
    {
      "inputs": [
        {
          "internalType": "bytes32",
          "name": "role",
          "type": "bytes32"
        },
        {
          "internalType": "address",
          "name": "account",
          "type": "address"
        }
      ],
      "name": "renounceRole",
      "outputs": [],
      "stateMutability": "nonpayable",
      "type": "function"
    },
    {
      "inputs": [
        {
          "internalType": "bytes32",
          "name": "role",
          "type": "bytes32"
        },
        {
          "internalType": "address",
          "name": "account",
          "type": "address"
        }
      ],
      "name": "revokeRole",
      "outputs": [],
      "stateMutability": "nonpayable",
      "type": "function"
    },
    {
      "inputs": [
        {
          "internalType": "bytes4",
          "name": "interfaceId",
          "type": "bytes4"
        }
      ],
      "name": "supportsInterface",
      "outputs": [
        {
          "internalType": "bool",
          "name": "",
          "type": "bool"
        }
      ],
      "stateMutability": "view",
      "type": "function"
    },
    {
      "inputs": [
        {
          "internalType": "uint256",
          "name": "_warranty",
          "type": "uint256"
        },
        {
          "internalType": "uint256",
          "name": "_saving",
          "type": "uint256"
        },
        {
          "internalType": "uint256",
          "name": "_groupSize",
          "type": "uint256"
        },
        {
          "internalType": "uint256",
          "name": "_adminFee",
          "type": "uint256"
        },
        {
          "internalType": "uint256",
          "name": "_payTime",
          "type": "uint256"
        },
        {
          "internalType": "contract ERC20",
          "name": "_token",
          "type": "address"
        },
        {
          "internalType": "address",
          "name": "_blxaddr",
          "type": "address"
        }
      ],
      "name": "createRoundUSD",
      "outputs": [
        {
          "internalType": "address",
          "name": "",
          "type": "address"
        }
      ],
      "stateMutability": "payable",
      "type": "function"
    },
    {
      "inputs": [
        {
          "internalType": "uint256",
          "name": "_warranty",
          "type": "uint256"
        },
        {
          "internalType": "uint256",
          "name": "_saving",
          "type": "uint256"
        },
        {
          "internalType": "uint256",
          "name": "_groupSize",
          "type": "uint256"
        },
        {
          "internalType": "uint256",
          "name": "_adminFee",
          "type": "uint256"
        },
        {
          "internalType": "uint256",
          "name": "_payTime",
          "type": "uint256"
        },
        {
          "internalType": "address",
          "name": "_blxaddr",
          "type": "address"
        }
      ],
      "name": "createRoundMXN",
      "outputs": [
        {
          "internalType": "address",
          "name": "",
          "type": "address"
        }
      ],
      "stateMutability": "payable",
      "type": "function"
    },
    {
      "inputs": [
        {
          "internalType": "address",
          "name": "_devFund",
          "type": "address"
        }
      ],
      "name": "setDevFundAddress",
      "outputs": [],
      "stateMutability": "nonpayable",
      "type": "function"
    },
    {
      "inputs": [
        {
          "internalType": "uint256",
          "name": "_fee",
          "type": "uint256"
        }
      ],
      "name": "setFee",
      "outputs": [],
      "stateMutability": "nonpayable",
      "type": "function"
    }
  ],
  "bytecode": "0x608060405260018054600160a060020a03191673d1fa9e091f65027f897fc3f911032c3ec8390d3f179055600560025534801561003b57600080fd5b50610050600033640100000000610055810204565b610130565b610068828264010000000061006c810204565b5050565b61007f8282640100000000610103810204565b61006857600082815260208181526040808320600160a060020a03851684529091529020805460ff191660011790556100bf64010000000061012c810204565b600160a060020a031681600160a060020a0316837f2f8788117e7eff1d82e926ec794901d17c78024a50270940304540a733656f0d60405160405180910390a45050565b600091825260208281526040808420600160a060020a0393909316845291905290205460ff1690565b3390565b616eec80620001406000396000f3fe60806040526004361062000107576000357c0100000000000000000000000000000000000000000000000000000000900480634bb77ff611620000b25780639d2beb4b116200007d5780639d2beb4b14620002da578063a217fddf14620002f1578063d547741f1462000308578063ddca3f43146200032d57600080fd5b80634bb77ff6146200024957806369fe0e2d146200026e5780638bd0ee92146200029357806391d1485414620002b557600080fd5b806301ffc9a7146200010c578063248a9ca314620001465780632f2ff15d146200018957806336568abe14620001b057806337608be814620001d55780634390d2a814620002105780634b6a65ef1462000232575b600080fd5b3480156200011957600080fd5b50620001316200012b36600462000b23565b62000345565b60405190151581526020015b60405180910390f35b3480156200015357600080fd5b506200017a6200016536600462000b4f565b60009081526020819052604090206001015490565b6040519081526020016200013d565b3480156200019657600080fd5b50620001ae620001a836600462000b7f565b620003af565b005b348015620001bd57600080fd5b50620001ae620001cf36600462000b7f565b620003dd565b348015620001e257600080fd5b50600454620001f790600160a060020a031681565b604051600160a060020a0390911681526020016200013d565b3480156200021d57600080fd5b50600154620001f790600160a060020a031681565b620001f76200024336600462000bb2565b62000474565b3480156200025657600080fd5b50620001ae6200026836600462000c0a565b62000566565b3480156200027b57600080fd5b50620001ae6200028d36600462000b4f565b620005a3565b348015620002a057600080fd5b50600354620001f790600160a060020a031681565b348015620002c257600080fd5b5062000131620002d436600462000b7f565b620005b6565b620001f7620002eb36600462000c2a565b620005df565b348015620002fe57600080fd5b506200017a600081565b3480156200031557600080fd5b50620001ae6200032736600462000b7f565b62000746565b3480156200033a57600080fd5b506200017a60025481565b6000600160e060020a031982167f7965db0b000000000000000000000000000000000000000000000000000000001480620003a957507f01ffc9a700000000000000000000000000000000000000000000000000000000600160e060020a03198316145b92915050565b600082815260208190526040902060010154620003cc816200076f565b620003d883836200077e565b505050565b600160a060020a0381163314620004645760405160e560020a62461bcd02815260206004820152602f60248201527f416363657373436f6e74726f6c3a2063616e206f6e6c792072656e6f756e636560448201527f20726f6c657320666f722073656c66000000000000000000000000000000000060648201526084015b60405180910390fd5b62000470828262000806565b5050565b60038054600160a060020a0380841673ffffffffffffffffffffffffffffffffffffffff199283161790925560048054909116905560015460025460405160009384938b938b938b9333938c938c9373bd1fe73e1f12bd2bc237de9b626f056f21f86427938b93169190620004e99062000b07565b620004fe9a9998979695949392919062000c98565b604051809103906000f0801580156200051b573d6000803e3d6000fd5b50604051600160a060020a03821681529091507f55f060f25d511c5429913d5a6b64fe126b1aec8b25376223f07c722c1377ca669060200160405180910390a1979650505050505050565b600062000573816200076f565b506001805473ffffffffffffffffffffffffffffffffffffffff1916600160a060020a0392909216919091179055565b6000620005b0816200076f565b50600255565b600091825260208281526040808420600160a060020a0393909316845291905290205460ff1690565b60038054600160a060020a0380841673ffffffffffffffffffffffffffffffffffffffff199283161790925560048054909116905560009073bd1fe73e1f12bd2bc237de9b626f056f21f864261990841601620006825760405160e560020a62461bcd02815260206004820152600f60248201527f4d584e206e6f7420616c6c6f776564000000000000000000000000000000000060448201526064016200045b565b600088888833898989600460009054906101000a9004600160a060020a0316600160009054906101000a9004600160a060020a0316600254604051620006c89062000b15565b620006dd9a9998979695949392919062000c98565b604051809103906000f080158015620006fa573d6000803e3d6000fd5b50604051600160a060020a03821681529091507f55b91d1c3d2a1882f683ca5422f7b261dbaa7d88daf866b3fcd89bf220ff1d849060200160405180910390a198975050505050505050565b60008281526020819052604090206001015462000763816200076f565b620003d8838362000806565b6200077b81336200086e565b50565b6200078a8282620005b6565b6200047057600082815260208181526040808320600160a060020a03851684529091529020805460ff19166001179055620007c23390565b600160a060020a031681600160a060020a0316837f2f8788117e7eff1d82e926ec794901d17c78024a50270940304540a733656f0d60405160405180910390a45050565b620008128282620005b6565b156200047057600082815260208181526040808320600160a060020a0385168085529252808320805460ff1916905551339285917ff6391f5c32d9c69d2a47ea670b442974b53935d1edc7fd64eb21e047a839171b9190a45050565b6200087a8282620005b6565b62000470576200089581600160a060020a03166014620008e0565b620008a2836020620008e0565b604051602001620008b592919062000d13565b60408051601f198184030181529082905260e560020a62461bcd0282526200045b9160040162000d98565b60606000620008f183600262000de6565b620008fe90600262000e00565b67ffffffffffffffff81111562000919576200091962000e16565b6040519080825280601f01601f19166020018201604052801562000944576020820181803683370190505b5090507f3000000000000000000000000000000000000000000000000000000000000000816000815181106200097e576200097e62000e2f565b6020010190600160f860020a031916908160001a9053507f780000000000000000000000000000000000000000000000000000000000000081600181518110620009cc57620009cc62000e2f565b6020010190600160f860020a031916908160001a9053506000620009f284600262000de6565b620009ff90600162000e00565b90505b600181111562000aac577f303132333435363738396162636465660000000000000000000000000000000085600f166010811062000a445762000a4462000e2f565b1a7f01000000000000000000000000000000000000000000000000000000000000000282828151811062000a7c5762000a7c62000e2f565b6020010190600160f860020a031916908160001a90535060109094049362000aa48162000e48565b905062000a02565b50831562000b005760405160e560020a62461bcd02815260206004820181905260248201527f537472696e67733a20686578206c656e67746820696e73756666696369656e7460448201526064016200045b565b9392505050565b61303d8062000e6383390190565b6130178062003ea083390190565b60006020828403121562000b3657600080fd5b8135600160e060020a03198116811462000b0057600080fd5b60006020828403121562000b6257600080fd5b5035919050565b600160a060020a03811681146200077b57600080fd5b6000806040838503121562000b9357600080fd5b82359150602083013562000ba78162000b69565b809150509250929050565b60008060008060008060c0878903121562000bcc57600080fd5b863595506020870135945060408701359350606087013592506080870135915060a087013562000bfc8162000b69565b809150509295509295509295565b60006020828403121562000c1d57600080fd5b813562000b008162000b69565b600080600080600080600060e0888a03121562000c4657600080fd5b873596506020880135955060408801359450606088013593506080880135925060a088013562000c768162000b69565b915060c088013562000c888162000b69565b8091505092959891949750929550565b998a5260208a01989098526040890196909652600160a060020a039485166060890152608088019390935260a0870191909152821660c0860152811660e0850152166101008301526101208201526101400190565b60005b8381101562000d0a57818101518382015260200162000cf0565b50506000910152565b7f416363657373436f6e74726f6c3a206163636f756e742000000000000000000081526000835162000d4d81601785016020880162000ced565b7f206973206d697373696e6720726f6c6520000000000000000000000000000000601791840191820152835162000d8c81602884016020880162000ced565b01602801949350505050565b602081526000825180602084015262000db981604085016020870162000ced565b601f01601f19169190910160400192915050565b60e060020a634e487b7102600052601160045260246000fd5b8082028115828204841417620003a957620003a962000dcd565b80820180821115620003a957620003a962000dcd565b60e060020a634e487b7102600052604160045260246000fd5b60e060020a634e487b7102600052603260045260246000fd5b60008162000e5a5762000e5a62000dcd565b50600019019056fe6080604052600060078190556008805460ff19166001179055600b819055600c805461ff0019169055600d819055600e819055600f553480156200004257600080fd5b506040516200303d3803806200303d8339810160408190526200006591620005f3565b60108054600160a060020a031916600160a060020a03868116919091179091558716620000f3576040517f08c379a000000000000000000000000000000000000000000000000000000000815260206004820152601460248201527f616464726573732063616e74206265207a65726f00000000000000000000000060448201526064015b60405180910390fd5b600188118015620001055750600c8811155b6200016d576040517f08c379a000000000000000000000000000000000000000000000000000000000815260206004820152601060248201527f67726f75702073697a65206572726f72000000000000000000000000000000006044820152606401620000ea565b60028a1015620001da576040517f08c379a000000000000000000000000000000000000000000000000000000000815260206004820152601160248201527f6465706f73697420717479206572726f720000000000000000000000000000006044820152606401620000ea565b600289101562000247576040517f08c379a000000000000000000000000000000000000000000000000000000000815260206004820152601160248201527f7061796d656e7420717479206572726f720000000000000000000000000000006044820152606401620000ea565b60648611156200025657600080fd5b60018054600160a060020a03808a16600160a060020a031992831617909255600588905560048a81556006805486851690841617905560118054878516931692909217909155601054604080517f313ce5670000000000000000000000000000000000000000000000000000000081529051919093169263313ce56792818101926020929091908290030181865afa158015620002f7573d6000803e3d6000fd5b505050506040513d601f19601f820116820180604052508101906200031d91906200069a565b6200032a90600a620007f7565b62000336908b62000808565b600255601054604080517f313ce5670000000000000000000000000000000000000000000000000000000081529051600160a060020a039092169163313ce567916004808201926020929091908290030181865afa1580156200039d573d6000803e3d6000fd5b505050506040513d601f19601f82011682018060405250810190620003c391906200069a565b620003d090600a620007f7565b620003dc908a62000808565b600355600c805460ff191690558767ffffffffffffffff81111562000405576200040562000822565b6040519080825280602002602001820160405280156200042f578160200160208202803683370190505b5080516200044691600a9160209091019062000559565b5060008511620004b3576040517f08c379a000000000000000000000000000000000000000000000000000000000815260206004820152600d60248201527f70617974696d65206572726f72000000000000000000000000000000000000006044820152606401620000ea565b620004c085603c62000808565b600d55600354612710908290620004d990606462000808565b620004e5919062000808565b620004f1919062000851565b600f5560128054600160a060020a03191673171b16562ea3476f5c61d1b8dad031dba07685451790556004546003546040517fe934619c48e1b0b21b662adf6b7c08ad37e6f0d120f40a505503b4fd3bcfec5890600090a3505050505050505050506200088d565b828054828255906000526020600020908101928215620005b1579160200282015b82811115620005b15782518254600160a060020a031916600160a060020a039091161782556020909201916001909101906200057a565b50620005bf929150620005c3565b5090565b5b80821115620005bf5760008155600101620005c4565b600160a060020a0381168114620005f057600080fd5b50565b6000806000806000806000806000806101408b8d0312156200061457600080fd5b8a51995060208b0151985060408b0151975060608b01516200063681620005da565b8097505060808b0151955060a08b0151945060c08b01516200065881620005da565b60e08c01519094506200066b81620005da565b6101008c01519093506200067f81620005da565b809250506101208b015190509295989b9194979a5092959850565b600060208284031215620006ad57600080fd5b815160ff81168114620006bf57600080fd5b9392505050565b7f4e487b7100000000000000000000000000000000000000000000000000000000600052601160045260246000fd5b600181815b80851115620007385781600019048211156200071a576200071a620006c6565b808516156200072857918102915b60029094049390800290620006fa565b509250929050565b6000826200075157506001620007f1565b816200076057506000620007f1565b81600181146200077957600281146200078457620007a5565b6001915050620007f1565b60ff841115620007985762000798620006c6565b8360020a915050620007f1565b5060208310610133831016604e8410600b8410161715620007ca575081810a620007f1565b620007d68383620006f5565b8060001904821115620007ed57620007ed620006c6565b0290505b92915050565b6000620006bf60ff84168362000740565b8082028115828204841417620007f157620007f1620006c6565b7f4e487b7100000000000000000000000000000000000000000000000000000000600052604160045260246000fd5b60008262000888577f4e487b7100000000000000000000000000000000000000000000000000000000600052601260045260246000fd5b500490565b6127a0806200089d6000396000f3fe608060405234801561001057600080fd5b506004361061022e576000357c010000000000000000000000000000000000000000000000000000000090048063749aa2d911610142578063a9d75b2b116100ca578063c949cb8311610099578063c949cb83146104ec578063db2e21bc146104ff578063ddca3f4314610507578063e8f4963114610510578063f851a4401461052357600080fd5b8063a9d75b2b146104ae578063b4501f39146104c1578063b4bde59e146104c9578063c040e6b8146104d257600080fd5b80638930361d116101115780638930361d146103a85780638b299903146103bb578063a0a8427e146103c8578063a0be06f9146103db578063a87430ba146103e457600080fd5b8063749aa2d91461036c5780637826e78f1461037457806378e979251461037d57806385f0f3781461038657600080fd5b80634390d2a8116101c55780635394dda8116101945780635394dda81461032c57806355e3f0861461033f5780635b6397e11461034757806363b635ea1461035a578063743c81ab1461036357600080fd5b80634390d2a8146102c8578063466afa0d146102f357806347f121a214610306578063504fc51d1461031957600080fd5b80632055baf4116102015780632055baf41461028a5780632d50e80d146102a457806330fceb6c146102ad5780634210a8d1146102b557600080fd5b806302b8c8cd1461023357806303ee306114610248578063086a29e71461026e5780631e58061514610281575b600080fd5b610246610241366004612533565b610536565b005b61025b610256366004612533565b6108fb565b6040519081526020015b60405180910390f35b61024661027c366004612533565b610949565b61025b60025481565b610292610c9c565b60405160ff9091168152602001610265565b61025b600d5481565b610246610d07565b61025b6102c3366004612533565b610f59565b6006546102db90600160a060020a031681565b604051600160a060020a039091168152602001610265565b610292610301366004612533565b610fa7565b6011546102db90600160a060020a031681565b61025b61032736600461255d565b610ff8565b6102db61033a366004612586565b611072565b61024661109c565b61025b610355366004612533565b61119f565b61025b60045481565b61025b60035481565b6102466111ed565b61025b600f5481565b61025b60095481565b600c5461039890610100900460ff1681565b6040519015158152602001610265565b6103986103b6366004612533565b61164f565b6008546102929060ff1681565b61025b6103d6366004612533565b6116a0565b61025b60055481565b61044c6103f236600461255d565b600060208190529081526040902080546001820154600283015460038401546004850154600586015460068701546007880154600890980154600160a060020a0388169860ff60a060020a9099048916989384169316908a565b60408051600160a060020a03909b168b5260ff998a1660208c01528a01979097526060890195909552608088019390935260a08701919091529390931660c085015260e084019290925290151561010083015261012082015261014001610265565b6010546102db90600160a060020a031681565b61025b6116ee565b61025b600b5481565b600c546104df9060ff1681565b60405161026591906125b8565b6102466104fa366004612586565b61174f565b610246611b7b565b61025b600e5481565b61025b61051e366004612533565b611ec1565b6001546102db90600160a060020a031681565b600080600c5460ff1660038111156105505761055061259f565b146105795760405160e560020a62461bcd028152600401610570906125e3565b60405180910390fd5b3360009081526020819052604090206007015460ff16156105df5760405160e560020a62461bcd02815260206004820152601260248201527f616c7265616479207265676973746572656400000000000000000000000000006044820152606401610570565b600454600754106106355760405160e560020a62461bcd02815260206004820152600d60248201527f67726f75702069732066756c6c000000000000000000000000000000000000006044820152606401610570565b6000600a610644600185612633565b60ff16815481106106575761065761264c565b600091825260209091200154600160a060020a0316146106bc5760405160e560020a62461bcd02815260206004820152600a60248201527f7475726e2074616b656e000000000000000000000000000000000000000000006044820152606401610570565b600780549060006106cc83612665565b909155505060408051610140810182523380825260ff8086166020808501918252600280548688019081526000606088018181526080890182815260a08a0183815260c08b0184815260e08c0185815260016101008e018181526101208f018881529d8852998790529d86209c518d549a518c1660a060020a0274ffffffffffffffffffffffffffffffffffffffffff19909b16600160a060020a039190911617999099178c5594519b8b019b909b5590518985015551600389015597516004880155516005870180549190951660ff1991821617909455915160068601555160078501805491151591909316179091559051600890920191909155546107d4903090611f0f565b6040519091508115159033907f4480e10f92b8eb473ee375c618f546a95bb106e9ac08855a51628a55f2f043e290600090a3600654600f5460009161082491600160a060020a0390911690611f0f565b6040519091508115159033907ffcc9de8628256fd80a029af5f9f600bdfc8ec089f618a40d63f7063060d227a590600090a3600254600b600082825461086a919061267e565b90915550339050600a61087e600187612633565b60ff16815481106108915761089161264c565b60009182526020822001805473ffffffffffffffffffffffffffffffffffffffff1916600160a060020a03939093169290921790915560405160ff86169133917f976bbd2f6af68a7eee78f5300f40d037367b165e65f157e6af4ae073b2befd499190a350505050565b600080600a61090b600185612633565b60ff168154811061091e5761091e61264c565b6000918252602080832090910154600160a060020a0316825281905260409020600601549392505050565b600080600c5460ff1660038111156109635761096361259f565b146109835760405160e560020a62461bcd028152600401610570906125e3565b600154600160a060020a03163314806109cf5750600a6109a4600184612633565b60ff16815481106109b7576109b761264c565b600091825260209091200154600160a060020a031633145b610a1e5760405160e560020a62461bcd02815260206004820152600d60248201527f6e6f74206175746f72697a6564000000000000000000000000000000000000006044820152606401610570565b6000600a610a2d600185612633565b60ff1681548110610a4057610a4061264c565b600091825260209091200154600160a060020a031603610aa55760405160e560020a62461bcd02815260206004820152600a60248201527f7475726e20656d707479000000000000000000000000000000000000000000006044820152606401610570565b600a610ab2600184612633565b60ff1681548110610ac557610ac561264c565b600091825260209091200154600154600160a060020a03918216911603610b315760405160e560020a62461bcd02815260206004820152600b60248201527f6e6f7420616c6c6f7765640000000000000000000000000000000000000000006044820152606401610570565b6000600a610b40600185612633565b60ff1681548110610b5357610b5361264c565b6000918252602080832090910154600160a060020a03168083529082905260409091206001015490915015610bdb57600160a060020a03811660009081526020819052604081206001018054919055600b54610bb0908290612691565b600b55600160a060020a03808316600090815260208190526040902054610bd8911682611fb2565b50505b6000600a610bea600186612633565b60ff1681548110610bfd57610bfd61264c565b60009182526020822001805473ffffffffffffffffffffffffffffffffffffffff1916600160a060020a0393909316929092179091556007805491610c41836126a4565b9091555050600160a060020a038116600081815260208190526040808220600701805460ff191690555160ff8616929133917fadfd51f69b0ad07e1815c54508f0be97ccfacda3e7553aef7b19e0cfc374be2b9190a4505050565b6000600180600c5460ff166003811115610cb857610cb861259f565b14610cd85760405160e560020a62461bcd028152600401610570906125e3565b6000600d5460095442610ceb9190612691565b610cf591906126bb565b610d009060016126e0565b9250505090565b3360009081526020819052604090206007015460ff16801515600114610d725760405160e560020a62461bcd02815260206004820152601560248201527f5573756172696f206e6f207265676973747261646f00000000000000000000006044820152606401610570565b600180600c5460ff166003811115610d8c57610d8c61259f565b14610dac5760405160e560020a62461bcd028152600401610570906125e3565b3360009081526020819052604081205460a060020a900460ff1690610dcf610c9c565b90508160ff168160ff1611610e295760405160e560020a62461bcd02815260206004820152600e60248201527f4e6f206573207475207475726e6f0000000000000000000000000000000000006044820152606401610570565b3360009081526020819052604090206008015415610e4657600080fd5b60085460ff80831691161015610e6557600854610e659060ff16612008565b3360008181526020819052604090206003015490610e8290610ff8565b1115610e9157610e9133612461565b336000908152602081905260408120600281018054908390556008909101805491928392610ec090849061267e565b909155505033600090815260208190526040812054610ee890600160a060020a031683611fb2565b33600090815260208190526040808220549051929350831515928592600160a060020a03909216917fd62c1f6f3c4444a52e394381f609a885a10cc992ad4b59f0815f22db3cc5923291a4600c54610100900460ff1615610f5157600c805460ff191660031790555b505050505050565b600080600a610f69600185612633565b60ff1681548110610f7c57610f7c61264c565b6000918252602080832090910154600160a060020a0316825281905260409020600301549392505050565b600080600a610fb7600185612633565b60ff1681548110610fca57610fca61264c565b6000918252602080832090910154600160a060020a03168252819052604090206005015460ff169392505050565b600854600160a060020a0382166000908152602081905260408120549091829160ff91821660a060020a909104909116116110565760085461103f9060019060ff16612633565b60ff1660035461104f91906126f9565b905061106c565b6008546003546110699160ff16906126f9565b90505b92915050565b600a818154811061108257600080fd5b600091825260209091200154600160a060020a0316905081565b600154600160a060020a03163381146110fa5760405160e560020a62461bcd02815260206004820152600e60248201527f4e6f7420617574686f72697a65640000000000000000000000000000000000006044820152606401610570565b600080600c5460ff1660038111156111145761111461259f565b146111345760405160e560020a62461bcd028152600401610570906125e3565b6004546007541461118a5760405160e560020a62461bcd02815260206004820152601060248201527f756e61737369676e6564207475726e73000000000000000000000000000000006044820152606401610570565b5050600c805460ff1916600117905542600955565b600080600a6111af600185612633565b60ff16815481106111c2576111c261264c565b6000918252602080832090910154600160a060020a0316825281905260409020600101549392505050565b600180600c5460ff1660038111156112075761120761259f565b146112275760405160e560020a62461bcd028152600401610570906125e3565b600454611232610c9c565b60ff16116112855760405160e560020a62461bcd02815260206004820152601060248201527f4e6f2068612066696e616c697a61646f000000000000000000000000000000006044820152606401610570565b60085460ff165b6004548160ff16116112b3576112a181612008565b806112ab81612710565b91505061128c565b506000805b6004548160ff161015611358576000600a8260ff16815481106112dd576112dd61264c565b6000918252602080832090910154600160a060020a031680835290829052604090912060068101546002909101549192501161131c5761131c81612461565b600160a060020a038116600090815260208190526040902060010154611342908461267e565b925050808061135090612710565b9150506112b8565b50600c54610100900460ff166115665760008060005b6004548160ff16101561153b576000600a8260ff16815481106113935761139361264c565b6000918252602080832090910154600b54600160a060020a0390911680845291839052604083206001015491935087916113cd91906126f9565b6113d791906126bb565b600160a060020a038316600090815260208190526040812060018101829055600701805460ff191690556005549192509060649061141590846126f9565b61141f91906126bb565b905061142b818761267e565b600160a060020a038416600090815260208190526040812060020154919750906114558385612691565b61145f919061267e565b600160a060020a03808616600090815260208190526040812060028101919091555491925061148f911682611fb2565b50600160a060020a03841660009081526020819052604081205460a060020a900460ff16806114bf86600a6126f9565b6114c991906126f9565b6114d391906126f9565b90506114e0600a826126bb565b6114ea908861267e565b60095460405191985060009550859250429130907f52a298e98008bccb662279d4de296612fe9d9fe846a899e25d485e12a0152545908590a45050505050808061153390612710565b91505061136e565b5060015461155290600160a060020a031683611fb2565b5050600c805460ff19166002179055505050565b60005b6004548160ff16101561163d576000600a8260ff168154811061158e5761158e61264c565b6000918252602080832090910154600b54600160a060020a0390911680845291839052604083206001015491935085916115c891906126f9565b6115d291906126bb565b600160a060020a0383166000908152602081905260409020600201546115f8919061267e565b5050600160a060020a03166000908152602081905260408120600281018290556001810191909155600701805460ff191690558061163581612710565b915050611569565b5050600c805460ff1916600317905550565b600080600a61165f600185612633565b60ff16815481106116725761167261264c565b6000918252602080832090910154600160a060020a03168252819052604090206007015460ff169392505050565b600080600a6116b0600185612633565b60ff16815481106116c3576116c361264c565b6000918252602080832090910154600160a060020a0316825281905260409020600201549392505050565b60008060016004546117009190612691565b60035461170d91906126f9565b33600090815260208190526040812060068101546004820154600390920154939450919261173b9085612691565b6117459190612691565b610d00919061267e565b3360009081526020819052604090206007015460ff168015156001146117ba5760405160e560020a62461bcd02815260206004820152601560248201527f5573756172696f206e6f207265676973747261646f00000000000000000000006044820152606401610570565b600180600c5460ff1660038111156117d4576117d461259f565b146117f45760405160e560020a62461bcd028152600401610570906125e3565b6117fc6116ee565b831115801561180b5750600083115b61185a5760405160e560020a62461bcd02815260206004820152600f60248201527f5061676f20696e636f72726563746f00000000000000000000000000000000006044820152606401610570565b6000611864610c9c565b60085490915060ff80831691161015611886576008546118869060ff16612008565b600854600090600a9061189e9060019060ff16612633565b60ff16815481106118b1576118b161264c565b600091825260208083209091015433835290829052604082206004018054600160a060020a039092169350879283926118eb90849061267e565b90915550600090506118fc33610ff8565b33600090815260208190526040812060030154919250908190831161192457600091506119e4565b336000908152602081905260409020600301546119419084612691565b9150600160a060020a03851633146119e45783821015611962575080611965565b50825b3360009081526020819052604081206004018054839290611987908490612691565b9091555050600160a060020a038516600090815260208190526040812060020180548392906119b790849061267e565b909155505033600090815260208190526040812060030180548392906119de90849061267e565b90915550505b3360009081526020819052604090206006015415801590611a1657503360009081526020819052604090206004015415155b15611ac957336000908152602081905260408120600481015460069091015411611a53575033600090815260208190526040902060060154611a68565b50336000908152602081905260409020600401545b3360009081526020819052604081206004018054839290611a8a908490612691565b9091555050600b54611a9d90829061267e565b600b553360009081526020819052604081206006018054839290611ac2908490612691565b9091555050505b600254336000908152602081905260409020600601541015611b1d5733600090815260208190526040902060060154600254611b059190612691565b33600090815260208190526040902060010155611b31565b336000908152602081905260408120600101555b6000611b3d308b611f0f565b6040519091508115159033907f02d1bc4c41f0968b82fd72dc5877b3df473c2bcab943abd81229c5b825b2132190600090a350505050505050505050565b600380600c5460ff166003811115611b9557611b9561259f565b14611bb55760405160e560020a62461bcd028152600401610570906125e3565b6010546040517f70a08231000000000000000000000000000000000000000000000000000000008152306004820152600091600160a060020a0316906370a0823190602401602060405180830381865afa158015611c17573d6000803e3d6000fd5b505050506040513d601f19601f82011682018060405250810190611c3b919061272f565b11611c8b5760405160e560020a62461bcd02815260206004820152600d60248201527f656d7074792062616c616e6365000000000000000000000000000000000000006044820152606401610570565b60085460ff165b6004548160ff1611611cb957611ca781612008565b80611cb181612710565b915050611c92565b506010546040517f70a08231000000000000000000000000000000000000000000000000000000008152306004820152600091600160a060020a0316906370a0823190602401602060405180830381865afa158015611d1c573d6000803e3d6000fd5b505050506040513d601f19601f82011682018060405250810190611d40919061272f565b905060005b6004548160ff161015611e71576000600a8260ff1681548110611d6a57611d6a61264c565b600091825260209091200154600160a060020a03169050611d8a81612461565b600160a060020a038116600090815260208190526040902060080154158015611db35750600083115b15611e5e57600160a060020a0381166000908152602081905260409020600201548310611e3757600160a060020a0380821660009081526020819052604090208054600290910154611e09929190911690611fb2565b50600160a060020a038116600090815260208190526040902060020154611e309084612691565b9250611e5e565b600160a060020a03808216600090815260208190526040902054611e5c911684611fb2565b505b5080611e6981612710565b915050611d45565b508015611e9057600654611e8e90600160a060020a031682611fb2565b505b604051819030907f5fafa99d0643513820be26656b45130b01e1c03062e1266bf36f88cbd3bd969590600090a35050565b600080600a611ed1600185612633565b60ff1681548110611ee457611ee461264c565b6000918252602080832090910154600160a060020a0316825281905260409020600401549392505050565b6010546040517f23b872dd000000000000000000000000000000000000000000000000000000008152336004820152600160a060020a0384811660248301526044820184905260009283929116906323b872dd906064015b6020604051808303816000875af1158015611f86573d6000803e3d6000fd5b505050506040513d601f19601f82011682018060405250810190611faa9190612748565b949350505050565b6010546040517fa9059cbb000000000000000000000000000000000000000000000000000000008152600160a060020a03848116600483015260248201849052600092839291169063a9059cbb90604401611f67565b6000600a612017600184612633565b60ff168154811061202a5761202a61264c565b6000918252602082200154600160a060020a031691505b6004548160ff161015612430576000600a8260ff16815481106120665761206661264c565b6000918252602082200154600160a060020a0316915061208582610ff8565b9050600084600160a060020a031683600160a060020a03161461241a57600160a060020a0383166000908152602081905260409020600301548211156120f257600160a060020a0383166000908152602081905260409020600301546120eb9083612691565b90506120f6565b5060005b801561241a57600160a060020a0383166000908152602081905260409020600401541561223357600160a060020a038316600090815260208190526040812060040154821015612147575080612165565b50600160a060020a0383166000908152602081905260409020600401545b600160a060020a03841660009081526020819052604090206004015461218c908290612691565b600160a060020a03851660009081526020819052604090206004810191909155600301546121bb90829061267e565b600160a060020a0380861660009081526020819052604080822060030193909355908816815220600201546121f190829061267e565b600160a060020a03808816600090815260208190526040808220600201939093559086168152206003015461222585610ff8565b61222f9190612691565b9150505b801561241a57600160a060020a0383166000908152602081905260408120600501805460ff169161226383612710565b82546101009290920a60ff81810219909316918316021790915560085433600090815260208190526040808220549051929093169350600160a060020a03909216917f9cb2653410f99cbecfa3f17c1cd571dd8b8def58653878d6dae9d0c08400531c91a380600b541061237e5780600b60008282546122e39190612691565b9091555050600160a060020a0383166000908152602081905260408120600301805483929061231390849061267e565b9091555050600160a060020a0383166000908152602081905260408120600601805483929061234390849061267e565b9091555050600160a060020a0385166000908152602081905260408120600201805483929061237390849061267e565b9091555061238e9050565b600c805461ff0019166101001790555b600254600160a060020a03841660009081526020819052604090206006015410156123fd57600160a060020a0383166000908152602081905260409020600601546002546123dc9190612691565b600160a060020a03841660009081526020819052604090206001015561241a565b600160a060020a0383166000908152602081905260408120600101555b505050808061242890612710565b915050612041565b506008805460ff1690600061244483612710565b91906101000a81548160ff021916908360ff160217905550505050565b600160a060020a038116600090815260208190526040902060068101546002909101541061252157600160a060020a0381166000908152602081905260408120600681015460029091018054919290916124bc908490612691565b9091555050600160a060020a038116600090815260208190526040812060060154600b8054919290916124f090849061267e565b9091555050600254600160a060020a0382166000908152602081905260408120600181019290925560069091015550565b600c805461ff00191661010017905550565b60006020828403121561254557600080fd5b813560ff8116811461255657600080fd5b9392505050565b60006020828403121561256f57600080fd5b8135600160a060020a038116811461255657600080fd5b60006020828403121561259857600080fd5b5035919050565b60e060020a634e487b7102600052602160045260246000fd5b60208101600483106125dd5760e060020a634e487b7102600052602160045260246000fd5b91905290565b60208082526010908201527f537461676520696e636f72726563746f00000000000000000000000000000000604082015260600190565b60e060020a634e487b7102600052601160045260246000fd5b60ff828116828216039081111561106c5761106c61261a565b60e060020a634e487b7102600052603260045260246000fd5b6000600182016126775761267761261a565b5060010190565b8082018082111561106c5761106c61261a565b8181038181111561106c5761106c61261a565b6000816126b3576126b361261a565b506000190190565b6000826126db5760e060020a634e487b7102600052601260045260246000fd5b500490565b60ff818116838216019081111561106c5761106c61261a565b808202811582820484141761106c5761106c61261a565b600060ff821660ff81036127265761272661261a565b60010192915050565b60006020828403121561274157600080fd5b5051919050565b60006020828403121561275a57600080fd5b8151801515811461255657600080fdfea2646970667358221220dc4287778b2c2532e24c7ad082671ebbb86c8e3dc192b6bc2f27733f8ae8fe2464736f6c634300081400336080604052600060078190556008805460ff19166001179055600b819055600c805461ff0019169055600d819055600e819055600f553480156200004257600080fd5b5060405162003017380380620030178339810160408190526200006591620005cd565b60108054600160a060020a031916600160a060020a03868116919091179091558716620000f3576040517f08c379a000000000000000000000000000000000000000000000000000000000815260206004820152601460248201527f616464726573732063616e74206265207a65726f00000000000000000000000060448201526064015b60405180910390fd5b600188118015620001055750600c8811155b6200016d576040517f08c379a000000000000000000000000000000000000000000000000000000000815260206004820152601060248201527f67726f75702073697a65206572726f72000000000000000000000000000000006044820152606401620000ea565b60028a1015620001da576040517f08c379a000000000000000000000000000000000000000000000000000000000815260206004820152601160248201527f6465706f73697420717479206572726f720000000000000000000000000000006044820152606401620000ea565b600289101562000247576040517f08c379a000000000000000000000000000000000000000000000000000000000815260206004820152601160248201527f7061796d656e7420717479206572726f720000000000000000000000000000006044820152606401620000ea565b60648611156200025657600080fd5b60018054600160a060020a03808a16600160a060020a031992831617909255600588905560048a81556006805486851690841617905560118054878516931692909217909155601054604080517f313ce5670000000000000000000000000000000000000000000000000000000081529051919093169263313ce56792818101926020929091908290030181865afa158015620002f7573d6000803e3d6000fd5b505050506040513d601f19601f820116820180604052508101906200031d919062000674565b6200032a90600a620007d1565b62000336908b620007e2565b600255601054604080517f313ce5670000000000000000000000000000000000000000000000000000000081529051600160a060020a039092169163313ce567916004808201926020929091908290030181865afa1580156200039d573d6000803e3d6000fd5b505050506040513d601f19601f82011682018060405250810190620003c3919062000674565b620003d090600a620007d1565b620003dc908a620007e2565b600355600c805460ff191690558767ffffffffffffffff811115620004055762000405620007fc565b6040519080825280602002602001820160405280156200042f578160200160208202803683370190505b5080516200044691600a9160209091019062000533565b5060008511620004b3576040517f08c379a000000000000000000000000000000000000000000000000000000000815260206004820152600d60248201527f70617974696d65206572726f72000000000000000000000000000000000000006044820152606401620000ea565b620004c085603c620007e2565b600d55600354612710908290620004d9906064620007e2565b620004e59190620007e2565b620004f191906200082b565b600f556004546003546040517fe934619c48e1b0b21b662adf6b7c08ad37e6f0d120f40a505503b4fd3bcfec5890600090a35050505050505050505062000867565b8280548282559060005260206000209081019282156200058b579160200282015b828111156200058b5782518254600160a060020a031916600160a060020a0390911617825560209092019160019091019062000554565b50620005999291506200059d565b5090565b5b808211156200059957600081556001016200059e565b600160a060020a0381168114620005ca57600080fd5b50565b6000806000806000806000806000806101408b8d031215620005ee57600080fd5b8a51995060208b0151985060408b0151975060608b01516200061081620005b4565b8097505060808b0151955060a08b0151945060c08b01516200063281620005b4565b60e08c01519094506200064581620005b4565b6101008c01519093506200065981620005b4565b809250506101208b015190509295989b9194979a5092959850565b6000602082840312156200068757600080fd5b815160ff811681146200069957600080fd5b9392505050565b7f4e487b7100000000000000000000000000000000000000000000000000000000600052601160045260246000fd5b600181815b8085111562000712578160001904821115620006f457620006f4620006a0565b808516156200070257918102915b60029094049390800290620006d4565b509250929050565b6000826200072b57506001620007cb565b816200073a57506000620007cb565b81600181146200075357600281146200075e576200077f565b6001915050620007cb565b60ff841115620007725762000772620006a0565b8360020a915050620007cb565b5060208310610133831016604e8410600b8410161715620007a4575081810a620007cb565b620007b08383620006cf565b8060001904821115620007c757620007c7620006a0565b0290505b92915050565b60006200069960ff8416836200071a565b8082028115828204841417620007cb57620007cb620006a0565b7f4e487b7100000000000000000000000000000000000000000000000000000000600052604160045260246000fd5b60008262000862577f4e487b7100000000000000000000000000000000000000000000000000000000600052601260045260246000fd5b500490565b6127a080620008776000396000f3fe608060405234801561001057600080fd5b506004361061022e576000357c010000000000000000000000000000000000000000000000000000000090048063749aa2d911610142578063a9d75b2b116100ca578063c949cb8311610099578063c949cb83146104ec578063db2e21bc146104ff578063ddca3f4314610507578063e8f4963114610510578063f851a4401461052357600080fd5b8063a9d75b2b146104ae578063b4501f39146104c1578063b4bde59e146104c9578063c040e6b8146104d257600080fd5b80638930361d116101115780638930361d146103a85780638b299903146103bb578063a0a8427e146103c8578063a0be06f9146103db578063a87430ba146103e457600080fd5b8063749aa2d91461036c5780637826e78f1461037457806378e979251461037d57806385f0f3781461038657600080fd5b80634390d2a8116101c55780635394dda8116101945780635394dda81461032c57806355e3f0861461033f5780635b6397e11461034757806363b635ea1461035a578063743c81ab1461036357600080fd5b80634390d2a8146102c8578063466afa0d146102f357806347f121a214610306578063504fc51d1461031957600080fd5b80632055baf4116102015780632055baf41461028a5780632d50e80d146102a457806330fceb6c146102ad5780634210a8d1146102b557600080fd5b806302b8c8cd1461023357806303ee306114610248578063086a29e71461026e5780631e58061514610281575b600080fd5b610246610241366004612533565b610536565b005b61025b610256366004612533565b6108fb565b6040519081526020015b60405180910390f35b61024661027c366004612533565b610949565b61025b60025481565b610292610c9c565b60405160ff9091168152602001610265565b61025b600d5481565b610246610d07565b61025b6102c3366004612533565b610f59565b6006546102db90600160a060020a031681565b604051600160a060020a039091168152602001610265565b610292610301366004612533565b610fa7565b6011546102db90600160a060020a031681565b61025b61032736600461255d565b610ff8565b6102db61033a366004612586565b611072565b61024661109c565b61025b610355366004612533565b61119f565b61025b60045481565b61025b60035481565b6102466111ed565b61025b600f5481565b61025b60095481565b600c5461039890610100900460ff1681565b6040519015158152602001610265565b6103986103b6366004612533565b61164f565b6008546102929060ff1681565b61025b6103d6366004612533565b6116a0565b61025b60055481565b61044c6103f236600461255d565b600060208190529081526040902080546001820154600283015460038401546004850154600586015460068701546007880154600890980154600160a060020a0388169860ff60a060020a9099048916989384169316908a565b60408051600160a060020a03909b168b5260ff998a1660208c01528a01979097526060890195909552608088019390935260a08701919091529390931660c085015260e084019290925290151561010083015261012082015261014001610265565b6010546102db90600160a060020a031681565b61025b6116ee565b61025b600b5481565b600c546104df9060ff1681565b60405161026591906125b8565b6102466104fa366004612586565b61174f565b610246611b7b565b61025b600e5481565b61025b61051e366004612533565b611ec1565b6001546102db90600160a060020a031681565b600080600c5460ff1660038111156105505761055061259f565b146105795760405160e560020a62461bcd028152600401610570906125e3565b60405180910390fd5b3360009081526020819052604090206007015460ff16156105df5760405160e560020a62461bcd02815260206004820152601260248201527f616c7265616479207265676973746572656400000000000000000000000000006044820152606401610570565b600454600754106106355760405160e560020a62461bcd02815260206004820152600d60248201527f67726f75702069732066756c6c000000000000000000000000000000000000006044820152606401610570565b6000600a610644600185612633565b60ff16815481106106575761065761264c565b600091825260209091200154600160a060020a0316146106bc5760405160e560020a62461bcd02815260206004820152600a60248201527f7475726e2074616b656e000000000000000000000000000000000000000000006044820152606401610570565b600780549060006106cc83612665565b909155505060408051610140810182523380825260ff8086166020808501918252600280548688019081526000606088018181526080890182815260a08a0183815260c08b0184815260e08c0185815260016101008e018181526101208f018881529d8852998790529d86209c518d549a518c1660a060020a0274ffffffffffffffffffffffffffffffffffffffffff19909b16600160a060020a039190911617999099178c5594519b8b019b909b5590518985015551600389015597516004880155516005870180549190951660ff1991821617909455915160068601555160078501805491151591909316179091559051600890920191909155546107d4903090611f0f565b6040519091508115159033907f4480e10f92b8eb473ee375c618f546a95bb106e9ac08855a51628a55f2f043e290600090a3600654600f5460009161082491600160a060020a0390911690611f0f565b6040519091508115159033907ffcc9de8628256fd80a029af5f9f600bdfc8ec089f618a40d63f7063060d227a590600090a3600254600b600082825461086a919061267e565b90915550339050600a61087e600187612633565b60ff16815481106108915761089161264c565b60009182526020822001805473ffffffffffffffffffffffffffffffffffffffff1916600160a060020a03939093169290921790915560405160ff86169133917f976bbd2f6af68a7eee78f5300f40d037367b165e65f157e6af4ae073b2befd499190a350505050565b600080600a61090b600185612633565b60ff168154811061091e5761091e61264c565b6000918252602080832090910154600160a060020a0316825281905260409020600601549392505050565b600080600c5460ff1660038111156109635761096361259f565b146109835760405160e560020a62461bcd028152600401610570906125e3565b600154600160a060020a03163314806109cf5750600a6109a4600184612633565b60ff16815481106109b7576109b761264c565b600091825260209091200154600160a060020a031633145b610a1e5760405160e560020a62461bcd02815260206004820152600d60248201527f6e6f74206175746f72697a6564000000000000000000000000000000000000006044820152606401610570565b6000600a610a2d600185612633565b60ff1681548110610a4057610a4061264c565b600091825260209091200154600160a060020a031603610aa55760405160e560020a62461bcd02815260206004820152600a60248201527f7475726e20656d707479000000000000000000000000000000000000000000006044820152606401610570565b600a610ab2600184612633565b60ff1681548110610ac557610ac561264c565b600091825260209091200154600154600160a060020a03918216911603610b315760405160e560020a62461bcd02815260206004820152600b60248201527f6e6f7420616c6c6f7765640000000000000000000000000000000000000000006044820152606401610570565b6000600a610b40600185612633565b60ff1681548110610b5357610b5361264c565b6000918252602080832090910154600160a060020a03168083529082905260409091206001015490915015610bdb57600160a060020a03811660009081526020819052604081206001018054919055600b54610bb0908290612691565b600b55600160a060020a03808316600090815260208190526040902054610bd8911682611fb2565b50505b6000600a610bea600186612633565b60ff1681548110610bfd57610bfd61264c565b60009182526020822001805473ffffffffffffffffffffffffffffffffffffffff1916600160a060020a0393909316929092179091556007805491610c41836126a4565b9091555050600160a060020a038116600081815260208190526040808220600701805460ff191690555160ff8616929133917fadfd51f69b0ad07e1815c54508f0be97ccfacda3e7553aef7b19e0cfc374be2b9190a4505050565b6000600180600c5460ff166003811115610cb857610cb861259f565b14610cd85760405160e560020a62461bcd028152600401610570906125e3565b6000600d5460095442610ceb9190612691565b610cf591906126bb565b610d009060016126e0565b9250505090565b3360009081526020819052604090206007015460ff16801515600114610d725760405160e560020a62461bcd02815260206004820152601560248201527f5573756172696f206e6f207265676973747261646f00000000000000000000006044820152606401610570565b600180600c5460ff166003811115610d8c57610d8c61259f565b14610dac5760405160e560020a62461bcd028152600401610570906125e3565b3360009081526020819052604081205460a060020a900460ff1690610dcf610c9c565b90508160ff168160ff1611610e295760405160e560020a62461bcd02815260206004820152600e60248201527f4e6f206573207475207475726e6f0000000000000000000000000000000000006044820152606401610570565b3360009081526020819052604090206008015415610e4657600080fd5b60085460ff80831691161015610e6557600854610e659060ff16612008565b3360008181526020819052604090206003015490610e8290610ff8565b1115610e9157610e9133612461565b336000908152602081905260408120600281018054908390556008909101805491928392610ec090849061267e565b909155505033600090815260208190526040812054610ee890600160a060020a031683611fb2565b33600090815260208190526040808220549051929350831515928592600160a060020a03909216917fd62c1f6f3c4444a52e394381f609a885a10cc992ad4b59f0815f22db3cc5923291a4600c54610100900460ff1615610f5157600c805460ff191660031790555b505050505050565b600080600a610f69600185612633565b60ff1681548110610f7c57610f7c61264c565b6000918252602080832090910154600160a060020a0316825281905260409020600301549392505050565b600080600a610fb7600185612633565b60ff1681548110610fca57610fca61264c565b6000918252602080832090910154600160a060020a03168252819052604090206005015460ff169392505050565b600854600160a060020a0382166000908152602081905260408120549091829160ff91821660a060020a909104909116116110565760085461103f9060019060ff16612633565b60ff1660035461104f91906126f9565b905061106c565b6008546003546110699160ff16906126f9565b90505b92915050565b600a818154811061108257600080fd5b600091825260209091200154600160a060020a0316905081565b600154600160a060020a03163381146110fa5760405160e560020a62461bcd02815260206004820152600e60248201527f4e6f7420617574686f72697a65640000000000000000000000000000000000006044820152606401610570565b600080600c5460ff1660038111156111145761111461259f565b146111345760405160e560020a62461bcd028152600401610570906125e3565b6004546007541461118a5760405160e560020a62461bcd02815260206004820152601060248201527f756e61737369676e6564207475726e73000000000000000000000000000000006044820152606401610570565b5050600c805460ff1916600117905542600955565b600080600a6111af600185612633565b60ff16815481106111c2576111c261264c565b6000918252602080832090910154600160a060020a0316825281905260409020600101549392505050565b600180600c5460ff1660038111156112075761120761259f565b146112275760405160e560020a62461bcd028152600401610570906125e3565b600454611232610c9c565b60ff16116112855760405160e560020a62461bcd02815260206004820152601860248201527f4e6f206861207465726d696e61646f206c6120726f6e646100000000000000006044820152606401610570565b60085460ff165b6004548160ff16116112b3576112a181612008565b806112ab81612710565b91505061128c565b506000805b6004548160ff161015611358576000600a8260ff16815481106112dd576112dd61264c565b6000918252602080832090910154600160a060020a031680835290829052604090912060068101546002909101549192501161131c5761131c81612461565b600160a060020a038116600090815260208190526040902060010154611342908461267e565b925050808061135090612710565b9150506112b8565b50600c54610100900460ff166115665760008060005b6004548160ff16101561153b576000600a8260ff16815481106113935761139361264c565b6000918252602080832090910154600b54600160a060020a0390911680845291839052604083206001015491935087916113cd91906126f9565b6113d791906126bb565b600160a060020a038316600090815260208190526040812060018101829055600701805460ff191690556005549192509060649061141590846126f9565b61141f91906126bb565b905061142b818761267e565b600160a060020a038416600090815260208190526040812060020154919750906114558385612691565b61145f919061267e565b600160a060020a03808616600090815260208190526040812060028101919091555491925061148f911682611fb2565b50600160a060020a03841660009081526020819052604081205460a060020a900460ff16806114bf86600a6126f9565b6114c991906126f9565b6114d391906126f9565b90506114e0600a826126bb565b6114ea908861267e565b60095460405191985060009550859250429130907f52a298e98008bccb662279d4de296612fe9d9fe846a899e25d485e12a0152545908590a45050505050808061153390612710565b91505061136e565b5060015461155290600160a060020a031683611fb2565b5050600c805460ff19166002179055505050565b60005b6004548160ff16101561163d576000600a8260ff168154811061158e5761158e61264c565b6000918252602080832090910154600b54600160a060020a0390911680845291839052604083206001015491935085916115c891906126f9565b6115d291906126bb565b600160a060020a0383166000908152602081905260409020600201546115f8919061267e565b5050600160a060020a03166000908152602081905260408120600281018290556001810191909155600701805460ff191690558061163581612710565b915050611569565b5050600c805460ff1916600317905550565b600080600a61165f600185612633565b60ff16815481106116725761167261264c565b6000918252602080832090910154600160a060020a03168252819052604090206007015460ff169392505050565b600080600a6116b0600185612633565b60ff16815481106116c3576116c361264c565b6000918252602080832090910154600160a060020a0316825281905260409020600201549392505050565b60008060016004546117009190612691565b60035461170d91906126f9565b33600090815260208190526040812060068101546004820154600390920154939450919261173b9085612691565b6117459190612691565b610d00919061267e565b3360009081526020819052604090206007015460ff168015156001146117ba5760405160e560020a62461bcd02815260206004820152601560248201527f5573756172696f206e6f207265676973747261646f00000000000000000000006044820152606401610570565b600180600c5460ff1660038111156117d4576117d461259f565b146117f45760405160e560020a62461bcd028152600401610570906125e3565b6117fc6116ee565b831115801561180b5750600083115b61185a5760405160e560020a62461bcd02815260206004820152600f60248201527f5061676f20696e636f72726563746f00000000000000000000000000000000006044820152606401610570565b6000611864610c9c565b60085490915060ff80831691161015611886576008546118869060ff16612008565b600854600090600a9061189e9060019060ff16612633565b60ff16815481106118b1576118b161264c565b600091825260208083209091015433835290829052604082206004018054600160a060020a039092169350879283926118eb90849061267e565b90915550600090506118fc33610ff8565b33600090815260208190526040812060030154919250908190831161192457600091506119e4565b336000908152602081905260409020600301546119419084612691565b9150600160a060020a03851633146119e45783821015611962575080611965565b50825b3360009081526020819052604081206004018054839290611987908490612691565b9091555050600160a060020a038516600090815260208190526040812060020180548392906119b790849061267e565b909155505033600090815260208190526040812060030180548392906119de90849061267e565b90915550505b3360009081526020819052604090206006015415801590611a1657503360009081526020819052604090206004015415155b15611ac957336000908152602081905260408120600481015460069091015411611a53575033600090815260208190526040902060060154611a68565b50336000908152602081905260409020600401545b3360009081526020819052604081206004018054839290611a8a908490612691565b9091555050600b54611a9d90829061267e565b600b553360009081526020819052604081206006018054839290611ac2908490612691565b9091555050505b600254336000908152602081905260409020600601541015611b1d5733600090815260208190526040902060060154600254611b059190612691565b33600090815260208190526040902060010155611b31565b336000908152602081905260408120600101555b6000611b3d308b611f0f565b6040519091508115159033907f02d1bc4c41f0968b82fd72dc5877b3df473c2bcab943abd81229c5b825b2132190600090a350505050505050505050565b600380600c5460ff166003811115611b9557611b9561259f565b14611bb55760405160e560020a62461bcd028152600401610570906125e3565b6010546040517f70a08231000000000000000000000000000000000000000000000000000000008152306004820152600091600160a060020a0316906370a0823190602401602060405180830381865afa158015611c17573d6000803e3d6000fd5b505050506040513d601f19601f82011682018060405250810190611c3b919061272f565b11611c8b5760405160e560020a62461bcd02815260206004820152601860248201527f4e6f206861792073616c646f20706f72207265746972617200000000000000006044820152606401610570565b60085460ff165b6004548160ff1611611cb957611ca781612008565b80611cb181612710565b915050611c92565b506010546040517f70a08231000000000000000000000000000000000000000000000000000000008152306004820152600091600160a060020a0316906370a0823190602401602060405180830381865afa158015611d1c573d6000803e3d6000fd5b505050506040513d601f19601f82011682018060405250810190611d40919061272f565b905060005b6004548160ff161015611e71576000600a8260ff1681548110611d6a57611d6a61264c565b600091825260209091200154600160a060020a03169050611d8a81612461565b600160a060020a038116600090815260208190526040902060080154158015611db35750600083115b15611e5e57600160a060020a0381166000908152602081905260409020600201548310611e3757600160a060020a0380821660009081526020819052604090208054600290910154611e09929190911690611fb2565b50600160a060020a038116600090815260208190526040902060020154611e309084612691565b9250611e5e565b600160a060020a03808216600090815260208190526040902054611e5c911684611fb2565b505b5080611e6981612710565b915050611d45565b508015611e9057600654611e8e90600160a060020a031682611fb2565b505b604051819030907f5fafa99d0643513820be26656b45130b01e1c03062e1266bf36f88cbd3bd969590600090a35050565b600080600a611ed1600185612633565b60ff1681548110611ee457611ee461264c565b6000918252602080832090910154600160a060020a0316825281905260409020600401549392505050565b6010546040517f23b872dd000000000000000000000000000000000000000000000000000000008152336004820152600160a060020a0384811660248301526044820184905260009283929116906323b872dd906064015b6020604051808303816000875af1158015611f86573d6000803e3d6000fd5b505050506040513d601f19601f82011682018060405250810190611faa9190612748565b949350505050565b6010546040517fa9059cbb000000000000000000000000000000000000000000000000000000008152600160a060020a03848116600483015260248201849052600092839291169063a9059cbb90604401611f67565b6000600a612017600184612633565b60ff168154811061202a5761202a61264c565b6000918252602082200154600160a060020a031691505b6004548160ff161015612430576000600a8260ff16815481106120665761206661264c565b6000918252602082200154600160a060020a0316915061208582610ff8565b9050600084600160a060020a031683600160a060020a03161461241a57600160a060020a0383166000908152602081905260409020600301548211156120f257600160a060020a0383166000908152602081905260409020600301546120eb9083612691565b90506120f6565b5060005b801561241a57600160a060020a0383166000908152602081905260409020600401541561223357600160a060020a038316600090815260208190526040812060040154821015612147575080612165565b50600160a060020a0383166000908152602081905260409020600401545b600160a060020a03841660009081526020819052604090206004015461218c908290612691565b600160a060020a03851660009081526020819052604090206004810191909155600301546121bb90829061267e565b600160a060020a0380861660009081526020819052604080822060030193909355908816815220600201546121f190829061267e565b600160a060020a03808816600090815260208190526040808220600201939093559086168152206003015461222585610ff8565b61222f9190612691565b9150505b801561241a57600160a060020a0383166000908152602081905260408120600501805460ff169161226383612710565b82546101009290920a60ff81810219909316918316021790915560085433600090815260208190526040808220549051929093169350600160a060020a03909216917f9cb2653410f99cbecfa3f17c1cd571dd8b8def58653878d6dae9d0c08400531c91a380600b541061237e5780600b60008282546122e39190612691565b9091555050600160a060020a0383166000908152602081905260408120600301805483929061231390849061267e565b9091555050600160a060020a0383166000908152602081905260408120600601805483929061234390849061267e565b9091555050600160a060020a0385166000908152602081905260408120600201805483929061237390849061267e565b9091555061238e9050565b600c805461ff0019166101001790555b600254600160a060020a03841660009081526020819052604090206006015410156123fd57600160a060020a0383166000908152602081905260409020600601546002546123dc9190612691565b600160a060020a03841660009081526020819052604090206001015561241a565b600160a060020a0383166000908152602081905260408120600101555b505050808061242890612710565b915050612041565b506008805460ff1690600061244483612710565b91906101000a81548160ff021916908360ff160217905550505050565b600160a060020a038116600090815260208190526040902060068101546002909101541061252157600160a060020a0381166000908152602081905260408120600681015460029091018054919290916124bc908490612691565b9091555050600160a060020a038116600090815260208190526040812060060154600b8054919290916124f090849061267e565b9091555050600254600160a060020a0382166000908152602081905260408120600181019290925560069091015550565b600c805461ff00191661010017905550565b60006020828403121561254557600080fd5b813560ff8116811461255657600080fd5b9392505050565b60006020828403121561256f57600080fd5b8135600160a060020a038116811461255657600080fd5b60006020828403121561259857600080fd5b5035919050565b60e060020a634e487b7102600052602160045260246000fd5b60208101600483106125dd5760e060020a634e487b7102600052602160045260246000fd5b91905290565b60208082526010908201527f537461676520696e636f72726563746f00000000000000000000000000000000604082015260600190565b60e060020a634e487b7102600052601160045260246000fd5b60ff828116828216039081111561106c5761106c61261a565b60e060020a634e487b7102600052603260045260246000fd5b6000600182016126775761267761261a565b5060010190565b8082018082111561106c5761106c61261a565b8181038181111561106c5761106c61261a565b6000816126b3576126b361261a565b506000190190565b6000826126db5760e060020a634e487b7102600052601260045260246000fd5b500490565b60ff818116838216019081111561106c5761106c61261a565b808202811582820484141761106c5761106c61261a565b600060ff821660ff81036127265761272661261a565b60010192915050565b60006020828403121561274157600080fd5b5051919050565b60006020828403121561275a57600080fd5b8151801515811461255657600080fdfea264697066735822122009bf92264c629a185bf0cdb7d196fe7ec3fd081dca1b33fd3c2ea646251850e864736f6c63430008140033a2646970667358221220648b14aa3a7c5bbe2e4ef9b7a4a1f975325931d41828db8bf51564818c7870b164736f6c63430008140033",
  "immutableReferences": {},
  "source": "// SPDX-License-Identifier: BSD 3-Clause License\npragma solidity ^0.8.18;\n\nimport \"@openzeppelin/contracts/access/AccessControl.sol\";\nimport \"@openzeppelin/contracts/access/IAccessControl.sol\";\nimport \"./SavingGroups.sol\";\nimport \"./SavingGroupsMXN.sol\";\nimport \"./BLXToken.sol\";\n\ncontract Main is AccessControl {\n    address public devFund = 0xd1Fa9e091f65027F897FC3F911032C3ec8390D3f;\n    uint256 public fee = 5;\n    IAccessControl public Iblx;\n    BLXToken public blx;\n\n    event UsdRoundCreated(SavingGroups childRound);\n    event MxnRoundCreated(SavingGroupsMXN childRoundMXN);\n\n    constructor() public {\n        _setupRole(DEFAULT_ADMIN_ROLE, msg.sender);\n    }\n\n    function createRoundUSD(\n        uint256 _warranty,\n        uint256 _saving,\n        uint256 _groupSize,\n        uint256 _adminFee,\n        uint256 _payTime,\n        ERC20 _token,\n        address _blxaddr\n    ) external payable returns (address) {\n        Iblx = IAccessControl(_blxaddr);\n        blx = BLXToken(address(0));\n        require(\n            ERC20(_token) != ERC20(0xBD1fe73e1f12bD2bc237De9b626F056f21f86427),\n            \"MXN not allowed\"\n        );\n        SavingGroups newRound = new SavingGroups(\n            _warranty,\n            _saving,\n            _groupSize,\n            msg.sender,\n            _adminFee,\n            _payTime,\n            _token,\n            blx,\n            devFund,\n            fee\n        );\n        //Iblx.grantRole(0x0000000000000000000000000000000000000000004d494e5445525f524f4c45, address(newRound));  //minter 0x0000000000000000000000000000000000000000004d494e5445525f524f4c45\n        emit UsdRoundCreated(newRound);\n        return address(newRound);\n    }\n\n    function createRoundMXN(\n        uint256 _warranty,\n        uint256 _saving,\n        uint256 _groupSize,\n        uint256 _adminFee,\n        uint256 _payTime,\n        address _blxaddr\n    ) external payable returns (address) {\n        Iblx = IAccessControl(_blxaddr);\n        blx = BLXToken(address(0));\n        SavingGroupsMXN newRound = new SavingGroupsMXN(\n            _warranty,\n            _saving,\n            _groupSize,\n            msg.sender,\n            _adminFee,\n            _payTime,\n            ERC20(0xBD1fe73e1f12bD2bc237De9b626F056f21f86427),\n            blx,\n            devFund,\n            fee\n        );\n        //Iblx.grantRole(0x0000000000000000000000000000000000000000004d494e5445525f524f4c45, address(newRound));  //minter 0x0000000000000000000000000000000000000000004d494e5445525f524f4c45\n        emit MxnRoundCreated(newRound);\n        return address(newRound);\n    }\n\n    function setDevFundAddress(\n        address _devFund\n    ) public onlyRole(DEFAULT_ADMIN_ROLE) {\n        //admin 0x0000000000000000000000000000000000000000000041444d494e5f524f4c45\n        devFund = _devFund;\n    }\n\n    function setFee(uint256 _fee) public onlyRole(DEFAULT_ADMIN_ROLE) {\n        //admin 0x0000000000000000000000000000000000000000000041444d494e5f524f4c45\n        fee = _fee;\n    }\n}\n",
  "sourcePath": "/Users/artur/Desktop/Bloinx/bloinx-contracts/contracts/Main.sol",
  "compiler": {
    "name": "solc",
    "version": "0.8.20+commit.a1b79de6.Emscripten.clang"
  },
  "schemaVersion": "3.4.12",
  "updatedAt": "2023-05-24T18:36:39.798Z",
  "devdoc": {
    "events": {
      "RoleAdminChanged(bytes32,bytes32,bytes32)": {
        "details": "Emitted when `newAdminRole` is set as ``role``'s admin role, replacing `previousAdminRole` `DEFAULT_ADMIN_ROLE` is the starting admin for all roles, despite {RoleAdminChanged} not being emitted signaling this. _Available since v3.1._"
      },
      "RoleGranted(bytes32,address,address)": {
        "details": "Emitted when `account` is granted `role`. `sender` is the account that originated the contract call, an admin role bearer except when using {AccessControl-_setupRole}."
      },
      "RoleRevoked(bytes32,address,address)": {
        "details": "Emitted when `account` is revoked `role`. `sender` is the account that originated the contract call:   - if using `revokeRole`, it is the admin role bearer   - if using `renounceRole`, it is the role bearer (i.e. `account`)"
      }
    },
    "kind": "dev",
    "methods": {
      "getRoleAdmin(bytes32)": {
        "details": "Returns the admin role that controls `role`. See {grantRole} and {revokeRole}. To change a role's admin, use {_setRoleAdmin}."
      },
      "grantRole(bytes32,address)": {
        "details": "Grants `role` to `account`. If `account` had not been already granted `role`, emits a {RoleGranted} event. Requirements: - the caller must have ``role``'s admin role."
      },
      "hasRole(bytes32,address)": {
        "details": "Returns `true` if `account` has been granted `role`."
      },
      "renounceRole(bytes32,address)": {
        "details": "Revokes `role` from the calling account. Roles are often managed via {grantRole} and {revokeRole}: this function's purpose is to provide a mechanism for accounts to lose their privileges if they are compromised (such as when a trusted device is misplaced). If the calling account had been revoked `role`, emits a {RoleRevoked} event. Requirements: - the caller must be `account`."
      },
      "revokeRole(bytes32,address)": {
        "details": "Revokes `role` from `account`. If `account` had been granted `role`, emits a {RoleRevoked} event. Requirements: - the caller must have ``role``'s admin role."
      },
      "supportsInterface(bytes4)": {
        "details": "See {IERC165-supportsInterface}."
      }
    },
    "version": 1
  },
  "userdoc": {
    "kind": "user",
    "methods": {},
    "version": 1
  }
}