{
  "contractName": "Main",
  "abi": [
    {
      "anonymous": false,
      "inputs": [
        {
          "indexed": false,
          "internalType": "contract SavingGroups",
          "name": "childTanda",
          "type": "address"
        }
      ],
      "name": "TandaCreated",
      "type": "event"
    },
    {
      "inputs": [
        {
          "internalType": "uint256",
          "name": "_garantia",
          "type": "uint256"
        },
        {
          "internalType": "uint256",
          "name": "_ahorro",
          "type": "uint256"
        },
        {
          "internalType": "uint256",
          "name": "_groupSize",
          "type": "uint256"
        },
        {
          "internalType": "uint256",
          "name": "_payTime",
          "type": "uint256"
        },
        {
          "internalType": "uint256",
          "name": "_withdrawTime",
          "type": "uint256"
        }
      ],
      "name": "createTanda",
      "outputs": [
        {
          "internalType": "address",
          "name": "",
          "type": "address"
        }
      ],
      "stateMutability": "payable",
      "type": "function",
      "payable": true
    }
  ],
  "bytecode": "0x608060405234801561001057600080fd5b50613614806100206000396000f3fe60806040526004361061001e5760003560e01c80636cbd1e8d14610023575b600080fd5b610077600480360360a081101561003957600080fd5b8101908080359060200190929190803590602001909291908035906020019092919080359060200190929190803590602001909291905050506100a3565b604051808273ffffffffffffffffffffffffffffffffffffffff16815260200191505060405180910390f35b6000808686863387876040516100b890610174565b808781526020018681526020018581526020018473ffffffffffffffffffffffffffffffffffffffff1681526020018381526020018281526020019650505050505050604051809103906000f080158015610117573d6000803e3d6000fd5b5090507fa990b0feed19232d29bd87b5ac745ba0982019f89d3c2739422d61327850be0081604051808273ffffffffffffffffffffffffffffffffffffffff16815260200191505060405180910390a18091505095945050505050565b61345d806101828339019056fe608060405260006005556001600655600060085560006009556000600b5562093a80600f5562093a806010553480156200003857600080fd5b506040516200345d3803806200345d83398181016040528101906200005e919062000395565b82600160006101000a81548173ffffffffffffffffffffffffffffffffffffffff021916908373ffffffffffffffffffffffffffffffffffffffff16021790555067016345785d8a0000860260028190555067016345785d8a00008502600381905550836004819055506000600a819055506000600e60006101000a81548160ff02191690836002811115620000f057fe5b02179055508367ffffffffffffffff811180156200010d57600080fd5b506040519080825280602002602001820160405280156200013d5781602001602082028036833780820191505090505b50600c90805190602001906200015592919062000267565b508367ffffffffffffffff811180156200016e57600080fd5b506040519080825280602002602001820160405280156200019e5781602001602082028036833780820191505090505b50600d9080519060200190620001b6929190620002f6565b5060008211620001fd576040517f08c379a0000000000000000000000000000000000000000000000000000000008152600401620001f490620004fb565b60405180910390fd5b6000811162000243576040517f08c379a00000000000000000000000000000000000000000000000000000000081526004016200023a906200051d565b60405180910390fd5b816201518002600f81905550806201518002601081905550505050505050620005c2565b828054828255906000526020600020908101928215620002e3579160200282015b82811115620002e25782518260006101000a81548173ffffffffffffffffffffffffffffffffffffffff021916908373ffffffffffffffffffffffffffffffffffffffff1602179055509160200191906001019062000288565b5b509050620002f2919062000348565b5090565b82805482825590600052602060002090810192821562000335579160200282015b828111156200033457825182559160200191906001019062000317565b5b50905062000344919062000348565b5090565b5b808211156200036357600081600090555060010162000349565b5090565b60008151905062000378816200058e565b92915050565b6000815190506200038f81620005a8565b92915050565b60008060008060008060c08789031215620003af57600080fd5b6000620003bf89828a016200037e565b9650506020620003d289828a016200037e565b9550506040620003e589828a016200037e565b9450506060620003f889828a0162000367565b93505060806200040b89828a016200037e565b92505060a06200041e89828a016200037e565b9150509295509295509295565b60006200043a6030836200053f565b91507f456c207469656d706f2070617261207061676172206e6f20707565646520736560008301527f72206d656e6f72206120756e20646961000000000000000000000000000000006020830152604082019050919050565b6000620004a2603d836200053f565b91507f456c207469656d706f20706172612072657469726172206c6f7320666f6e646f60008301527f73206e6f20707565646520736572206d656e6f72206120756e206469610000006020830152604082019050919050565b6000602082019050818103600083015262000516816200042b565b9050919050565b60006020820190508181036000830152620005388162000493565b9050919050565b600082825260208201905092915050565b60006200055d8262000564565b9050919050565b600073ffffffffffffffffffffffffffffffffffffffff82169050919050565b6000819050919050565b620005998162000550565b8114620005a557600080fd5b50565b620005b38162000584565b8114620005bf57600080fd5b50565b612e8b80620005d26000396000f3fe6080604052600436106101405760003560e01c806364f9a17c116100b6578063a87430ba1161006f578063a87430ba1461034c578063b4bde59e1461038c578063b6a26cab146103b7578063b842478b146103c1578063c040e6b8146103ec578063f851a4401461041757610140565b806364f9a17c146102ad5780636f3d7e64146102d857806371c5061c146102e257806378e97925146102ec5780637dab7531146103175780638b2999031461032157610140565b80632eb1bf15116101085780632eb1bf15146101bc57806330fceb6c146101f957806345cb3dde146102035780635394dda81461022e57806355e3f0861461026b57806363b635ea1461028257610140565b806311dc470314610145578063193e76c7146101615780631bbfae0e1461016b5780632d14252f146101875780632d50e80d14610191575b600080fd5b61015f600480360381019061015a9190612766565b610442565b005b6101696107f7565b005b61018560048036038101906101809190612766565b610b77565b005b61018f610eca565b005b34801561019d57600080fd5b506101a6611226565b6040516101b39190612d11565b60405180910390f35b3480156101c857600080fd5b506101e360048036038101906101de9190612766565b61122c565b6040516101f09190612d11565b60405180910390f35b610201611250565b005b34801561020f57600080fd5b50610218611633565b6040516102259190612d11565b60405180910390f35b34801561023a57600080fd5b5061025560048036038101906102509190612766565b611639565b6040516102629190612b1b565b60405180910390f35b34801561027757600080fd5b50610280611678565b005b34801561028e57600080fd5b506102976117c7565b6040516102a49190612d11565b60405180910390f35b3480156102b957600080fd5b506102c26117cd565b6040516102cf9190612d11565b60405180910390f35b6102e06117d3565b005b6102ea611a64565b005b3480156102f857600080fd5b50610301611cd3565b60405161030e9190612d11565b60405180910390f35b61031f611cd9565b005b34801561032d57600080fd5b50610336611fda565b6040516103439190612d11565b60405180910390f35b34801561035857600080fd5b50610373600480360381019061036e919061273d565b611fe0565b6040516103839493929190612b51565b60405180910390f35b34801561039857600080fd5b506103a1612057565b6040516103ae9190612d11565b60405180910390f35b6103bf61205d565b005b3480156103cd57600080fd5b506103d66122b2565b6040516103e39190612d11565b60405180910390f35b3480156103f857600080fd5b506104016122b8565b60405161040e9190612b96565b60405180910390f35b34801561042357600080fd5b5061042c6122cb565b6040516104399190612b36565b60405180910390f35b600160009054906101000a900473ffffffffffffffffffffffffffffffffffffffff168073ffffffffffffffffffffffffffffffffffffffff163373ffffffffffffffffffffffffffffffffffffffff16146104e9576040517f08c379a0000000000000000000000000000000000000000000000000000000008152600401808060200182810382526025815260200180612e0e6025913960400191505060405180910390fd5b60008060028111156104f757fe5b600e60009054906101000a900460ff16600281111561051257fe5b1461051c57600080fd5b600073ffffffffffffffffffffffffffffffffffffffff16600c600185038154811061054457fe5b9060005260206000200160009054906101000a900473ffffffffffffffffffffffffffffffffffffffff1673ffffffffffffffffffffffffffffffffffffffff1614156105c6576040517f08c379a00000000000000000000000000000000000000000000000000000000081526004016105bd90612c31565b60405180910390fd5b6000600c60018503815481106105d857fe5b9060005260206000200160009054906101000a900473ffffffffffffffffffffffffffffffffffffffff16905060008060008373ffffffffffffffffffffffffffffffffffffffff1673ffffffffffffffffffffffffffffffffffffffff16815260200190815260200160002060000160169054906101000a900460ff1660ff16141561071757600254600954036009819055506000808273ffffffffffffffffffffffffffffffffffffffff1673ffffffffffffffffffffffffffffffffffffffff16815260200190815260200160002060000160009054906101000a900473ffffffffffffffffffffffffffffffffffffffff1673ffffffffffffffffffffffffffffffffffffffff166108fc6002549081150290604051600060405180830381858888f19350505050158015610715573d6000803e3d6000fd5b505b6000600c600186038154811061072957fe5b9060005260206000200160006101000a81548173ffffffffffffffffffffffffffffffffffffffff021916908373ffffffffffffffffffffffffffffffffffffffff16021790555060056000815480929190600190039190505550600a600081548092919060019003919050555060008060008373ffffffffffffffffffffffffffffffffffffffff1673ffffffffffffffffffffffffffffffffffffffff16815260200190815260200160002060000160156101000a81548160ff02191690831515021790555050505050565b6000803373ffffffffffffffffffffffffffffffffffffffff1673ffffffffffffffffffffffffffffffffffffffff16815260200190815260200160002060000160159054906101000a900460ff1660011515811515146108c0576040517f08c379a00000000000000000000000000000000000000000000000000000000081526004018080602001828103825260158152602001807f5573756172696f206e6f207265676973747261646f000000000000000000000081525060200191505060405180910390fd5b34600254808214610939576040517f08c379a00000000000000000000000000000000000000000000000000000000081526004018080602001828103825260148152602001807f466f6e646f7320496e737566696369656e74657300000000000000000000000081525060200191505060405180910390fd5b600c6001600654038154811061094b57fe5b9060005260206000200160009054906101000a900473ffffffffffffffffffffffffffffffffffffffff168073ffffffffffffffffffffffffffffffffffffffff163373ffffffffffffffffffffffffffffffffffffffff161415610a18576040517f08c379a000000000000000000000000000000000000000000000000000000000815260040180806020018281038252601a8152602001807f456e2065737465207475726e6f206e6f206465706f736974617300000000000081525060200191505060405180910390fd5b6001806002811115610a2657fe5b600e60009054906101000a900460ff166002811115610a4157fe5b14610a4b57600080fd5b600015156000803373ffffffffffffffffffffffffffffffffffffffff1673ffffffffffffffffffffffffffffffffffffffff16815260200190815260200160002060000160149054906101000a900460ff16151514610ae0576040517f08c379a0000000000000000000000000000000000000000000000000000000008152600401610ad790612c91565b60405180910390fd5b60105460016006540302600f54600654026007540101421115610b0a57610b05611cd9565b610b70565b346008540160088190555060016000803373ffffffffffffffffffffffffffffffffffffffff1673ffffffffffffffffffffffffffffffffffffffff16815260200190815260200160002060000160146101000a81548160ff0219169083151502179055505b5050505050565b34600254808214610bf0576040517f08c379a00000000000000000000000000000000000000000000000000000000081526004018080602001828103825260148152602001807f466f6e646f7320496e737566696369656e74657300000000000000000000000081525060200191505060405180910390fd5b6000806002811115610bfe57fe5b600e60009054906101000a900460ff166002811115610c1957fe5b14610c2357600080fd5b60045460055410610c69576040517f08c379a0000000000000000000000000000000000000000000000000000000008152600401610c6090612c71565b60405180910390fd5b600073ffffffffffffffffffffffffffffffffffffffff16600c6001860381548110610c9157fe5b9060005260206000200160009054906101000a900473ffffffffffffffffffffffffffffffffffffffff1673ffffffffffffffffffffffffffffffffffffffff1614610d12576040517f08c379a0000000000000000000000000000000000000000000000000000000008152600401610d0990612bf1565b60405180910390fd5b6005600081548092919060010191905055503460095401600981905550600a6000815480929190600101919050555060405180608001604052803373ffffffffffffffffffffffffffffffffffffffff168152602001600015158152602001600115158152602001600060ff168152506000803373ffffffffffffffffffffffffffffffffffffffff1673ffffffffffffffffffffffffffffffffffffffff16815260200190815260200160002060008201518160000160006101000a81548173ffffffffffffffffffffffffffffffffffffffff021916908373ffffffffffffffffffffffffffffffffffffffff16021790555060208201518160000160146101000a81548160ff02191690831515021790555060408201518160000160156101000a81548160ff02191690831515021790555060608201518160000160166101000a81548160ff021916908360ff16021790555090505033600c6001860381548110610e7c57fe5b9060005260206000200160006101000a81548173ffffffffffffffffffffffffffffffffffffffff021916908373ffffffffffffffffffffffffffffffffffffffff16021790555050505050565b6002806002811115610ed857fe5b600e60009054906101000a900460ff166002811115610ef357fe5b14610efd57600080fd5b600160009054906101000a900473ffffffffffffffffffffffffffffffffffffffff168073ffffffffffffffffffffffffffffffffffffffff163373ffffffffffffffffffffffffffffffffffffffff1614610fa4576040517f08c379a0000000000000000000000000000000000000000000000000000000008152600401808060200182810382526025815260200180612e0e6025913960400191505060405180910390fd5b600a5460095481610fb157fe5b04600b8190555060005b6004548160ff1610156111f5576000600c8260ff1681548110610fda57fe5b9060005260206000200160009054906101000a900473ffffffffffffffffffffffffffffffffffffffff169050600a5460025402600954101561118d5760008060008373ffffffffffffffffffffffffffffffffffffffff1673ffffffffffffffffffffffffffffffffffffffff16815260200190815260200160002060000160169054906101000a900460ff1660ff161415611129576000808273ffffffffffffffffffffffffffffffffffffffff1673ffffffffffffffffffffffffffffffffffffffff16815260200190815260200160002060000160009054906101000a900473ffffffffffffffffffffffffffffffffffffffff1673ffffffffffffffffffffffffffffffffffffffff166108fc600b549081150290604051600060405180830381858888f1935050505015801561111a573d6000803e3d6000fd5b50600b54600954036009819055505b60016000808373ffffffffffffffffffffffffffffffffffffffff1673ffffffffffffffffffffffffffffffffffffffff16815260200190815260200160002060000160166101000a81548160ff021916908360ff16021790555061118c6122f1565b5b60008060008373ffffffffffffffffffffffffffffffffffffffff1673ffffffffffffffffffffffffffffffffffffffff16815260200190815260200160002060000160146101000a81548160ff021916908315150217905550508080600101915050610fbb565b5060016006819055506000600e60006101000a81548160ff0219169083600281111561121d57fe5b02179055505050565b600f5481565b600d818154811061123c57600080fd5b906000526020600020016000915090505481565b6000803373ffffffffffffffffffffffffffffffffffffffff1673ffffffffffffffffffffffffffffffffffffffff16815260200190815260200160002060000160159054906101000a900460ff166001151581151514611319576040517f08c379a00000000000000000000000000000000000000000000000000000000081526004018080602001828103825260158152602001807f5573756172696f206e6f207265676973747261646f000000000000000000000081525060200191505060405180910390fd5b600180600281111561132757fe5b600e60009054906101000a900460ff16600281111561134257fe5b1461134c57600080fd5b600c6001600654038154811061135e57fe5b9060005260206000200160009054906101000a900473ffffffffffffffffffffffffffffffffffffffff168073ffffffffffffffffffffffffffffffffffffffff163373ffffffffffffffffffffffffffffffffffffffff161461140d576040517f08c379a0000000000000000000000000000000000000000000000000000000008152600401808060200182810382526023815260200180612e336023913960400191505060405180910390fd5b60105460065402600f54600654026007540101421115611462576040517f08c379a000000000000000000000000000000000000000000000000000000000815260040161145990612cd1565b60405180910390fd5b4260105460016006540302600f54600654026007540101108015611490575060035460016004540302600854105b1561149e5761149d6123c7565b5b60035460016004540302600854146114eb576040517f08c379a00000000000000000000000000000000000000000000000000000000081526004016114e290612c51565b60405180910390fd5b6000600c600160065403815481106114ff57fe5b9060005260206000200160009054906101000a900473ffffffffffffffffffffffffffffffffffffffff1690506000808273ffffffffffffffffffffffffffffffffffffffff1673ffffffffffffffffffffffffffffffffffffffff16815260200190815260200160002060000160009054906101000a900473ffffffffffffffffffffffffffffffffffffffff1673ffffffffffffffffffffffffffffffffffffffff166108fc6008549081150290604051600060405180830381858888f193505050501580156115d5573d6000803e3d6000fd5b50600060088190555060045460065410611612576002600e60006101000a81548160ff0219169083600281111561160857fe5b021790555061161b565b61161a612659565b5b60066000815480929190600101919050555050505050565b60105481565b600c818154811061164957600080fd5b906000526020600020016000915054906101000a900473ffffffffffffffffffffffffffffffffffffffff1681565b600160009054906101000a900473ffffffffffffffffffffffffffffffffffffffff168073ffffffffffffffffffffffffffffffffffffffff163373ffffffffffffffffffffffffffffffffffffffff161461171f576040517f08c379a0000000000000000000000000000000000000000000000000000000008152600401808060200182810382526025815260200180612e0e6025913960400191505060405180910390fd5b600080600281111561172d57fe5b600e60009054906101000a900460ff16600281111561174857fe5b1461175257600080fd5b600454600a5414611798576040517f08c379a000000000000000000000000000000000000000000000000000000000815260040161178f90612c11565b60405180910390fd5b6001600e60006101000a81548160ff021916908360028111156117b757fe5b0217905550426007819055505050565b60045481565b60085481565b600160009054906101000a900473ffffffffffffffffffffffffffffffffffffffff168073ffffffffffffffffffffffffffffffffffffffff163373ffffffffffffffffffffffffffffffffffffffff161461187a576040517f08c379a0000000000000000000000000000000000000000000000000000000008152600401808060200182810382526025815260200180612e0e6025913960400191505060405180910390fd5b600180600281111561188857fe5b600e60009054906101000a900460ff1660028111156118a357fe5b146118ad57600080fd5b4260105460065402600f5460065402600754010110611901576040517f08c379a00000000000000000000000000000000000000000000000000000000081526004016118f890612bd1565b60405180910390fd5b60035460016004540302600854101561191d5761191c6123c7565b5b6000600c6001600654038154811061193157fe5b9060005260206000200160009054906101000a900473ffffffffffffffffffffffffffffffffffffffff1690506000808273ffffffffffffffffffffffffffffffffffffffff1673ffffffffffffffffffffffffffffffffffffffff16815260200190815260200160002060000160009054906101000a900473ffffffffffffffffffffffffffffffffffffffff1673ffffffffffffffffffffffffffffffffffffffff166108fc6008549081150290604051600060405180830381858888f19350505050158015611a07573d6000803e3d6000fd5b50600060088190555060045460065410611a44576002600e60006101000a81548160ff02191690836002811115611a3a57fe5b0217905550611a4d565b611a4c612659565b5b600660008154809291906001019190505550505050565b6000806002811115611a7257fe5b600e60009054906101000a900460ff166002811115611a8d57fe5b14611a9757600080fd5b6000803373ffffffffffffffffffffffffffffffffffffffff1673ffffffffffffffffffffffffffffffffffffffff16815260200190815260200160002060000160159054906101000a900460ff166001151581151514611b60576040517f08c379a00000000000000000000000000000000000000000000000000000000081526004018080602001828103825260158152602001807f5573756172696f206e6f207265676973747261646f000000000000000000000081525060200191505060405180910390fd5b60008060003373ffffffffffffffffffffffffffffffffffffffff1673ffffffffffffffffffffffffffffffffffffffff16815260200190815260200160002060000160169054906101000a900460ff1660ff1611611bf4576040517f08c379a0000000000000000000000000000000000000000000000000000000008152600401611beb90612cb1565b60405180910390fd5b6002543414611c38576040517f08c379a0000000000000000000000000000000000000000000000000000000008152600401611c2f90612cf1565b60405180910390fd5b34600954016009819055506000803373ffffffffffffffffffffffffffffffffffffffff1673ffffffffffffffffffffffffffffffffffffffff168152602001908152602001600020600001601681819054906101000a900460ff16809291906001900391906101000a81548160ff021916908360ff16021790555050611cbd6122f1565b600a600081548092919060010191905055505050565b60075481565b6000803373ffffffffffffffffffffffffffffffffffffffff1673ffffffffffffffffffffffffffffffffffffffff16815260200190815260200160002060000160159054906101000a900460ff166001151581151514611da2576040517f08c379a00000000000000000000000000000000000000000000000000000000081526004018080602001828103825260158152602001807f5573756172696f206e6f207265676973747261646f000000000000000000000081525060200191505060405180910390fd5b34600254808214611e1b576040517f08c379a00000000000000000000000000000000000000000000000000000000081526004018080602001828103825260148152602001807f466f6e646f7320496e737566696369656e74657300000000000000000000000081525060200191505060405180910390fd5b6001806002811115611e2957fe5b600e60009054906101000a900460ff166002811115611e4457fe5b14611e4e57600080fd5b60008060003373ffffffffffffffffffffffffffffffffffffffff1673ffffffffffffffffffffffffffffffffffffffff16815260200190815260200160002060000160169054906101000a900460ff1660ff1611611ee2576040517f08c379a0000000000000000000000000000000000000000000000000000000008152600401611ed990612bb1565b60405180910390fd5b34600954016009819055506000803373ffffffffffffffffffffffffffffffffffffffff1673ffffffffffffffffffffffffffffffffffffffff168152602001908152602001600020600001601681819054906101000a900460ff16809291906001900391906101000a81548160ff021916908360ff16021790555050611f676122f1565b60008060003373ffffffffffffffffffffffffffffffffffffffff1673ffffffffffffffffffffffffffffffffffffffff16815260200190815260200160002060000160169054906101000a900460ff1660ff161415611fd457600a600081548092919060010191905055505b50505050565b60065481565b60006020528060005260406000206000915090508060000160009054906101000a900473ffffffffffffffffffffffffffffffffffffffff16908060000160149054906101000a900460ff16908060000160159054906101000a900460ff16908060000160169054906101000a900460ff16905084565b60095481565b600280600281111561206b57fe5b600e60009054906101000a900460ff16600281111561208657fe5b1461209057600080fd5b600160009054906101000a900473ffffffffffffffffffffffffffffffffffffffff168073ffffffffffffffffffffffffffffffffffffffff163373ffffffffffffffffffffffffffffffffffffffff1614612137576040517f08c379a0000000000000000000000000000000000000000000000000000000008152600401808060200182810382526025815260200180612e0e6025913960400191505060405180910390fd5b600a546009548161214457fe5b04600b8190555060005b6004548160ff1610156122ad576000600c8260ff168154811061216d57fe5b9060005260206000200160009054906101000a900473ffffffffffffffffffffffffffffffffffffffff16905060008060008373ffffffffffffffffffffffffffffffffffffffff1673ffffffffffffffffffffffffffffffffffffffff16815260200190815260200160002060000160169054906101000a900460ff1660ff16141561229f576000808273ffffffffffffffffffffffffffffffffffffffff1673ffffffffffffffffffffffffffffffffffffffff16815260200190815260200160002060000160009054906101000a900473ffffffffffffffffffffffffffffffffffffffff1673ffffffffffffffffffffffffffffffffffffffff166108fc600b549081150290604051600060405180830381858888f1935050505015801561229d573d6000803e3d6000fd5b505b50808060010191505061214e565b505050565b600a5481565b600e60009054906101000a900460ff1681565b600160009054906101000a900473ffffffffffffffffffffffffffffffffffffffff1681565b60005b6004548160ff1610156123c4576000600c8260ff168154811061231357fe5b9060005260206000200160009054906101000a900473ffffffffffffffffffffffffffffffffffffffff16905060008060008373ffffffffffffffffffffffffffffffffffffffff1673ffffffffffffffffffffffffffffffffffffffff16815260200190815260200160002060000160169054906101000a900460ff1660ff16905080600d8460ff16815481106123a757fe5b9060005260206000200181905550505080806001019150506122f4565b50565b60005b6004548160ff161015612656576000600c8260ff16815481106123e957fe5b9060005260206000200160009054906101000a900473ffffffffffffffffffffffffffffffffffffffff169050600015156000808373ffffffffffffffffffffffffffffffffffffffff1673ffffffffffffffffffffffffffffffffffffffff16815260200190815260200160002060000160149054906101000a900460ff16151514801561254157506000808273ffffffffffffffffffffffffffffffffffffffff1673ffffffffffffffffffffffffffffffffffffffff16815260200190815260200160002060000160009054906101000a900473ffffffffffffffffffffffffffffffffffffffff1673ffffffffffffffffffffffffffffffffffffffff16600c600160065403815481106124fd57fe5b9060005260206000200160009054906101000a900473ffffffffffffffffffffffffffffffffffffffff1673ffffffffffffffffffffffffffffffffffffffff1614155b1561264857600354600954036009819055506003546008540160088190555060008060008373ffffffffffffffffffffffffffffffffffffffff1673ffffffffffffffffffffffffffffffffffffffff16815260200190815260200160002060000160169054906101000a900460ff1660ff1614156125ce57600a60008154809291906001900391905055505b6000808273ffffffffffffffffffffffffffffffffffffffff1673ffffffffffffffffffffffffffffffffffffffff168152602001908152602001600020600001601681819054906101000a900460ff168092919060010191906101000a81548160ff021916908360ff160217905550506126476122f1565b5b5080806001019150506123ca565b50565b60005b6004548160ff161015612710576000600c8260ff168154811061267b57fe5b9060005260206000200160009054906101000a900473ffffffffffffffffffffffffffffffffffffffff16905060008060008373ffffffffffffffffffffffffffffffffffffffff1673ffffffffffffffffffffffffffffffffffffffff16815260200190815260200160002060000160146101000a81548160ff02191690831515021790555050808060010191505061265c565b50565b60008135905061272281612ddf565b92915050565b60008135905061273781612df6565b92915050565b60006020828403121561274f57600080fd5b600061275d84828501612713565b91505092915050565b60006020828403121561277857600080fd5b600061278684828501612728565b91505092915050565b61279881612d4f565b82525050565b6127a781612d3d565b82525050565b6127b681612d61565b82525050565b6127c581612db7565b82525050565b60006127d8601b83612d2c565b91507f457374617320616c20636f727269656e746520656e207061676f7300000000006000830152602082019050919050565b6000612818602583612d2c565b91507f456c207573756172696f20656e207475726e6f2061756e20707565646520726560008301527f74697261720000000000000000000000000000000000000000000000000000006020830152604082019050919050565b600061287e601a83612d2c565b91507f45737465206c756761722079612065737461206f63757061646f0000000000006000830152602082019050919050565b60006128be603e83612d2c565b91507f41756e20686179206c7567617265732073696e20617369676e6172206f20616c60008301527f677569656e206e6f2068612070616761646f206c6120676172616e74696100006020830152604082019050919050565b6000612924601583612d2c565b91507f45737465207475726e6f206573746120766163696f00000000000000000000006000830152602082019050919050565b6000612964602b83612d2c565b91507f4573706572612061207175652074656e67616d6f7320656c206d6f6e746f206460008301527f652074752061686f72726f0000000000000000000000000000000000000000006020830152604082019050919050565b60006129ca601683612d2c565b91507f456c20677275706f206573746120636f6d706c65746f000000000000000000006000830152602082019050919050565b6000612a0a601783612d2c565b91507f59612061686f7272617374652065737465207475726e6f0000000000000000006000830152602082019050919050565b6000612a4a601e83612d2c565b91507f59612074656e656d6f732072656769737261646f2074752043617368496e00006000830152602082019050919050565b6000612a8a601b83612d2c565b91507f5465726d696e6f20656c207469656d706f2064652072657469726f00000000006000830152602082019050919050565b6000612aca601483612d2c565b91507f466f6e646f7320496e737566696369656e7465730000000000000000000000006000830152602082019050919050565b612b0681612da0565b82525050565b612b1581612daa565b82525050565b6000602082019050612b30600083018461279e565b92915050565b6000602082019050612b4b600083018461278f565b92915050565b6000608082019050612b66600083018761278f565b612b7360208301866127ad565b612b8060408301856127ad565b612b8d6060830184612b0c565b95945050505050565b6000602082019050612bab60008301846127bc565b92915050565b60006020820190508181036000830152612bca816127cb565b9050919050565b60006020820190508181036000830152612bea8161280b565b9050919050565b60006020820190508181036000830152612c0a81612871565b9050919050565b60006020820190508181036000830152612c2a816128b1565b9050919050565b60006020820190508181036000830152612c4a81612917565b9050919050565b60006020820190508181036000830152612c6a81612957565b9050919050565b60006020820190508181036000830152612c8a816129bd565b9050919050565b60006020820190508181036000830152612caa816129fd565b9050919050565b60006020820190508181036000830152612cca81612a3d565b9050919050565b60006020820190508181036000830152612cea81612a7d565b9050919050565b60006020820190508181036000830152612d0a81612abd565b9050919050565b6000602082019050612d266000830184612afd565b92915050565b600082825260208201905092915050565b6000612d4882612d80565b9050919050565b6000612d5a82612d80565b9050919050565b60008115159050919050565b6000819050612d7b82612dcb565b919050565b600073ffffffffffffffffffffffffffffffffffffffff82169050919050565b6000819050919050565b600060ff82169050919050565b6000612dc282612d6d565b9050919050565bfe5b60038110612ddc57612ddb612dc9565b5b50565b612de881612d3d565b8114612df357600080fd5b50565b612dff81612da0565b8114612e0a57600080fd5b5056fe536f6c6f20656c2061646d696e207075656465206c6c616d6172206c612066756e63696f6e44656265732065737065726172207475207475726e6f20706172612072657469726172a2646970667358221220ae06f1e1d2a24f1fb5449e028ff1203332b92ef8b8a88602befca44f97e2de0e64736f6c63430007040033a264697066735822122015d715045dd6fc2f40cf454749e00eb8e6e4ec7997e8585b57f2ae304ff1ce8364736f6c63430007040033",
  "immutableReferences": {},
  "source": "// SPDX-License-Identifier: MIT\npragma solidity ^0.7.2;\n\nimport \"./SavingGroups.sol\";\n\ncontract Main{\n    event TandaCreated(SavingGroups childTanda);\n\n    function createTanda(uint256 _garantia, uint256 _ahorro, uint256 _groupSize, uint256 _payTime, uint256 _withdrawTime) external payable returns(address) {\n\n        SavingGroups newTanda = new SavingGroups(_garantia, _ahorro, _groupSize, msg.sender, _payTime, _withdrawTime);\n        emit TandaCreated(newTanda);\n        return address(newTanda);\n    }\n}\n",
  "sourcePath": "/Users/artur/Desktop/Bloinx/bloinx-contracts/contracts/Main.sol",
  "compiler": {
    "name": "solc",
    "version": "0.7.4+commit.3f05b770.Emscripten.clang"
  },
  "schemaVersion": "3.4.2",
  "updatedAt": "2021-08-15T21:45:03.364Z",
  "networkType": "ethereum",
  "devdoc": {
    "kind": "dev",
    "methods": {},
    "version": 1
  },
  "userdoc": {
    "kind": "user",
    "methods": {},
    "version": 1
  }
}