{
  "contractName": "Main",
  "abi": [
    {
      "inputs": [],
      "stateMutability": "nonpayable",
      "type": "constructor"
    },
    {
      "anonymous": false,
      "inputs": [
        {
          "indexed": true,
          "internalType": "bytes32",
          "name": "role",
          "type": "bytes32"
        },
        {
          "indexed": true,
          "internalType": "bytes32",
          "name": "previousAdminRole",
          "type": "bytes32"
        },
        {
          "indexed": true,
          "internalType": "bytes32",
          "name": "newAdminRole",
          "type": "bytes32"
        }
      ],
      "name": "RoleAdminChanged",
      "type": "event"
    },
    {
      "anonymous": false,
      "inputs": [
        {
          "indexed": true,
          "internalType": "bytes32",
          "name": "role",
          "type": "bytes32"
        },
        {
          "indexed": true,
          "internalType": "address",
          "name": "account",
          "type": "address"
        },
        {
          "indexed": true,
          "internalType": "address",
          "name": "sender",
          "type": "address"
        }
      ],
      "name": "RoleGranted",
      "type": "event"
    },
    {
      "anonymous": false,
      "inputs": [
        {
          "indexed": true,
          "internalType": "bytes32",
          "name": "role",
          "type": "bytes32"
        },
        {
          "indexed": true,
          "internalType": "address",
          "name": "account",
          "type": "address"
        },
        {
          "indexed": true,
          "internalType": "address",
          "name": "sender",
          "type": "address"
        }
      ],
      "name": "RoleRevoked",
      "type": "event"
    },
    {
      "anonymous": false,
      "inputs": [
        {
          "indexed": false,
          "internalType": "contract SavingGroups",
          "name": "childRound",
          "type": "address"
        }
      ],
      "name": "RoundCreated",
      "type": "event"
    },
    {
      "inputs": [],
      "name": "DEFAULT_ADMIN_ROLE",
      "outputs": [
        {
          "internalType": "bytes32",
          "name": "",
          "type": "bytes32"
        }
      ],
      "stateMutability": "view",
      "type": "function"
    },
    {
      "inputs": [],
      "name": "Iblx",
      "outputs": [
        {
          "internalType": "contract IAccessControl",
          "name": "",
          "type": "address"
        }
      ],
      "stateMutability": "view",
      "type": "function"
    },
    {
      "inputs": [],
      "name": "blx",
      "outputs": [
        {
          "internalType": "contract BLXToken",
          "name": "",
          "type": "address"
        }
      ],
      "stateMutability": "view",
      "type": "function"
    },
    {
      "inputs": [],
      "name": "devFund",
      "outputs": [
        {
          "internalType": "address",
          "name": "",
          "type": "address"
        }
      ],
      "stateMutability": "view",
      "type": "function"
    },
    {
      "inputs": [],
      "name": "fee",
      "outputs": [
        {
          "internalType": "uint256",
          "name": "",
          "type": "uint256"
        }
      ],
      "stateMutability": "view",
      "type": "function"
    },
    {
      "inputs": [
        {
          "internalType": "bytes32",
          "name": "role",
          "type": "bytes32"
        }
      ],
      "name": "getRoleAdmin",
      "outputs": [
        {
          "internalType": "bytes32",
          "name": "",
          "type": "bytes32"
        }
      ],
      "stateMutability": "view",
      "type": "function"
    },
    {
      "inputs": [
        {
          "internalType": "bytes32",
          "name": "role",
          "type": "bytes32"
        },
        {
          "internalType": "address",
          "name": "account",
          "type": "address"
        }
      ],
      "name": "grantRole",
      "outputs": [],
      "stateMutability": "nonpayable",
      "type": "function"
    },
    {
      "inputs": [
        {
          "internalType": "bytes32",
          "name": "role",
          "type": "bytes32"
        },
        {
          "internalType": "address",
          "name": "account",
          "type": "address"
        }
      ],
      "name": "hasRole",
      "outputs": [
        {
          "internalType": "bool",
          "name": "",
          "type": "bool"
        }
      ],
      "stateMutability": "view",
      "type": "function"
    },
    {
      "inputs": [
        {
          "internalType": "bytes32",
          "name": "role",
          "type": "bytes32"
        },
        {
          "internalType": "address",
          "name": "account",
          "type": "address"
        }
      ],
      "name": "renounceRole",
      "outputs": [],
      "stateMutability": "nonpayable",
      "type": "function"
    },
    {
      "inputs": [
        {
          "internalType": "bytes32",
          "name": "role",
          "type": "bytes32"
        },
        {
          "internalType": "address",
          "name": "account",
          "type": "address"
        }
      ],
      "name": "revokeRole",
      "outputs": [],
      "stateMutability": "nonpayable",
      "type": "function"
    },
    {
      "inputs": [
        {
          "internalType": "bytes4",
          "name": "interfaceId",
          "type": "bytes4"
        }
      ],
      "name": "supportsInterface",
      "outputs": [
        {
          "internalType": "bool",
          "name": "",
          "type": "bool"
        }
      ],
      "stateMutability": "view",
      "type": "function"
    },
    {
      "inputs": [
        {
          "internalType": "uint256",
          "name": "_warranty",
          "type": "uint256"
        },
        {
          "internalType": "uint256",
          "name": "_saving",
          "type": "uint256"
        },
        {
          "internalType": "uint256",
          "name": "_groupSize",
          "type": "uint256"
        },
        {
          "internalType": "uint256",
          "name": "_adminFee",
          "type": "uint256"
        },
        {
          "internalType": "uint256",
          "name": "_payTime",
          "type": "uint256"
        },
        {
          "internalType": "contract ERC20",
          "name": "_token",
          "type": "address"
        },
        {
          "internalType": "address",
          "name": "_blxaddr",
          "type": "address"
        }
      ],
      "name": "createRound",
      "outputs": [
        {
          "internalType": "address",
          "name": "",
          "type": "address"
        }
      ],
      "stateMutability": "payable",
      "type": "function"
    },
    {
      "inputs": [
        {
          "internalType": "address",
          "name": "_devFund",
          "type": "address"
        }
      ],
      "name": "setDevFundAddress",
      "outputs": [],
      "stateMutability": "nonpayable",
      "type": "function"
    },
    {
      "inputs": [
        {
          "internalType": "uint256",
          "name": "_fee",
          "type": "uint256"
        }
      ],
      "name": "setFee",
      "outputs": [],
      "stateMutability": "nonpayable",
      "type": "function"
    }
  ],
  "bytecode": "0x608060405260018054600160a060020a031916734bfaf8ff960622b702e653c18b3bf747abab4368179055600560025534801561003b57600080fd5b50610050600033640100000000610055810204565b610130565b610068828264010000000061006c810204565b5050565b61007f8282640100000000610103810204565b61006857600082815260208181526040808320600160a060020a03851684529091529020805460ff191660011790556100bf64010000000061012c810204565b600160a060020a031681600160a060020a0316837f2f8788117e7eff1d82e926ec794901d17c78024a50270940304540a733656f0d60405160405180910390a45050565b600091825260208281526040808420600160a060020a0393909316845291905290205460ff1690565b3390565b61462480620001406000396000f3fe6080604052600436106200010c576000357c01000000000000000000000000000000000000000000000000000000009004806369fe0e2d11620000a6578063a217fddf116200007d578063a217fddf146200032c578063d547741f1462000343578063ddca3f431462000368578063fd7bb241146200038057600080fd5b806369fe0e2d14620002835780638bd0ee9214620002a857806391d1485414620002d757600080fd5b806336568abe11620000e757806336568abe14620001b557806337608be814620001da5780634390d2a8146200022f5780634bb77ff6146200025e57600080fd5b806301ffc9a71462000111578063248a9ca3146200014b5780632f2ff15d146200018e575b600080fd5b3480156200011e57600080fd5b50620001366200013036600462000c62565b62000397565b60405190151581526020015b60405180910390f35b3480156200015857600080fd5b506200017f6200016a36600462000ca6565b60009081526020819052604090206001015490565b60405190815260200162000142565b3480156200019b57600080fd5b50620001b3620001ad36600462000ce3565b62000431565b005b348015620001c257600080fd5b50620001b3620001d436600462000ce3565b6200045f565b348015620001e757600080fd5b50600454620002099073ffffffffffffffffffffffffffffffffffffffff1681565b60405173ffffffffffffffffffffffffffffffffffffffff909116815260200162000142565b3480156200023c57600080fd5b50600154620002099073ffffffffffffffffffffffffffffffffffffffff1681565b3480156200026b57600080fd5b50620001b36200027d36600462000d16565b6200051a565b3480156200029057600080fd5b50620001b3620002a236600462000ca6565b6200056f565b348015620002b557600080fd5b50600354620002099073ffffffffffffffffffffffffffffffffffffffff1681565b348015620002e457600080fd5b5062000136620002f636600462000ce3565b60009182526020828152604080842073ffffffffffffffffffffffffffffffffffffffff93909316845291905290205460ff1690565b3480156200033957600080fd5b506200017f600081565b3480156200035057600080fd5b50620001b36200036236600462000ce3565b62000582565b3480156200037557600080fd5b506200017f60025481565b620002096200039136600462000d36565b620005ab565b60007fffffffff0000000000000000000000000000000000000000000000000000000082167f7965db0b0000000000000000000000000000000000000000000000000000000014806200042b57507f01ffc9a7000000000000000000000000000000000000000000000000000000007fffffffff000000000000000000000000000000000000000000000000000000008316145b92915050565b6000828152602081905260409020600101546200044e8162000796565b6200045a8383620007a5565b505050565b73ffffffffffffffffffffffffffffffffffffffff811633146200050a576040517f08c379a000000000000000000000000000000000000000000000000000000000815260206004820152602f60248201527f416363657373436f6e74726f6c3a2063616e206f6e6c792072656e6f756e636560448201527f20726f6c657320666f722073656c66000000000000000000000000000000000060648201526084015b60405180910390fd5b62000516828262000879565b5050565b6000620005278162000796565b50600180547fffffffffffffffffffffffff00000000000000000000000000000000000000001673ffffffffffffffffffffffffffffffffffffffff92909216919091179055565b60006200057c8162000796565b50600255565b6000828152602081905260409020600101546200059f8162000796565b6200045a838362000879565b6003805473ffffffffffffffffffffffffffffffffffffffff8084167fffffffffffffffffffffffff0000000000000000000000000000000000000000928316811790935560048054909216831790915560015460025460405160009485948d948d948d9433948e948e948e94929391169190620006299062000c54565b998a5260208a0198909852604089019690965273ffffffffffffffffffffffffffffffffffffffff9485166060890152608088019390935260a0870191909152821660c0860152811660e08501521661010083015261012082015261014001604051809103906000f080158015620006a5573d6000803e3d6000fd5b506003546040517f2f2ff15d0000000000000000000000000000000000000000000000000000000081526a4d494e5445525f524f4c45600482015273ffffffffffffffffffffffffffffffffffffffff8084166024830152929350911690632f2ff15d90604401600060405180830381600087803b1580156200072757600080fd5b505af11580156200073c573d6000803e3d6000fd5b505060405173ffffffffffffffffffffffffffffffffffffffff841681527ffdebb0c30fbd3c4fe101775e6bf17ea692258188ce7edb5666366f58f1529ffc9250602001905060405180910390a198975050505050505050565b620007a2813362000913565b50565b60008281526020818152604080832073ffffffffffffffffffffffffffffffffffffffff8516845290915290205460ff16620005165760008281526020818152604080832073ffffffffffffffffffffffffffffffffffffffff851684529091529020805460ff191660011790556200081b3390565b73ffffffffffffffffffffffffffffffffffffffff168173ffffffffffffffffffffffffffffffffffffffff16837f2f8788117e7eff1d82e926ec794901d17c78024a50270940304540a733656f0d60405160405180910390a45050565b60008281526020818152604080832073ffffffffffffffffffffffffffffffffffffffff8516845290915290205460ff1615620005165760008281526020818152604080832073ffffffffffffffffffffffffffffffffffffffff85168085529252808320805460ff1916905551339285917ff6391f5c32d9c69d2a47ea670b442974b53935d1edc7fd64eb21e047a839171b9190a45050565b60008281526020818152604080832073ffffffffffffffffffffffffffffffffffffffff8516845290915290205460ff1662000516576200096c8173ffffffffffffffffffffffffffffffffffffffff166014620009ce565b62000979836020620009ce565b6040516020016200098c92919062000dd7565b60408051601f19818403018152908290527f08c379a0000000000000000000000000000000000000000000000000000000008252620005019160040162000e5c565b60606000620009df83600262000ec0565b620009ec90600262000ee2565b67ffffffffffffffff81111562000a075762000a0762000efd565b6040519080825280601f01601f19166020018201604052801562000a32576020820181803683370190505b5090507f30000000000000000000000000000000000000000000000000000000000000008160008151811062000a6c5762000a6c62000f2c565b60200101907effffffffffffffffffffffffffffffffffffffffffffffffffffffffffffff1916908160001a9053507f78000000000000000000000000000000000000000000000000000000000000008160018151811062000ad25762000ad262000f2c565b60200101907effffffffffffffffffffffffffffffffffffffffffffffffffffffffffffff1916908160001a905350600062000b1084600262000ec0565b62000b1d90600162000ee2565b90505b600181111562000be2577f303132333435363738396162636465660000000000000000000000000000000085600f166010811062000b625762000b6262000f2c565b1a7f01000000000000000000000000000000000000000000000000000000000000000282828151811062000b9a5762000b9a62000f2c565b60200101907effffffffffffffffffffffffffffffffffffffffffffffffffffffffffffff1916908160001a90535060109094049362000bda8162000f5b565b905062000b20565b50831562000c4d576040517f08c379a000000000000000000000000000000000000000000000000000000000815260206004820181905260248201527f537472696e67733a20686578206c656e67746820696e73756666696369656e74604482015260640162000501565b9392505050565b6136798062000f7683390190565b60006020828403121562000c7557600080fd5b81357fffffffff000000000000000000000000000000000000000000000000000000008116811462000c4d57600080fd5b60006020828403121562000cb957600080fd5b5035919050565b73ffffffffffffffffffffffffffffffffffffffff81168114620007a257600080fd5b6000806040838503121562000cf757600080fd5b82359150602083013562000d0b8162000cc0565b809150509250929050565b60006020828403121562000d2957600080fd5b813562000c4d8162000cc0565b600080600080600080600060e0888a03121562000d5257600080fd5b873596506020880135955060408801359450606088013593506080880135925060a088013562000d828162000cc0565b915060c088013562000d948162000cc0565b8091505092959891949750929550565b60005b8381101562000dc157818101518382015260200162000da7565b8381111562000dd1576000848401525b50505050565b7f416363657373436f6e74726f6c3a206163636f756e742000000000000000000081526000835162000e1181601785016020880162000da4565b7f206973206d697373696e6720726f6c6520000000000000000000000000000000601791840191820152835162000e5081602884016020880162000da4565b01602801949350505050565b602081526000825180602084015262000e7d81604085016020870162000da4565b601f01601f19169190910160400192915050565b7f4e487b7100000000000000000000000000000000000000000000000000000000600052601160045260246000fd5b600081600019048311821515161562000edd5762000edd62000e91565b500290565b6000821982111562000ef85762000ef862000e91565b500190565b7f4e487b7100000000000000000000000000000000000000000000000000000000600052604160045260246000fd5b7f4e487b7100000000000000000000000000000000000000000000000000000000600052603260045260246000fd5b60008162000f6d5762000f6d62000e91565b50600019019056fe6080604052600060078190556008805460ff19166001179055600b819055600c805461ff0019169055600d819055600e553480156200003d57600080fd5b506040516200367938038062003679833981016040819052620000609162000662565b600f8054600160a060020a031916600160a060020a0386811691909117909155871662000114576040517f08c379a000000000000000000000000000000000000000000000000000000000815260206004820152603060248201527f4c6120646972656363696f6e2064656c2061646d696e6973747261646f72206e60448201527f6f20707565646520736572206365726f0000000000000000000000000000000060648201526084015b60405180910390fd5b600188118015620001265750600c8811155b620001b4576040517f08c379a000000000000000000000000000000000000000000000000000000000815260206004820152603e60248201527f456c2074616d616e696f2064656c20677275706f206465626520736572206d6160448201527f796f72206120756e6f2079206d656e6f72206f20696775616c2061203132000060648201526084016200010b565b60058a101562000247576040517f08c379a000000000000000000000000000000000000000000000000000000000815260206004820152603160248201527f456c206465706f7369746f20646520736567757269646164206465626520736560448201527f72206d696e696d6f20646520356355534400000000000000000000000000000060648201526084016200010b565b6005891015620002b4576040517f08c379a000000000000000000000000000000000000000000000000000000000815260206004820181905260248201527f456c207061676f206465626520736572206d696e696d6f20646520356355534460448201526064016200010b565b6064861115620002c357600080fd5b60018054600160a060020a03808a16600160a060020a031992831617909255600588905560048a81556006805486851690841617905560108054878516931692909217909155600f54604080517f313ce5670000000000000000000000000000000000000000000000000000000081529051919093169263313ce56792818101926020929091908290030181865afa15801562000364573d6000803e3d6000fd5b505050506040513d601f19601f820116820180604052508101906200038a919062000709565b6200039790600a62000866565b620003a3908b62000877565b600255600f54604080517f313ce5670000000000000000000000000000000000000000000000000000000081529051600160a060020a039092169163313ce567916004808201926020929091908290030181865afa1580156200040a573d6000803e3d6000fd5b505050506040513d601f19601f8201168201806040525081019062000430919062000709565b6200043d90600a62000866565b62000449908a62000877565b600355600c805460ff191690558767ffffffffffffffff81111562000472576200047262000899565b6040519080825280602002602001820160405280156200049c578160200160208202803683370190505b508051620004b391600a91602090910190620005c8565b506000851162000546576040517f08c379a000000000000000000000000000000000000000000000000000000000815260206004820152603060248201527f456c207469656d706f2070617261207061676172206e6f20707565646520736560448201527f72206d656e6f72206120756e206469610000000000000000000000000000000060648201526084016200010b565b62000555856201518062000877565b600d556003546127109082906200056e90606462000877565b6200057a919062000877565b620005869190620008c8565b600e556004546003546040517fe934619c48e1b0b21b662adf6b7c08ad37e6f0d120f40a505503b4fd3bcfec5890600090a35050505050505050505062000904565b82805482825590600052602060002090810192821562000620579160200282015b82811115620006205782518254600160a060020a031916600160a060020a03909116178255602090920191600190910190620005e9565b506200062e92915062000632565b5090565b5b808211156200062e576000815560010162000633565b600160a060020a03811681146200065f57600080fd5b50565b6000806000806000806000806000806101408b8d0312156200068357600080fd5b8a51995060208b0151985060408b0151975060608b0151620006a58162000649565b8097505060808b0151955060a08b0151945060c08b0151620006c78162000649565b60e08c0151909450620006da8162000649565b6101008c0151909350620006ee8162000649565b809250506101208b015190509295989b9194979a5092959850565b6000602082840312156200071c57600080fd5b815160ff811681146200072e57600080fd5b9392505050565b7f4e487b7100000000000000000000000000000000000000000000000000000000600052601160045260246000fd5b600181815b80851115620007a757816000190482111562000789576200078962000735565b808516156200079757918102915b6002909404939080029062000769565b509250929050565b600082620007c05750600162000860565b81620007cf5750600062000860565b8160018114620007e85760028114620007f35762000814565b600191505062000860565b60ff84111562000807576200080762000735565b8360020a91505062000860565b5060208310610133831016604e8410600b841016171562000839575081810a62000860565b62000845838362000764565b80600019048211156200085c576200085c62000735565b0290505b92915050565b60006200072e60ff841683620007af565b600081600019048311821515161562000894576200089462000735565b500290565b7f4e487b7100000000000000000000000000000000000000000000000000000000600052604160045260246000fd5b600082620008ff577f4e487b7100000000000000000000000000000000000000000000000000000000600052601260045260246000fd5b500490565b612d6580620009146000396000f3fe608060405234801561001057600080fd5b5060043610610243576000357c010000000000000000000000000000000000000000000000000000000090048063743c81ab11610147578063a0be06f9116100da578063c040e6b8116100a9578063db2e21bc1161008e578063db2e21bc14610525578063e8f496311461052d578063f851a4401461054057600080fd5b8063c040e6b8146104f8578063c949cb831461051257600080fd5b8063a0be06f914610403578063a87430ba1461040c578063b4501f39146104e7578063b4bde59e146104ef57600080fd5b806385f0f3781161011657806385f0f378146103ae5780638930361d146103d05780638b299903146103e3578063a0a8427e146103f057600080fd5b8063743c81ab1461038b578063749aa2d9146103945780637826e78f1461039c57806378e97925146103a557600080fd5b80634210a8d1116101da578063504fc51d116101a957806355e3f0861161018e57806355e3f086146103675780635b6397e11461036f57806363b635ea1461038257600080fd5b8063504fc51d146103415780635394dda81461035457600080fd5b80634210a8d1146102f55780634390d2a814610308578063466afa0d1461031b57806347f121a21461032e57600080fd5b80631fccf672116102165780631fccf6721461029f5780632055baf4146102ca5780632d50e80d146102e457806330fceb6c146102ed57600080fd5b806302b8c8cd1461024857806303ee30611461025d578063086a29e7146102835780631e58061514610296575b600080fd5b61025b610256366004612a7a565b610553565b005b61027061026b366004612a7a565b6109ca565b6040519081526020015b60405180910390f35b61025b610291366004612a7a565b610a18565b61027060025481565b600f546102b290600160a060020a031681565b604051600160a060020a03909116815260200161027a565b6102d2610e2c565b60405160ff909116815260200161027a565b610270600d5481565b61025b610ef2565b610270610303366004612a7a565b6111ba565b6006546102b290600160a060020a031681565b6102d2610329366004612a7a565b611208565b6010546102b290600160a060020a031681565b61027061034f366004612aa4565b611259565b6102b2610362366004612acd565b6112e4565b61025b61130e565b61027061037d366004612a7a565b61149c565b61027060045481565b61027060035481565b61025b6114ea565b610270600e5481565b61027060095481565b600c546103c090610100900460ff1681565b604051901515815260200161027a565b6103c06103de366004612a7a565b611ad1565b6008546102d29060ff1681565b6102706103fe366004612a7a565b611b22565b61027060055481565b61048561041a366004612aa4565b600060208190529081526040902080546001820154600283015460038401546004850154600586015460068701546007880154600890980154600160a060020a0388169860ff740100000000000000000000000000000000000000009099048916989384169316908a565b60408051600160a060020a03909b168b5260ff998a1660208c01528a01979097526060890195909552608088019390935260a08701919091529390931660c085015260e08401929092529015156101008301526101208201526101400161027a565b610270611b70565b610270600b5481565b600c546105059060ff1681565b60405161027a9190612b15565b61025b610520366004612acd565b611bd1565b61025b612062565b61027061053b366004612a7a565b612408565b6001546102b290600160a060020a031681565b600080600c5460ff16600381111561056d5761056d612ae6565b146105ed57604051600080516020612d10833981519152815260206004820152602960248201527f537461676520696e636f72726563746f207061726120656a656375746172206c60448201527f612066756e63696f6e000000000000000000000000000000000000000000000060648201526084015b60405180910390fd5b3360009081526020819052604090206007015460ff161561067e57604051600080516020612d10833981519152815260206004820152602160248201527f5961206573746173207265676973747261646f20656e206573746120726f6e6460448201527f610000000000000000000000000000000000000000000000000000000000000060648201526084016105e4565b600454600754106106d957604051600080516020612d10833981519152815260206004820152601660248201527f456c20677275706f206573746120636f6d706c65746f0000000000000000000060448201526064016105e4565b6000600a6106e8600185612b85565b60ff16815481106106fb576106fb612ba8565b600091825260209091200154600160a060020a03161461076557604051600080516020612d10833981519152815260206004820152601a60248201527f45737465206c756761722079612065737461206f63757061646f00000000000060448201526064016105e4565b6007805490600061077583612bd7565b909155505060408051610140810182523380825260ff8086166020808501918252600280548688019081526000606088018181526080890182815260a08a0183815260c08b0184815260e08c0185815260016101008e018181526101208f018881529d8852998790529d86209c518d549a518c1674010000000000000000000000000000000000000000027fffffffffffffffffffffff000000000000000000000000000000000000000000909b16600160a060020a039190911617999099178c5594519b8b019b909b5590518985015551600389015597516004880155516005870180549190951660ff199182161790945591516006860155516007850180549115159190931617909155905160089092019190915554610898903090612456565b6040519091508115159033907f4480e10f92b8eb473ee375c618f546a95bb106e9ac08855a51628a55f2f043e290600090a3600654600e546000916108e891600160a060020a0390911690612456565b6040519091508115159033907ffcc9de8628256fd80a029af5f9f600bdfc8ec089f618a40d63f7063060d227a590600090a3600254600b600082825461092e9190612bf0565b90915550339050600a610942600187612b85565b60ff168154811061095557610955612ba8565b6000918252602082200180547fffffffffffffffffffffffff000000000000000000000000000000000000000016600160a060020a03939093169290921790915560405160ff86169133917f976bbd2f6af68a7eee78f5300f40d037367b165e65f157e6af4ae073b2befd499190a350505050565b600080600a6109da600185612b85565b60ff16815481106109ed576109ed612ba8565b6000918252602080832090910154600160a060020a0316825281905260409020600601549392505050565b600080600c5460ff166003811115610a3257610a32612ae6565b14610aad57604051600080516020612d10833981519152815260206004820152602960248201527f537461676520696e636f72726563746f207061726120656a656375746172206c60448201527f612066756e63696f6e000000000000000000000000000000000000000000000060648201526084016105e4565b600154600160a060020a0316331480610af95750600a610ace600184612b85565b60ff1681548110610ae157610ae1612ba8565b600091825260209091200154600160a060020a031633145b610b7357604051600080516020612d10833981519152815260206004820152603360248201527f4e6f207469656e6573206175746f72697a6163696f6e207061726120656c696d60448201527f696e617220612065737465207573756172696f0000000000000000000000000060648201526084016105e4565b6000600a610b82600185612b85565b60ff1681548110610b9557610b95612ba8565b600091825260209091200154600160a060020a031603610bff57604051600080516020612d10833981519152815260206004820152601560248201527f45737465207475726e6f206573746120766163696f000000000000000000000060448201526064016105e4565b600a610c0c600184612b85565b60ff1681548110610c1f57610c1f612ba8565b600091825260209091200154600154600160a060020a03918216911603610cb657604051600080516020612d10833981519152815260206004820152602f60248201527f4e6f2070756564657320656c696d696e617220616c2061646d696e697374726160448201527f646f72206465206c6120726f6e6461000000000000000000000000000000000060648201526084016105e4565b6000600a610cc5600185612b85565b60ff1681548110610cd857610cd8612ba8565b6000918252602080832090910154600160a060020a03168083529082905260409091206001015490915015610d6057600160a060020a03811660009081526020819052604081206001018054919055600b54610d35908290612c08565b600b55600160a060020a03808316600090815260208190526040902054610d5d9116826124f9565b50505b6000600a610d6f600186612b85565b60ff1681548110610d8257610d82612ba8565b6000918252602082200180547fffffffffffffffffffffffff000000000000000000000000000000000000000016600160a060020a0393909316929092179091556007805491610dd183612c1f565b9091555050600160a060020a038116600081815260208190526040808220600701805460ff191690555160ff8616929133917fadfd51f69b0ad07e1815c54508f0be97ccfacda3e7553aef7b19e0cfc374be2b9190a4505050565b6000600180600c5460ff166003811115610e4857610e48612ae6565b14610ec357604051600080516020612d10833981519152815260206004820152602960248201527f537461676520696e636f72726563746f207061726120656a656375746172206c60448201527f612066756e63696f6e000000000000000000000000000000000000000000000060648201526084016105e4565b6000600d5460095442610ed69190612c08565b610ee09190612c36565b610eeb906001612c71565b9250505090565b3360009081526020819052604090206007015460ff16801515600114610f6257604051600080516020612d10833981519152815260206004820152601560248201527f5573756172696f206e6f207265676973747261646f000000000000000000000060448201526064016105e4565b600180600c5460ff166003811115610f7c57610f7c612ae6565b14610ff757604051600080516020612d10833981519152815260206004820152602960248201527f537461676520696e636f72726563746f207061726120656a656375746172206c60448201527f612066756e63696f6e000000000000000000000000000000000000000000000060648201526084016105e4565b3360009081526020819052604081205474010000000000000000000000000000000000000000900460ff169061102b610e2c565b90508160ff168160ff161161108a57604051600080516020612d10833981519152815260206004820152601a60248201527f4573706572612061206c6c656761722061207475207475726e6f00000000000060448201526064016105e4565b33600090815260208190526040902060080154156110a757600080fd5b60085460ff808316911610156110c6576008546110c69060ff1661254f565b33600081815260208190526040902060030154906110e390611259565b11156110f2576110f2336129a8565b336000908152602081905260408120600281018054908390556008909101805491928392611121908490612bf0565b90915550503360009081526020819052604081205461114990600160a060020a0316836124f9565b33600090815260208190526040808220549051929350831515928592600160a060020a03909216917fd62c1f6f3c4444a52e394381f609a885a10cc992ad4b59f0815f22db3cc5923291a4600c54610100900460ff16156111b257600c805460ff191660031790555b505050505050565b600080600a6111ca600185612b85565b60ff16815481106111dd576111dd612ba8565b6000918252602080832090910154600160a060020a0316825281905260409020600301549392505050565b600080600a611218600185612b85565b60ff168154811061122b5761122b612ba8565b6000918252602080832090910154600160a060020a03168252819052604090206005015460ff169392505050565b600854600160a060020a0382166000908152602081905260408120549091829160ff91821674010000000000000000000000000000000000000000909104909116116112c8576008546112b19060019060ff16612b85565b60ff166003546112c19190612c96565b90506112de565b6008546003546112db9160ff1690612c96565b90505b92915050565b600a81815481106112f457600080fd5b600091825260209091200154600160a060020a0316905081565b600154600160a060020a031633811461139757604051600080516020612d10833981519152815260206004820152602560248201527f536f6c6f20656c2061646d696e207075656465206c6c616d6172206c6120667560448201527f6e63696f6e00000000000000000000000000000000000000000000000000000060648201526084016105e4565b600080600c5460ff1660038111156113b1576113b1612ae6565b1461142c57604051600080516020612d10833981519152815260206004820152602960248201527f537461676520696e636f72726563746f207061726120656a656375746172206c60448201527f612066756e63696f6e000000000000000000000000000000000000000000000060648201526084016105e4565b6004546007541461148757604051600080516020612d10833981519152815260206004820152601b60248201527f41756e20686179206c7567617265732073696e20617369676e6172000000000060448201526064016105e4565b5050600c805460ff1916600117905542600955565b600080600a6114ac600185612b85565b60ff16815481106114bf576114bf612ba8565b6000918252602080832090910154600160a060020a0316825281905260409020600101549392505050565b600180600c5460ff16600381111561150457611504612ae6565b1461157f57604051600080516020612d10833981519152815260206004820152602960248201527f537461676520696e636f72726563746f207061726120656a656375746172206c60448201527f612066756e63696f6e000000000000000000000000000000000000000000000060648201526084016105e4565b60045461158a610e2c565b60ff16116115e257604051600080516020612d10833981519152815260206004820152601860248201527f4e6f206861207465726d696e61646f206c6120726f6e6461000000000000000060448201526064016105e4565b60085460ff165b6004548160ff1611611610576115fe8161254f565b8061160881612cb5565b9150506115e9565b506000805b6004548160ff1610156116b5576000600a8260ff168154811061163a5761163a612ba8565b6000918252602080832090910154600160a060020a031680835290829052604090912060068101546002909101549192501161167957611679816129a8565b600160a060020a03811660009081526020819052604090206001015461169f9084612bf0565b92505080806116ad90612cb5565b915050611615565b50600c54610100900460ff166119e85760008060005b6004548160ff16101561193c576000600a8260ff16815481106116f0576116f0612ba8565b6000918252602080832090910154600b54600160a060020a03909116808452918390526040832060010154919350879161172a9190612c96565b6117349190612c36565b600160a060020a038316600090815260208190526040812060018101829055600701805460ff19169055600554919250906064906117729084612c96565b61177c9190612c36565b90506117888187612bf0565b600160a060020a038416600090815260208190526040812060020154919750906117b28385612c08565b6117bc9190612bf0565b600160a060020a0380861660009081526020819052604081206002810191909155549192506117ec9116826124f9565b50600160a060020a03841660009081526020819052604081205474010000000000000000000000000000000000000000900460ff168061182d86600a612c96565b6118379190612c96565b6118419190612c96565b601054600160a060020a03878116600090815260208190526040908190205490517f40c10f1900000000000000000000000000000000000000000000000000000000815290821660048201526024810184905292935016906340c10f1990604401600060405180830381600087803b1580156118bc57600080fd5b505af11580156118d0573d6000803e3d6000fd5b50505050600a816118e19190612c36565b6118eb9088612bf0565b60095460405191985060009550859250429130907f52a298e98008bccb662279d4de296612fe9d9fe846a899e25d485e12a0152545908590a45050505050808061193490612cb5565b9150506116cb565b5060015461195390600160a060020a0316836124f9565b506010546006546040517f40c10f19000000000000000000000000000000000000000000000000000000008152600160a060020a039182166004820152602481018490529116906340c10f1990604401600060405180830381600087803b1580156119bd57600080fd5b505af11580156119d1573d6000803e3d6000fd5b5050600c805460ff19166002179055505050505050565b60005b6004548160ff161015611abf576000600a8260ff1681548110611a1057611a10612ba8565b6000918252602080832090910154600b54600160a060020a039091168084529183905260408320600101549193508591611a4a9190612c96565b611a549190612c36565b600160a060020a038316600090815260208190526040902060020154611a7a9190612bf0565b5050600160a060020a03166000908152602081905260408120600281018290556001810191909155600701805460ff1916905580611ab781612cb5565b9150506119eb565b5050600c805460ff1916600317905550565b600080600a611ae1600185612b85565b60ff1681548110611af457611af4612ba8565b6000918252602080832090910154600160a060020a03168252819052604090206007015460ff169392505050565b600080600a611b32600185612b85565b60ff1681548110611b4557611b45612ba8565b6000918252602080832090910154600160a060020a0316825281905260409020600201549392505050565b6000806001600454611b829190612c08565b600354611b8f9190612c96565b336000908152602081905260408120600681015460048201546003909201549394509192611bbd9085612c08565b611bc79190612c08565b610eeb9190612bf0565b3360009081526020819052604090206007015460ff16801515600114611c4157604051600080516020612d10833981519152815260206004820152601560248201527f5573756172696f206e6f207265676973747261646f000000000000000000000060448201526064016105e4565b600180600c5460ff166003811115611c5b57611c5b612ae6565b14611cd657604051600080516020612d10833981519152815260206004820152602960248201527f537461676520696e636f72726563746f207061726120656a656375746172206c60448201527f612066756e63696f6e000000000000000000000000000000000000000000000060648201526084016105e4565b611cde611b70565b8311158015611ced5750600083115b611d4157604051600080516020612d10833981519152815260206004820152600f60248201527f5061676f20696e636f72726563746f000000000000000000000000000000000060448201526064016105e4565b6000611d4b610e2c565b60085490915060ff80831691161015611d6d57600854611d6d9060ff1661254f565b600854600090600a90611d859060019060ff16612b85565b60ff1681548110611d9857611d98612ba8565b600091825260208083209091015433835290829052604082206004018054600160a060020a03909216935087928392611dd2908490612bf0565b9091555060009050611de333611259565b336000908152602081905260408120600301549192509081908311611e0b5760009150611ecb565b33600090815260208190526040902060030154611e289084612c08565b9150600160a060020a0385163314611ecb5783821015611e49575080611e4c565b50825b3360009081526020819052604081206004018054839290611e6e908490612c08565b9091555050600160a060020a03851660009081526020819052604081206002018054839290611e9e908490612bf0565b90915550503360009081526020819052604081206003018054839290611ec5908490612bf0565b90915550505b3360009081526020819052604090206006015415801590611efd57503360009081526020819052604090206004015415155b15611fb057336000908152602081905260408120600481015460069091015411611f3a575033600090815260208190526040902060060154611f4f565b50336000908152602081905260409020600401545b3360009081526020819052604081206004018054839290611f71908490612c08565b9091555050600b54611f84908290612bf0565b600b553360009081526020819052604081206006018054839290611fa9908490612c08565b9091555050505b6002543360009081526020819052604090206006015410156120045733600090815260208190526040902060060154600254611fec9190612c08565b33600090815260208190526040902060010155612018565b336000908152602081905260408120600101555b6000612024308b612456565b6040519091508115159033907f02d1bc4c41f0968b82fd72dc5877b3df473c2bcab943abd81229c5b825b2132190600090a350505050505050505050565b600380600c5460ff16600381111561207c5761207c612ae6565b146120f757604051600080516020612d10833981519152815260206004820152602960248201527f537461676520696e636f72726563746f207061726120656a656375746172206c60448201527f612066756e63696f6e000000000000000000000000000000000000000000000060648201526084016105e4565b600f546040517f70a08231000000000000000000000000000000000000000000000000000000008152306004820152600091600160a060020a0316906370a0823190602401602060405180830381865afa158015612159573d6000803e3d6000fd5b505050506040513d601f19601f8201168201806040525081019061217d9190612cd4565b116121d257604051600080516020612d10833981519152815260206004820152601860248201527f4e6f206861792073616c646f20706f722072657469726172000000000000000060448201526064016105e4565b60085460ff165b6004548160ff1611612200576121ee8161254f565b806121f881612cb5565b9150506121d9565b50600f546040517f70a08231000000000000000000000000000000000000000000000000000000008152306004820152600091600160a060020a0316906370a0823190602401602060405180830381865afa158015612263573d6000803e3d6000fd5b505050506040513d601f19601f820116820180604052508101906122879190612cd4565b905060005b6004548160ff1610156123b8576000600a8260ff16815481106122b1576122b1612ba8565b600091825260209091200154600160a060020a031690506122d1816129a8565b600160a060020a0381166000908152602081905260409020600801541580156122fa5750600083115b156123a557600160a060020a038116600090815260208190526040902060020154831061237e57600160a060020a03808216600090815260208190526040902080546002909101546123509291909116906124f9565b50600160a060020a0381166000908152602081905260409020600201546123779084612c08565b92506123a5565b600160a060020a038082166000908152602081905260409020546123a39116846124f9565b505b50806123b081612cb5565b91505061228c565b5080156123d7576006546123d590600160a060020a0316826124f9565b505b604051819030907f5fafa99d0643513820be26656b45130b01e1c03062e1266bf36f88cbd3bd969590600090a35050565b600080600a612418600185612b85565b60ff168154811061242b5761242b612ba8565b6000918252602080832090910154600160a060020a0316825281905260409020600401549392505050565b600f546040517f23b872dd000000000000000000000000000000000000000000000000000000008152336004820152600160a060020a0384811660248301526044820184905260009283929116906323b872dd906064015b6020604051808303816000875af11580156124cd573d6000803e3d6000fd5b505050506040513d601f19601f820116820180604052508101906124f19190612ced565b949350505050565b600f546040517fa9059cbb000000000000000000000000000000000000000000000000000000008152600160a060020a03848116600483015260248201849052600092839291169063a9059cbb906044016124ae565b6000600a61255e600184612b85565b60ff168154811061257157612571612ba8565b6000918252602082200154600160a060020a031691505b6004548160ff161015612977576000600a8260ff16815481106125ad576125ad612ba8565b6000918252602082200154600160a060020a031691506125cc82611259565b9050600084600160a060020a031683600160a060020a03161461296157600160a060020a03831660009081526020819052604090206003015482111561263957600160a060020a0383166000908152602081905260409020600301546126329083612c08565b905061263d565b5060005b801561296157600160a060020a0383166000908152602081905260409020600401541561277a57600160a060020a03831660009081526020819052604081206004015482101561268e5750806126ac565b50600160a060020a0383166000908152602081905260409020600401545b600160a060020a0384166000908152602081905260409020600401546126d3908290612c08565b600160a060020a0385166000908152602081905260409020600481019190915560030154612702908290612bf0565b600160a060020a038086166000908152602081905260408082206003019390935590881681522060020154612738908290612bf0565b600160a060020a03808816600090815260208190526040808220600201939093559086168152206003015461276c85611259565b6127769190612c08565b9150505b801561296157600160a060020a0383166000908152602081905260408120600501805460ff16916127aa83612cb5565b82546101009290920a60ff81810219909316918316021790915560085433600090815260208190526040808220549051929093169350600160a060020a03909216917f9cb2653410f99cbecfa3f17c1cd571dd8b8def58653878d6dae9d0c08400531c91a380600b54106128c55780600b600082825461282a9190612c08565b9091555050600160a060020a0383166000908152602081905260408120600301805483929061285a908490612bf0565b9091555050600160a060020a0383166000908152602081905260408120600601805483929061288a908490612bf0565b9091555050600160a060020a038516600090815260208190526040812060020180548392906128ba908490612bf0565b909155506128d59050565b600c805461ff0019166101001790555b600254600160a060020a038416600090815260208190526040902060060154101561294457600160a060020a0383166000908152602081905260409020600601546002546129239190612c08565b600160a060020a038416600090815260208190526040902060010155612961565b600160a060020a0383166000908152602081905260408120600101555b505050808061296f90612cb5565b915050612588565b506008805460ff1690600061298b83612cb5565b91906101000a81548160ff021916908360ff160217905550505050565b600160a060020a0381166000908152602081905260409020600681015460029091015410612a6857600160a060020a038116600090815260208190526040812060068101546002909101805491929091612a03908490612c08565b9091555050600160a060020a038116600090815260208190526040812060060154600b805491929091612a37908490612bf0565b9091555050600254600160a060020a0382166000908152602081905260408120600181019290925560069091015550565b600c805461ff00191661010017905550565b600060208284031215612a8c57600080fd5b813560ff81168114612a9d57600080fd5b9392505050565b600060208284031215612ab657600080fd5b8135600160a060020a0381168114612a9d57600080fd5b600060208284031215612adf57600080fd5b5035919050565b7f4e487b7100000000000000000000000000000000000000000000000000000000600052602160045260246000fd5b6020810160048310612b50577f4e487b7100000000000000000000000000000000000000000000000000000000600052602160045260246000fd5b91905290565b7f4e487b7100000000000000000000000000000000000000000000000000000000600052601160045260246000fd5b600060ff821660ff841680821015612b9f57612b9f612b56565b90039392505050565b7f4e487b7100000000000000000000000000000000000000000000000000000000600052603260045260246000fd5b600060018201612be957612be9612b56565b5060010190565b60008219821115612c0357612c03612b56565b500190565b600082821015612c1a57612c1a612b56565b500390565b600081612c2e57612c2e612b56565b506000190190565b600082612c6c577f4e487b7100000000000000000000000000000000000000000000000000000000600052601260045260246000fd5b500490565b600060ff821660ff84168060ff03821115612c8e57612c8e612b56565b019392505050565b6000816000190483118215151615612cb057612cb0612b56565b500290565b600060ff821660ff8103612ccb57612ccb612b56565b60010192915050565b600060208284031215612ce657600080fd5b5051919050565b600060208284031215612cff57600080fd5b81518015158114612a9d57600080fdfe08c379a000000000000000000000000000000000000000000000000000000000a26469706673582212204bd3eddc563554337b0d4c28a19e5a39f7b496ce4153a05930029f50aa9a89d064736f6c634300080f0033a264697066735822122041021ea4c4ef779d4bd186c87020cf36d97eda389c5d8007ce90f7a803ea3b6164736f6c634300080f0033",
  "immutableReferences": {},
  "source": "// SPDX-License-Identifier: BSD 3-Clause License\npragma solidity ^0.8.0;\n\nimport \"@openzeppelin/contracts/access/AccessControl.sol\";\nimport \"@openzeppelin/contracts/access/IAccessControl.sol\";\nimport \"./SavingGroups.sol\";\nimport \"./BLXToken.sol\";\n\ncontract Main is AccessControl {\n\n    address public devFund = 0x4bFaF8ff960622b702e653C18b3bF747Abab4368;\n    uint256 public fee = 5;\n    IAccessControl public Iblx;\n    BLXToken public blx;\n\n    event RoundCreated(SavingGroups childRound);\n\n    constructor() public {\n        _setupRole(DEFAULT_ADMIN_ROLE, msg.sender);\n    }\n\n    function createRound(   uint256 _warranty,\n                            uint256 _saving,\n                            uint256 _groupSize,\n                            uint256 _adminFee,\n                            uint256 _payTime,\n                            ERC20 _token,\n                            address _blxaddr\n                        ) external payable returns(address) {\n        Iblx=IAccessControl(_blxaddr);\n        blx=BLXToken(_blxaddr);\n        SavingGroups newRound = new SavingGroups(   _warranty,\n                                                    _saving,\n                                                    _groupSize,\n                                                    msg.sender,\n                                                    _adminFee,\n                                                    _payTime,\n                                                    _token,\n                                                    blx,\n                                                    devFund,\n                                                    fee\n                                                );\n        Iblx.grantRole(0x0000000000000000000000000000000000000000004d494e5445525f524f4c45, address(newRound));  //minter 0x0000000000000000000000000000000000000000004d494e5445525f524f4c45\n        emit RoundCreated(newRound);\n        return address(newRound);\n    }\n\n    function setDevFundAddress (address _devFund) public onlyRole(DEFAULT_ADMIN_ROLE){//admin 0x0000000000000000000000000000000000000000000041444d494e5f524f4c45\n        devFund = _devFund;\n    }\n\n    function setFee (uint256 _fee) public onlyRole(DEFAULT_ADMIN_ROLE){//admin 0x0000000000000000000000000000000000000000000041444d494e5f524f4c45\n        fee = _fee;\n    }\n\n}\n",
  "sourcePath": "/Users/artur/Desktop/Bloinx/bloinx-contracts/contracts/Main.sol",
  "compiler": {
    "name": "solc",
    "version": "0.8.15+commit.e14f2714.Emscripten.clang"
  },
  "schemaVersion": "3.4.2",
  "updatedAt": "2022-07-03T21:31:07.211Z",
  "devdoc": {
    "kind": "dev",
    "methods": {
      "getRoleAdmin(bytes32)": {
        "details": "Returns the admin role that controls `role`. See {grantRole} and {revokeRole}. To change a role's admin, use {_setRoleAdmin}."
      },
      "grantRole(bytes32,address)": {
        "details": "Grants `role` to `account`. If `account` had not been already granted `role`, emits a {RoleGranted} event. Requirements: - the caller must have ``role``'s admin role."
      },
      "hasRole(bytes32,address)": {
        "details": "Returns `true` if `account` has been granted `role`."
      },
      "renounceRole(bytes32,address)": {
        "details": "Revokes `role` from the calling account. Roles are often managed via {grantRole} and {revokeRole}: this function's purpose is to provide a mechanism for accounts to lose their privileges if they are compromised (such as when a trusted device is misplaced). If the calling account had been revoked `role`, emits a {RoleRevoked} event. Requirements: - the caller must be `account`."
      },
      "revokeRole(bytes32,address)": {
        "details": "Revokes `role` from `account`. If `account` had been granted `role`, emits a {RoleRevoked} event. Requirements: - the caller must have ``role``'s admin role."
      },
      "supportsInterface(bytes4)": {
        "details": "See {IERC165-supportsInterface}."
      }
    },
    "version": 1
  },
  "userdoc": {
    "kind": "user",
    "methods": {},
    "version": 1
  }
}