{
  "contractName": "Main",
  "abi": [
    {
      "anonymous": false,
      "inputs": [
        {
          "indexed": true,
          "internalType": "address",
          "name": "previousOwner",
          "type": "address"
        },
        {
          "indexed": true,
          "internalType": "address",
          "name": "newOwner",
          "type": "address"
        }
      ],
      "name": "OwnershipTransferred",
      "type": "event"
    },
    {
      "anonymous": false,
      "inputs": [
        {
          "indexed": false,
          "internalType": "contract SavingGroups",
          "name": "childRound",
          "type": "address"
        }
      ],
      "name": "RoundCreated",
      "type": "event"
    },
    {
      "inputs": [],
      "name": "devAddress",
      "outputs": [
        {
          "internalType": "address",
          "name": "",
          "type": "address"
        }
      ],
      "stateMutability": "view",
      "type": "function"
    },
    {
      "inputs": [],
      "name": "owner",
      "outputs": [
        {
          "internalType": "address",
          "name": "",
          "type": "address"
        }
      ],
      "stateMutability": "view",
      "type": "function"
    },
    {
      "inputs": [],
      "name": "renounceOwnership",
      "outputs": [],
      "stateMutability": "nonpayable",
      "type": "function"
    },
    {
      "inputs": [
        {
          "internalType": "address",
          "name": "newOwner",
          "type": "address"
        }
      ],
      "name": "transferOwnership",
      "outputs": [],
      "stateMutability": "nonpayable",
      "type": "function"
    },
    {
      "inputs": [
        {
          "internalType": "uint256",
          "name": "_warranty",
          "type": "uint256"
        },
        {
          "internalType": "uint256",
          "name": "_saving",
          "type": "uint256"
        },
        {
          "internalType": "uint256",
          "name": "_groupSize",
          "type": "uint256"
        },
        {
          "internalType": "uint256",
          "name": "_adminFee",
          "type": "uint256"
        },
        {
          "internalType": "uint256",
          "name": "_payTime",
          "type": "uint256"
        },
        {
          "internalType": "contract IERC20",
          "name": "_token",
          "type": "address"
        },
        {
          "internalType": "address",
          "name": "_devAddress",
          "type": "address"
        }
      ],
      "name": "createRound",
      "outputs": [
        {
          "internalType": "address",
          "name": "",
          "type": "address"
        }
      ],
      "stateMutability": "payable",
      "type": "function"
    },
    {
      "inputs": [
        {
          "internalType": "address",
          "name": "_devAddress",
          "type": "address"
        }
      ],
      "name": "setDevAddress",
      "outputs": [],
      "stateMutability": "nonpayable",
      "type": "function"
    }
  ],
  "bytecode": "0x6080604052734bfaf8ff960622b702e653c18b3bf747abab4368600160006101000a81548173ffffffffffffffffffffffffffffffffffffffff021916908373ffffffffffffffffffffffffffffffffffffffff16021790555034801561006557600080fd5b5061008261007761008760201b60201c565b61008f60201b60201c565b610153565b600033905090565b60008060009054906101000a900473ffffffffffffffffffffffffffffffffffffffff169050816000806101000a81548173ffffffffffffffffffffffffffffffffffffffff021916908373ffffffffffffffffffffffffffffffffffffffff1602179055508173ffffffffffffffffffffffffffffffffffffffff168173ffffffffffffffffffffffffffffffffffffffff167f8be0079c531659141344cd1fd0a4f28419497f9722a3daafe3b4186f6b6457e060405160405180910390a35050565b6164e6806101626000396000f3fe6080604052600436106200005c5760003560e01c80633ad10ef61462000061578063715018a614620000915780638da5cb5b14620000ab578063d0d41fe114620000db578063f2fde38b1462000109578063fd7bb2411462000137575b600080fd5b3480156200006e57600080fd5b50620000796200016d565b60405162000088919062000792565b60405180910390f35b3480156200009e57600080fd5b50620000a962000193565b005b348015620000b857600080fd5b50620000c362000224565b604051620000d2919062000792565b60405180910390f35b348015620000e857600080fd5b50620001076004803603810190620001019190620005cb565b6200024d565b005b3480156200011657600080fd5b506200013560048036038101906200012f9190620005cb565b62000314565b005b6200015560048036038101906200014f9190620005f7565b62000418565b60405162000164919062000792565b60405180910390f35b600160009054906101000a900473ffffffffffffffffffffffffffffffffffffffff1681565b6200019d620004ac565b73ffffffffffffffffffffffffffffffffffffffff16620001bd62000224565b73ffffffffffffffffffffffffffffffffffffffff161462000216576040517f08c379a00000000000000000000000000000000000000000000000000000000081526004016200020d90620007ee565b60405180910390fd5b620002226000620004b4565b565b60008060009054906101000a900473ffffffffffffffffffffffffffffffffffffffff16905090565b62000257620004ac565b73ffffffffffffffffffffffffffffffffffffffff166200027762000224565b73ffffffffffffffffffffffffffffffffffffffff1614620002d0576040517f08c379a0000000000000000000000000000000000000000000000000000000008152600401620002c790620007ee565b60405180910390fd5b80600160006101000a81548173ffffffffffffffffffffffffffffffffffffffff021916908373ffffffffffffffffffffffffffffffffffffffff16021790555050565b6200031e620004ac565b73ffffffffffffffffffffffffffffffffffffffff166200033e62000224565b73ffffffffffffffffffffffffffffffffffffffff161462000397576040517f08c379a00000000000000000000000000000000000000000000000000000000081526004016200038e90620007ee565b60405180910390fd5b600073ffffffffffffffffffffffffffffffffffffffff168173ffffffffffffffffffffffffffffffffffffffff1614156200040a576040517f08c379a00000000000000000000000000000000000000000000000000000000081526004016200040190620007cc565b60405180910390fd5b6200041581620004b4565b50565b6000808888883389898989604051620004319062000578565b6200044498979695949392919062000810565b604051809103906000f08015801562000461573d6000803e3d6000fd5b5090507ffdebb0c30fbd3c4fe101775e6bf17ea692258188ce7edb5666366f58f1529ffc81604051620004959190620007af565b60405180910390a180915050979650505050505050565b600033905090565b60008060009054906101000a900473ffffffffffffffffffffffffffffffffffffffff169050816000806101000a81548173ffffffffffffffffffffffffffffffffffffffff021916908373ffffffffffffffffffffffffffffffffffffffff1602179055508173ffffffffffffffffffffffffffffffffffffffff168173ffffffffffffffffffffffffffffffffffffffff167f8be0079c531659141344cd1fd0a4f28419497f9722a3daafe3b4186f6b6457e060405160405180910390a35050565b615b1180620009a083390190565b600081359050620005978162000951565b92915050565b600081359050620005ae816200096b565b92915050565b600081359050620005c58162000985565b92915050565b600060208284031215620005de57600080fd5b6000620005ee8482850162000586565b91505092915050565b600080600080600080600060e0888a0312156200061357600080fd5b6000620006238a828b01620005b4565b9750506020620006368a828b01620005b4565b9650506040620006498a828b01620005b4565b95505060606200065c8a828b01620005b4565b94505060806200066f8a828b01620005b4565b93505060a0620006828a828b016200059d565b92505060c0620006958a828b0162000586565b91505092959891949750929550565b620006af81620008af565b82525050565b620006c08162000901565b82525050565b620006d18162000929565b82525050565b6000620006e66026836200089e565b91507f4f776e61626c653a206e6577206f776e657220697320746865207a65726f206160008301527f64647265737300000000000000000000000000000000000000000000000000006020830152604082019050919050565b60006200074e6020836200089e565b91507f4f776e61626c653a2063616c6c6572206973206e6f7420746865206f776e65726000830152602082019050919050565b6200078c81620008f7565b82525050565b6000602082019050620007a96000830184620006a4565b92915050565b6000602082019050620007c66000830184620006c6565b92915050565b60006020820190508181036000830152620007e781620006d7565b9050919050565b6000602082019050818103600083015262000809816200073f565b9050919050565b60006101008201905062000828600083018b62000781565b62000837602083018a62000781565b62000846604083018962000781565b620008556060830188620006a4565b62000864608083018762000781565b6200087360a083018662000781565b6200088260c0830185620006b5565b6200089160e0830184620006a4565b9998505050505050505050565b600082825260208201905092915050565b6000620008bc82620008d7565b9050919050565b6000620008d082620008af565b9050919050565b600073ffffffffffffffffffffffffffffffffffffffff82169050919050565b6000819050919050565b60006200090e8262000915565b9050919050565b60006200092282620008d7565b9050919050565b600062000936826200093d565b9050919050565b60006200094a82620008d7565b9050919050565b6200095c81620008af565b81146200096857600080fd5b50565b6200097681620008c3565b81146200098257600080fd5b50565b6200099081620008f7565b81146200099c57600080fd5b5056fe608060405260006007556001600860006101000a81548160ff021916908360ff1602179055506000600b556000600c60016101000a81548160ff0219169083151502179055506000600d556000600e553480156200005c57600080fd5b5060405162005b1138038062005b118339818101604052810190620000829190620004b1565b81600f60006101000a81548173ffffffffffffffffffffffffffffffffffffffff021916908373ffffffffffffffffffffffffffffffffffffffff160217905550600073ffffffffffffffffffffffffffffffffffffffff168573ffffffffffffffffffffffffffffffffffffffff16141562000136576040517f08c379a00000000000000000000000000000000000000000000000000000000081526004016200012d90620006f0565b60405180910390fd5b600186118015620001485750600a8611155b6200018a576040517f08c379a00000000000000000000000000000000000000000000000000000000081526004016200018190620006ac565b60405180910390fd5b60648411156200019957600080fd5b84600160006101000a81548173ffffffffffffffffffffffffffffffffffffffff021916908373ffffffffffffffffffffffffffffffffffffffff16021790555083600581905550670de0b6b3a764000088620001f791906200075b565b600281905550670de0b6b3a7640000876200021391906200075b565b6003819055508560048190555080600660006101000a81548173ffffffffffffffffffffffffffffffffffffffff021916908373ffffffffffffffffffffffffffffffffffffffff1602179055506000600c60006101000a81548160ff02191690836003811115620002ae577f4e487b7100000000000000000000000000000000000000000000000000000000600052602160045260246000fd5b02179055508567ffffffffffffffff811115620002f4577f4e487b7100000000000000000000000000000000000000000000000000000000600052604160045260246000fd5b604051908082528060200260200182016040528015620003235781602001602082028036833780820191505090505b50600a90805190602001906200033b929190620003be565b506000831162000382576040517f08c379a00000000000000000000000000000000000000000000000000000000081526004016200037990620006ce565b60405180910390fd5b82600d819055506127106101f46003546200039e91906200075b565b620003aa919062000723565b600e819055505050505050505050620008ba565b8280548282559060005260206000209081019282156200043a579160200282015b82811115620004395782518260006101000a81548173ffffffffffffffffffffffffffffffffffffffff021916908373ffffffffffffffffffffffffffffffffffffffff16021790555091602001919060010190620003df565b5b5090506200044991906200044d565b5090565b5b80821115620004685760008160009055506001016200044e565b5090565b6000815190506200047d816200086c565b92915050565b600081519050620004948162000886565b92915050565b600081519050620004ab81620008a0565b92915050565b600080600080600080600080610100898b031215620004cf57600080fd5b6000620004df8b828c016200049a565b9850506020620004f28b828c016200049a565b9750506040620005058b828c016200049a565b9650506060620005188b828c016200046c565b95505060806200052b8b828c016200049a565b94505060a06200053e8b828c016200049a565b93505060c0620005518b828c0162000483565b92505060e0620005648b828c016200046c565b9150509295985092959890939650565b600062000583603e8362000712565b91507f456c2074616d616e696f2064656c20677275706f206465626520736572206d6160008301527f796f72206120756e6f2079206d656e6f72206f20696775616c206120313000006020830152604082019050919050565b6000620005eb60308362000712565b91507f456c207469656d706f2070617261207061676172206e6f20707565646520736560008301527f72206d656e6f72206120756e20646961000000000000000000000000000000006020830152604082019050919050565b60006200065360308362000712565b91507f4c6120646972656363696f6e2064656c2061646d696e6973747261646f72206e60008301527f6f20707565646520736572206365726f000000000000000000000000000000006020830152604082019050919050565b60006020820190508181036000830152620006c78162000574565b9050919050565b60006020820190508181036000830152620006e981620005dc565b9050919050565b600060208201905081810360008301526200070b8162000644565b9050919050565b600082825260208201905092915050565b6000620007308262000804565b91506200073d8362000804565b92508262000750576200074f6200083d565b5b828204905092915050565b6000620007688262000804565b9150620007758362000804565b9250817fffffffffffffffffffffffffffffffffffffffffffffffffffffffffffffffff0483118215151615620007b157620007b06200080e565b5b828202905092915050565b6000620007c982620007e4565b9050919050565b6000620007dd82620007bc565b9050919050565b600073ffffffffffffffffffffffffffffffffffffffff82169050919050565b6000819050919050565b7f4e487b7100000000000000000000000000000000000000000000000000000000600052601160045260246000fd5b7f4e487b7100000000000000000000000000000000000000000000000000000000600052601260045260246000fd5b6200087781620007bc565b81146200088357600080fd5b50565b6200089181620007d0565b81146200089d57600080fd5b50565b620008ab8162000804565b8114620008b757600080fd5b50565b61524780620008ca6000396000f3fe608060405234801561001057600080fd5b50600436106101fb5760003560e01c8063743c81ab1161011a578063a0be06f9116100ad578063c040e6b81161007c578063c040e6b8146105b3578063c949cb83146105d1578063db2e21bc146105ed578063e8f49631146105f7578063f851a44014610627576101fb565b8063a0be06f914610520578063a87430ba1461053e578063b4501f3914610577578063b4bde59e14610595576101fb565b806385f0f378116100e957806385f0f378146104845780638930361d146104a25780638b299903146104d2578063a0a8427e146104f0576101fb565b8063743c81ab14610420578063749aa2d91461043e5780637826e78f1461044857806378e9792514610466576101fb565b80633ad10ef6116101925780635394dda8116101615780635394dda81461039857806355e3f086146103c85780635b6397e1146103d257806363b635ea14610402576101fb565b80633ad10ef6146102ea5780634210a8d114610308578063466afa0d14610338578063504fc51d14610368576101fb565b80631fccf672116101ce5780631fccf672146102865780632055baf4146102a45780632d50e80d146102c257806330fceb6c146102e0576101fb565b806302b8c8cd1461020057806303ee30611461021c578063086a29e71461024c5780631e58061514610268575b600080fd5b61021a60048036038101906102159190614629565b610645565b005b61023660048036038101906102319190614629565b610c34565b6040516102439190614e12565b60405180910390f35b61026660048036038101906102619190614629565b610cf7565b005b610270611413565b60405161027d9190614e12565b60405180910390f35b61028e611419565b60405161029b9190614c1c565b60405180910390f35b6102ac61143f565b6040516102b99190614e2d565b60405180910390f35b6102ca611537565b6040516102d79190614e12565b60405180910390f35b6102e861153d565b005b6102f2611a8a565b6040516102ff9190614aea565b60405180910390f35b610322600480360381019061031d9190614629565b611ab0565b60405161032f9190614e12565b60405180910390f35b610352600480360381019061034d9190614629565b611b73565b60405161035f9190614e2d565b60405180910390f35b610382600480360381019061037d9190614585565b611c43565b60405161038f9190614e12565b60405180910390f35b6103b260048036038101906103ad91906145d7565b611d0f565b6040516103bf9190614aea565b60405180910390f35b6103d0611d4e565b005b6103ec60048036038101906103e79190614629565b611f44565b6040516103f99190614e12565b60405180910390f35b61040a612007565b6040516104179190614e12565b60405180910390f35b61042861200d565b6040516104359190614e12565b60405180910390f35b610446612013565b005b6104506128f6565b60405161045d9190614e12565b60405180910390f35b61046e6128fc565b60405161047b9190614e12565b60405180910390f35b61048c612902565b6040516104999190614c01565b60405180910390f35b6104bc60048036038101906104b79190614629565b612915565b6040516104c99190614c01565b60405180910390f35b6104da6129e5565b6040516104e79190614e2d565b60405180910390f35b61050a60048036038101906105059190614629565b6129f8565b6040516105179190614e12565b60405180910390f35b610528612abb565b6040516105359190614e12565b60405180910390f35b61055860048036038101906105539190614585565b612ac1565b60405161056e9a99989796959493929190614b65565b60405180910390f35b61057f612b5c565b60405161058c9190614e12565b60405180910390f35b61059d612c6e565b6040516105aa9190614e12565b60405180910390f35b6105bb612c74565b6040516105c89190614c37565b60405180910390f35b6105eb60048036038101906105e691906145d7565b612c87565b005b6105f561355f565b005b610611600480360381019061060c9190614629565b613789565b60405161061e9190614e12565b60405180910390f35b61062f61384c565b60405161063c9190614aea565b60405180910390f35b6000806003811115610680577f4e487b7100000000000000000000000000000000000000000000000000000000600052602160045260246000fd5b600c60009054906101000a900460ff1660038111156106c8577f4e487b7100000000000000000000000000000000000000000000000000000000600052602160045260246000fd5b14610708576040517f08c379a00000000000000000000000000000000000000000000000000000000081526004016106ff90614cd2565b60405180910390fd5b6000803373ffffffffffffffffffffffffffffffffffffffff1673ffffffffffffffffffffffffffffffffffffffff16815260200190815260200160002060070160009054906101000a900460ff1615610797576040517f08c379a000000000000000000000000000000000000000000000000000000000815260040161078e90614c52565b60405180910390fd5b600454600754106107dd576040517f08c379a00000000000000000000000000000000000000000000000000000000081526004016107d490614db2565b60405180910390fd5b600073ffffffffffffffffffffffffffffffffffffffff16600a6001846108049190614fa5565b60ff168154811061083e577f4e487b7100000000000000000000000000000000000000000000000000000000600052603260045260246000fd5b9060005260206000200160009054906101000a900473ffffffffffffffffffffffffffffffffffffffff1673ffffffffffffffffffffffffffffffffffffffff16146108bf576040517f08c379a00000000000000000000000000000000000000000000000000000000081526004016108b690614c92565b60405180910390fd5b600760008154809291906108d2906150a1565b91905055506040518061014001604052803373ffffffffffffffffffffffffffffffffffffffff1681526020018360ff1681526020016002548152602001600081526020016000815260200160008152602001600060ff1681526020016000815260200160011515815260200160008152506000803373ffffffffffffffffffffffffffffffffffffffff1673ffffffffffffffffffffffffffffffffffffffff16815260200190815260200160002060008201518160000160006101000a81548173ffffffffffffffffffffffffffffffffffffffff021916908373ffffffffffffffffffffffffffffffffffffffff16021790555060208201518160000160146101000a81548160ff021916908360ff16021790555060408201518160010155606082015181600201556080820151816003015560a0820151816004015560c08201518160050160006101000a81548160ff021916908360ff16021790555060e082015181600601556101008201518160070160006101000a81548160ff02191690831515021790555061012082015181600801559050506000610a7a30600254613872565b90508015153373ffffffffffffffffffffffffffffffffffffffff167f4480e10f92b8eb473ee375c618f546a95bb106e9ac08855a51628a55f2f043e260405160405180910390a36000610af2600660009054906101000a900473ffffffffffffffffffffffffffffffffffffffff16600e54613872565b90508015153373ffffffffffffffffffffffffffffffffffffffff167ffcc9de8628256fd80a029af5f9f600bdfc8ec089f618a40d63f7063060d227a560405160405180910390a3600254600b6000828254610b4e9190614e59565b9250508190555033600a600186610b659190614fa5565b60ff1681548110610b9f577f4e487b7100000000000000000000000000000000000000000000000000000000600052603260045260246000fd5b9060005260206000200160006101000a81548173ffffffffffffffffffffffffffffffffffffffff021916908373ffffffffffffffffffffffffffffffffffffffff1602179055508360ff163373ffffffffffffffffffffffffffffffffffffffff167f976bbd2f6af68a7eee78f5300f40d037367b165e65f157e6af4ae073b2befd4960405160405180910390a350505050565b600080600a600184610c469190614fa5565b60ff1681548110610c80577f4e487b7100000000000000000000000000000000000000000000000000000000600052603260045260246000fd5b9060005260206000200160009054906101000a900473ffffffffffffffffffffffffffffffffffffffff1690506000808273ffffffffffffffffffffffffffffffffffffffff1673ffffffffffffffffffffffffffffffffffffffff16815260200190815260200160002060060154915050919050565b6000806003811115610d32577f4e487b7100000000000000000000000000000000000000000000000000000000600052602160045260246000fd5b600c60009054906101000a900460ff166003811115610d7a577f4e487b7100000000000000000000000000000000000000000000000000000000600052602160045260246000fd5b14610dba576040517f08c379a0000000000000000000000000000000000000000000000000000000008152600401610db190614cd2565b60405180910390fd5b600160009054906101000a900473ffffffffffffffffffffffffffffffffffffffff1673ffffffffffffffffffffffffffffffffffffffff163373ffffffffffffffffffffffffffffffffffffffff161480610eb45750600a600183610e209190614fa5565b60ff1681548110610e5a577f4e487b7100000000000000000000000000000000000000000000000000000000600052603260045260246000fd5b9060005260206000200160009054906101000a900473ffffffffffffffffffffffffffffffffffffffff1673ffffffffffffffffffffffffffffffffffffffff163373ffffffffffffffffffffffffffffffffffffffff16145b610ef3576040517f08c379a0000000000000000000000000000000000000000000000000000000008152600401610eea90614cf2565b60405180910390fd5b600073ffffffffffffffffffffffffffffffffffffffff16600a600184610f1a9190614fa5565b60ff1681548110610f54577f4e487b7100000000000000000000000000000000000000000000000000000000600052603260045260246000fd5b9060005260206000200160009054906101000a900473ffffffffffffffffffffffffffffffffffffffff1673ffffffffffffffffffffffffffffffffffffffff161415610fd6576040517f08c379a0000000000000000000000000000000000000000000000000000000008152600401610fcd90614d52565b60405180910390fd5b600a600183610fe59190614fa5565b60ff168154811061101f577f4e487b7100000000000000000000000000000000000000000000000000000000600052603260045260246000fd5b9060005260206000200160009054906101000a900473ffffffffffffffffffffffffffffffffffffffff1673ffffffffffffffffffffffffffffffffffffffff16600160009054906101000a900473ffffffffffffffffffffffffffffffffffffffff1673ffffffffffffffffffffffffffffffffffffffff1614156110da576040517f08c379a00000000000000000000000000000000000000000000000000000000081526004016110d190614d32565b60405180910390fd5b6000600a6001846110eb9190614fa5565b60ff1681548110611125577f4e487b7100000000000000000000000000000000000000000000000000000000600052603260045260246000fd5b9060005260206000200160009054906101000a900473ffffffffffffffffffffffffffffffffffffffff16905060008060008373ffffffffffffffffffffffffffffffffffffffff1673ffffffffffffffffffffffffffffffffffffffff1681526020019081526020016000206001015411156112ab5760008060008373ffffffffffffffffffffffffffffffffffffffff1673ffffffffffffffffffffffffffffffffffffffff16815260200190815260200160002060010154905060008060008473ffffffffffffffffffffffffffffffffffffffff1673ffffffffffffffffffffffffffffffffffffffff1681526020019081526020016000206001018190555080600b546112379190614f71565b600b819055506112a86000808473ffffffffffffffffffffffffffffffffffffffff1673ffffffffffffffffffffffffffffffffffffffff16815260200190815260200160002060000160009054906101000a900473ffffffffffffffffffffffffffffffffffffffff1682613932565b50505b6000600a6001856112bc9190614fa5565b60ff16815481106112f6577f4e487b7100000000000000000000000000000000000000000000000000000000600052603260045260246000fd5b9060005260206000200160006101000a81548173ffffffffffffffffffffffffffffffffffffffff021916908373ffffffffffffffffffffffffffffffffffffffff1602179055506007600081548092919061135190615077565b919050555060008060008373ffffffffffffffffffffffffffffffffffffffff1673ffffffffffffffffffffffffffffffffffffffff16815260200190815260200160002060070160006101000a81548160ff0219169083151502179055508260ff168173ffffffffffffffffffffffffffffffffffffffff163373ffffffffffffffffffffffffffffffffffffffff167fadfd51f69b0ad07e1815c54508f0be97ccfacda3e7553aef7b19e0cfc374be2b60405160405180910390a4505050565b60025481565b600f60009054906101000a900473ffffffffffffffffffffffffffffffffffffffff1681565b6000600180600381111561147c577f4e487b7100000000000000000000000000000000000000000000000000000000600052602160045260246000fd5b600c60009054906101000a900460ff1660038111156114c4577f4e487b7100000000000000000000000000000000000000000000000000000000600052602160045260246000fd5b14611504576040517f08c379a00000000000000000000000000000000000000000000000000000000081526004016114fb90614cd2565b60405180910390fd5b60006001600d54600954426115199190614f71565b6115239190614ee6565b61152d9190614eaf565b9050809250505090565b600d5481565b6000803373ffffffffffffffffffffffffffffffffffffffff1673ffffffffffffffffffffffffffffffffffffffff16815260200190815260200160002060070160009054906101000a900460ff1660011515811515146115d3576040517f08c379a00000000000000000000000000000000000000000000000000000000081526004016115ca90614d72565b60405180910390fd5b600180600381111561160e577f4e487b7100000000000000000000000000000000000000000000000000000000600052602160045260246000fd5b600c60009054906101000a900460ff166003811115611656577f4e487b7100000000000000000000000000000000000000000000000000000000600052602160045260246000fd5b14611696576040517f08c379a000000000000000000000000000000000000000000000000000000000815260040161168d90614cd2565b60405180910390fd5b60008060003373ffffffffffffffffffffffffffffffffffffffff1673ffffffffffffffffffffffffffffffffffffffff16815260200190815260200160002060000160149054906101000a900460ff16905060006116f361143f565b90508160ff168160ff161161173d576040517f08c379a000000000000000000000000000000000000000000000000000000000815260040161173490614d92565b60405180910390fd5b60008060003373ffffffffffffffffffffffffffffffffffffffff1673ffffffffffffffffffffffffffffffffffffffff168152602001908152602001600020600801541461178b57600080fd5b8060ff16600860009054906101000a900460ff1660ff1610156117c1576117c0600860009054906101000a900460ff166139f0565b5b6000803373ffffffffffffffffffffffffffffffffffffffff1673ffffffffffffffffffffffffffffffffffffffff1681526020019081526020016000206003015461180c33611c43565b111561181c5761181b336142d3565b5b600080803373ffffffffffffffffffffffffffffffffffffffff1673ffffffffffffffffffffffffffffffffffffffff16815260200190815260200160002060020154905060008060003373ffffffffffffffffffffffffffffffffffffffff1673ffffffffffffffffffffffffffffffffffffffff16815260200190815260200160002060020181905550806000803373ffffffffffffffffffffffffffffffffffffffff1673ffffffffffffffffffffffffffffffffffffffff16815260200190815260200160002060080160008282546118f99190614e59565b92505081905550600061196d6000803373ffffffffffffffffffffffffffffffffffffffff1673ffffffffffffffffffffffffffffffffffffffff16815260200190815260200160002060000160009054906101000a900473ffffffffffffffffffffffffffffffffffffffff1683613932565b9050801515826000803373ffffffffffffffffffffffffffffffffffffffff1673ffffffffffffffffffffffffffffffffffffffff16815260200190815260200160002060000160009054906101000a900473ffffffffffffffffffffffffffffffffffffffff1673ffffffffffffffffffffffffffffffffffffffff167fd62c1f6f3c4444a52e394381f609a885a10cc992ad4b59f0815f22db3cc5923260405160405180910390a460009150600c60019054906101000a900460ff1615611a82576003600c60006101000a81548160ff02191690836003811115611a7c577f4e487b7100000000000000000000000000000000000000000000000000000000600052602160045260246000fd5b02179055505b505050505050565b600660009054906101000a900473ffffffffffffffffffffffffffffffffffffffff1681565b600080600a600184611ac29190614fa5565b60ff1681548110611afc577f4e487b7100000000000000000000000000000000000000000000000000000000600052603260045260246000fd5b9060005260206000200160009054906101000a900473ffffffffffffffffffffffffffffffffffffffff1690506000808273ffffffffffffffffffffffffffffffffffffffff1673ffffffffffffffffffffffffffffffffffffffff16815260200190815260200160002060030154915050919050565b600080600a600184611b859190614fa5565b60ff1681548110611bbf577f4e487b7100000000000000000000000000000000000000000000000000000000600052603260045260246000fd5b9060005260206000200160009054906101000a900473ffffffffffffffffffffffffffffffffffffffff1690506000808273ffffffffffffffffffffffffffffffffffffffff1673ffffffffffffffffffffffffffffffffffffffff16815260200190815260200160002060050160009054906101000a900460ff16915050919050565b600080600860009054906101000a900460ff1660ff166000808573ffffffffffffffffffffffffffffffffffffffff1673ffffffffffffffffffffffffffffffffffffffff16815260200190815260200160002060000160149054906101000a900460ff1660ff1611611ce3576001600860009054906101000a900460ff16611ccc9190614fa5565b60ff16600354611cdc9190614f17565b9050611d06565b600860009054906101000a900460ff1660ff16600354611d039190614f17565b90505b80915050919050565b600a8181548110611d1f57600080fd5b906000526020600020016000915054906101000a900473ffffffffffffffffffffffffffffffffffffffff1681565b600160009054906101000a900473ffffffffffffffffffffffffffffffffffffffff168073ffffffffffffffffffffffffffffffffffffffff163373ffffffffffffffffffffffffffffffffffffffff1614611ddf576040517f08c379a0000000000000000000000000000000000000000000000000000000008152600401611dd690614c72565b60405180910390fd5b6000806003811115611e1a577f4e487b7100000000000000000000000000000000000000000000000000000000600052602160045260246000fd5b600c60009054906101000a900460ff166003811115611e62577f4e487b7100000000000000000000000000000000000000000000000000000000600052602160045260246000fd5b14611ea2576040517f08c379a0000000000000000000000000000000000000000000000000000000008152600401611e9990614cd2565b60405180910390fd5b60045460075414611ee8576040517f08c379a0000000000000000000000000000000000000000000000000000000008152600401611edf90614df2565b60405180910390fd5b6001600c60006101000a81548160ff02191690836003811115611f34577f4e487b7100000000000000000000000000000000000000000000000000000000600052602160045260246000fd5b0217905550426009819055505050565b600080600a600184611f569190614fa5565b60ff1681548110611f90577f4e487b7100000000000000000000000000000000000000000000000000000000600052603260045260246000fd5b9060005260206000200160009054906101000a900473ffffffffffffffffffffffffffffffffffffffff1690506000808273ffffffffffffffffffffffffffffffffffffffff1673ffffffffffffffffffffffffffffffffffffffff16815260200190815260200160002060010154915050919050565b60045481565b60035481565b600180600381111561204e577f4e487b7100000000000000000000000000000000000000000000000000000000600052602160045260246000fd5b600c60009054906101000a900460ff166003811115612096577f4e487b7100000000000000000000000000000000000000000000000000000000600052602160045260246000fd5b146120d6576040517f08c379a00000000000000000000000000000000000000000000000000000000081526004016120cd90614cd2565b60405180910390fd5b6004546120e161143f565b60ff1611612124576040517f08c379a000000000000000000000000000000000000000000000000000000000815260040161211b90614cb2565b60405180910390fd5b6000600860009054906101000a900460ff1690505b6004548160ff16116121615761214e816139f0565b8080612159906150ea565b915050612139565b506000805b6004548160ff1610156122d5576000600a8260ff16815481106121b2577f4e487b7100000000000000000000000000000000000000000000000000000000600052603260045260246000fd5b9060005260206000200160009054906101000a900473ffffffffffffffffffffffffffffffffffffffff1690506000808273ffffffffffffffffffffffffffffffffffffffff1673ffffffffffffffffffffffffffffffffffffffff168152602001908152602001600020600601546000808373ffffffffffffffffffffffffffffffffffffffff1673ffffffffffffffffffffffffffffffffffffffff168152602001908152602001600020600201541061227257612271816142d3565b5b6000808273ffffffffffffffffffffffffffffffffffffffff1673ffffffffffffffffffffffffffffffffffffffff16815260200190815260200160002060010154836122bf9190614e59565b92505080806122cd906150ea565b915050612166565b50600c60019054906101000a900460ff166126785760005b6004548160ff161015612672576000600a8260ff1681548110612339577f4e487b7100000000000000000000000000000000000000000000000000000000600052603260045260246000fd5b9060005260206000200160009054906101000a900473ffffffffffffffffffffffffffffffffffffffff169050600083600b546000808573ffffffffffffffffffffffffffffffffffffffff1673ffffffffffffffffffffffffffffffffffffffff168152602001908152602001600020600101546123b89190614f17565b6123c29190614ee6565b6000808473ffffffffffffffffffffffffffffffffffffffff1673ffffffffffffffffffffffffffffffffffffffff1681526020019081526020016000206002015461240e9190614e59565b905060008060008473ffffffffffffffffffffffffffffffffffffffff1673ffffffffffffffffffffffffffffffffffffffff1681526020019081526020016000206002018190555060008060008473ffffffffffffffffffffffffffffffffffffffff1673ffffffffffffffffffffffffffffffffffffffff1681526020019081526020016000206001018190555060008060008473ffffffffffffffffffffffffffffffffffffffff1673ffffffffffffffffffffffffffffffffffffffff16815260200190815260200160002060070160006101000a81548160ff021916908315150217905550600060646005548361250a9190614f17565b6125149190614ee6565b9050600081836125249190614f71565b90506125916000808673ffffffffffffffffffffffffffffffffffffffff1673ffffffffffffffffffffffffffffffffffffffff16815260200190815260200160002060000160009054906101000a900473ffffffffffffffffffffffffffffffffffffffff1682613932565b506125be600160009054906101000a900473ffffffffffffffffffffffffffffffffffffffff1683613932565b50600092506002600c60006101000a81548160ff0219169083600381111561260f577f4e487b7100000000000000000000000000000000000000000000000000000000600052602160045260246000fd5b0217905550426009543073ffffffffffffffffffffffffffffffffffffffff167f52a298e98008bccb662279d4de296612fe9d9fe846a899e25d485e12a015254560405160405180910390a450505050808061266a906150ea565b9150506122ed565b506128f2565b60005b6004548160ff1610156128f0576000600a8260ff16815481106126c7577f4e487b7100000000000000000000000000000000000000000000000000000000600052603260045260246000fd5b9060005260206000200160009054906101000a900473ffffffffffffffffffffffffffffffffffffffff169050600083600b546000808573ffffffffffffffffffffffffffffffffffffffff1673ffffffffffffffffffffffffffffffffffffffff168152602001908152602001600020600101546127469190614f17565b6127509190614ee6565b6000808473ffffffffffffffffffffffffffffffffffffffff1673ffffffffffffffffffffffffffffffffffffffff1681526020019081526020016000206002015461279c9190614e59565b905060008060008473ffffffffffffffffffffffffffffffffffffffff1673ffffffffffffffffffffffffffffffffffffffff1681526020019081526020016000206002018190555060008060008473ffffffffffffffffffffffffffffffffffffffff1673ffffffffffffffffffffffffffffffffffffffff1681526020019081526020016000206001018190555060008060008473ffffffffffffffffffffffffffffffffffffffff1673ffffffffffffffffffffffffffffffffffffffff16815260200190815260200160002060070160006101000a81548160ff021916908315150217905550600090506003600c60006101000a81548160ff021916908360038111156128d6577f4e487b7100000000000000000000000000000000000000000000000000000000600052602160045260246000fd5b0217905550505080806128e8906150ea565b91505061267b565b505b5050565b600e5481565b60095481565b600c60019054906101000a900460ff1681565b600080600a6001846129279190614fa5565b60ff1681548110612961577f4e487b7100000000000000000000000000000000000000000000000000000000600052603260045260246000fd5b9060005260206000200160009054906101000a900473ffffffffffffffffffffffffffffffffffffffff1690506000808273ffffffffffffffffffffffffffffffffffffffff1673ffffffffffffffffffffffffffffffffffffffff16815260200190815260200160002060070160009054906101000a900460ff16915050919050565b600860009054906101000a900460ff1681565b600080600a600184612a0a9190614fa5565b60ff1681548110612a44577f4e487b7100000000000000000000000000000000000000000000000000000000600052603260045260246000fd5b9060005260206000200160009054906101000a900473ffffffffffffffffffffffffffffffffffffffff1690506000808273ffffffffffffffffffffffffffffffffffffffff1673ffffffffffffffffffffffffffffffffffffffff16815260200190815260200160002060020154915050919050565b60055481565b60006020528060005260406000206000915090508060000160009054906101000a900473ffffffffffffffffffffffffffffffffffffffff16908060000160149054906101000a900460ff16908060010154908060020154908060030154908060040154908060050160009054906101000a900460ff16908060060154908060070160009054906101000a900460ff1690806008015490508a565b6000806001600454612b6e9190614f71565b600354612b7b9190614f17565b905060008060003373ffffffffffffffffffffffffffffffffffffffff1673ffffffffffffffffffffffffffffffffffffffff168152602001908152602001600020600601546000803373ffffffffffffffffffffffffffffffffffffffff1673ffffffffffffffffffffffffffffffffffffffff168152602001908152602001600020600401546000803373ffffffffffffffffffffffffffffffffffffffff1673ffffffffffffffffffffffffffffffffffffffff1681526020019081526020016000206003015484612c509190614f71565b612c5a9190614f71565b612c649190614e59565b9050809250505090565b600b5481565b600c60009054906101000a900460ff1681565b6000803373ffffffffffffffffffffffffffffffffffffffff1673ffffffffffffffffffffffffffffffffffffffff16815260200190815260200160002060070160009054906101000a900460ff166001151581151514612d1d576040517f08c379a0000000000000000000000000000000000000000000000000000000008152600401612d1490614d72565b60405180910390fd5b6001806003811115612d58577f4e487b7100000000000000000000000000000000000000000000000000000000600052602160045260246000fd5b600c60009054906101000a900460ff166003811115612da0577f4e487b7100000000000000000000000000000000000000000000000000000000600052602160045260246000fd5b14612de0576040517f08c379a0000000000000000000000000000000000000000000000000000000008152600401612dd790614cd2565b60405180910390fd5b612de8612b5c565b8311158015612df75750600083115b612e36576040517f08c379a0000000000000000000000000000000000000000000000000000000008152600401612e2d90614d12565b60405180910390fd5b6000612e4061143f565b90508060ff16600860009054906101000a900460ff1660ff161015612e7857612e77600860009054906101000a900460ff166139f0565b5b6000600a6001600860009054906101000a900460ff16612e989190614fa5565b60ff1681548110612ed2577f4e487b7100000000000000000000000000000000000000000000000000000000600052603260045260246000fd5b9060005260206000200160009054906101000a900473ffffffffffffffffffffffffffffffffffffffff1690506000859050806000803373ffffffffffffffffffffffffffffffffffffffff1673ffffffffffffffffffffffffffffffffffffffff1681526020019081526020016000206004016000828254612f559190614e59565b925050819055506000612f6733611c43565b90506000806000803373ffffffffffffffffffffffffffffffffffffffff1673ffffffffffffffffffffffffffffffffffffffff168152602001908152602001600020600301548311612fbd576000915061315d565b6000803373ffffffffffffffffffffffffffffffffffffffff1673ffffffffffffffffffffffffffffffffffffffff168152602001908152602001600020600301548361300a9190614f71565b91503373ffffffffffffffffffffffffffffffffffffffff168573ffffffffffffffffffffffffffffffffffffffff161461315c578382101561304f57819050613053565b8390505b806000803373ffffffffffffffffffffffffffffffffffffffff1673ffffffffffffffffffffffffffffffffffffffff16815260200190815260200160002060040160008282546130a49190614f71565b92505081905550806000808773ffffffffffffffffffffffffffffffffffffffff1673ffffffffffffffffffffffffffffffffffffffff16815260200190815260200160002060020160008282546130fc9190614e59565b92505081905550806000803373ffffffffffffffffffffffffffffffffffffffff1673ffffffffffffffffffffffffffffffffffffffff16815260200190815260200160002060030160008282546131549190614e59565b925050819055505b5b60008060003373ffffffffffffffffffffffffffffffffffffffff1673ffffffffffffffffffffffffffffffffffffffff168152602001908152602001600020600601541180156131ef575060008060003373ffffffffffffffffffffffffffffffffffffffff1673ffffffffffffffffffffffffffffffffffffffff16815260200190815260200160002060040154115b156133d35760008060003373ffffffffffffffffffffffffffffffffffffffff1673ffffffffffffffffffffffffffffffffffffffff168152602001908152602001600020600401546000803373ffffffffffffffffffffffffffffffffffffffff1673ffffffffffffffffffffffffffffffffffffffff16815260200190815260200160002060060154116132c8576000803373ffffffffffffffffffffffffffffffffffffffff1673ffffffffffffffffffffffffffffffffffffffff16815260200190815260200160002060060154905061330d565b6000803373ffffffffffffffffffffffffffffffffffffffff1673ffffffffffffffffffffffffffffffffffffffff1681526020019081526020016000206004015490505b806000803373ffffffffffffffffffffffffffffffffffffffff1673ffffffffffffffffffffffffffffffffffffffff168152602001908152602001600020600401600082825461335e9190614f71565b9250508190555080600b546133739190614e59565b600b81905550806000803373ffffffffffffffffffffffffffffffffffffffff1673ffffffffffffffffffffffffffffffffffffffff16815260200190815260200160002060060160008282546133ca9190614f71565b92505081905550505b6002546000803373ffffffffffffffffffffffffffffffffffffffff1673ffffffffffffffffffffffffffffffffffffffff1681526020019081526020016000206006015410156134b7576000803373ffffffffffffffffffffffffffffffffffffffff1673ffffffffffffffffffffffffffffffffffffffff1681526020019081526020016000206006015460025461346d9190614f71565b6000803373ffffffffffffffffffffffffffffffffffffffff1673ffffffffffffffffffffffffffffffffffffffff168152602001908152602001600020600101819055506134ff565b60008060003373ffffffffffffffffffffffffffffffffffffffff1673ffffffffffffffffffffffffffffffffffffffff168152602001908152602001600020600101819055505b600061350b308b613872565b90508015153373ffffffffffffffffffffffffffffffffffffffff167f02d1bc4c41f0968b82fd72dc5877b3df473c2bcab943abd81229c5b825b2132160405160405180910390a350505050505050505050565b600380600381111561359a577f4e487b7100000000000000000000000000000000000000000000000000000000600052602160045260246000fd5b600c60009054906101000a900460ff1660038111156135e2577f4e487b7100000000000000000000000000000000000000000000000000000000600052602160045260246000fd5b14613622576040517f08c379a000000000000000000000000000000000000000000000000000000000815260040161361990614cd2565b60405180910390fd5b6000600f60009054906101000a900473ffffffffffffffffffffffffffffffffffffffff1673ffffffffffffffffffffffffffffffffffffffff166370a08231306040518263ffffffff1660e01b815260040161367f9190614aea565b60206040518083038186803b15801561369757600080fd5b505afa1580156136ab573d6000803e3d6000fd5b505050506040513d601f19601f820116820180604052508101906136cf9190614600565b905060008111613714576040517f08c379a000000000000000000000000000000000000000000000000000000000815260040161370b90614dd2565b60405180910390fd5b613740600660009054906101000a900473ffffffffffffffffffffffffffffffffffffffff1682613932565b50803073ffffffffffffffffffffffffffffffffffffffff167f5fafa99d0643513820be26656b45130b01e1c03062e1266bf36f88cbd3bd969560405160405180910390a35050565b600080600a60018461379b9190614fa5565b60ff16815481106137d5577f4e487b7100000000000000000000000000000000000000000000000000000000600052603260045260246000fd5b9060005260206000200160009054906101000a900473ffffffffffffffffffffffffffffffffffffffff1690506000808273ffffffffffffffffffffffffffffffffffffffff1673ffffffffffffffffffffffffffffffffffffffff16815260200190815260200160002060040154915050919050565b600160009054906101000a900473ffffffffffffffffffffffffffffffffffffffff1681565b600080600f60009054906101000a900473ffffffffffffffffffffffffffffffffffffffff1673ffffffffffffffffffffffffffffffffffffffff166323b872dd3386866040518463ffffffff1660e01b81526004016138d493929190614b05565b602060405180830381600087803b1580156138ee57600080fd5b505af1158015613902573d6000803e3d6000fd5b505050506040513d601f19601f8201168201806040525081019061392691906145ae565b90508091505092915050565b600080600f60009054906101000a900473ffffffffffffffffffffffffffffffffffffffff1673ffffffffffffffffffffffffffffffffffffffff1663a9059cbb85856040518363ffffffff1660e01b8152600401613992929190614b3c565b602060405180830381600087803b1580156139ac57600080fd5b505af11580156139c0573d6000803e3d6000fd5b505050506040513d601f19601f820116820180604052508101906139e491906145ae565b90508091505092915050565b6001806003811115613a2b577f4e487b7100000000000000000000000000000000000000000000000000000000600052602160045260246000fd5b600c60009054906101000a900460ff166003811115613a73577f4e487b7100000000000000000000000000000000000000000000000000000000600052602160045260246000fd5b14613ab3576040517f08c379a0000000000000000000000000000000000000000000000000000000008152600401613aaa90614cd2565b60405180910390fd5b60005b6004548160ff161015614296576000600a8260ff1681548110613b02577f4e487b7100000000000000000000000000000000000000000000000000000000600052603260045260246000fd5b9060005260206000200160009054906101000a900473ffffffffffffffffffffffffffffffffffffffff1690506000600a600186613b409190614fa5565b60ff1681548110613b7a577f4e487b7100000000000000000000000000000000000000000000000000000000600052603260045260246000fd5b9060005260206000200160009054906101000a900473ffffffffffffffffffffffffffffffffffffffff1690506000613bb283611c43565b905060008273ffffffffffffffffffffffffffffffffffffffff168473ffffffffffffffffffffffffffffffffffffffff161461427f576000808573ffffffffffffffffffffffffffffffffffffffff1673ffffffffffffffffffffffffffffffffffffffff16815260200190815260200160002060030154821115613c86576000808573ffffffffffffffffffffffffffffffffffffffff1673ffffffffffffffffffffffffffffffffffffffff1681526020019081526020016000206003015482613c7f9190614f71565b9050613c8b565b600090505b600081111561427e5760008060008673ffffffffffffffffffffffffffffffffffffffff1673ffffffffffffffffffffffffffffffffffffffff168152602001908152602001600020600401541115613f855760008060008673ffffffffffffffffffffffffffffffffffffffff1673ffffffffffffffffffffffffffffffffffffffff16815260200190815260200160002060040154821015613d3157819050613d76565b6000808673ffffffffffffffffffffffffffffffffffffffff1673ffffffffffffffffffffffffffffffffffffffff1681526020019081526020016000206004015490505b806000808773ffffffffffffffffffffffffffffffffffffffff1673ffffffffffffffffffffffffffffffffffffffff16815260200190815260200160002060040154613dc39190614f71565b6000808773ffffffffffffffffffffffffffffffffffffffff1673ffffffffffffffffffffffffffffffffffffffff16815260200190815260200160002060040181905550806000808773ffffffffffffffffffffffffffffffffffffffff1673ffffffffffffffffffffffffffffffffffffffff16815260200190815260200160002060030154613e559190614e59565b6000808773ffffffffffffffffffffffffffffffffffffffff1673ffffffffffffffffffffffffffffffffffffffff16815260200190815260200160002060030181905550806000808673ffffffffffffffffffffffffffffffffffffffff1673ffffffffffffffffffffffffffffffffffffffff16815260200190815260200160002060020154613ee79190614e59565b6000808673ffffffffffffffffffffffffffffffffffffffff1673ffffffffffffffffffffffffffffffffffffffff168152602001908152602001600020600201819055506000808673ffffffffffffffffffffffffffffffffffffffff1673ffffffffffffffffffffffffffffffffffffffff16815260200190815260200160002060030154613f7786611c43565b613f819190614f71565b9150505b600081111561427d576000808573ffffffffffffffffffffffffffffffffffffffff1673ffffffffffffffffffffffffffffffffffffffff168152602001908152602001600020600501600081819054906101000a900460ff1680929190613fec906150ea565b91906101000a81548160ff021916908360ff1602179055505080600b54106141345780600b60008282546140209190614f71565b92505081905550806000808673ffffffffffffffffffffffffffffffffffffffff1673ffffffffffffffffffffffffffffffffffffffff16815260200190815260200160002060030160008282546140789190614e59565b92505081905550806000808673ffffffffffffffffffffffffffffffffffffffff1673ffffffffffffffffffffffffffffffffffffffff16815260200190815260200160002060060160008282546140d09190614e59565b92505081905550806000808573ffffffffffffffffffffffffffffffffffffffff1673ffffffffffffffffffffffffffffffffffffffff16815260200190815260200160002060020160008282546141289190614e59565b92505081905550614150565b6001600c60016101000a81548160ff0219169083151502179055505b6002546000808673ffffffffffffffffffffffffffffffffffffffff1673ffffffffffffffffffffffffffffffffffffffff168152602001908152602001600020600601541015614234576000808573ffffffffffffffffffffffffffffffffffffffff1673ffffffffffffffffffffffffffffffffffffffff168152602001908152602001600020600601546002546141ea9190614f71565b6000808673ffffffffffffffffffffffffffffffffffffffff1673ffffffffffffffffffffffffffffffffffffffff1681526020019081526020016000206001018190555061427c565b60008060008673ffffffffffffffffffffffffffffffffffffffff1673ffffffffffffffffffffffffffffffffffffffff168152602001908152602001600020600101819055505b5b5b5b50505050808061428e906150ea565b915050613ab6565b506008600081819054906101000a900460ff16809291906142b6906150ea565b91906101000a81548160ff021916908360ff160217905550505050565b600180600381111561430e577f4e487b7100000000000000000000000000000000000000000000000000000000600052602160045260246000fd5b600c60009054906101000a900460ff166003811115614356577f4e487b7100000000000000000000000000000000000000000000000000000000600052602160045260246000fd5b14614396576040517f08c379a000000000000000000000000000000000000000000000000000000000815260040161438d90614cd2565b60405180910390fd5b6000808373ffffffffffffffffffffffffffffffffffffffff1673ffffffffffffffffffffffffffffffffffffffff168152602001908152602001600020600601546000808473ffffffffffffffffffffffffffffffffffffffff1673ffffffffffffffffffffffffffffffffffffffff16815260200190815260200160002060020160008282546144289190614f71565b925050819055506000808373ffffffffffffffffffffffffffffffffffffffff1673ffffffffffffffffffffffffffffffffffffffff16815260200190815260200160002060060154600b60008282546144829190614e59565b925050819055506002546000808473ffffffffffffffffffffffffffffffffffffffff1673ffffffffffffffffffffffffffffffffffffffff1681526020019081526020016000206001018190555060008060008473ffffffffffffffffffffffffffffffffffffffff1673ffffffffffffffffffffffffffffffffffffffff168152602001908152602001600020600601819055505050565b60008135905061452b816151b5565b92915050565b600081519050614540816151cc565b92915050565b600081359050614555816151e3565b92915050565b60008151905061456a816151e3565b92915050565b60008135905061457f816151fa565b92915050565b60006020828403121561459757600080fd5b60006145a58482850161451c565b91505092915050565b6000602082840312156145c057600080fd5b60006145ce84828501614531565b91505092915050565b6000602082840312156145e957600080fd5b60006145f784828501614546565b91505092915050565b60006020828403121561461257600080fd5b60006146208482850161455b565b91505092915050565b60006020828403121561463b57600080fd5b600061464984828501614570565b91505092915050565b61465b81614fd9565b82525050565b61466a81614feb565b82525050565b61467981615041565b82525050565b61468881615065565b82525050565b600061469b602183614e48565b91507f5961206573746173207265676973747261646f20656e206573746120726f6e6460008301527f61000000000000000000000000000000000000000000000000000000000000006020830152604082019050919050565b6000614701602583614e48565b91507f536f6c6f20656c2061646d696e207075656465206c6c616d6172206c6120667560008301527f6e63696f6e0000000000000000000000000000000000000000000000000000006020830152604082019050919050565b6000614767601a83614e48565b91507f45737465206c756761722079612065737461206f63757061646f0000000000006000830152602082019050919050565b60006147a7601883614e48565b91507f4e6f206861207465726d696e61646f206c6120726f6e646100000000000000006000830152602082019050919050565b60006147e7602983614e48565b91507f537461676520696e636f72726563746f207061726120656a656375746172206c60008301527f612066756e63696f6e00000000000000000000000000000000000000000000006020830152604082019050919050565b600061484d603383614e48565b91507f4e6f207469656e6573206175746f72697a6163696f6e207061726120656c696d60008301527f696e617220612065737465207573756172696f000000000000000000000000006020830152604082019050919050565b60006148b3600f83614e48565b91507f5061676f20696e636f72726563746f00000000000000000000000000000000006000830152602082019050919050565b60006148f3602f83614e48565b91507f4e6f2070756564657320656c696d696e617220616c2061646d696e697374726160008301527f646f72206465206c6120726f6e646100000000000000000000000000000000006020830152604082019050919050565b6000614959601583614e48565b91507f45737465207475726e6f206573746120766163696f00000000000000000000006000830152602082019050919050565b6000614999601583614e48565b91507f5573756172696f206e6f207265676973747261646f00000000000000000000006000830152602082019050919050565b60006149d9601a83614e48565b91507f4573706572612061206c6c656761722061207475207475726e6f0000000000006000830152602082019050919050565b6000614a19601683614e48565b91507f456c20677275706f206573746120636f6d706c65746f000000000000000000006000830152602082019050919050565b6000614a59601283614e48565b91507f4e6f206573206d61796f722061204365726f00000000000000000000000000006000830152602082019050919050565b6000614a99601b83614e48565b91507f41756e20686179206c7567617265732073696e20617369676e617200000000006000830152602082019050919050565b614ad58161502a565b82525050565b614ae481615034565b82525050565b6000602082019050614aff6000830184614652565b92915050565b6000606082019050614b1a6000830186614652565b614b276020830185614652565b614b346040830184614acc565b949350505050565b6000604082019050614b516000830185614652565b614b5e6020830184614acc565b9392505050565b600061014082019050614b7b600083018d614652565b614b88602083018c614adb565b614b95604083018b614acc565b614ba2606083018a614acc565b614baf6080830189614acc565b614bbc60a0830188614acc565b614bc960c0830187614adb565b614bd660e0830186614acc565b614be4610100830185614661565b614bf2610120830184614acc565b9b9a5050505050505050505050565b6000602082019050614c166000830184614661565b92915050565b6000602082019050614c316000830184614670565b92915050565b6000602082019050614c4c600083018461467f565b92915050565b60006020820190508181036000830152614c6b8161468e565b9050919050565b60006020820190508181036000830152614c8b816146f4565b9050919050565b60006020820190508181036000830152614cab8161475a565b9050919050565b60006020820190508181036000830152614ccb8161479a565b9050919050565b60006020820190508181036000830152614ceb816147da565b9050919050565b60006020820190508181036000830152614d0b81614840565b9050919050565b60006020820190508181036000830152614d2b816148a6565b9050919050565b60006020820190508181036000830152614d4b816148e6565b9050919050565b60006020820190508181036000830152614d6b8161494c565b9050919050565b60006020820190508181036000830152614d8b8161498c565b9050919050565b60006020820190508181036000830152614dab816149cc565b9050919050565b60006020820190508181036000830152614dcb81614a0c565b9050919050565b60006020820190508181036000830152614deb81614a4c565b9050919050565b60006020820190508181036000830152614e0b81614a8c565b9050919050565b6000602082019050614e276000830184614acc565b92915050565b6000602082019050614e426000830184614adb565b92915050565b600082825260208201905092915050565b6000614e648261502a565b9150614e6f8361502a565b9250827fffffffffffffffffffffffffffffffffffffffffffffffffffffffffffffffff03821115614ea457614ea3615114565b5b828201905092915050565b6000614eba82615034565b9150614ec583615034565b92508260ff03821115614edb57614eda615114565b5b828201905092915050565b6000614ef18261502a565b9150614efc8361502a565b925082614f0c57614f0b615143565b5b828204905092915050565b6000614f228261502a565b9150614f2d8361502a565b9250817fffffffffffffffffffffffffffffffffffffffffffffffffffffffffffffffff0483118215151615614f6657614f65615114565b5b828202905092915050565b6000614f7c8261502a565b9150614f878361502a565b925082821015614f9a57614f99615114565b5b828203905092915050565b6000614fb082615034565b9150614fbb83615034565b925082821015614fce57614fcd615114565b5b828203905092915050565b6000614fe48261500a565b9050919050565b60008115159050919050565b6000819050615005826151a1565b919050565b600073ffffffffffffffffffffffffffffffffffffffff82169050919050565b6000819050919050565b600060ff82169050919050565b600061504c82615053565b9050919050565b600061505e8261500a565b9050919050565b600061507082614ff7565b9050919050565b60006150828261502a565b9150600082141561509657615095615114565b5b600182039050919050565b60006150ac8261502a565b91507fffffffffffffffffffffffffffffffffffffffffffffffffffffffffffffffff8214156150df576150de615114565b5b600182019050919050565b60006150f582615034565b915060ff82141561510957615108615114565b5b600182019050919050565b7f4e487b7100000000000000000000000000000000000000000000000000000000600052601160045260246000fd5b7f4e487b7100000000000000000000000000000000000000000000000000000000600052601260045260246000fd5b7f4e487b7100000000000000000000000000000000000000000000000000000000600052602160045260246000fd5b600481106151b2576151b1615172565b5b50565b6151be81614fd9565b81146151c957600080fd5b50565b6151d581614feb565b81146151e057600080fd5b50565b6151ec8161502a565b81146151f757600080fd5b50565b61520381615034565b811461520e57600080fd5b5056fea264697066735822122003ace71ea1fc5cfda08e190d0102a4371fd6480e2af7b3d49a3d605576a87ac064736f6c63430008000033a2646970667358221220c4c9c562fd8629b1331bc86588d72e6be8be2b669ef20c9a0a518daf19b7f0d064736f6c63430008000033",
  "immutableReferences": {},
  "source": "// SPDX-License-Identifier: BSD 3-Clause License\npragma solidity ^0.8.0;\n\nimport \"./SavingGroups.sol\";\nimport \"@openzeppelin/contracts/token/ERC20/IERC20.sol\";\nimport \"@openzeppelin/contracts/access/Ownable.sol\";\n\ncontract Main is Ownable{\n\n    address public devAddress = 0x4bFaF8ff960622b702e653C18b3bF747Abab4368;\n\n    event RoundCreated(SavingGroups childRound);\n\n    function createRound(\n        uint256 _warranty ,\n        uint256 _saving,\n        uint256 _groupSize,\n        uint256 _adminFee,\n        uint256 _payTime,\n        IERC20 _token,\n        address _devAddress\n    ) external payable returns(address) {\n\n        SavingGroups newRound = new SavingGroups(\n            _warranty,\n            _saving,\n            _groupSize,\n            msg.sender,\n            _adminFee,\n            _payTime,\n            _token ,\n            _devAddress\n        );\n        emit RoundCreated(newRound);\n        return address(newRound);\n    }\n\n    function setDevAddress (address _devAddress) public onlyOwner{\n        devAddress = _devAddress;\n    }\n}\n",
  "sourcePath": "/Users/artur/Desktop/Bloinx/bloinx-contracts/contracts/Main.sol",
  "compiler": {
    "name": "solc",
    "version": "0.8.0+commit.c7dfd78e.Emscripten.clang"
  },
  "schemaVersion": "3.4.2",
  "updatedAt": "2022-03-25T22:37:19.120Z",
  "devdoc": {
    "kind": "dev",
    "methods": {
      "owner()": {
        "details": "Returns the address of the current owner."
      },
      "renounceOwnership()": {
        "details": "Leaves the contract without owner. It will not be possible to call `onlyOwner` functions anymore. Can only be called by the current owner. NOTE: Renouncing ownership will leave the contract without an owner, thereby removing any functionality that is only available to the owner."
      },
      "transferOwnership(address)": {
        "details": "Transfers ownership of the contract to a new account (`newOwner`). Can only be called by the current owner."
      }
    },
    "version": 1
  },
  "userdoc": {
    "kind": "user",
    "methods": {},
    "version": 1
  }
}