{
  "contractName": "SavingGroups",
  "abi": [
    {
      "inputs": [
        {
          "internalType": "uint256",
          "name": "_cashIn",
          "type": "uint256"
        },
        {
          "internalType": "uint256",
          "name": "_saveAmount",
          "type": "uint256"
        },
        {
          "internalType": "uint256",
          "name": "_groupSize",
          "type": "uint256"
        },
        {
          "internalType": "address",
          "name": "_admin",
          "type": "address"
        },
        {
          "internalType": "uint256",
          "name": "_payTime",
          "type": "uint256"
        },
        {
          "internalType": "contract IERC20",
          "name": "_token",
          "type": "address"
        }
      ],
      "stateMutability": "nonpayable",
      "type": "constructor"
    },
    {
      "anonymous": false,
      "inputs": [
        {
          "indexed": true,
          "internalType": "address",
          "name": "roundAddress",
          "type": "address"
        },
        {
          "indexed": true,
          "internalType": "uint256",
          "name": "startAt",
          "type": "uint256"
        },
        {
          "indexed": true,
          "internalType": "uint256",
          "name": "endAt",
          "type": "uint256"
        }
      ],
      "name": "EndRound",
      "type": "event"
    },
    {
      "anonymous": false,
      "inputs": [
        {
          "indexed": true,
          "internalType": "address",
          "name": "user",
          "type": "address"
        },
        {
          "indexed": true,
          "internalType": "bool",
          "name": "success",
          "type": "bool"
        }
      ],
      "name": "PayCashIn",
      "type": "event"
    },
    {
      "anonymous": false,
      "inputs": [
        {
          "indexed": true,
          "internalType": "address",
          "name": "user",
          "type": "address"
        },
        {
          "indexed": true,
          "internalType": "bool",
          "name": "success",
          "type": "bool"
        }
      ],
      "name": "PayFee",
      "type": "event"
    },
    {
      "anonymous": false,
      "inputs": [
        {
          "indexed": true,
          "internalType": "address",
          "name": "user",
          "type": "address"
        },
        {
          "indexed": true,
          "internalType": "uint8",
          "name": "turn",
          "type": "uint8"
        }
      ],
      "name": "PayLateTurn",
      "type": "event"
    },
    {
      "anonymous": false,
      "inputs": [
        {
          "indexed": true,
          "internalType": "address",
          "name": "user",
          "type": "address"
        },
        {
          "indexed": true,
          "internalType": "bool",
          "name": "success",
          "type": "bool"
        }
      ],
      "name": "PayTurn",
      "type": "event"
    },
    {
      "anonymous": false,
      "inputs": [
        {
          "indexed": true,
          "internalType": "address",
          "name": "user",
          "type": "address"
        },
        {
          "indexed": true,
          "internalType": "uint8",
          "name": "turn",
          "type": "uint8"
        }
      ],
      "name": "RegisterUser",
      "type": "event"
    },
    {
      "anonymous": false,
      "inputs": [
        {
          "indexed": true,
          "internalType": "address",
          "name": "removedBy",
          "type": "address"
        },
        {
          "indexed": true,
          "internalType": "address",
          "name": "user",
          "type": "address"
        },
        {
          "indexed": true,
          "internalType": "uint8",
          "name": "turn",
          "type": "uint8"
        }
      ],
      "name": "RemoveUser",
      "type": "event"
    },
    {
      "anonymous": false,
      "inputs": [
        {
          "indexed": true,
          "internalType": "address",
          "name": "user",
          "type": "address"
        },
        {
          "indexed": true,
          "internalType": "uint256",
          "name": "amount",
          "type": "uint256"
        },
        {
          "indexed": true,
          "internalType": "bool",
          "name": "success",
          "type": "bool"
        }
      ],
      "name": "WithdrawFunds",
      "type": "event"
    },
    {
      "inputs": [
        {
          "internalType": "uint256",
          "name": "",
          "type": "uint256"
        }
      ],
      "name": "addressOrderList",
      "outputs": [
        {
          "internalType": "address",
          "name": "",
          "type": "address"
        }
      ],
      "stateMutability": "view",
      "type": "function"
    },
    {
      "inputs": [],
      "name": "admin",
      "outputs": [
        {
          "internalType": "address",
          "name": "",
          "type": "address"
        }
      ],
      "stateMutability": "view",
      "type": "function"
    },
    {
      "inputs": [],
      "name": "cUSD",
      "outputs": [
        {
          "internalType": "contract IERC20",
          "name": "",
          "type": "address"
        }
      ],
      "stateMutability": "view",
      "type": "function"
    },
    {
      "inputs": [],
      "name": "cashIn",
      "outputs": [
        {
          "internalType": "uint256",
          "name": "",
          "type": "uint256"
        }
      ],
      "stateMutability": "view",
      "type": "function"
    },
    {
      "inputs": [],
      "name": "devAddress",
      "outputs": [
        {
          "internalType": "address",
          "name": "",
          "type": "address"
        }
      ],
      "stateMutability": "view",
      "type": "function"
    },
    {
      "inputs": [],
      "name": "feeCost",
      "outputs": [
        {
          "internalType": "uint256",
          "name": "",
          "type": "uint256"
        }
      ],
      "stateMutability": "view",
      "type": "function"
    },
    {
      "inputs": [],
      "name": "groupSize",
      "outputs": [
        {
          "internalType": "uint256",
          "name": "",
          "type": "uint256"
        }
      ],
      "stateMutability": "view",
      "type": "function"
    },
    {
      "inputs": [],
      "name": "payTime",
      "outputs": [
        {
          "internalType": "uint256",
          "name": "",
          "type": "uint256"
        }
      ],
      "stateMutability": "view",
      "type": "function"
    },
    {
      "inputs": [],
      "name": "saveAmount",
      "outputs": [
        {
          "internalType": "uint256",
          "name": "",
          "type": "uint256"
        }
      ],
      "stateMutability": "view",
      "type": "function"
    },
    {
      "inputs": [],
      "name": "stage",
      "outputs": [
        {
          "internalType": "enum SavingGroups.Stages",
          "name": "",
          "type": "uint8"
        }
      ],
      "stateMutability": "view",
      "type": "function"
    },
    {
      "inputs": [],
      "name": "startTime",
      "outputs": [
        {
          "internalType": "uint256",
          "name": "",
          "type": "uint256"
        }
      ],
      "stateMutability": "view",
      "type": "function"
    },
    {
      "inputs": [],
      "name": "totalCashIn",
      "outputs": [
        {
          "internalType": "uint256",
          "name": "",
          "type": "uint256"
        }
      ],
      "stateMutability": "view",
      "type": "function"
    },
    {
      "inputs": [],
      "name": "turn",
      "outputs": [
        {
          "internalType": "uint8",
          "name": "",
          "type": "uint8"
        }
      ],
      "stateMutability": "view",
      "type": "function"
    },
    {
      "inputs": [
        {
          "internalType": "address",
          "name": "",
          "type": "address"
        }
      ],
      "name": "users",
      "outputs": [
        {
          "internalType": "address",
          "name": "userAddr",
          "type": "address"
        },
        {
          "internalType": "uint8",
          "name": "userTurn",
          "type": "uint8"
        },
        {
          "internalType": "uint256",
          "name": "availableCashIn",
          "type": "uint256"
        },
        {
          "internalType": "uint256",
          "name": "availableSavings",
          "type": "uint256"
        },
        {
          "internalType": "uint256",
          "name": "assignedPayments",
          "type": "uint256"
        },
        {
          "internalType": "uint256",
          "name": "unassignedPayments",
          "type": "uint256"
        },
        {
          "internalType": "uint8",
          "name": "latePayments",
          "type": "uint8"
        },
        {
          "internalType": "uint256",
          "name": "owedTotalCashIn",
          "type": "uint256"
        },
        {
          "internalType": "bool",
          "name": "isActive",
          "type": "bool"
        },
        {
          "internalType": "uint256",
          "name": "withdrewAmount",
          "type": "uint256"
        }
      ],
      "stateMutability": "view",
      "type": "function"
    },
    {
      "inputs": [
        {
          "internalType": "uint8",
          "name": "_userTurn",
          "type": "uint8"
        }
      ],
      "name": "registerUser",
      "outputs": [],
      "stateMutability": "nonpayable",
      "type": "function"
    },
    {
      "inputs": [
        {
          "internalType": "uint8",
          "name": "_userTurn",
          "type": "uint8"
        }
      ],
      "name": "removeUser",
      "outputs": [],
      "stateMutability": "nonpayable",
      "type": "function"
    },
    {
      "inputs": [],
      "name": "startRound",
      "outputs": [],
      "stateMutability": "nonpayable",
      "type": "function"
    },
    {
      "inputs": [
        {
          "internalType": "uint256",
          "name": "_payAmount",
          "type": "uint256"
        }
      ],
      "name": "addPayment",
      "outputs": [],
      "stateMutability": "nonpayable",
      "type": "function"
    },
    {
      "inputs": [],
      "name": "withdrawTurn",
      "outputs": [],
      "stateMutability": "nonpayable",
      "type": "function"
    },
    {
      "inputs": [],
      "name": "endRound",
      "outputs": [],
      "stateMutability": "nonpayable",
      "type": "function"
    },
    {
      "inputs": [],
      "name": "futurePayments",
      "outputs": [
        {
          "internalType": "uint256",
          "name": "",
          "type": "uint256"
        }
      ],
      "stateMutability": "view",
      "type": "function"
    },
    {
      "inputs": [
        {
          "internalType": "address",
          "name": "userAddress",
          "type": "address"
        }
      ],
      "name": "obligationAtTime",
      "outputs": [
        {
          "internalType": "uint256",
          "name": "",
          "type": "uint256"
        }
      ],
      "stateMutability": "view",
      "type": "function"
    },
    {
      "inputs": [],
      "name": "getRealTurn",
      "outputs": [
        {
          "internalType": "uint8",
          "name": "",
          "type": "uint8"
        }
      ],
      "stateMutability": "view",
      "type": "function"
    },
    {
      "inputs": [
        {
          "internalType": "uint8",
          "name": "_userTurn",
          "type": "uint8"
        }
      ],
      "name": "getUserAvailableCashIn",
      "outputs": [
        {
          "internalType": "uint256",
          "name": "",
          "type": "uint256"
        }
      ],
      "stateMutability": "view",
      "type": "function"
    },
    {
      "inputs": [
        {
          "internalType": "uint8",
          "name": "_userTurn",
          "type": "uint8"
        }
      ],
      "name": "getUserAvailableSavings",
      "outputs": [
        {
          "internalType": "uint256",
          "name": "",
          "type": "uint256"
        }
      ],
      "stateMutability": "view",
      "type": "function"
    },
    {
      "inputs": [
        {
          "internalType": "uint8",
          "name": "_userTurn",
          "type": "uint8"
        }
      ],
      "name": "getUserAmountPaid",
      "outputs": [
        {
          "internalType": "uint256",
          "name": "",
          "type": "uint256"
        }
      ],
      "stateMutability": "view",
      "type": "function"
    },
    {
      "inputs": [
        {
          "internalType": "uint8",
          "name": "_userTurn",
          "type": "uint8"
        }
      ],
      "name": "getUserUnassignedPayments",
      "outputs": [
        {
          "internalType": "uint256",
          "name": "",
          "type": "uint256"
        }
      ],
      "stateMutability": "view",
      "type": "function"
    },
    {
      "inputs": [
        {
          "internalType": "uint8",
          "name": "_userTurn",
          "type": "uint8"
        }
      ],
      "name": "getUserLatePayments",
      "outputs": [
        {
          "internalType": "uint8",
          "name": "",
          "type": "uint8"
        }
      ],
      "stateMutability": "view",
      "type": "function"
    },
    {
      "inputs": [
        {
          "internalType": "uint8",
          "name": "_userTurn",
          "type": "uint8"
        }
      ],
      "name": "getUserOwedTotalCashIn",
      "outputs": [
        {
          "internalType": "uint256",
          "name": "",
          "type": "uint256"
        }
      ],
      "stateMutability": "view",
      "type": "function"
    },
    {
      "inputs": [
        {
          "internalType": "uint8",
          "name": "_userTurn",
          "type": "uint8"
        }
      ],
      "name": "getUserIsActive",
      "outputs": [
        {
          "internalType": "bool",
          "name": "",
          "type": "bool"
        }
      ],
      "stateMutability": "view",
      "type": "function"
    }
  ],
  "bytecode": "0x608060405260006005556001600660006101000a81548160ff021916908360ff16021790555060006009556000600b556000600c553480156200004157600080fd5b506040516200427c3803806200427c8339818101604052810190620000679190620003c4565b80600d60006101000a81548173ffffffffffffffffffffffffffffffffffffffff021916908373ffffffffffffffffffffffffffffffffffffffff160217905550600073ffffffffffffffffffffffffffffffffffffffff168373ffffffffffffffffffffffffffffffffffffffff1614156200011b576040517f08c379a00000000000000000000000000000000000000000000000000000000081526004016200011290620005d6565b60405180910390fd5b6001841180156200012d5750600a8411155b6200016f576040517f08c379a0000000000000000000000000000000000000000000000000000000008152600401620001669062000592565b60405180910390fd5b82600160006101000a81548173ffffffffffffffffffffffffffffffffffffffff021916908373ffffffffffffffffffffffffffffffffffffffff160217905550670de0b6b3a76400008602600281905550670de0b6b3a76400008502600381905550836004819055506000600a60006101000a81548160ff02191690836002811115620001f957fe5b02179055508367ffffffffffffffff811180156200021657600080fd5b50604051908082528060200260200182016040528015620002465781602001602082028036833780820191505090505b50600890805190602001906200025e929190620002d1565b5060008211620002a5576040517f08c379a00000000000000000000000000000000000000000000000000000000081526004016200029c90620005b4565b60405180910390fd5b81600b819055506101f461271060035481620002bd57fe5b0402600c81905550505050505050620006a9565b8280548282559060005260206000209081019282156200034d579160200282015b828111156200034c5782518260006101000a81548173ffffffffffffffffffffffffffffffffffffffff021916908373ffffffffffffffffffffffffffffffffffffffff16021790555091602001919060010190620002f2565b5b5090506200035c919062000360565b5090565b5b808211156200037b57600081600090555060010162000361565b5090565b60008151905062000390816200065b565b92915050565b600081519050620003a78162000675565b92915050565b600081519050620003be816200068f565b92915050565b60008060008060008060c08789031215620003de57600080fd5b6000620003ee89828a01620003ad565b96505060206200040189828a01620003ad565b95505060406200041489828a01620003ad565b94505060606200042789828a016200037f565b93505060806200043a89828a01620003ad565b92505060a06200044d89828a0162000396565b9150509295509295509295565b600062000469603e83620005f8565b91507f456c2074616d616e696f2064656c20677275706f206465626520736572206d6160008301527f796f72206120756e6f2079206d656e6f72206f20696775616c206120313000006020830152604082019050919050565b6000620004d1603083620005f8565b91507f456c207469656d706f2070617261207061676172206e6f20707565646520736560008301527f72206d656e6f72206120756e20646961000000000000000000000000000000006020830152604082019050919050565b600062000539603083620005f8565b91507f4c6120646972656363696f6e2064656c2061646d696e6973747261646f72206e60008301527f6f20707565646520736572206365726f000000000000000000000000000000006020830152604082019050919050565b60006020820190508181036000830152620005ad816200045a565b9050919050565b60006020820190508181036000830152620005cf81620004c2565b9050919050565b60006020820190508181036000830152620005f1816200052a565b9050919050565b600082825260208201905092915050565b6000620006168262000631565b9050919050565b60006200062a8262000609565b9050919050565b600073ffffffffffffffffffffffffffffffffffffffff82169050919050565b6000819050919050565b620006668162000609565b81146200067257600080fd5b50565b62000680816200061d565b81146200068c57600080fd5b50565b6200069a8162000651565b8114620006a657600080fd5b50565b613bc380620006b96000396000f3fe608060405234801561001057600080fd5b50600436106101da5760003560e01c806363b635ea11610104578063a0a8427e116100a2578063c040e6b811610071578063c040e6b814610556578063c949cb8314610574578063e8f4963114610590578063f851a440146105c0576101da565b8063a0a8427e146104b1578063a87430ba146104e1578063b4501f391461051a578063b4bde59e14610538576101da565b80637826e78f116100de5780637826e78f1461042757806378e97925146104455780638930361d146104635780638b29990314610493576101da565b806363b635ea146103e1578063743c81ab146103ff578063749aa2d91461041d576101da565b806330fceb6c1161017c578063504fc51d1161014b578063504fc51d146103475780635394dda81461037757806355e3f086146103a75780635b6397e1146103b1576101da565b806330fceb6c146102bf5780633ad10ef6146102c95780634210a8d1146102e7578063466afa0d14610317576101da565b80631e580615116101b85780631e580615146102475780631fccf672146102655780632055baf4146102835780632d50e80d146102a1576101da565b806302b8c8cd146101df57806303ee3061146101fb578063086a29e71461022b575b600080fd5b6101f960048036038101906101f491906134f5565b6105de565b005b610215600480360381019061021091906134f5565b610969565b60405161022291906139db565b60405180910390f35b610245600480360381019061024091906134f5565b6109f6565b005b61024f610ece565b60405161025c91906139db565b60405180910390f35b61026d610ed4565b60405161027a91906138c5565b60405180910390f35b61028b610efa565b60405161029891906139f6565b60405180910390f35b6102a9610f84565b6040516102b691906139db565b60405180910390f35b6102c7610f8a565b005b6102d1611440565b6040516102de9190613793565b60405180910390f35b61030160048036038101906102fc91906134f5565b611458565b60405161030e91906139db565b60405180910390f35b610331600480360381019061032c91906134f5565b6114e5565b60405161033e91906139f6565b60405180910390f35b610361600480360381019061035c919061347a565b61157f565b60405161036e91906139db565b60405180910390f35b610391600480360381019061038c91906134cc565b611630565b60405161039e9190613793565b60405180910390f35b6103af61166f565b005b6103cb60048036038101906103c691906134f5565b6117f4565b6040516103d891906139db565b60405180910390f35b6103e9611881565b6040516103f691906139db565b60405180910390f35b610407611887565b60405161041491906139db565b60405180910390f35b61042561188d565b005b61042f611d74565b60405161043c91906139db565b60405180910390f35b61044d611d7a565b60405161045a91906139db565b60405180910390f35b61047d600480360381019061047891906134f5565b611d80565b60405161048a91906138aa565b60405180910390f35b61049b611e1a565b6040516104a891906139f6565b60405180910390f35b6104cb60048036038101906104c691906134f5565b611e2d565b6040516104d891906139db565b60405180910390f35b6104fb60048036038101906104f6919061347a565b611eba565b6040516105119a9998979695949392919061380e565b60405180910390f35b610522611f55565b60405161052f91906139db565b60405180910390f35b61054061203a565b60405161054d91906139db565b60405180910390f35b61055e612040565b60405161056b91906138e0565b60405180910390f35b61058e600480360381019061058991906134cc565b612053565b005b6105aa60048036038101906105a591906134f5565b61287d565b6040516105b791906139db565b60405180910390f35b6105c861290a565b6040516105d59190613793565b60405180910390f35b60008060028111156105ec57fe5b600a60009054906101000a900460ff16600281111561060757fe5b14610647576040517f08c379a000000000000000000000000000000000000000000000000000000000815260040161063e9061391b565b60405180910390fd5b6005600081548092919060010191905055506040518061014001604052803373ffffffffffffffffffffffffffffffffffffffff1681526020018360ff1681526020016002548152602001600081526020016000815260200160008152602001600060ff1681526020016000815260200160011515815260200160008152506000803373ffffffffffffffffffffffffffffffffffffffff1673ffffffffffffffffffffffffffffffffffffffff16815260200190815260200160002060008201518160000160006101000a81548173ffffffffffffffffffffffffffffffffffffffff021916908373ffffffffffffffffffffffffffffffffffffffff16021790555060208201518160000160146101000a81548160ff021916908360ff16021790555060408201518160010155606082015181600201556080820151816003015560a0820151816004015560c08201518160050160006101000a81548160ff021916908360ff16021790555060e082015181600601556101008201518160070160006101000a81548160ff021916908315150217905550610120820151816008015590505060006107fc30600254612930565b90508015153373ffffffffffffffffffffffffffffffffffffffff167f4480e10f92b8eb473ee375c618f546a95bb106e9ac08855a51628a55f2f043e260405160405180910390a360006108667384052cec1d08cf2eb93ffbab096b88b455bb9eee600c54612930565b90508015153373ffffffffffffffffffffffffffffffffffffffff167ffcc9de8628256fd80a029af5f9f600bdfc8ec089f618a40d63f7063060d227a560405160405180910390a36002546009600082825401925050819055503360086001860360ff16815481106108d457fe5b9060005260206000200160006101000a81548173ffffffffffffffffffffffffffffffffffffffff021916908373ffffffffffffffffffffffffffffffffffffffff1602179055508360ff163373ffffffffffffffffffffffffffffffffffffffff167f976bbd2f6af68a7eee78f5300f40d037367b165e65f157e6af4ae073b2befd4960405160405180910390a350505050565b60008060086001840360ff168154811061097f57fe5b9060005260206000200160009054906101000a900473ffffffffffffffffffffffffffffffffffffffff1690506000808273ffffffffffffffffffffffffffffffffffffffff1673ffffffffffffffffffffffffffffffffffffffff16815260200190815260200160002060060154915050919050565b6000806002811115610a0457fe5b600a60009054906101000a900460ff166002811115610a1f57fe5b14610a5f576040517f08c379a0000000000000000000000000000000000000000000000000000000008152600401610a569061391b565b60405180910390fd5b600160009054906101000a900473ffffffffffffffffffffffffffffffffffffffff1673ffffffffffffffffffffffffffffffffffffffff163373ffffffffffffffffffffffffffffffffffffffff161480610b23575060086001830360ff1681548110610ac957fe5b9060005260206000200160009054906101000a900473ffffffffffffffffffffffffffffffffffffffff1673ffffffffffffffffffffffffffffffffffffffff163373ffffffffffffffffffffffffffffffffffffffff16145b610b62576040517f08c379a0000000000000000000000000000000000000000000000000000000008152600401610b599061393b565b60405180910390fd5b600073ffffffffffffffffffffffffffffffffffffffff1660086001840360ff1681548110610b8d57fe5b9060005260206000200160009054906101000a900473ffffffffffffffffffffffffffffffffffffffff1673ffffffffffffffffffffffffffffffffffffffff161415610c0f576040517f08c379a0000000000000000000000000000000000000000000000000000000008152600401610c069061397b565b60405180910390fd5b600060086001840360ff1681548110610c2457fe5b9060005260206000200160009054906101000a900473ffffffffffffffffffffffffffffffffffffffff16905060008060008373ffffffffffffffffffffffffffffffffffffffff1673ffffffffffffffffffffffffffffffffffffffff168152602001908152602001600020600101541115610da15760008060008373ffffffffffffffffffffffffffffffffffffffff1673ffffffffffffffffffffffffffffffffffffffff16815260200190815260200160002060010154905060008060008473ffffffffffffffffffffffffffffffffffffffff1673ffffffffffffffffffffffffffffffffffffffff168152602001908152602001600020600101819055508060095403600981905550610d9e6000808473ffffffffffffffffffffffffffffffffffffffff1673ffffffffffffffffffffffffffffffffffffffff16815260200190815260200160002060000160009054906101000a900473ffffffffffffffffffffffffffffffffffffffff16826129f0565b50505b600060086001850360ff1681548110610db657fe5b9060005260206000200160006101000a81548173ffffffffffffffffffffffffffffffffffffffff021916908373ffffffffffffffffffffffffffffffffffffffff1602179055506005600081548092919060019003919050555060008060008373ffffffffffffffffffffffffffffffffffffffff1673ffffffffffffffffffffffffffffffffffffffff16815260200190815260200160002060070160006101000a81548160ff0219169083151502179055508260ff168173ffffffffffffffffffffffffffffffffffffffff163373ffffffffffffffffffffffffffffffffffffffff167fadfd51f69b0ad07e1815c54508f0be97ccfacda3e7553aef7b19e0cfc374be2b60405160405180910390a4505050565b60025481565b600d60009054906101000a900473ffffffffffffffffffffffffffffffffffffffff1681565b60006001806002811115610f0a57fe5b600a60009054906101000a900460ff166002811115610f2557fe5b14610f65576040517f08c379a0000000000000000000000000000000000000000000000000000000008152600401610f5c9061391b565b60405180910390fd5b60006001600b54600754420381610f7857fe5b04019050809250505090565b600b5481565b6000803373ffffffffffffffffffffffffffffffffffffffff1673ffffffffffffffffffffffffffffffffffffffff16815260200190815260200160002060070160009054906101000a900460ff166001151581151514611053576040517f08c379a00000000000000000000000000000000000000000000000000000000081526004018080602001828103825260158152602001807f5573756172696f206e6f207265676973747261646f000000000000000000000081525060200191505060405180910390fd5b600180600281111561106157fe5b600a60009054906101000a900460ff16600281111561107c57fe5b146110bc576040517f08c379a00000000000000000000000000000000000000000000000000000000081526004016110b39061391b565b60405180910390fd5b60008060003373ffffffffffffffffffffffffffffffffffffffff1673ffffffffffffffffffffffffffffffffffffffff16815260200190815260200160002060000160149054906101000a900460ff1690506000611119610efa565b90508160ff168160ff1611611163576040517f08c379a000000000000000000000000000000000000000000000000000000000815260040161115a9061399b565b60405180910390fd5b60008060003373ffffffffffffffffffffffffffffffffffffffff1673ffffffffffffffffffffffffffffffffffffffff16815260200190815260200160002060080154146111b157600080fd5b8060ff16600660009054906101000a900460ff1660ff1610156111e7576111e6600660009054906101000a900460ff16612aae565b5b6000803373ffffffffffffffffffffffffffffffffffffffff1673ffffffffffffffffffffffffffffffffffffffff168152602001908152602001600020600301546112323361157f565b11156112425761124133613249565b5b600080803373ffffffffffffffffffffffffffffffffffffffff1673ffffffffffffffffffffffffffffffffffffffff16815260200190815260200160002060020154905060008060003373ffffffffffffffffffffffffffffffffffffffff1673ffffffffffffffffffffffffffffffffffffffff16815260200190815260200160002060020181905550600061133b6000803373ffffffffffffffffffffffffffffffffffffffff1673ffffffffffffffffffffffffffffffffffffffff16815260200190815260200160002060000160009054906101000a900473ffffffffffffffffffffffffffffffffffffffff16836129f0565b9050801515826000803373ffffffffffffffffffffffffffffffffffffffff1673ffffffffffffffffffffffffffffffffffffffff16815260200190815260200160002060000160009054906101000a900473ffffffffffffffffffffffffffffffffffffffff1673ffffffffffffffffffffffffffffffffffffffff167fd62c1f6f3c4444a52e394381f609a885a10cc992ad4b59f0815f22db3cc5923260405160405180910390a4816000803373ffffffffffffffffffffffffffffffffffffffff1673ffffffffffffffffffffffffffffffffffffffff1681526020019081526020016000206008016000828254019250508190555060009150505050505050565b7384052cec1d08cf2eb93ffbab096b88b455bb9eee81565b60008060086001840360ff168154811061146e57fe5b9060005260206000200160009054906101000a900473ffffffffffffffffffffffffffffffffffffffff1690506000808273ffffffffffffffffffffffffffffffffffffffff1673ffffffffffffffffffffffffffffffffffffffff16815260200190815260200160002060030154915050919050565b60008060086001840360ff16815481106114fb57fe5b9060005260206000200160009054906101000a900473ffffffffffffffffffffffffffffffffffffffff1690506000808273ffffffffffffffffffffffffffffffffffffffff1673ffffffffffffffffffffffffffffffffffffffff16815260200190815260200160002060050160009054906101000a900460ff16915050919050565b600080600660009054906101000a900460ff1660ff166000808573ffffffffffffffffffffffffffffffffffffffff1673ffffffffffffffffffffffffffffffffffffffff16815260200190815260200160002060000160149054906101000a900460ff1660ff161161160d576001600660009054906101000a900460ff160360ff16600354029050611627565b600660009054906101000a900460ff1660ff166003540290505b80915050919050565b6008818154811061164057600080fd5b906000526020600020016000915054906101000a900473ffffffffffffffffffffffffffffffffffffffff1681565b600160009054906101000a900473ffffffffffffffffffffffffffffffffffffffff168073ffffffffffffffffffffffffffffffffffffffff163373ffffffffffffffffffffffffffffffffffffffff1614611716576040517f08c379a0000000000000000000000000000000000000000000000000000000008152600401808060200182810382526025815260200180613b696025913960400191505060405180910390fd5b600080600281111561172457fe5b600a60009054906101000a900460ff16600281111561173f57fe5b1461177f576040517f08c379a00000000000000000000000000000000000000000000000000000000081526004016117769061391b565b60405180910390fd5b600454600554146117c5576040517f08c379a00000000000000000000000000000000000000000000000000000000081526004016117bc906139bb565b60405180910390fd5b6001600a60006101000a81548160ff021916908360028111156117e457fe5b0217905550426007819055505050565b60008060086001840360ff168154811061180a57fe5b9060005260206000200160009054906101000a900473ffffffffffffffffffffffffffffffffffffffff1690506000808273ffffffffffffffffffffffffffffffffffffffff1673ffffffffffffffffffffffffffffffffffffffff16815260200190815260200160002060010154915050919050565b60045481565b60035481565b600180600281111561189b57fe5b600a60009054906101000a900460ff1660028111156118b657fe5b146118f6576040517f08c379a00000000000000000000000000000000000000000000000000000000081526004016118ed9061391b565b60405180910390fd5b600454611901610efa565b60ff1611611944576040517f08c379a000000000000000000000000000000000000000000000000000000000815260040161193b906138fb565b60405180910390fd5b6000600660009054906101000a900460ff1690505b6001600454018160ff16101561197f5761197281612aae565b8080600101915050611959565b506000805b6004548160ff161015611ab757600060088260ff16815481106119a357fe5b9060005260206000200160009054906101000a900473ffffffffffffffffffffffffffffffffffffffff1690506000808273ffffffffffffffffffffffffffffffffffffffff1673ffffffffffffffffffffffffffffffffffffffff16815260200190815260200160002060010154830192506000808273ffffffffffffffffffffffffffffffffffffffff1673ffffffffffffffffffffffffffffffffffffffff168152602001908152602001600020600601546000808373ffffffffffffffffffffffffffffffffffffffff1673ffffffffffffffffffffffffffffffffffffffff1681526020019081526020016000206002015410611aa957611aa881613249565b5b508080600101915050611984565b5060005b6004548160ff161015611d0457600060088260ff1681548110611ada57fe5b9060005260206000200160009054906101000a900473ffffffffffffffffffffffffffffffffffffffff1690506000836009546000808573ffffffffffffffffffffffffffffffffffffffff1673ffffffffffffffffffffffffffffffffffffffff168152602001908152602001600020600101540281611b5757fe5b046000808473ffffffffffffffffffffffffffffffffffffffff1673ffffffffffffffffffffffffffffffffffffffff1681526020019081526020016000206002015401905060008060008473ffffffffffffffffffffffffffffffffffffffff1673ffffffffffffffffffffffffffffffffffffffff1681526020019081526020016000206002018190555060008060008473ffffffffffffffffffffffffffffffffffffffff1673ffffffffffffffffffffffffffffffffffffffff16815260200190815260200160002060010181905550611c966000808473ffffffffffffffffffffffffffffffffffffffff1673ffffffffffffffffffffffffffffffffffffffff16815260200190815260200160002060000160009054906101000a900473ffffffffffffffffffffffffffffffffffffffff16826129f0565b5060008060008473ffffffffffffffffffffffffffffffffffffffff1673ffffffffffffffffffffffffffffffffffffffff16815260200190815260200160002060070160006101000a81548160ff0219169083151502179055506000905050508080600101915050611abb565b506002600a60006101000a81548160ff02191690836002811115611d2457fe5b0217905550426007543073ffffffffffffffffffffffffffffffffffffffff167f52a298e98008bccb662279d4de296612fe9d9fe846a899e25d485e12a015254560405160405180910390a45050565b600c5481565b60075481565b60008060086001840360ff1681548110611d9657fe5b9060005260206000200160009054906101000a900473ffffffffffffffffffffffffffffffffffffffff1690506000808273ffffffffffffffffffffffffffffffffffffffff1673ffffffffffffffffffffffffffffffffffffffff16815260200190815260200160002060070160009054906101000a900460ff16915050919050565b600660009054906101000a900460ff1681565b60008060086001840360ff1681548110611e4357fe5b9060005260206000200160009054906101000a900473ffffffffffffffffffffffffffffffffffffffff1690506000808273ffffffffffffffffffffffffffffffffffffffff1673ffffffffffffffffffffffffffffffffffffffff16815260200190815260200160002060020154915050919050565b60006020528060005260406000206000915090508060000160009054906101000a900473ffffffffffffffffffffffffffffffffffffffff16908060000160149054906101000a900460ff16908060010154908060020154908060030154908060040154908060050160009054906101000a900460ff16908060060154908060070160009054906101000a900460ff1690806008015490508a565b60008060016004540360035402905060008060003373ffffffffffffffffffffffffffffffffffffffff1673ffffffffffffffffffffffffffffffffffffffff168152602001908152602001600020600601546000803373ffffffffffffffffffffffffffffffffffffffff1673ffffffffffffffffffffffffffffffffffffffff168152602001908152602001600020600401546000803373ffffffffffffffffffffffffffffffffffffffff1673ffffffffffffffffffffffffffffffffffffffff16815260200190815260200160002060030154840303019050809250505090565b60095481565b600a60009054906101000a900460ff1681565b6000803373ffffffffffffffffffffffffffffffffffffffff1673ffffffffffffffffffffffffffffffffffffffff16815260200190815260200160002060070160009054906101000a900460ff16600115158115151461211c576040517f08c379a00000000000000000000000000000000000000000000000000000000081526004018080602001828103825260158152602001807f5573756172696f206e6f207265676973747261646f000000000000000000000081525060200191505060405180910390fd5b600180600281111561212a57fe5b600a60009054906101000a900460ff16600281111561214557fe5b14612185576040517f08c379a000000000000000000000000000000000000000000000000000000000815260040161217c9061391b565b60405180910390fd5b61218d611f55565b831115801561219c5750600083115b6121db576040517f08c379a00000000000000000000000000000000000000000000000000000000081526004016121d29061395b565b60405180910390fd5b60006121e5610efa565b905060006121f33086612930565b90508015153373ffffffffffffffffffffffffffffffffffffffff167f02d1bc4c41f0968b82fd72dc5877b3df473c2bcab943abd81229c5b825b2132160405160405180910390a38160ff16600660009054906101000a900460ff1660ff16101561227157612270600660009054906101000a900460ff16612aae565b5b600060086001600660009054906101000a900460ff160360ff168154811061229557fe5b9060005260206000200160009054906101000a900473ffffffffffffffffffffffffffffffffffffffff1690506000869050806000803373ffffffffffffffffffffffffffffffffffffffff1673ffffffffffffffffffffffffffffffffffffffff1681526020019081526020016000206004016000828254019250508190555060006123213361157f565b90506000806000803373ffffffffffffffffffffffffffffffffffffffff1673ffffffffffffffffffffffffffffffffffffffff16815260200190815260200160002060030154831161237757600091506124f3565b6000803373ffffffffffffffffffffffffffffffffffffffff1673ffffffffffffffffffffffffffffffffffffffff16815260200190815260200160002060030154830391503373ffffffffffffffffffffffffffffffffffffffff168573ffffffffffffffffffffffffffffffffffffffff16146124f2578382101561240057819050612404565b8390505b806000803373ffffffffffffffffffffffffffffffffffffffff1673ffffffffffffffffffffffffffffffffffffffff16815260200190815260200160002060040160008282540392505081905550806000808773ffffffffffffffffffffffffffffffffffffffff1673ffffffffffffffffffffffffffffffffffffffff16815260200190815260200160002060020160008282540192505081905550806000803373ffffffffffffffffffffffffffffffffffffffff1673ffffffffffffffffffffffffffffffffffffffff168152602001908152602001600020600301600082825401925050819055505b5b60008060003373ffffffffffffffffffffffffffffffffffffffff1673ffffffffffffffffffffffffffffffffffffffff16815260200190815260200160002060060154118015612585575060008060003373ffffffffffffffffffffffffffffffffffffffff1673ffffffffffffffffffffffffffffffffffffffff16815260200190815260200160002060040154115b1561274e5760008060003373ffffffffffffffffffffffffffffffffffffffff1673ffffffffffffffffffffffffffffffffffffffff168152602001908152602001600020600401546000803373ffffffffffffffffffffffffffffffffffffffff1673ffffffffffffffffffffffffffffffffffffffff168152602001908152602001600020600601541161265e576000803373ffffffffffffffffffffffffffffffffffffffff1673ffffffffffffffffffffffffffffffffffffffff1681526020019081526020016000206006015490506126a3565b6000803373ffffffffffffffffffffffffffffffffffffffff1673ffffffffffffffffffffffffffffffffffffffff1681526020019081526020016000206004015490505b806000803373ffffffffffffffffffffffffffffffffffffffff1673ffffffffffffffffffffffffffffffffffffffff168152602001908152602001600020600401600082825403925050819055508060095401600981905550806000803373ffffffffffffffffffffffffffffffffffffffff1673ffffffffffffffffffffffffffffffffffffffff16815260200190815260200160002060060160008282540392505081905550505b6002546000803373ffffffffffffffffffffffffffffffffffffffff1673ffffffffffffffffffffffffffffffffffffffff168152602001908152602001600020600601541015612829576000803373ffffffffffffffffffffffffffffffffffffffff1673ffffffffffffffffffffffffffffffffffffffff16815260200190815260200160002060060154600254036000803373ffffffffffffffffffffffffffffffffffffffff1673ffffffffffffffffffffffffffffffffffffffff16815260200190815260200160002060010181905550612871565b60008060003373ffffffffffffffffffffffffffffffffffffffff1673ffffffffffffffffffffffffffffffffffffffff168152602001908152602001600020600101819055505b50505050505050505050565b60008060086001840360ff168154811061289357fe5b9060005260206000200160009054906101000a900473ffffffffffffffffffffffffffffffffffffffff1690506000808273ffffffffffffffffffffffffffffffffffffffff1673ffffffffffffffffffffffffffffffffffffffff16815260200190815260200160002060040154915050919050565b600160009054906101000a900473ffffffffffffffffffffffffffffffffffffffff1681565b600080600d60009054906101000a900473ffffffffffffffffffffffffffffffffffffffff1673ffffffffffffffffffffffffffffffffffffffff166323b872dd3386866040518463ffffffff1660e01b8152600401612992939291906137ae565b602060405180830381600087803b1580156129ac57600080fd5b505af11580156129c0573d6000803e3d6000fd5b505050506040513d601f19601f820116820180604052508101906129e491906134a3565b90508091505092915050565b600080600d60009054906101000a900473ffffffffffffffffffffffffffffffffffffffff1673ffffffffffffffffffffffffffffffffffffffff1663a9059cbb85856040518363ffffffff1660e01b8152600401612a509291906137e5565b602060405180830381600087803b158015612a6a57600080fd5b505af1158015612a7e573d6000803e3d6000fd5b505050506040513d601f19601f82011682018060405250810190612aa291906134a3565b90508091505092915050565b6001806002811115612abc57fe5b600a60009054906101000a900460ff166002811115612ad757fe5b14612b17576040517f08c379a0000000000000000000000000000000000000000000000000000000008152600401612b0e9061391b565b60405180910390fd5b60005b6004548160ff16101561321257600060088260ff1681548110612b3957fe5b9060005260206000200160009054906101000a900473ffffffffffffffffffffffffffffffffffffffff169050600060086001860360ff1681548110612b7b57fe5b9060005260206000200160009054906101000a900473ffffffffffffffffffffffffffffffffffffffff1690506000612bb38361157f565b905060008273ffffffffffffffffffffffffffffffffffffffff168473ffffffffffffffffffffffffffffffffffffffff1614613201576000808573ffffffffffffffffffffffffffffffffffffffff1673ffffffffffffffffffffffffffffffffffffffff16815260200190815260200160002060030154821115612c7e576000808573ffffffffffffffffffffffffffffffffffffffff1673ffffffffffffffffffffffffffffffffffffffff1681526020019081526020016000206003015482039050612c83565b600090505b60008111156132005760008060008673ffffffffffffffffffffffffffffffffffffffff1673ffffffffffffffffffffffffffffffffffffffff168152602001908152602001600020600401541115612f595760008060008673ffffffffffffffffffffffffffffffffffffffff1673ffffffffffffffffffffffffffffffffffffffff16815260200190815260200160002060040154821015612d2957819050612d6e565b6000808673ffffffffffffffffffffffffffffffffffffffff1673ffffffffffffffffffffffffffffffffffffffff1681526020019081526020016000206004015490505b806000808773ffffffffffffffffffffffffffffffffffffffff1673ffffffffffffffffffffffffffffffffffffffff16815260200190815260200160002060040154036000808773ffffffffffffffffffffffffffffffffffffffff1673ffffffffffffffffffffffffffffffffffffffff16815260200190815260200160002060040181905550806000808773ffffffffffffffffffffffffffffffffffffffff1673ffffffffffffffffffffffffffffffffffffffff16815260200190815260200160002060030154016000808773ffffffffffffffffffffffffffffffffffffffff1673ffffffffffffffffffffffffffffffffffffffff16815260200190815260200160002060030181905550806000808673ffffffffffffffffffffffffffffffffffffffff1673ffffffffffffffffffffffffffffffffffffffff16815260200190815260200160002060020154016000808673ffffffffffffffffffffffffffffffffffffffff1673ffffffffffffffffffffffffffffffffffffffff168152602001908152602001600020600201819055506000808673ffffffffffffffffffffffffffffffffffffffff1673ffffffffffffffffffffffffffffffffffffffff16815260200190815260200160002060030154612f548661157f565b039150505b60008111156131ff576000808573ffffffffffffffffffffffffffffffffffffffff1673ffffffffffffffffffffffffffffffffffffffff168152602001908152602001600020600501600081819054906101000a900460ff168092919060010191906101000a81548160ff021916908360ff160217905550508060095411156130db5780600960008282540392505081905550806000808673ffffffffffffffffffffffffffffffffffffffff1673ffffffffffffffffffffffffffffffffffffffff16815260200190815260200160002060030160008282540192505081905550806000808673ffffffffffffffffffffffffffffffffffffffff1673ffffffffffffffffffffffffffffffffffffffff16815260200190815260200160002060060160008282540192505081905550806000808573ffffffffffffffffffffffffffffffffffffffff1673ffffffffffffffffffffffffffffffffffffffff168152602001908152602001600020600201600082825401925050819055505b6002546000808673ffffffffffffffffffffffffffffffffffffffff1673ffffffffffffffffffffffffffffffffffffffff1681526020019081526020016000206006015410156131b6576000808573ffffffffffffffffffffffffffffffffffffffff1673ffffffffffffffffffffffffffffffffffffffff16815260200190815260200160002060060154600254036000808673ffffffffffffffffffffffffffffffffffffffff1673ffffffffffffffffffffffffffffffffffffffff168152602001908152602001600020600101819055506131fe565b60008060008673ffffffffffffffffffffffffffffffffffffffff1673ffffffffffffffffffffffffffffffffffffffff168152602001908152602001600020600101819055505b5b5b5b505050508080600101915050612b1a565b506006600081819054906101000a900460ff168092919060010191906101000a81548160ff021916908360ff160217905550505050565b600180600281111561325757fe5b600a60009054906101000a900460ff16600281111561327257fe5b146132b2576040517f08c379a00000000000000000000000000000000000000000000000000000000081526004016132a99061391b565b60405180910390fd5b6000808373ffffffffffffffffffffffffffffffffffffffff1673ffffffffffffffffffffffffffffffffffffffff168152602001908152602001600020600601546000808473ffffffffffffffffffffffffffffffffffffffff1673ffffffffffffffffffffffffffffffffffffffff168152602001908152602001600020600201600082825403925050819055506000808373ffffffffffffffffffffffffffffffffffffffff1673ffffffffffffffffffffffffffffffffffffffff168152602001908152602001600020600601546009600082825401925050819055506002546000808473ffffffffffffffffffffffffffffffffffffffff1673ffffffffffffffffffffffffffffffffffffffff1681526020019081526020016000206001018190555060008060008473ffffffffffffffffffffffffffffffffffffffff1673ffffffffffffffffffffffffffffffffffffffff168152602001908152602001600020600601819055505050565b60008135905061343581613b0c565b92915050565b60008151905061344a81613b23565b92915050565b60008135905061345f81613b3a565b92915050565b60008135905061347481613b51565b92915050565b60006020828403121561348c57600080fd5b600061349a84828501613426565b91505092915050565b6000602082840312156134b557600080fd5b60006134c38482850161343b565b91505092915050565b6000602082840312156134de57600080fd5b60006134ec84828501613450565b91505092915050565b60006020828403121561350757600080fd5b600061351584828501613465565b91505092915050565b61352781613a8a565b82525050565b61353681613a22565b82525050565b61354581613a34565b82525050565b61355481613a9c565b82525050565b61356381613ac0565b82525050565b6000613576601883613a11565b91507f4e6f206861207465726d696e61646f206c6120726f6e646100000000000000006000830152602082019050919050565b60006135b6602983613a11565b91507f537461676520696e636f72726563746f207061726120656a656375746172206c60008301527f612066756e63696f6e00000000000000000000000000000000000000000000006020830152604082019050919050565b600061361c603383613a11565b91507f4e6f207469656e6573206175746f72697a6163696f6e207061726120656c696d60008301527f696e617220612065737465207573756172696f000000000000000000000000006020830152604082019050919050565b6000613682600f83613a11565b91507f5061676f20696e636f72726563746f00000000000000000000000000000000006000830152602082019050919050565b60006136c2601583613a11565b91507f45737465207475726e6f206573746120766163696f00000000000000000000006000830152602082019050919050565b6000613702601a83613a11565b91507f4573706572612061206c6c656761722061207475207475726e6f0000000000006000830152602082019050919050565b6000613742601b83613a11565b91507f41756e20686179206c7567617265732073696e20617369676e617200000000006000830152602082019050919050565b61377e81613a73565b82525050565b61378d81613a7d565b82525050565b60006020820190506137a8600083018461352d565b92915050565b60006060820190506137c3600083018661351e565b6137d0602083018561352d565b6137dd6040830184613775565b949350505050565b60006040820190506137fa600083018561352d565b6138076020830184613775565b9392505050565b600061014082019050613824600083018d61352d565b613831602083018c613784565b61383e604083018b613775565b61384b606083018a613775565b6138586080830189613775565b61386560a0830188613775565b61387260c0830187613784565b61387f60e0830186613775565b61388d61010083018561353c565b61389b610120830184613775565b9b9a5050505050505050505050565b60006020820190506138bf600083018461353c565b92915050565b60006020820190506138da600083018461354b565b92915050565b60006020820190506138f5600083018461355a565b92915050565b6000602082019050818103600083015261391481613569565b9050919050565b60006020820190508181036000830152613934816135a9565b9050919050565b600060208201905081810360008301526139548161360f565b9050919050565b6000602082019050818103600083015261397481613675565b9050919050565b60006020820190508181036000830152613994816136b5565b9050919050565b600060208201905081810360008301526139b4816136f5565b9050919050565b600060208201905081810360008301526139d481613735565b9050919050565b60006020820190506139f06000830184613775565b92915050565b6000602082019050613a0b6000830184613784565b92915050565b600082825260208201905092915050565b6000613a2d82613a53565b9050919050565b60008115159050919050565b6000819050613a4e82613af8565b919050565b600073ffffffffffffffffffffffffffffffffffffffff82169050919050565b6000819050919050565b600060ff82169050919050565b6000613a9582613ad2565b9050919050565b6000613aa782613aae565b9050919050565b6000613ab982613a53565b9050919050565b6000613acb82613a40565b9050919050565b6000613add82613ae4565b9050919050565b6000613aef82613a53565b9050919050565bfe5b60038110613b0957613b08613af6565b5b50565b613b1581613a22565b8114613b2057600080fd5b50565b613b2c81613a34565b8114613b3757600080fd5b50565b613b4381613a73565b8114613b4e57600080fd5b50565b613b5a81613a7d565b8114613b6557600080fd5b5056fe536f6c6f20656c2061646d696e207075656465206c6c616d6172206c612066756e63696f6ea2646970667358221220f9c3f1fefac5d71013deed34e80ad84aedecb5aa4d66f66d8c8fb6c03f5e0f2c64736f6c63430007060033",
  "immutableReferences": {},
  "source": "// SPDX-License-Identifier: BSD 3-Clause License\npragma solidity ^0.7.6;\npragma experimental ABIEncoderV2;\n\nimport \"@openzeppelin/contracts/token/ERC20/IERC20.sol\";\n// https://github.com/OpenZeppelin/openzeppelin-contracts/blob/release-v3.4-solc-0.7/contracts/token/ERC20/IERC20.sol;\nimport \"./Modifiers.sol\";\n\ncontract SavingGroups is Modifiers {\n    enum Stages {\n        //Stages of the round\n        Setup,\n        Save,\n        Finished\n    }\n\n    struct User {\n        //Information from each user\n        address userAddr;\n        uint8 userTurn;\n        uint256 availableCashIn; //amount available in CashIn\n        uint256 availableSavings;//Amount Available to withdraw\n        uint256 assignedPayments; //Assigned either by payment or debt\n        uint256 unassignedPayments;\n        uint8 latePayments; //late Payments incurred by the user\n        uint256 owedTotalCashIn; // amount taken in credit from others cashIn\n        bool isActive; //defines if the user is participating in the current round\n        uint256 withdrewAmount; \n    }\n\n    mapping(address => User) public users;\n    address public admin; //The user that deploy the contract is the administrator\n\n    //Constructor deployment variables\n    uint256 public cashIn; //amount to be payed as commitment at the begining of the saving circle\n    uint256 public saveAmount; //Payment on each round/cycle\n    uint256 public groupSize; //Number of slots for users to participate on the saving circle\n\n    //Counters and flags\n    uint256 usersCounter = 0;\n    uint8 public turn = 1; //Current cycle/round in the saving circle\n    uint256 public startTime;\n    address[] public addressOrderList;\n    uint256 public totalCashIn = 0;\n    Stages public stage;\n\n    //Time constants in seconds\n    // Weekly by Default\n    uint256 public payTime = 0;\n    uint256 public feeCost = 0;\n    address public constant devAddress = 0x84052CEc1d08cF2eB93ffBaB096b88b455Bb9EEE;\n    IERC20 public cUSD; // 0x874069fa1eb16d44d622f2e0ca25eea172369bc1\n    \n    // BloinxEvents\n    event RegisterUser(address indexed user, uint8 indexed turn);\n    event PayCashIn(address indexed user, bool indexed success);\n    event PayFee(address indexed user, bool indexed success);\n    event RemoveUser(address indexed removedBy, address indexed user, uint8 indexed turn);\n    event PayTurn(address indexed user, bool indexed success);\n    event PayLateTurn(address indexed user, uint8 indexed turn);\n    event WithdrawFunds(address indexed user, uint256 indexed amount, bool indexed success);\n    event EndRound(address indexed roundAddress, uint256 indexed startAt, uint256 indexed endAt);\n\n    constructor(\n        uint256 _cashIn,\n        uint256 _saveAmount,\n        uint256 _groupSize,\n        address _admin,\n        uint256 _payTime,\n        IERC20 _token\n    ) public {\n        cUSD = _token;\n        require(_admin != address(0), \"La direccion del administrador no puede ser cero\");\n        require(_groupSize > 1 && _groupSize <= 10, \"El tamanio del grupo debe ser mayor a uno y menor o igual a 10\");\n        admin = _admin;\n        cashIn = _cashIn * 1e18;\n        saveAmount = _saveAmount * 1e18;\n        groupSize = _groupSize;\n        stage = Stages.Setup;\n        addressOrderList = new address[](_groupSize);\n        require(_payTime > 0, \"El tiempo para pagar no puede ser menor a un dia\");\n        payTime = _payTime;//86400 * 2; // \n        feeCost = (saveAmount / 10000) * 500; // calculate 5% fee\n    }\n\n    modifier atStage(Stages _stage) {\n        require(stage == _stage, \"Stage incorrecto para ejecutar la funcion\");\n        _;\n    }\n\n    function registerUser(uint8 _userTurn) external atStage(Stages.Setup) {\n        // require(\n        //     !users[msg.sender].isActive,\n        //     \"Ya estas registrado en esta ronda\"\n        // );\n        // require(usersCounter < groupSize, \"El grupo esta completo\"); //the saving circle is full\n        // require(\n        //     addressOrderList[_userTurn - 1] == address(0),\n        //     \"Este lugar ya esta ocupado\"\n        // );\n        usersCounter++;\n        users[msg.sender] = User(msg.sender, _userTurn, cashIn, 0, 0, 0, 0, 0, true, 0); //create user\n        (bool registerSuccess) = transferFrom(address(this), cashIn);\n        emit PayCashIn(msg.sender, registerSuccess);\n        (bool payFeeSuccess) = transferFrom(devAddress, feeCost);\n        emit PayFee(msg.sender, payFeeSuccess);\n        totalCashIn += cashIn;\n        addressOrderList[_userTurn-1]=msg.sender; //store user\n        emit RegisterUser(msg.sender, _userTurn);\n    }\n\n    function removeUser(uint8 _userTurn)\n        external\n        atStage(Stages.Setup) {\n        require(msg.sender == admin || msg.sender == addressOrderList[_userTurn-1]  , \"No tienes autorizacion para eliminar a este usuario\");\n        require(addressOrderList[_userTurn-1]!=address(0), \"Este turno esta vacio\");\n        address removeAddress=addressOrderList[_userTurn-1];\n        if(users[removeAddress].availableCashIn >0){\n          //if user has cashIn available, send it back \n          uint256 availableCashInTemp = users[removeAddress].availableCashIn;\n          users[removeAddress].availableCashIn = 0;\n          totalCashIn = totalCashIn - availableCashInTemp;\n          transferTo(users[removeAddress].userAddr, availableCashInTemp);\n        }\n      addressOrderList[_userTurn-1]= address(0); //set address in turn to 0x00..\n      usersCounter --;\n      users[removeAddress].isActive = false;  // tendra que poner turno en 0?\n      emit RemoveUser(msg.sender, removeAddress, _userTurn);\n    }\n\n    function startRound() external onlyAdmin(admin) atStage(Stages.Setup) {\n        require(usersCounter == groupSize, \"Aun hay lugares sin asignar\");\n        stage = Stages.Save;\n        startTime = block.timestamp;\n    }\n\n    //Permite adelantar pagos o hacer abonos chiquitos\n    //Primero se verifica si hay pagos pendientes al da y se abonan, si sobra se verifica si se debe algo al CashIn y se abona\n    function addPayment(uint256 _payAmount) \n        external\n        isRegisteredUser(users[msg.sender].isActive)\n        atStage(Stages.Save) {\n        //users make the payment for the cycle\n        require(_payAmount <= futurePayments() && _payAmount > 0 , \"Pago incorrecto\");\n        \n        //First transaction that will complete saving of currentTurn and will trigger next turn \n        uint8 realTurn = getRealTurn();\n        (bool success) = transferFrom(address(this), _payAmount);\n        emit PayTurn(msg.sender, success);\n        if (turn < realTurn){\n            completeSavingsAndAdvanceTurn(turn); \n        }\n        \n        address userInTurn = addressOrderList[turn-1];\n        uint256 deposit = _payAmount;\n        users[msg.sender].unassignedPayments+= deposit;   \n        \n        uint256 obligation = obligationAtTime(msg.sender);\n        uint256 debtToTurn;\n        uint256 paymentToTurn;\n        \n        //Detecting place to assign\n\n        //checking debt in current turn:\n\n        if (obligation <= users[msg.sender].assignedPayments){  //no hay deuda del turno corriente\n            debtToTurn = 0; \n        } else {  //hay deuda del turno corriente\n            debtToTurn = obligation - users[msg.sender].assignedPayments; \n\n        //checking debt in Total CashIn: (owedTotalCashIn)\n        \n        //PAYMENTS: first: current turn debt, then totalCashIn\n\n            if (userInTurn != msg.sender) {\n                if (debtToTurn < deposit) { \n                    paymentToTurn = debtToTurn;\n                } else {\n                    paymentToTurn = deposit;\n                }\n                \n                //Si no he cubierto todos mis pagos hasta el da se asignan al usuario en turno.\n                users[msg.sender].unassignedPayments -= paymentToTurn;\n                users[userInTurn].availableSavings += paymentToTurn;\n                users[msg.sender].assignedPayments +=  paymentToTurn;\n            }\n        }\n\n        //PAGO DEUDA DEL CASHIN TOTAL\n        if (users[msg.sender].owedTotalCashIn > 0 && users[msg.sender].unassignedPayments > 0 ){\n            uint256 paymentTotalCashIn;\n            if (users[msg.sender].owedTotalCashIn <= users[msg.sender].unassignedPayments){ //unnasigned excede o iguala la deuda del cashIn\n                paymentTotalCashIn = users[msg.sender].owedTotalCashIn;\n            } else {\n                paymentTotalCashIn = users[msg.sender].unassignedPayments;  //cubre parcialmente la deuda del cashIn\n            }\n            \n            users[msg.sender].unassignedPayments -= paymentTotalCashIn;\n            totalCashIn = totalCashIn + paymentTotalCashIn;\n            users[msg.sender].owedTotalCashIn -= paymentTotalCashIn;\n        }\n        \n        //update my own availableCashIn\n        if (users[msg.sender].owedTotalCashIn < cashIn){\n            users[msg.sender].availableCashIn = cashIn - users[msg.sender].owedTotalCashIn;\n        } else{\n            users[msg.sender].availableCashIn = 0;\n        }\n         \n    }\n\n    function withdrawTurn()\n        external\n        isRegisteredUser(users[msg.sender].isActive)\n        atStage(Stages.Save)\n    {\n        uint8 senderTurn = users[msg.sender].userTurn;\n        uint8 realTurn = getRealTurn();\n        require(realTurn > senderTurn, \"Espera a llegar a tu turno\"); //turn = turno actual de la rosca\n        require(users[msg.sender].withdrewAmount == 0 );\n        //First transaction that will complete saving of currentTurn and will trigger next turn\n        //Because this runs each user action, we are sure the user in turn has its availableSavings complete\n        if (turn < realTurn){\n            completeSavingsAndAdvanceTurn(turn); \n        }\n\n        // Paga adeudos pendientes de availableSavings\n        if (obligationAtTime(msg.sender) > users[msg.sender].assignedPayments){\n            payLateFromSavings(msg.sender);\n        }\n       \n        uint256 savedAmountTemp = 0;\n        savedAmountTemp = users[msg.sender].availableSavings;\n        users[msg.sender].availableSavings = 0;\n        (bool success) = transferTo(users[msg.sender].userAddr, savedAmountTemp);\n        emit WithdrawFunds(users[msg.sender].userAddr, savedAmountTemp, success);\n        users[msg.sender].withdrewAmount += savedAmountTemp;\n        savedAmountTemp=0;    \n    }\n\n    function transferFrom(address _to, uint256 _payAmount) internal returns (bool) {\n      bool success = cUSD.transferFrom(msg.sender, _to, _payAmount);\n      return success;\n    }\n\n    function transferTo(address _to, uint256 _amount) internal returns (bool) {\n      bool success = cUSD.transfer(_to, _amount);\n      return success;\n    }\n    //Esta funcion se verifica que daba correr cada que se reliza un movimiento por parte de un usuario, \n    //solo correr si es la primera vez que se corre en un turno, ya sea accin de retiro o pago.\n    function completeSavingsAndAdvanceTurn(uint8 turno) private atStage(Stages.Save) {\n        for (uint8 i = 0; i < groupSize; i++) {\n            address useraddress = addressOrderList[i];\n            address userInTurn = addressOrderList[turno-1];\n            uint256 obligation = obligationAtTime(useraddress);\n            uint256 debtUser;\n            \n                \n            if(useraddress != userInTurn){  \n                //Assign unassignedPayments\n                if (obligation > users[useraddress].assignedPayments){  //Si hay monto pendiente por cubrir el turno\n                    debtUser = obligation - users[useraddress].assignedPayments; //Monto pendiente por asignar \n                } else {\n                    debtUser = 0;\n                }\n                //Si el usuario debe\n                if (debtUser>0){\n                    //Asignamos pagos pendientes\n                    if (users[useraddress].unassignedPayments > 0) {\n                        uint256 toAssign;\n                        if (debtUser < users[useraddress].unassignedPayments) { //se paga toda la deuda y sigue con saldo a favor\n                            toAssign = debtUser;\n                        } else {\n                            toAssign = users[useraddress].unassignedPayments;\n                        }  \n                        users[useraddress].unassignedPayments = users[useraddress].unassignedPayments - toAssign;\n                        users[useraddress].assignedPayments = users[useraddress].assignedPayments + toAssign;\n                        users[userInTurn].availableSavings = users[userInTurn].availableSavings + toAssign; \n                        //Recalculamos la deuda despus de asingacin para pagar con deuda\n                        debtUser =  obligationAtTime(useraddress) - users[useraddress].assignedPayments;\n                    }\n                    \n                    // Si an sigue habiendo deuda se paga del cashIn\n                    if (debtUser > 0) {\n                        users[useraddress].latePayments++; //Se marca deudor\n\n                        if (totalCashIn > debtUser) {\n                        totalCashIn -= debtUser;\n                        users[useraddress].assignedPayments += debtUser;\n                        users[useraddress].owedTotalCashIn += debtUser;  //Lo que se debe a la bolsa de CashIn \n                        users[userInTurn].availableSavings += debtUser ;\n\n\n\n\n                        } // else {\n                            //SE AGOT EL FONDO DE CASHIN QU SE HACE?\n                            \n                        //}\n                        \n                        //update my own availableCashIn\n                        if (users[useraddress].owedTotalCashIn < cashIn){\n                            users[useraddress].availableCashIn = cashIn - users[useraddress].owedTotalCashIn;\n                        } else {\n                            users[useraddress].availableCashIn = 0;\n                        }\n                        \n                    }\n                }\n            }    \n        }\n        turn++;\n    }\n\n    function payLateFromSavings(address _userAddress) internal atStage(Stages.Save){  \n        users[_userAddress].availableSavings -= users[_userAddress].owedTotalCashIn;\n        totalCashIn += users[_userAddress].owedTotalCashIn;\n        users[_userAddress].availableCashIn = cashIn;\n        users[_userAddress].owedTotalCashIn = 0;\n    } \n\n    function endRound() public atStage(Stages.Save) {\n        require(getRealTurn() > groupSize, \"No ha terminado la ronda\");\n        for (uint8 turno = turn; turno < groupSize+1; turno++) {\n            completeSavingsAndAdvanceTurn(turno); \n        }\n        \n        uint256 sumAvailableCashIn = 0;\n        for (uint8 i = 0; i < groupSize; i++) {\n            address userAddr = addressOrderList[i];\n            sumAvailableCashIn += users[userAddr].availableCashIn;\n            if(users[userAddr].availableSavings >= users[userAddr].owedTotalCashIn){\n               payLateFromSavings(userAddr); \n            }\n            \n        }\n\n        for (uint8 i = 0; i < groupSize; i++) {\n            address userAddr = addressOrderList[i];\n            uint256 amountTemp = users[userAddr].availableSavings + ((users[userAddr].availableCashIn * totalCashIn)/sumAvailableCashIn); \n            users[userAddr].availableSavings = 0;\n            users[userAddr].availableCashIn = 0;\n            transferTo(users[userAddr].userAddr, amountTemp);\n            users[userAddr].isActive = false;\n            amountTemp = 0;\n        }\n        \n        stage = Stages.Finished;        \n        emit EndRound(address(this), startTime, block.timestamp);\n    } \n    \n    //Getters\n\n    //Cunto le falta por ahorrar total\n    function futurePayments() public view returns (uint256) {\n        uint256 totalSaving = (saveAmount*(groupSize-1));\n        uint256 futurePayment = totalSaving - users[msg.sender].assignedPayments - users[msg.sender].unassignedPayments + users[msg.sender].owedTotalCashIn ;\n        return futurePayment;\n    }\n\n    //Returns the total payment the user should have paid at the moment\n    function obligationAtTime(address userAddress) public view returns (uint256) {\n        uint256 expectedObligation;\n        if (users[userAddress].userTurn <= turn){\n            expectedObligation =  saveAmount * (turn-1);\n        } else{\n            expectedObligation =  saveAmount * (turn);\n        }\n        return expectedObligation;\n    }\n\n    function getRealTurn() public view atStage(Stages.Save) returns (uint8){ \n        uint8 realTurn = uint8((block.timestamp - startTime) / payTime)+1;\n        return (realTurn);\n    }\n\n    function getUserAvailableCashIn(uint8 _userTurn) public view returns (uint256){\n        address userAddr = addressOrderList[_userTurn-1];\n        return(users[userAddr].availableCashIn);\n    }\n        \n    function getUserAvailableSavings(uint8 _userTurn) public view returns (uint256){\n        address userAddr = addressOrderList[_userTurn-1];\n        return(users[userAddr].availableSavings);\n    }\n        \n    function getUserAmountPaid(uint8 _userTurn) public view returns (uint256){\n        address userAddr = addressOrderList[_userTurn-1];\n        return(users[userAddr].assignedPayments);\n    }    \n        \n    function getUserUnassignedPayments(uint8 _userTurn) public view returns (uint256){\n        address userAddr = addressOrderList[_userTurn-1];\n        return(users[userAddr].unassignedPayments);\n    }        \n        \n    function getUserLatePayments(uint8 _userTurn) public view returns (uint8){\n        address userAddr = addressOrderList[_userTurn-1];\n        return(users[userAddr].latePayments);\n    }    \n    \n    function getUserOwedTotalCashIn(uint8 _userTurn) public view returns (uint256){\n        address userAddr = addressOrderList[_userTurn-1];\n        return(users[userAddr].owedTotalCashIn);\n    }    \n    \n    function getUserIsActive(uint8 _userTurn) public view returns (bool){\n        address userAddr = addressOrderList[_userTurn-1];\n        return(users[userAddr].isActive);\n    }    \n}",
  "sourcePath": "/Users/artur/Desktop/Bloinx/bloinx-contracts/contracts/SavingGroups.sol",
  "compiler": {
    "name": "solc",
    "version": "0.7.6+commit.7338295f.Emscripten.clang"
  },
  "schemaVersion": "3.4.2",
  "updatedAt": "2022-02-07T22:08:04.455Z",
  "devdoc": {
    "kind": "dev",
    "methods": {},
    "version": 1
  },
  "userdoc": {
    "kind": "user",
    "methods": {},
    "version": 1
  }
}