{
  "contractName": "SavingGroups",
  "abi": [
    {
      "inputs": [
        {
          "internalType": "uint256",
          "name": "_cashIn",
          "type": "uint256"
        },
        {
          "internalType": "uint256",
          "name": "_saveAmount",
          "type": "uint256"
        },
        {
          "internalType": "uint256",
          "name": "_groupSize",
          "type": "uint256"
        },
        {
          "internalType": "address",
          "name": "_admin",
          "type": "address"
        },
        {
          "internalType": "uint256",
          "name": "_adminFee",
          "type": "uint256"
        },
        {
          "internalType": "uint256",
          "name": "_payTime",
          "type": "uint256"
        },
        {
          "internalType": "contract ERC20",
          "name": "_token",
          "type": "address"
        },
        {
          "internalType": "contract BLXToken",
          "name": "_BLX",
          "type": "address"
        },
        {
          "internalType": "address",
          "name": "_devFund",
          "type": "address"
        },
        {
          "internalType": "uint256",
          "name": "_fee",
          "type": "uint256"
        }
      ],
      "stateMutability": "nonpayable",
      "type": "constructor"
    },
    {
      "anonymous": false,
      "inputs": [
        {
          "indexed": true,
          "internalType": "address",
          "name": "roundAddress",
          "type": "address"
        },
        {
          "indexed": true,
          "internalType": "uint256",
          "name": "funds",
          "type": "uint256"
        }
      ],
      "name": "EmergencyWithdraw",
      "type": "event"
    },
    {
      "anonymous": false,
      "inputs": [
        {
          "indexed": true,
          "internalType": "address",
          "name": "roundAddress",
          "type": "address"
        },
        {
          "indexed": true,
          "internalType": "uint256",
          "name": "startAt",
          "type": "uint256"
        },
        {
          "indexed": true,
          "internalType": "uint256",
          "name": "endAt",
          "type": "uint256"
        }
      ],
      "name": "EndRound",
      "type": "event"
    },
    {
      "anonymous": false,
      "inputs": [
        {
          "indexed": true,
          "internalType": "address",
          "name": "user",
          "type": "address"
        },
        {
          "indexed": true,
          "internalType": "uint8",
          "name": "turn",
          "type": "uint8"
        }
      ],
      "name": "LatePayment",
      "type": "event"
    },
    {
      "anonymous": false,
      "inputs": [
        {
          "indexed": true,
          "internalType": "address",
          "name": "user",
          "type": "address"
        },
        {
          "indexed": true,
          "internalType": "bool",
          "name": "success",
          "type": "bool"
        }
      ],
      "name": "PayCashIn",
      "type": "event"
    },
    {
      "anonymous": false,
      "inputs": [
        {
          "indexed": true,
          "internalType": "address",
          "name": "user",
          "type": "address"
        },
        {
          "indexed": true,
          "internalType": "bool",
          "name": "success",
          "type": "bool"
        }
      ],
      "name": "PayFee",
      "type": "event"
    },
    {
      "anonymous": false,
      "inputs": [
        {
          "indexed": true,
          "internalType": "address",
          "name": "user",
          "type": "address"
        },
        {
          "indexed": true,
          "internalType": "bool",
          "name": "success",
          "type": "bool"
        }
      ],
      "name": "PayTurn",
      "type": "event"
    },
    {
      "anonymous": false,
      "inputs": [
        {
          "indexed": true,
          "internalType": "address",
          "name": "user",
          "type": "address"
        },
        {
          "indexed": true,
          "internalType": "uint8",
          "name": "turn",
          "type": "uint8"
        }
      ],
      "name": "RegisterUser",
      "type": "event"
    },
    {
      "anonymous": false,
      "inputs": [
        {
          "indexed": true,
          "internalType": "address",
          "name": "removedBy",
          "type": "address"
        },
        {
          "indexed": true,
          "internalType": "address",
          "name": "user",
          "type": "address"
        },
        {
          "indexed": true,
          "internalType": "uint8",
          "name": "turn",
          "type": "uint8"
        }
      ],
      "name": "RemoveUser",
      "type": "event"
    },
    {
      "anonymous": false,
      "inputs": [
        {
          "indexed": true,
          "internalType": "uint256",
          "name": "saveAmount",
          "type": "uint256"
        },
        {
          "indexed": true,
          "internalType": "uint256",
          "name": "groupSize",
          "type": "uint256"
        }
      ],
      "name": "RoundCreated",
      "type": "event"
    },
    {
      "anonymous": false,
      "inputs": [
        {
          "indexed": true,
          "internalType": "address",
          "name": "user",
          "type": "address"
        },
        {
          "indexed": true,
          "internalType": "uint256",
          "name": "amount",
          "type": "uint256"
        },
        {
          "indexed": true,
          "internalType": "bool",
          "name": "success",
          "type": "bool"
        }
      ],
      "name": "WithdrawFunds",
      "type": "event"
    },
    {
      "inputs": [],
      "name": "BLX",
      "outputs": [
        {
          "internalType": "contract BLXToken",
          "name": "",
          "type": "address"
        }
      ],
      "stateMutability": "view",
      "type": "function"
    },
    {
      "inputs": [
        {
          "internalType": "uint256",
          "name": "",
          "type": "uint256"
        }
      ],
      "name": "addressOrderList",
      "outputs": [
        {
          "internalType": "address",
          "name": "",
          "type": "address"
        }
      ],
      "stateMutability": "view",
      "type": "function"
    },
    {
      "inputs": [],
      "name": "admin",
      "outputs": [
        {
          "internalType": "address",
          "name": "",
          "type": "address"
        }
      ],
      "stateMutability": "view",
      "type": "function"
    },
    {
      "inputs": [],
      "name": "adminFee",
      "outputs": [
        {
          "internalType": "uint256",
          "name": "",
          "type": "uint256"
        }
      ],
      "stateMutability": "view",
      "type": "function"
    },
    {
      "inputs": [],
      "name": "cUSD",
      "outputs": [
        {
          "internalType": "contract ERC20",
          "name": "",
          "type": "address"
        }
      ],
      "stateMutability": "view",
      "type": "function"
    },
    {
      "inputs": [],
      "name": "cashIn",
      "outputs": [
        {
          "internalType": "uint256",
          "name": "",
          "type": "uint256"
        }
      ],
      "stateMutability": "view",
      "type": "function"
    },
    {
      "inputs": [],
      "name": "devFund",
      "outputs": [
        {
          "internalType": "address",
          "name": "",
          "type": "address"
        }
      ],
      "stateMutability": "view",
      "type": "function"
    },
    {
      "inputs": [],
      "name": "feeCost",
      "outputs": [
        {
          "internalType": "uint256",
          "name": "",
          "type": "uint256"
        }
      ],
      "stateMutability": "view",
      "type": "function"
    },
    {
      "inputs": [],
      "name": "groupSize",
      "outputs": [
        {
          "internalType": "uint256",
          "name": "",
          "type": "uint256"
        }
      ],
      "stateMutability": "view",
      "type": "function"
    },
    {
      "inputs": [],
      "name": "outOfFunds",
      "outputs": [
        {
          "internalType": "bool",
          "name": "",
          "type": "bool"
        }
      ],
      "stateMutability": "view",
      "type": "function"
    },
    {
      "inputs": [],
      "name": "payTime",
      "outputs": [
        {
          "internalType": "uint256",
          "name": "",
          "type": "uint256"
        }
      ],
      "stateMutability": "view",
      "type": "function"
    },
    {
      "inputs": [],
      "name": "saveAmount",
      "outputs": [
        {
          "internalType": "uint256",
          "name": "",
          "type": "uint256"
        }
      ],
      "stateMutability": "view",
      "type": "function"
    },
    {
      "inputs": [],
      "name": "stage",
      "outputs": [
        {
          "internalType": "enum SavingGroups.Stages",
          "name": "",
          "type": "uint8"
        }
      ],
      "stateMutability": "view",
      "type": "function"
    },
    {
      "inputs": [],
      "name": "startTime",
      "outputs": [
        {
          "internalType": "uint256",
          "name": "",
          "type": "uint256"
        }
      ],
      "stateMutability": "view",
      "type": "function"
    },
    {
      "inputs": [],
      "name": "totalCashIn",
      "outputs": [
        {
          "internalType": "uint256",
          "name": "",
          "type": "uint256"
        }
      ],
      "stateMutability": "view",
      "type": "function"
    },
    {
      "inputs": [],
      "name": "turn",
      "outputs": [
        {
          "internalType": "uint8",
          "name": "",
          "type": "uint8"
        }
      ],
      "stateMutability": "view",
      "type": "function"
    },
    {
      "inputs": [
        {
          "internalType": "address",
          "name": "",
          "type": "address"
        }
      ],
      "name": "users",
      "outputs": [
        {
          "internalType": "address",
          "name": "userAddr",
          "type": "address"
        },
        {
          "internalType": "uint8",
          "name": "userTurn",
          "type": "uint8"
        },
        {
          "internalType": "uint256",
          "name": "availableCashIn",
          "type": "uint256"
        },
        {
          "internalType": "uint256",
          "name": "availableSavings",
          "type": "uint256"
        },
        {
          "internalType": "uint256",
          "name": "assignedPayments",
          "type": "uint256"
        },
        {
          "internalType": "uint256",
          "name": "unassignedPayments",
          "type": "uint256"
        },
        {
          "internalType": "uint8",
          "name": "latePayments",
          "type": "uint8"
        },
        {
          "internalType": "uint256",
          "name": "owedTotalCashIn",
          "type": "uint256"
        },
        {
          "internalType": "bool",
          "name": "isActive",
          "type": "bool"
        },
        {
          "internalType": "uint256",
          "name": "withdrewAmount",
          "type": "uint256"
        }
      ],
      "stateMutability": "view",
      "type": "function"
    },
    {
      "inputs": [
        {
          "internalType": "uint8",
          "name": "_userTurn",
          "type": "uint8"
        }
      ],
      "name": "registerUser",
      "outputs": [],
      "stateMutability": "nonpayable",
      "type": "function"
    },
    {
      "inputs": [
        {
          "internalType": "uint8",
          "name": "_userTurn",
          "type": "uint8"
        }
      ],
      "name": "removeUser",
      "outputs": [],
      "stateMutability": "nonpayable",
      "type": "function"
    },
    {
      "inputs": [],
      "name": "startRound",
      "outputs": [],
      "stateMutability": "nonpayable",
      "type": "function"
    },
    {
      "inputs": [
        {
          "internalType": "uint256",
          "name": "_payAmount",
          "type": "uint256"
        }
      ],
      "name": "addPayment",
      "outputs": [],
      "stateMutability": "nonpayable",
      "type": "function"
    },
    {
      "inputs": [],
      "name": "withdrawTurn",
      "outputs": [],
      "stateMutability": "nonpayable",
      "type": "function"
    },
    {
      "inputs": [],
      "name": "emergencyWithdraw",
      "outputs": [],
      "stateMutability": "nonpayable",
      "type": "function"
    },
    {
      "inputs": [],
      "name": "endRound",
      "outputs": [],
      "stateMutability": "nonpayable",
      "type": "function"
    },
    {
      "inputs": [],
      "name": "futurePayments",
      "outputs": [
        {
          "internalType": "uint256",
          "name": "",
          "type": "uint256"
        }
      ],
      "stateMutability": "view",
      "type": "function"
    },
    {
      "inputs": [
        {
          "internalType": "address",
          "name": "userAddress",
          "type": "address"
        }
      ],
      "name": "obligationAtTime",
      "outputs": [
        {
          "internalType": "uint256",
          "name": "",
          "type": "uint256"
        }
      ],
      "stateMutability": "view",
      "type": "function"
    },
    {
      "inputs": [],
      "name": "getRealTurn",
      "outputs": [
        {
          "internalType": "uint8",
          "name": "",
          "type": "uint8"
        }
      ],
      "stateMutability": "view",
      "type": "function"
    },
    {
      "inputs": [
        {
          "internalType": "uint8",
          "name": "_userTurn",
          "type": "uint8"
        }
      ],
      "name": "getUserAvailableCashIn",
      "outputs": [
        {
          "internalType": "uint256",
          "name": "",
          "type": "uint256"
        }
      ],
      "stateMutability": "view",
      "type": "function"
    },
    {
      "inputs": [
        {
          "internalType": "uint8",
          "name": "_userTurn",
          "type": "uint8"
        }
      ],
      "name": "getUserAvailableSavings",
      "outputs": [
        {
          "internalType": "uint256",
          "name": "",
          "type": "uint256"
        }
      ],
      "stateMutability": "view",
      "type": "function"
    },
    {
      "inputs": [
        {
          "internalType": "uint8",
          "name": "_userTurn",
          "type": "uint8"
        }
      ],
      "name": "getUserAmountPaid",
      "outputs": [
        {
          "internalType": "uint256",
          "name": "",
          "type": "uint256"
        }
      ],
      "stateMutability": "view",
      "type": "function"
    },
    {
      "inputs": [
        {
          "internalType": "uint8",
          "name": "_userTurn",
          "type": "uint8"
        }
      ],
      "name": "getUserUnassignedPayments",
      "outputs": [
        {
          "internalType": "uint256",
          "name": "",
          "type": "uint256"
        }
      ],
      "stateMutability": "view",
      "type": "function"
    },
    {
      "inputs": [
        {
          "internalType": "uint8",
          "name": "_userTurn",
          "type": "uint8"
        }
      ],
      "name": "getUserLatePayments",
      "outputs": [
        {
          "internalType": "uint8",
          "name": "",
          "type": "uint8"
        }
      ],
      "stateMutability": "view",
      "type": "function"
    },
    {
      "inputs": [
        {
          "internalType": "uint8",
          "name": "_userTurn",
          "type": "uint8"
        }
      ],
      "name": "getUserOwedTotalCashIn",
      "outputs": [
        {
          "internalType": "uint256",
          "name": "",
          "type": "uint256"
        }
      ],
      "stateMutability": "view",
      "type": "function"
    },
    {
      "inputs": [
        {
          "internalType": "uint8",
          "name": "_userTurn",
          "type": "uint8"
        }
      ],
      "name": "getUserIsActive",
      "outputs": [
        {
          "internalType": "bool",
          "name": "",
          "type": "bool"
        }
      ],
      "stateMutability": "view",
      "type": "function"
    }
  ],
  "bytecode": "0x6080604052600060078190556008805460ff19166001179055600b819055600c805461ff0019169055600d819055600e553480156200003d57600080fd5b506040516200367938038062003679833981016040819052620000609162000662565b600f8054600160a060020a031916600160a060020a0386811691909117909155871662000114576040517f08c379a000000000000000000000000000000000000000000000000000000000815260206004820152603060248201527f4c6120646972656363696f6e2064656c2061646d696e6973747261646f72206e60448201527f6f20707565646520736572206365726f0000000000000000000000000000000060648201526084015b60405180910390fd5b600188118015620001265750600c8811155b620001b4576040517f08c379a000000000000000000000000000000000000000000000000000000000815260206004820152603e60248201527f456c2074616d616e696f2064656c20677275706f206465626520736572206d6160448201527f796f72206120756e6f2079206d656e6f72206f20696775616c2061203132000060648201526084016200010b565b60058a101562000247576040517f08c379a000000000000000000000000000000000000000000000000000000000815260206004820152603160248201527f456c206465706f7369746f20646520736567757269646164206465626520736560448201527f72206d696e696d6f20646520356355534400000000000000000000000000000060648201526084016200010b565b6005891015620002b4576040517f08c379a000000000000000000000000000000000000000000000000000000000815260206004820181905260248201527f456c207061676f206465626520736572206d696e696d6f20646520356355534460448201526064016200010b565b6064861115620002c357600080fd5b60018054600160a060020a03808a16600160a060020a031992831617909255600588905560048a81556006805486851690841617905560108054878516931692909217909155600f54604080517f313ce5670000000000000000000000000000000000000000000000000000000081529051919093169263313ce56792818101926020929091908290030181865afa15801562000364573d6000803e3d6000fd5b505050506040513d601f19601f820116820180604052508101906200038a919062000709565b6200039790600a62000866565b620003a3908b62000877565b600255600f54604080517f313ce5670000000000000000000000000000000000000000000000000000000081529051600160a060020a039092169163313ce567916004808201926020929091908290030181865afa1580156200040a573d6000803e3d6000fd5b505050506040513d601f19601f8201168201806040525081019062000430919062000709565b6200043d90600a62000866565b62000449908a62000877565b600355600c805460ff191690558767ffffffffffffffff81111562000472576200047262000899565b6040519080825280602002602001820160405280156200049c578160200160208202803683370190505b508051620004b391600a91602090910190620005c8565b506000851162000546576040517f08c379a000000000000000000000000000000000000000000000000000000000815260206004820152603060248201527f456c207469656d706f2070617261207061676172206e6f20707565646520736560448201527f72206d656e6f72206120756e206469610000000000000000000000000000000060648201526084016200010b565b62000555856201518062000877565b600d556003546127109082906200056e90606462000877565b6200057a919062000877565b620005869190620008c8565b600e556004546003546040517fe934619c48e1b0b21b662adf6b7c08ad37e6f0d120f40a505503b4fd3bcfec5890600090a35050505050505050505062000904565b82805482825590600052602060002090810192821562000620579160200282015b82811115620006205782518254600160a060020a031916600160a060020a03909116178255602090920191600190910190620005e9565b506200062e92915062000632565b5090565b5b808211156200062e576000815560010162000633565b600160a060020a03811681146200065f57600080fd5b50565b6000806000806000806000806000806101408b8d0312156200068357600080fd5b8a51995060208b0151985060408b0151975060608b0151620006a58162000649565b8097505060808b0151955060a08b0151945060c08b0151620006c78162000649565b60e08c0151909450620006da8162000649565b6101008c0151909350620006ee8162000649565b809250506101208b015190509295989b9194979a5092959850565b6000602082840312156200071c57600080fd5b815160ff811681146200072e57600080fd5b9392505050565b7f4e487b7100000000000000000000000000000000000000000000000000000000600052601160045260246000fd5b600181815b80851115620007a757816000190482111562000789576200078962000735565b808516156200079757918102915b6002909404939080029062000769565b509250929050565b600082620007c05750600162000860565b81620007cf5750600062000860565b8160018114620007e85760028114620007f35762000814565b600191505062000860565b60ff84111562000807576200080762000735565b8360020a91505062000860565b5060208310610133831016604e8410600b841016171562000839575081810a62000860565b62000845838362000764565b80600019048211156200085c576200085c62000735565b0290505b92915050565b60006200072e60ff841683620007af565b600081600019048311821515161562000894576200089462000735565b500290565b7f4e487b7100000000000000000000000000000000000000000000000000000000600052604160045260246000fd5b600082620008ff577f4e487b7100000000000000000000000000000000000000000000000000000000600052601260045260246000fd5b500490565b612d6580620009146000396000f3fe608060405234801561001057600080fd5b5060043610610243576000357c010000000000000000000000000000000000000000000000000000000090048063743c81ab11610147578063a0be06f9116100da578063c040e6b8116100a9578063db2e21bc1161008e578063db2e21bc14610525578063e8f496311461052d578063f851a4401461054057600080fd5b8063c040e6b8146104f8578063c949cb831461051257600080fd5b8063a0be06f914610403578063a87430ba1461040c578063b4501f39146104e7578063b4bde59e146104ef57600080fd5b806385f0f3781161011657806385f0f378146103ae5780638930361d146103d05780638b299903146103e3578063a0a8427e146103f057600080fd5b8063743c81ab1461038b578063749aa2d9146103945780637826e78f1461039c57806378e97925146103a557600080fd5b80634210a8d1116101da578063504fc51d116101a957806355e3f0861161018e57806355e3f086146103675780635b6397e11461036f57806363b635ea1461038257600080fd5b8063504fc51d146103415780635394dda81461035457600080fd5b80634210a8d1146102f55780634390d2a814610308578063466afa0d1461031b57806347f121a21461032e57600080fd5b80631fccf672116102165780631fccf6721461029f5780632055baf4146102ca5780632d50e80d146102e457806330fceb6c146102ed57600080fd5b806302b8c8cd1461024857806303ee30611461025d578063086a29e7146102835780631e58061514610296575b600080fd5b61025b610256366004612a7a565b610553565b005b61027061026b366004612a7a565b6109ca565b6040519081526020015b60405180910390f35b61025b610291366004612a7a565b610a18565b61027060025481565b600f546102b290600160a060020a031681565b604051600160a060020a03909116815260200161027a565b6102d2610e2c565b60405160ff909116815260200161027a565b610270600d5481565b61025b610ef2565b610270610303366004612a7a565b6111ba565b6006546102b290600160a060020a031681565b6102d2610329366004612a7a565b611208565b6010546102b290600160a060020a031681565b61027061034f366004612aa4565b611259565b6102b2610362366004612acd565b6112e4565b61025b61130e565b61027061037d366004612a7a565b61149c565b61027060045481565b61027060035481565b61025b6114ea565b610270600e5481565b61027060095481565b600c546103c090610100900460ff1681565b604051901515815260200161027a565b6103c06103de366004612a7a565b611ad1565b6008546102d29060ff1681565b6102706103fe366004612a7a565b611b22565b61027060055481565b61048561041a366004612aa4565b600060208190529081526040902080546001820154600283015460038401546004850154600586015460068701546007880154600890980154600160a060020a0388169860ff740100000000000000000000000000000000000000009099048916989384169316908a565b60408051600160a060020a03909b168b5260ff998a1660208c01528a01979097526060890195909552608088019390935260a08701919091529390931660c085015260e08401929092529015156101008301526101208201526101400161027a565b610270611b70565b610270600b5481565b600c546105059060ff1681565b60405161027a9190612b15565b61025b610520366004612acd565b611bd1565b61025b612062565b61027061053b366004612a7a565b612408565b6001546102b290600160a060020a031681565b600080600c5460ff16600381111561056d5761056d612ae6565b146105ed57604051600080516020612d10833981519152815260206004820152602960248201527f537461676520696e636f72726563746f207061726120656a656375746172206c60448201527f612066756e63696f6e000000000000000000000000000000000000000000000060648201526084015b60405180910390fd5b3360009081526020819052604090206007015460ff161561067e57604051600080516020612d10833981519152815260206004820152602160248201527f5961206573746173207265676973747261646f20656e206573746120726f6e6460448201527f610000000000000000000000000000000000000000000000000000000000000060648201526084016105e4565b600454600754106106d957604051600080516020612d10833981519152815260206004820152601660248201527f456c20677275706f206573746120636f6d706c65746f0000000000000000000060448201526064016105e4565b6000600a6106e8600185612b85565b60ff16815481106106fb576106fb612ba8565b600091825260209091200154600160a060020a03161461076557604051600080516020612d10833981519152815260206004820152601a60248201527f45737465206c756761722079612065737461206f63757061646f00000000000060448201526064016105e4565b6007805490600061077583612bd7565b909155505060408051610140810182523380825260ff8086166020808501918252600280548688019081526000606088018181526080890182815260a08a0183815260c08b0184815260e08c0185815260016101008e018181526101208f018881529d8852998790529d86209c518d549a518c1674010000000000000000000000000000000000000000027fffffffffffffffffffffff000000000000000000000000000000000000000000909b16600160a060020a039190911617999099178c5594519b8b019b909b5590518985015551600389015597516004880155516005870180549190951660ff199182161790945591516006860155516007850180549115159190931617909155905160089092019190915554610898903090612456565b6040519091508115159033907f4480e10f92b8eb473ee375c618f546a95bb106e9ac08855a51628a55f2f043e290600090a3600654600e546000916108e891600160a060020a0390911690612456565b6040519091508115159033907ffcc9de8628256fd80a029af5f9f600bdfc8ec089f618a40d63f7063060d227a590600090a3600254600b600082825461092e9190612bf0565b90915550339050600a610942600187612b85565b60ff168154811061095557610955612ba8565b6000918252602082200180547fffffffffffffffffffffffff000000000000000000000000000000000000000016600160a060020a03939093169290921790915560405160ff86169133917f976bbd2f6af68a7eee78f5300f40d037367b165e65f157e6af4ae073b2befd499190a350505050565b600080600a6109da600185612b85565b60ff16815481106109ed576109ed612ba8565b6000918252602080832090910154600160a060020a0316825281905260409020600601549392505050565b600080600c5460ff166003811115610a3257610a32612ae6565b14610aad57604051600080516020612d10833981519152815260206004820152602960248201527f537461676520696e636f72726563746f207061726120656a656375746172206c60448201527f612066756e63696f6e000000000000000000000000000000000000000000000060648201526084016105e4565b600154600160a060020a0316331480610af95750600a610ace600184612b85565b60ff1681548110610ae157610ae1612ba8565b600091825260209091200154600160a060020a031633145b610b7357604051600080516020612d10833981519152815260206004820152603360248201527f4e6f207469656e6573206175746f72697a6163696f6e207061726120656c696d60448201527f696e617220612065737465207573756172696f0000000000000000000000000060648201526084016105e4565b6000600a610b82600185612b85565b60ff1681548110610b9557610b95612ba8565b600091825260209091200154600160a060020a031603610bff57604051600080516020612d10833981519152815260206004820152601560248201527f45737465207475726e6f206573746120766163696f000000000000000000000060448201526064016105e4565b600a610c0c600184612b85565b60ff1681548110610c1f57610c1f612ba8565b600091825260209091200154600154600160a060020a03918216911603610cb657604051600080516020612d10833981519152815260206004820152602f60248201527f4e6f2070756564657320656c696d696e617220616c2061646d696e697374726160448201527f646f72206465206c6120726f6e6461000000000000000000000000000000000060648201526084016105e4565b6000600a610cc5600185612b85565b60ff1681548110610cd857610cd8612ba8565b6000918252602080832090910154600160a060020a03168083529082905260409091206001015490915015610d6057600160a060020a03811660009081526020819052604081206001018054919055600b54610d35908290612c08565b600b55600160a060020a03808316600090815260208190526040902054610d5d9116826124f9565b50505b6000600a610d6f600186612b85565b60ff1681548110610d8257610d82612ba8565b6000918252602082200180547fffffffffffffffffffffffff000000000000000000000000000000000000000016600160a060020a0393909316929092179091556007805491610dd183612c1f565b9091555050600160a060020a038116600081815260208190526040808220600701805460ff191690555160ff8616929133917fadfd51f69b0ad07e1815c54508f0be97ccfacda3e7553aef7b19e0cfc374be2b9190a4505050565b6000600180600c5460ff166003811115610e4857610e48612ae6565b14610ec357604051600080516020612d10833981519152815260206004820152602960248201527f537461676520696e636f72726563746f207061726120656a656375746172206c60448201527f612066756e63696f6e000000000000000000000000000000000000000000000060648201526084016105e4565b6000600d5460095442610ed69190612c08565b610ee09190612c36565b610eeb906001612c71565b9250505090565b3360009081526020819052604090206007015460ff16801515600114610f6257604051600080516020612d10833981519152815260206004820152601560248201527f5573756172696f206e6f207265676973747261646f000000000000000000000060448201526064016105e4565b600180600c5460ff166003811115610f7c57610f7c612ae6565b14610ff757604051600080516020612d10833981519152815260206004820152602960248201527f537461676520696e636f72726563746f207061726120656a656375746172206c60448201527f612066756e63696f6e000000000000000000000000000000000000000000000060648201526084016105e4565b3360009081526020819052604081205474010000000000000000000000000000000000000000900460ff169061102b610e2c565b90508160ff168160ff161161108a57604051600080516020612d10833981519152815260206004820152601a60248201527f4573706572612061206c6c656761722061207475207475726e6f00000000000060448201526064016105e4565b33600090815260208190526040902060080154156110a757600080fd5b60085460ff808316911610156110c6576008546110c69060ff1661254f565b33600081815260208190526040902060030154906110e390611259565b11156110f2576110f2336129a8565b336000908152602081905260408120600281018054908390556008909101805491928392611121908490612bf0565b90915550503360009081526020819052604081205461114990600160a060020a0316836124f9565b33600090815260208190526040808220549051929350831515928592600160a060020a03909216917fd62c1f6f3c4444a52e394381f609a885a10cc992ad4b59f0815f22db3cc5923291a4600c54610100900460ff16156111b257600c805460ff191660031790555b505050505050565b600080600a6111ca600185612b85565b60ff16815481106111dd576111dd612ba8565b6000918252602080832090910154600160a060020a0316825281905260409020600301549392505050565b600080600a611218600185612b85565b60ff168154811061122b5761122b612ba8565b6000918252602080832090910154600160a060020a03168252819052604090206005015460ff169392505050565b600854600160a060020a0382166000908152602081905260408120549091829160ff91821674010000000000000000000000000000000000000000909104909116116112c8576008546112b19060019060ff16612b85565b60ff166003546112c19190612c96565b90506112de565b6008546003546112db9160ff1690612c96565b90505b92915050565b600a81815481106112f457600080fd5b600091825260209091200154600160a060020a0316905081565b600154600160a060020a031633811461139757604051600080516020612d10833981519152815260206004820152602560248201527f536f6c6f20656c2061646d696e207075656465206c6c616d6172206c6120667560448201527f6e63696f6e00000000000000000000000000000000000000000000000000000060648201526084016105e4565b600080600c5460ff1660038111156113b1576113b1612ae6565b1461142c57604051600080516020612d10833981519152815260206004820152602960248201527f537461676520696e636f72726563746f207061726120656a656375746172206c60448201527f612066756e63696f6e000000000000000000000000000000000000000000000060648201526084016105e4565b6004546007541461148757604051600080516020612d10833981519152815260206004820152601b60248201527f41756e20686179206c7567617265732073696e20617369676e6172000000000060448201526064016105e4565b5050600c805460ff1916600117905542600955565b600080600a6114ac600185612b85565b60ff16815481106114bf576114bf612ba8565b6000918252602080832090910154600160a060020a0316825281905260409020600101549392505050565b600180600c5460ff16600381111561150457611504612ae6565b1461157f57604051600080516020612d10833981519152815260206004820152602960248201527f537461676520696e636f72726563746f207061726120656a656375746172206c60448201527f612066756e63696f6e000000000000000000000000000000000000000000000060648201526084016105e4565b60045461158a610e2c565b60ff16116115e257604051600080516020612d10833981519152815260206004820152601860248201527f4e6f206861207465726d696e61646f206c6120726f6e6461000000000000000060448201526064016105e4565b60085460ff165b6004548160ff1611611610576115fe8161254f565b8061160881612cb5565b9150506115e9565b506000805b6004548160ff1610156116b5576000600a8260ff168154811061163a5761163a612ba8565b6000918252602080832090910154600160a060020a031680835290829052604090912060068101546002909101549192501161167957611679816129a8565b600160a060020a03811660009081526020819052604090206001015461169f9084612bf0565b92505080806116ad90612cb5565b915050611615565b50600c54610100900460ff166119e85760008060005b6004548160ff16101561193c576000600a8260ff16815481106116f0576116f0612ba8565b6000918252602080832090910154600b54600160a060020a03909116808452918390526040832060010154919350879161172a9190612c96565b6117349190612c36565b600160a060020a038316600090815260208190526040812060018101829055600701805460ff19169055600554919250906064906117729084612c96565b61177c9190612c36565b90506117888187612bf0565b600160a060020a038416600090815260208190526040812060020154919750906117b28385612c08565b6117bc9190612bf0565b600160a060020a0380861660009081526020819052604081206002810191909155549192506117ec9116826124f9565b50600160a060020a03841660009081526020819052604081205474010000000000000000000000000000000000000000900460ff168061182d86600a612c96565b6118379190612c96565b6118419190612c96565b601054600160a060020a03878116600090815260208190526040908190205490517f40c10f1900000000000000000000000000000000000000000000000000000000815290821660048201526024810184905292935016906340c10f1990604401600060405180830381600087803b1580156118bc57600080fd5b505af11580156118d0573d6000803e3d6000fd5b50505050600a816118e19190612c36565b6118eb9088612bf0565b60095460405191985060009550859250429130907f52a298e98008bccb662279d4de296612fe9d9fe846a899e25d485e12a0152545908590a45050505050808061193490612cb5565b9150506116cb565b5060015461195390600160a060020a0316836124f9565b506010546006546040517f40c10f19000000000000000000000000000000000000000000000000000000008152600160a060020a039182166004820152602481018490529116906340c10f1990604401600060405180830381600087803b1580156119bd57600080fd5b505af11580156119d1573d6000803e3d6000fd5b5050600c805460ff19166002179055505050505050565b60005b6004548160ff161015611abf576000600a8260ff1681548110611a1057611a10612ba8565b6000918252602080832090910154600b54600160a060020a039091168084529183905260408320600101549193508591611a4a9190612c96565b611a549190612c36565b600160a060020a038316600090815260208190526040902060020154611a7a9190612bf0565b5050600160a060020a03166000908152602081905260408120600281018290556001810191909155600701805460ff1916905580611ab781612cb5565b9150506119eb565b5050600c805460ff1916600317905550565b600080600a611ae1600185612b85565b60ff1681548110611af457611af4612ba8565b6000918252602080832090910154600160a060020a03168252819052604090206007015460ff169392505050565b600080600a611b32600185612b85565b60ff1681548110611b4557611b45612ba8565b6000918252602080832090910154600160a060020a0316825281905260409020600201549392505050565b6000806001600454611b829190612c08565b600354611b8f9190612c96565b336000908152602081905260408120600681015460048201546003909201549394509192611bbd9085612c08565b611bc79190612c08565b610eeb9190612bf0565b3360009081526020819052604090206007015460ff16801515600114611c4157604051600080516020612d10833981519152815260206004820152601560248201527f5573756172696f206e6f207265676973747261646f000000000000000000000060448201526064016105e4565b600180600c5460ff166003811115611c5b57611c5b612ae6565b14611cd657604051600080516020612d10833981519152815260206004820152602960248201527f537461676520696e636f72726563746f207061726120656a656375746172206c60448201527f612066756e63696f6e000000000000000000000000000000000000000000000060648201526084016105e4565b611cde611b70565b8311158015611ced5750600083115b611d4157604051600080516020612d10833981519152815260206004820152600f60248201527f5061676f20696e636f72726563746f000000000000000000000000000000000060448201526064016105e4565b6000611d4b610e2c565b60085490915060ff80831691161015611d6d57600854611d6d9060ff1661254f565b600854600090600a90611d859060019060ff16612b85565b60ff1681548110611d9857611d98612ba8565b600091825260208083209091015433835290829052604082206004018054600160a060020a03909216935087928392611dd2908490612bf0565b9091555060009050611de333611259565b336000908152602081905260408120600301549192509081908311611e0b5760009150611ecb565b33600090815260208190526040902060030154611e289084612c08565b9150600160a060020a0385163314611ecb5783821015611e49575080611e4c565b50825b3360009081526020819052604081206004018054839290611e6e908490612c08565b9091555050600160a060020a03851660009081526020819052604081206002018054839290611e9e908490612bf0565b90915550503360009081526020819052604081206003018054839290611ec5908490612bf0565b90915550505b3360009081526020819052604090206006015415801590611efd57503360009081526020819052604090206004015415155b15611fb057336000908152602081905260408120600481015460069091015411611f3a575033600090815260208190526040902060060154611f4f565b50336000908152602081905260409020600401545b3360009081526020819052604081206004018054839290611f71908490612c08565b9091555050600b54611f84908290612bf0565b600b553360009081526020819052604081206006018054839290611fa9908490612c08565b9091555050505b6002543360009081526020819052604090206006015410156120045733600090815260208190526040902060060154600254611fec9190612c08565b33600090815260208190526040902060010155612018565b336000908152602081905260408120600101555b6000612024308b612456565b6040519091508115159033907f02d1bc4c41f0968b82fd72dc5877b3df473c2bcab943abd81229c5b825b2132190600090a350505050505050505050565b600380600c5460ff16600381111561207c5761207c612ae6565b146120f757604051600080516020612d10833981519152815260206004820152602960248201527f537461676520696e636f72726563746f207061726120656a656375746172206c60448201527f612066756e63696f6e000000000000000000000000000000000000000000000060648201526084016105e4565b600f546040517f70a08231000000000000000000000000000000000000000000000000000000008152306004820152600091600160a060020a0316906370a0823190602401602060405180830381865afa158015612159573d6000803e3d6000fd5b505050506040513d601f19601f8201168201806040525081019061217d9190612cd4565b116121d257604051600080516020612d10833981519152815260206004820152601860248201527f4e6f206861792073616c646f20706f722072657469726172000000000000000060448201526064016105e4565b60085460ff165b6004548160ff1611612200576121ee8161254f565b806121f881612cb5565b9150506121d9565b50600f546040517f70a08231000000000000000000000000000000000000000000000000000000008152306004820152600091600160a060020a0316906370a0823190602401602060405180830381865afa158015612263573d6000803e3d6000fd5b505050506040513d601f19601f820116820180604052508101906122879190612cd4565b905060005b6004548160ff1610156123b8576000600a8260ff16815481106122b1576122b1612ba8565b600091825260209091200154600160a060020a031690506122d1816129a8565b600160a060020a0381166000908152602081905260409020600801541580156122fa5750600083115b156123a557600160a060020a038116600090815260208190526040902060020154831061237e57600160a060020a03808216600090815260208190526040902080546002909101546123509291909116906124f9565b50600160a060020a0381166000908152602081905260409020600201546123779084612c08565b92506123a5565b600160a060020a038082166000908152602081905260409020546123a39116846124f9565b505b50806123b081612cb5565b91505061228c565b5080156123d7576006546123d590600160a060020a0316826124f9565b505b604051819030907f5fafa99d0643513820be26656b45130b01e1c03062e1266bf36f88cbd3bd969590600090a35050565b600080600a612418600185612b85565b60ff168154811061242b5761242b612ba8565b6000918252602080832090910154600160a060020a0316825281905260409020600401549392505050565b600f546040517f23b872dd000000000000000000000000000000000000000000000000000000008152336004820152600160a060020a0384811660248301526044820184905260009283929116906323b872dd906064015b6020604051808303816000875af11580156124cd573d6000803e3d6000fd5b505050506040513d601f19601f820116820180604052508101906124f19190612ced565b949350505050565b600f546040517fa9059cbb000000000000000000000000000000000000000000000000000000008152600160a060020a03848116600483015260248201849052600092839291169063a9059cbb906044016124ae565b6000600a61255e600184612b85565b60ff168154811061257157612571612ba8565b6000918252602082200154600160a060020a031691505b6004548160ff161015612977576000600a8260ff16815481106125ad576125ad612ba8565b6000918252602082200154600160a060020a031691506125cc82611259565b9050600084600160a060020a031683600160a060020a03161461296157600160a060020a03831660009081526020819052604090206003015482111561263957600160a060020a0383166000908152602081905260409020600301546126329083612c08565b905061263d565b5060005b801561296157600160a060020a0383166000908152602081905260409020600401541561277a57600160a060020a03831660009081526020819052604081206004015482101561268e5750806126ac565b50600160a060020a0383166000908152602081905260409020600401545b600160a060020a0384166000908152602081905260409020600401546126d3908290612c08565b600160a060020a0385166000908152602081905260409020600481019190915560030154612702908290612bf0565b600160a060020a038086166000908152602081905260408082206003019390935590881681522060020154612738908290612bf0565b600160a060020a03808816600090815260208190526040808220600201939093559086168152206003015461276c85611259565b6127769190612c08565b9150505b801561296157600160a060020a0383166000908152602081905260408120600501805460ff16916127aa83612cb5565b82546101009290920a60ff81810219909316918316021790915560085433600090815260208190526040808220549051929093169350600160a060020a03909216917f9cb2653410f99cbecfa3f17c1cd571dd8b8def58653878d6dae9d0c08400531c91a380600b54106128c55780600b600082825461282a9190612c08565b9091555050600160a060020a0383166000908152602081905260408120600301805483929061285a908490612bf0565b9091555050600160a060020a0383166000908152602081905260408120600601805483929061288a908490612bf0565b9091555050600160a060020a038516600090815260208190526040812060020180548392906128ba908490612bf0565b909155506128d59050565b600c805461ff0019166101001790555b600254600160a060020a038416600090815260208190526040902060060154101561294457600160a060020a0383166000908152602081905260409020600601546002546129239190612c08565b600160a060020a038416600090815260208190526040902060010155612961565b600160a060020a0383166000908152602081905260408120600101555b505050808061296f90612cb5565b915050612588565b506008805460ff1690600061298b83612cb5565b91906101000a81548160ff021916908360ff160217905550505050565b600160a060020a0381166000908152602081905260409020600681015460029091015410612a6857600160a060020a038116600090815260208190526040812060068101546002909101805491929091612a03908490612c08565b9091555050600160a060020a038116600090815260208190526040812060060154600b805491929091612a37908490612bf0565b9091555050600254600160a060020a0382166000908152602081905260408120600181019290925560069091015550565b600c805461ff00191661010017905550565b600060208284031215612a8c57600080fd5b813560ff81168114612a9d57600080fd5b9392505050565b600060208284031215612ab657600080fd5b8135600160a060020a0381168114612a9d57600080fd5b600060208284031215612adf57600080fd5b5035919050565b7f4e487b7100000000000000000000000000000000000000000000000000000000600052602160045260246000fd5b6020810160048310612b50577f4e487b7100000000000000000000000000000000000000000000000000000000600052602160045260246000fd5b91905290565b7f4e487b7100000000000000000000000000000000000000000000000000000000600052601160045260246000fd5b600060ff821660ff841680821015612b9f57612b9f612b56565b90039392505050565b7f4e487b7100000000000000000000000000000000000000000000000000000000600052603260045260246000fd5b600060018201612be957612be9612b56565b5060010190565b60008219821115612c0357612c03612b56565b500190565b600082821015612c1a57612c1a612b56565b500390565b600081612c2e57612c2e612b56565b506000190190565b600082612c6c577f4e487b7100000000000000000000000000000000000000000000000000000000600052601260045260246000fd5b500490565b600060ff821660ff84168060ff03821115612c8e57612c8e612b56565b019392505050565b6000816000190483118215151615612cb057612cb0612b56565b500290565b600060ff821660ff8103612ccb57612ccb612b56565b60010192915050565b600060208284031215612ce657600080fd5b5051919050565b600060208284031215612cff57600080fd5b81518015158114612a9d57600080fdfe08c379a000000000000000000000000000000000000000000000000000000000a26469706673582212204bd3eddc563554337b0d4c28a19e5a39f7b496ce4153a05930029f50aa9a89d064736f6c634300080f0033",
  "immutableReferences": {},
  "source": "// SPDX-License-Identifier: BSD 3-Clause License\npragma solidity ^0.8.0;\npragma experimental ABIEncoderV2;\n\nimport \"./Modifiers.sol\";\nimport \"./BLXToken.sol\";\n\ncontract SavingGroups is Modifiers {\n    enum Stages {\n        //Stages of the round\n        Setup,\n        Save,\n        Finished,\n        Emergency\n    }\n\n    struct User {\n        //Information from each user\n        address userAddr;\n        uint8 userTurn;\n        uint256 availableCashIn; //amount available in CashIn\n        uint256 availableSavings;//Amount Available to withdraw\n        uint256 assignedPayments; //Assigned either by payment or debt\n        uint256 unassignedPayments;\n        uint8 latePayments; //late Payments incurred by the user\n        uint256 owedTotalCashIn; // amount taken in credit from others cashIn\n        bool isActive; //defines if the user is participating in the current round\n        uint256 withdrewAmount;\n    }\n\n    mapping(address => User) public users;\n    address public admin; //The user that deploy the contract is the administrator\n\n    //Constructor deployment variables\n    uint256 public cashIn; //amount to be payed as commitment at the begining of the saving circle\n    uint256 public saveAmount; //Payment on each round/cycle\n    uint256 public groupSize; //Number of slots for users to participate on the saving circle\n    uint256 public adminFee; //The fee the admin will charge to the users, it will be taken from the users cashin\n    address public devFund; // fees will be sent here\n\n    //Counters and flags\n    uint256 usersCounter = 0;\n    uint8 public turn = 1; //Current cycle/round in the saving circle\n    uint256 public startTime;\n    address[] public addressOrderList;\n    uint256 public totalCashIn = 0;\n    Stages public stage;\n    bool public outOfFunds = false;\n\n    //Time constants in seconds\n    // Weekly by Default\n    uint256 public payTime = 0;\n    //uint256 public fee = 0;\n    uint256 public feeCost = 0;\n    ERC20 public cUSD; // 0x874069fa1eb16d44d622f2e0ca25eea172369bc1\n    BLXToken public BLX;\n\n    // BloinxEvents\n    event RoundCreated(uint256 indexed saveAmount, uint256 indexed groupSize);\n    event RegisterUser(address indexed user, uint8 indexed turn);\n    event PayCashIn(address indexed user, bool indexed success);\n    event PayFee(address indexed user, bool indexed success);\n    event RemoveUser(address indexed removedBy, address indexed user, uint8 indexed turn);\n    event PayTurn(address indexed user, bool indexed success);\n    event LatePayment(address indexed user, uint8 indexed turn);\n    event WithdrawFunds(address indexed user, uint256 indexed amount, bool indexed success);\n    event EndRound(address indexed roundAddress, uint256 indexed startAt, uint256 indexed endAt);\n    event EmergencyWithdraw(address indexed roundAddress, uint256 indexed funds);\n\n    constructor(\n        uint256 _cashIn,\n        uint256 _saveAmount,\n        uint256 _groupSize,\n        address _admin,\n        uint256 _adminFee,\n        uint256 _payTime,\n        ERC20 _token,\n        BLXToken _BLX,\n        address _devFund,\n        uint256 _fee\n    ) public {\n        cUSD = _token;\n        require(_admin != address(0), \"La direccion del administrador no puede ser cero\");\n        require(_groupSize > 1 && _groupSize <= 12, \"El tamanio del grupo debe ser mayor a uno y menor o igual a 12\");\n        require(_cashIn >= 5, \"El deposito de seguridad debe ser minimo de 5cUSD\");\n        require(_saveAmount >= 5, \"El pago debe ser minimo de 5cUSD\");\n        require(_adminFee<= 100);\n        admin = _admin;\n        adminFee = _adminFee;\n        groupSize = _groupSize;\n        devFund = _devFund;\n        BLX = _BLX;\n        cashIn = _cashIn * 10 ** cUSD.decimals();\n        saveAmount = _saveAmount * 10 ** cUSD.decimals();\n        stage = Stages.Setup;\n        addressOrderList = new address[](_groupSize);\n        require(_payTime > 0, \"El tiempo para pagar no puede ser menor a un dia\");\n        payTime = _payTime *86400;\n        feeCost = (saveAmount * 100 * _fee)/ 10000; // calculate 5% fee\n        emit RoundCreated(saveAmount, groupSize);\n    }\n\n    modifier atStage(Stages _stage) {\n        require(stage == _stage, \"Stage incorrecto para ejecutar la funcion\");\n        _;\n    }\n\n    function registerUser(uint8 _userTurn)\n    external atStage(Stages.Setup)\n    {\n        require(\n            !users[msg.sender].isActive,\n            \"Ya estas registrado en esta ronda\"\n        );\n        require(usersCounter < groupSize, \"El grupo esta completo\"); //the saving circle is full\n        require(\n            addressOrderList[_userTurn - 1] == address(0),\n            \"Este lugar ya esta ocupado\"\n        );\n        usersCounter++;\n        users[msg.sender] = User(msg.sender, _userTurn, cashIn, 0, 0, 0, 0, 0, true, 0); //create user\n        (bool registerSuccess) = transferFrom(address(this), cashIn);\n        emit PayCashIn(msg.sender, registerSuccess);\n        (bool payFeeSuccess) = transferFrom(devFund, feeCost);\n        emit PayFee(msg.sender, payFeeSuccess);\n        totalCashIn += cashIn;\n        addressOrderList[_userTurn-1]=msg.sender; //store user\n        emit RegisterUser(msg.sender, _userTurn);\n    }\n\n    function removeUser(uint8 _userTurn)\n        external\n        atStage(Stages.Setup) {\n        require(msg.sender == admin || msg.sender == addressOrderList[_userTurn-1],\n\t\t\t\t\t\"No tienes autorizacion para eliminar a este usuario\"\n\t\t\t\t);\n        require(addressOrderList[_userTurn-1]!=address(0),\n\t\t\t\t\t\"Este turno esta vacio\"\n\t\t\t\t);\n\t\t\t\trequire(admin != addressOrderList[_userTurn-1],\n\t\t\t\t\t\"No puedes eliminar al administrador de la ronda\"\n\t\t\t\t);\n        address removeAddress=addressOrderList[_userTurn-1];\n        if(users[removeAddress].availableCashIn >0){\n          //if user has cashIn available, send it back\n          uint256 availableCashInTemp = users[removeAddress].availableCashIn;\n          users[removeAddress].availableCashIn = 0;\n          totalCashIn = totalCashIn - availableCashInTemp;\n          transferTo(users[removeAddress].userAddr, availableCashInTemp);\n        }\n      addressOrderList[_userTurn-1]= address(0); //set address in turn to 0x00..\n      usersCounter --;\n      users[removeAddress].isActive = false;  // tendra que poner turno en 0?\n      emit RemoveUser(msg.sender, removeAddress, _userTurn);\n    }\n\n    function startRound() external onlyAdmin(admin) atStage(Stages.Setup) {\n        require(usersCounter == groupSize, \"Aun hay lugares sin asignar\");\n        stage = Stages.Save;\n        startTime = block.timestamp;\n    }\n\n    //Permite adelantar pagos o hacer abonos chiquitos\n    /*\n\t\tPrimero se verifica si hay pagos pendientes al da\n\t\ty se abonan, si sobra se verifica si se debe algo al CashIn y se abona\n\t\t*/\n    function addPayment(uint256 _payAmount)\n        external\n        isRegisteredUser(users[msg.sender].isActive)\n        atStage(Stages.Save) {\n        //users make the payment for the cycle\n        require(_payAmount <= futurePayments() && _payAmount > 0 , \"Pago incorrecto\");\n\n        //First transaction that will complete saving of currentTurn and will trigger next turn\n        uint8 realTurn = getRealTurn();\n        if (turn < realTurn){\n            completeSavingsAndAdvanceTurn(turn);\n        }\n\n        address userInTurn = addressOrderList[turn-1];\n        uint256 deposit = _payAmount;\n        users[msg.sender].unassignedPayments+= deposit;\n\n        uint256 obligation = obligationAtTime(msg.sender);\n        uint256 debtToTurn;\n        uint256 paymentToTurn;\n\n        //Detecting place to assign\n\n        //checking debt in current turn:\n\n        if (obligation <= users[msg.sender].assignedPayments){  //no hay deuda del turno corriente\n            debtToTurn = 0;\n        } else {  //hay deuda del turno corriente\n            debtToTurn = obligation - users[msg.sender].assignedPayments;\n\n        //checking debt in Total CashIn: (owedTotalCashIn)\n\n        //PAYMENTS: first: current turn debt, then totalCashIn\n\n            if (userInTurn != msg.sender) {\n                if (debtToTurn < deposit) {\n                    paymentToTurn = debtToTurn;\n                } else {\n                    paymentToTurn = deposit;\n                }\n\n                //Si no he cubierto todos mis pagos hasta el da se asignan al usuario en turno.\n                users[msg.sender].unassignedPayments -= paymentToTurn;\n                users[userInTurn].availableSavings += paymentToTurn;\n                users[msg.sender].assignedPayments +=  paymentToTurn;\n            }\n        }\n\n        //PAGO DEUDA DEL CASHIN TOTAL\n        if (users[msg.sender].owedTotalCashIn > 0 && users[msg.sender].unassignedPayments > 0 ){\n            uint256 paymentTotalCashIn;\n\t\t\t\t\t\t//unnasigned excede o iguala la deuda del cashIn\n            if (users[msg.sender].owedTotalCashIn <= users[msg.sender].unassignedPayments) {\n                paymentTotalCashIn = users[msg.sender].owedTotalCashIn;\n            } else {\n                paymentTotalCashIn = users[msg.sender].unassignedPayments;  //cubre parcialmente la deuda del cashIn\n            }\n\n            users[msg.sender].unassignedPayments -= paymentTotalCashIn;\n            totalCashIn = totalCashIn + paymentTotalCashIn;\n            users[msg.sender].owedTotalCashIn -= paymentTotalCashIn;\n        }\n\n        //update my own availableCashIn\n        if (users[msg.sender].owedTotalCashIn < cashIn){\n            users[msg.sender].availableCashIn = cashIn - users[msg.sender].owedTotalCashIn;\n        } else{\n            users[msg.sender].availableCashIn = 0;\n        }\n        (bool success) = transferFrom(address(this), _payAmount);\n        emit PayTurn(msg.sender, success);\n    }\n\n    function withdrawTurn()\n        external\n        isRegisteredUser(users[msg.sender].isActive)\n        atStage(Stages.Save)\n    {\n        uint8 senderTurn = users[msg.sender].userTurn;\n\n        uint8 realTurn = getRealTurn();\n        require(realTurn > senderTurn, \"Espera a llegar a tu turno\"); //turn = turno actual de la rosca\n        require(users[msg.sender].withdrewAmount == 0 );\n        //First transaction that will complete saving of currentTurn and will trigger next turn\n        //Because this runs each user action, we are sure the user in turn has its availableSavings complete\n        if (turn < realTurn){\n            completeSavingsAndAdvanceTurn(turn);\n        }\n\n        // Paga adeudos pendientes de availableSavings\n        if (obligationAtTime(msg.sender) > users[msg.sender].assignedPayments){\n            payLateFromSavings(msg.sender);\n        }\n\n        uint256 savedAmountTemp = 0;\n        savedAmountTemp = users[msg.sender].availableSavings;\n        users[msg.sender].availableSavings = 0;\n        users[msg.sender].withdrewAmount += savedAmountTemp;\n        (bool success) = transferTo(users[msg.sender].userAddr, savedAmountTemp);\n        emit WithdrawFunds(users[msg.sender].userAddr, savedAmountTemp, success);\n        if (outOfFunds){\n            stage = Stages.Emergency;\n        }\n    }\n\n    function transferFrom(address _to, uint256 _payAmount) internal returns (bool) {\n      bool success = cUSD.transferFrom(msg.sender, _to, _payAmount);\n      return success;\n    }\n\n    function transferTo(address _to, uint256 _amount) internal returns (bool) {\n      bool success = cUSD.transfer(_to, _amount);\n      return success;\n    }\n    //Esta funcion se verifica que daba correr cada que se reliza un movimiento por parte de un usuario,\n    //solo correr si es la primera vez que se corre en un turno, ya sea accin de retiro o pago.\n    function completeSavingsAndAdvanceTurn(uint8 turno) private {\n        address userInTurn = addressOrderList[turno-1];\n        for (uint8 i = 0; i < groupSize; i++) {\n            address useraddress = addressOrderList[i]; // 3\n            uint256 obligation = obligationAtTime(useraddress);\n            uint256 debtUser;\n\n            if(useraddress != userInTurn){\n\n                //Assign unassignedPayments\n                if (obligation > users[useraddress].assignedPayments){  //Si hay monto pendiente por cubrir el turno\n                    debtUser = obligation - users[useraddress].assignedPayments; //Monto pendiente por asignar\n                } else {\n                    debtUser = 0;\n                }\n                //Si el usuario debe\n                if (debtUser>0){\n                    //Asignamos pagos pendientes\n                    if (users[useraddress].unassignedPayments > 0) {\n                        uint256 toAssign;\n\t\t\t\t\t\t\t\t\t\t\t\t//se paga toda la deuda y sigue con saldo a favor\n                        if (debtUser < users[useraddress].unassignedPayments) {\n                            toAssign = debtUser;\n                        } else {\n                            toAssign = users[useraddress].unassignedPayments;\n                        }\n                        users[useraddress].unassignedPayments = users[useraddress].unassignedPayments - toAssign;\n                        users[useraddress].assignedPayments = users[useraddress].assignedPayments + toAssign;\n                        users[userInTurn].availableSavings = users[userInTurn].availableSavings + toAssign;\n                        //Recalculamos la deuda despus de asingacin para pagar con deuda\n                        debtUser =  obligationAtTime(useraddress) - users[useraddress].assignedPayments;\n                    }\n\n                    // Si an sigue habiendo deuda se paga del cashIn\n                    if (debtUser > 0) {\n                        users[useraddress].latePayments++; //Se marca deudor\n                        emit LatePayment(users[msg.sender].userAddr, turn);\n                        if (totalCashIn >= debtUser) {\n                            totalCashIn -= debtUser;\n                            users[useraddress].assignedPayments += debtUser;\n                            users[useraddress].owedTotalCashIn += debtUser;  //Lo que se debe a la bolsa de CashIn\n                            users[userInTurn].availableSavings += debtUser;\n\n                        } else {   //se traban los fondos\n                            outOfFunds = true;\n                        }\n                        //update my own availableCashIn\n                        if (users[useraddress].owedTotalCashIn < cashIn){\n                            users[useraddress].availableCashIn = cashIn - users[useraddress].owedTotalCashIn;\n                        } else {\n                            users[useraddress].availableCashIn = 0;\n                        }\n\n                    }\n                }\n            }\n        }\n        turn++;\n    }\n\n    function payLateFromSavings(address _userAddress) internal {\n        if (users[_userAddress].availableSavings >= users[_userAddress].owedTotalCashIn){\n            users[_userAddress].availableSavings -= users[_userAddress].owedTotalCashIn;\n            totalCashIn += users[_userAddress].owedTotalCashIn;\n            users[_userAddress].availableCashIn = cashIn;\n            users[_userAddress].owedTotalCashIn = 0;\n        }\n        else{\n            outOfFunds = true;\n        }\n\n    }\n\n    function emergencyWithdraw() public atStage(Stages.Emergency) {\n        require (cUSD.balanceOf(address(this)) > 0, \"No hay saldo por retirar\");\n        for (uint8 turno = turn; turno <= groupSize; turno++) {\n            completeSavingsAndAdvanceTurn(turno);\n        }\n        uint256 saldoAtorado = cUSD.balanceOf(address(this));\n        for (uint8 i = 0; i < groupSize; i++) {\n                address userAddr = addressOrderList[i];\n                payLateFromSavings(userAddr);\n                if (users[userAddr].withdrewAmount == 0 && saldoAtorado > 0){\n                    if (users[userAddr].availableSavings <= saldoAtorado){\n                        transferTo(users[userAddr].userAddr, users[userAddr].availableSavings);\n                        saldoAtorado -= users[userAddr].availableSavings;\n                    }\n                    else{\n                        transferTo(users[userAddr].userAddr, saldoAtorado);\n                    }\n                }\n        }\n        if (saldoAtorado > 0){\n            transferTo(devFund, saldoAtorado);\n        }\n        emit EmergencyWithdraw(address(this), saldoAtorado);\n    }\n\n    function endRound() public atStage(Stages.Save) {\n        require(getRealTurn() > groupSize, \"No ha terminado la ronda\");\n        for (uint8 turno = turn; turno <= groupSize; turno++) {\n            completeSavingsAndAdvanceTurn(turno);\n        }\n\n        uint256 sumAvailableCashIn = 0;\n        for (uint8 i = 0; i < groupSize; i++) {\n            address userAddr = addressOrderList[i];\n            if(users[userAddr].availableSavings >= users[userAddr].owedTotalCashIn){\n                payLateFromSavings(userAddr);\n            }\n            sumAvailableCashIn += users[userAddr].availableCashIn;\n        }\n        if(!outOfFunds) {\n            uint256 totalAdminFee = 0;\n            uint256 amountDevFund = 0;\n            for (uint8 i = 0; i < groupSize; i++) {\n                address userAddr = addressOrderList[i];\n                uint256 cashInReturn = ((users[userAddr].availableCashIn * totalCashIn)/sumAvailableCashIn);\n                users[userAddr].availableCashIn = 0;\n                users[userAddr].isActive = false;\n                uint256 amountTempAdmin=(cashInReturn*adminFee)/100;\n                totalAdminFee += amountTempAdmin;\n                uint256 amountTempUsr = cashInReturn - amountTempAdmin + users[userAddr].availableSavings;\n                users[userAddr].availableSavings = 0;\n                transferTo(users[userAddr].userAddr, amountTempUsr);\n                uint256 reward = (10 * cashInReturn * users[userAddr].userTurn * users[userAddr].userTurn);\n                BLX.mint(users[userAddr].userAddr, reward);\n                amountDevFund += reward/10;\n                cashInReturn = 0;\n                reward = 0;\n                emit EndRound(address(this), startTime, block.timestamp);\n            }\n            transferTo(admin, totalAdminFee);\n            BLX.mint(devFund, amountDevFund);\n            stage = Stages.Finished;\n        } else {\n          for (uint8 i = 0; i < groupSize; i++) {\n                address userAddr = addressOrderList[i];\n                uint256 amountTemp = users[userAddr].availableSavings + ((users[userAddr].availableCashIn * totalCashIn)/sumAvailableCashIn);\n                users[userAddr].availableSavings = 0;\n                users[userAddr].availableCashIn = 0;\n                users[userAddr].isActive = false;\n                amountTemp = 0;\n            }\n            stage = Stages.Emergency;\n        }\n\n    }\n\n    //Getters\n    //Cunto le falta por ahorrar total\n    function futurePayments() public view returns (uint256) {\n\t\t\tuint256 totalSaving = (saveAmount*(groupSize-1));\n\t\t\tuint256 futurePayment = totalSaving - users[msg.sender].assignedPayments - users[msg.sender].unassignedPayments + users[msg.sender].owedTotalCashIn;\n\t\t\treturn futurePayment;\n    }\n\n    //Returns the total payment the user should have paid at the moment\n    function obligationAtTime(address userAddress) public view returns (uint256) {\n\t\t\tuint256 expectedObligation;\n            if (users[userAddress].userTurn <= turn){\n\t\t\t\t\texpectedObligation =  saveAmount * (turn-1);\n\t\t\t} else{\n\t\t\t\t\texpectedObligation =  saveAmount * (turn);\n\t\t\t}\n            return expectedObligation;\n    }\n\n    function getRealTurn() public view atStage(Stages.Save) returns (uint8){\n\t\t\tuint8 realTurn = uint8((block.timestamp - startTime) / payTime)+1;\n\t\t\treturn (realTurn);\n    }\n\n    function getUserAvailableCashIn(uint8 _userTurn) public view returns (uint256){\n\t\t\taddress userAddr = addressOrderList[_userTurn-1];\n\t\t\treturn(users[userAddr].availableCashIn);\n    }\n\n    function getUserAvailableSavings(uint8 _userTurn) public view returns (uint256){\n\t\t\taddress userAddr = addressOrderList[_userTurn-1];\n\t\t\treturn(users[userAddr].availableSavings);\n    }\n\n    function getUserAmountPaid(uint8 _userTurn) public view returns (uint256){\n\t\t\taddress userAddr = addressOrderList[_userTurn-1];\n\t\t\treturn(users[userAddr].assignedPayments);\n    }\n\n    function getUserUnassignedPayments(uint8 _userTurn) public view returns (uint256){\n\t\t\taddress userAddr = addressOrderList[_userTurn-1];\n\t\t\treturn(users[userAddr].unassignedPayments);\n    }\n\n    function getUserLatePayments(uint8 _userTurn) public view returns (uint8){\n\t\t\taddress userAddr = addressOrderList[_userTurn-1];\n\t\t\treturn(users[userAddr].latePayments);\n    }\n\n    function getUserOwedTotalCashIn(uint8 _userTurn) public view returns (uint256){\n\t\t\taddress userAddr = addressOrderList[_userTurn-1];\n\t\t\treturn(users[userAddr].owedTotalCashIn);\n    }\n\n    function getUserIsActive(uint8 _userTurn) public view returns (bool){\n\t\t\taddress userAddr = addressOrderList[_userTurn-1];\n\t\t\treturn(users[userAddr].isActive);\n    }\n}\n",
  "sourcePath": "/Users/artur/Desktop/Bloinx/bloinx-contracts/contracts/SavingGroups.sol",
  "compiler": {
    "name": "solc",
    "version": "0.8.15+commit.e14f2714.Emscripten.clang"
  },
  "schemaVersion": "3.4.2",
  "updatedAt": "2022-06-22T18:38:41.936Z",
  "devdoc": {
    "kind": "dev",
    "methods": {},
    "version": 1
  },
  "userdoc": {
    "kind": "user",
    "methods": {},
    "version": 1
  }
}