{
  "contractName": "SavingGroups",
  "abi": [
    {
      "inputs": [
        {
          "internalType": "uint256",
          "name": "_cashIn",
          "type": "uint256"
        },
        {
          "internalType": "uint256",
          "name": "_saveAmount",
          "type": "uint256"
        },
        {
          "internalType": "uint256",
          "name": "_groupSize",
          "type": "uint256"
        },
        {
          "internalType": "address payable",
          "name": "_admin",
          "type": "address"
        },
        {
          "internalType": "uint256",
          "name": "_payTime",
          "type": "uint256"
        }
      ],
      "stateMutability": "nonpayable",
      "type": "constructor"
    },
    {
      "anonymous": false,
      "inputs": [
        {
          "indexed": true,
          "internalType": "address",
          "name": "user",
          "type": "address"
        },
        {
          "indexed": true,
          "internalType": "uint256",
          "name": "turn",
          "type": "uint256"
        }
      ],
      "name": "PayLateTurn",
      "type": "event"
    },
    {
      "anonymous": false,
      "inputs": [
        {
          "indexed": true,
          "internalType": "address",
          "name": "user",
          "type": "address"
        }
      ],
      "name": "PayTurn",
      "type": "event"
    },
    {
      "anonymous": false,
      "inputs": [
        {
          "indexed": true,
          "internalType": "address",
          "name": "user",
          "type": "address"
        },
        {
          "indexed": true,
          "internalType": "uint256",
          "name": "turn",
          "type": "uint256"
        }
      ],
      "name": "RegisterUser",
      "type": "event"
    },
    {
      "anonymous": false,
      "inputs": [
        {
          "indexed": true,
          "internalType": "address",
          "name": "user",
          "type": "address"
        },
        {
          "indexed": true,
          "internalType": "uint256",
          "name": "turn",
          "type": "uint256"
        }
      ],
      "name": "RemoveUser",
      "type": "event"
    },
    {
      "inputs": [
        {
          "internalType": "uint256",
          "name": "",
          "type": "uint256"
        }
      ],
      "name": "addressOrderList",
      "outputs": [
        {
          "internalType": "address",
          "name": "",
          "type": "address"
        }
      ],
      "stateMutability": "view",
      "type": "function"
    },
    {
      "inputs": [],
      "name": "admin",
      "outputs": [
        {
          "internalType": "address payable",
          "name": "",
          "type": "address"
        }
      ],
      "stateMutability": "view",
      "type": "function"
    },
    {
      "inputs": [],
      "name": "cashIn",
      "outputs": [
        {
          "internalType": "uint256",
          "name": "",
          "type": "uint256"
        }
      ],
      "stateMutability": "view",
      "type": "function"
    },
    {
      "inputs": [],
      "name": "devAddress",
      "outputs": [
        {
          "internalType": "address payable",
          "name": "",
          "type": "address"
        }
      ],
      "stateMutability": "view",
      "type": "function"
    },
    {
      "inputs": [],
      "name": "feeCost",
      "outputs": [
        {
          "internalType": "uint256",
          "name": "",
          "type": "uint256"
        }
      ],
      "stateMutability": "view",
      "type": "function"
    },
    {
      "inputs": [],
      "name": "groupSize",
      "outputs": [
        {
          "internalType": "uint256",
          "name": "",
          "type": "uint256"
        }
      ],
      "stateMutability": "view",
      "type": "function"
    },
    {
      "inputs": [],
      "name": "payTime",
      "outputs": [
        {
          "internalType": "uint256",
          "name": "",
          "type": "uint256"
        }
      ],
      "stateMutability": "view",
      "type": "function"
    },
    {
      "inputs": [],
      "name": "saveAmount",
      "outputs": [
        {
          "internalType": "uint256",
          "name": "",
          "type": "uint256"
        }
      ],
      "stateMutability": "view",
      "type": "function"
    },
    {
      "inputs": [],
      "name": "stage",
      "outputs": [
        {
          "internalType": "enum SavingGroups.Stages",
          "name": "",
          "type": "uint8"
        }
      ],
      "stateMutability": "view",
      "type": "function"
    },
    {
      "inputs": [],
      "name": "startTime",
      "outputs": [
        {
          "internalType": "uint256",
          "name": "",
          "type": "uint256"
        }
      ],
      "stateMutability": "view",
      "type": "function"
    },
    {
      "inputs": [],
      "name": "totalCashIn",
      "outputs": [
        {
          "internalType": "uint256",
          "name": "",
          "type": "uint256"
        }
      ],
      "stateMutability": "view",
      "type": "function"
    },
    {
      "inputs": [],
      "name": "turn",
      "outputs": [
        {
          "internalType": "uint256",
          "name": "",
          "type": "uint256"
        }
      ],
      "stateMutability": "view",
      "type": "function"
    },
    {
      "inputs": [
        {
          "internalType": "address",
          "name": "",
          "type": "address"
        }
      ],
      "name": "users",
      "outputs": [
        {
          "internalType": "address payable",
          "name": "userAddr",
          "type": "address"
        },
        {
          "internalType": "uint8",
          "name": "userTurn",
          "type": "uint8"
        },
        {
          "internalType": "uint256",
          "name": "availableCashIn",
          "type": "uint256"
        },
        {
          "internalType": "uint256",
          "name": "availableSavings",
          "type": "uint256"
        },
        {
          "internalType": "uint256",
          "name": "amountPaid",
          "type": "uint256"
        },
        {
          "internalType": "uint256",
          "name": "unassignedPayments",
          "type": "uint256"
        },
        {
          "internalType": "uint8",
          "name": "latePayments",
          "type": "uint8"
        },
        {
          "internalType": "uint256",
          "name": "owedTotalCashIn",
          "type": "uint256"
        },
        {
          "internalType": "bool",
          "name": "isActive",
          "type": "bool"
        }
      ],
      "stateMutability": "view",
      "type": "function"
    },
    {
      "inputs": [
        {
          "internalType": "uint8",
          "name": "_userTurn",
          "type": "uint8"
        }
      ],
      "name": "registerUser",
      "outputs": [],
      "stateMutability": "payable",
      "type": "function"
    },
    {
      "inputs": [
        {
          "internalType": "uint256",
          "name": "_userTurn",
          "type": "uint256"
        }
      ],
      "name": "removeUser",
      "outputs": [],
      "stateMutability": "payable",
      "type": "function"
    },
    {
      "inputs": [],
      "name": "startRound",
      "outputs": [],
      "stateMutability": "nonpayable",
      "type": "function"
    },
    {
      "inputs": [],
      "name": "addPayment",
      "outputs": [],
      "stateMutability": "payable",
      "type": "function"
    },
    {
      "inputs": [],
      "name": "withdrawTurn",
      "outputs": [],
      "stateMutability": "payable",
      "type": "function"
    },
    {
      "inputs": [],
      "name": "futurePayments",
      "outputs": [
        {
          "internalType": "uint256",
          "name": "",
          "type": "uint256"
        }
      ],
      "stateMutability": "view",
      "type": "function"
    },
    {
      "inputs": [
        {
          "internalType": "address",
          "name": "userAddress",
          "type": "address"
        }
      ],
      "name": "obligationAtTime",
      "outputs": [
        {
          "internalType": "uint256",
          "name": "",
          "type": "uint256"
        }
      ],
      "stateMutability": "view",
      "type": "function"
    },
    {
      "inputs": [],
      "name": "getRealTurn",
      "outputs": [
        {
          "internalType": "uint8",
          "name": "",
          "type": "uint8"
        }
      ],
      "stateMutability": "view",
      "type": "function"
    },
    {
      "inputs": [],
      "name": "endRound",
      "outputs": [],
      "stateMutability": "nonpayable",
      "type": "function"
    },
    {
      "inputs": [
        {
          "internalType": "uint8",
          "name": "_userTurn",
          "type": "uint8"
        }
      ],
      "name": "getUserTurn",
      "outputs": [
        {
          "internalType": "uint8",
          "name": "",
          "type": "uint8"
        }
      ],
      "stateMutability": "view",
      "type": "function"
    },
    {
      "inputs": [
        {
          "internalType": "uint8",
          "name": "_userTurn",
          "type": "uint8"
        }
      ],
      "name": "getUserAvailableCashIn",
      "outputs": [
        {
          "internalType": "uint256",
          "name": "",
          "type": "uint256"
        }
      ],
      "stateMutability": "view",
      "type": "function"
    },
    {
      "inputs": [
        {
          "internalType": "uint8",
          "name": "_userTurn",
          "type": "uint8"
        }
      ],
      "name": "getUserAvailableSavings",
      "outputs": [
        {
          "internalType": "uint256",
          "name": "",
          "type": "uint256"
        }
      ],
      "stateMutability": "view",
      "type": "function"
    },
    {
      "inputs": [
        {
          "internalType": "uint8",
          "name": "_userTurn",
          "type": "uint8"
        }
      ],
      "name": "getUserAmountPaid",
      "outputs": [
        {
          "internalType": "uint256",
          "name": "",
          "type": "uint256"
        }
      ],
      "stateMutability": "view",
      "type": "function"
    },
    {
      "inputs": [
        {
          "internalType": "uint8",
          "name": "_userTurn",
          "type": "uint8"
        }
      ],
      "name": "getUserUnassignedPayments",
      "outputs": [
        {
          "internalType": "uint256",
          "name": "",
          "type": "uint256"
        }
      ],
      "stateMutability": "view",
      "type": "function"
    },
    {
      "inputs": [
        {
          "internalType": "uint8",
          "name": "_userTurn",
          "type": "uint8"
        }
      ],
      "name": "getUserLatePayments",
      "outputs": [
        {
          "internalType": "uint8",
          "name": "",
          "type": "uint8"
        }
      ],
      "stateMutability": "view",
      "type": "function"
    },
    {
      "inputs": [
        {
          "internalType": "uint8",
          "name": "_userTurn",
          "type": "uint8"
        }
      ],
      "name": "getUserOwedTotalCashIn",
      "outputs": [
        {
          "internalType": "uint256",
          "name": "",
          "type": "uint256"
        }
      ],
      "stateMutability": "view",
      "type": "function"
    },
    {
      "inputs": [
        {
          "internalType": "uint8",
          "name": "_userTurn",
          "type": "uint8"
        }
      ],
      "name": "getUserIsActive",
      "outputs": [
        {
          "internalType": "bool",
          "name": "",
          "type": "bool"
        }
      ],
      "stateMutability": "view",
      "type": "function"
    }
  ],
  "bytecode": "0x608060405260006005556001600655600060095562093a80600b556000600c553480156200002c57600080fd5b50604051620042103803806200421083398181016040528101906200005291906200035b565b600073ffffffffffffffffffffffffffffffffffffffff168273ffffffffffffffffffffffffffffffffffffffff161415620000c5576040517f08c379a0000000000000000000000000000000000000000000000000000000008152600401620000bc9062000559565b60405180910390fd5b600183118015620000d75750600a8311155b62000119576040517f08c379a0000000000000000000000000000000000000000000000000000000008152600401620001109062000515565b60405180910390fd5b81600160006101000a81548173ffffffffffffffffffffffffffffffffffffffff021916908373ffffffffffffffffffffffffffffffffffffffff160217905550670de0b6b3a76400008502600281905550670de0b6b3a76400008402600381905550826004819055506000600a60006101000a81548160ff02191690836002811115620001a357fe5b02179055508267ffffffffffffffff81118015620001c057600080fd5b50604051908082528060200260200182016040528015620001f05781602001602082028036833780820191505090505b5060089080519060200190620002089291906200027f565b50600081116200024f576040517f08c379a0000000000000000000000000000000000000000000000000000000008152600401620002469062000537565b60405180910390fd5b806201518002600b819055506101f4612710600354816200026c57fe5b0402600c819055505050505050620005fe565b828054828255906000526020600020908101928215620002fb579160200282015b82811115620002fa5782518260006101000a81548173ffffffffffffffffffffffffffffffffffffffff021916908373ffffffffffffffffffffffffffffffffffffffff16021790555091602001919060010190620002a0565b5b5090506200030a91906200030e565b5090565b5b80821115620003295760008160009055506001016200030f565b5090565b6000815190506200033e81620005ca565b92915050565b6000815190506200035581620005e4565b92915050565b600080600080600060a086880312156200037457600080fd5b6000620003848882890162000344565b9550506020620003978882890162000344565b9450506040620003aa8882890162000344565b9350506060620003bd888289016200032d565b9250506080620003d08882890162000344565b9150509295509295909350565b6000620003ec603e836200057b565b91507f456c2074616d616e696f2064656c20677275706f206465626520736572206d6160008301527f796f72206120756e6f2079206d656e6f72206f20696775616c206120313000006020830152604082019050919050565b6000620004546030836200057b565b91507f456c207469656d706f2070617261207061676172206e6f20707565646520736560008301527f72206d656e6f72206120756e20646961000000000000000000000000000000006020830152604082019050919050565b6000620004bc6030836200057b565b91507f4c6120646972656363696f6e2064656c2061646d696e6973747261646f72206e60008301527f6f20707565646520736572206365726f000000000000000000000000000000006020830152604082019050919050565b600060208201905081810360008301526200053081620003dd565b9050919050565b60006020820190508181036000830152620005528162000445565b9050919050565b600060208201905081810360008301526200057481620004ad565b9050919050565b600082825260208201905092915050565b60006200059982620005a0565b9050919050565b600073ffffffffffffffffffffffffffffffffffffffff82169050919050565b6000819050919050565b620005d5816200058c565b8114620005e157600080fd5b50565b620005ef81620005c0565b8114620005fb57600080fd5b50565b613c02806200060e6000396000f3fe6080604052600436106101cd5760003560e01c806361a575dc116100f75780638b29990311610095578063b4bde59e11610064578063b4bde59e14610664578063c040e6b81461068f578063e8f49631146106ba578063f851a440146106f7576101cd565b80638b2999031461058c578063a0a8427e146105b7578063a87430ba146105f4578063b4501f3914610639576101cd565b8063749aa2d9116100d1578063749aa2d9146104e25780637826e78f146104f957806378e97925146105245780638930361d1461054f576101cd565b806361a575dc1461044f57806363b635ea1461048c578063743c81ab146104b7576101cd565b806330fceb6c1161016f578063504fc51d1161013e578063504fc51d146103815780635394dda8146103be57806355e3f086146103fb5780635b6397e114610412576101cd565b806330fceb6c146102d25780633ad10ef6146102dc5780634210a8d114610307578063466afa0d14610344576101cd565b80631e580615116101ab5780631e580615146102475780632055baf41461027257806322d3e8f91461029d5780632d50e80d146102a7576101cd565b806302b8c8cd146101d257806303ee3061146101ee57806311dc47031461022b575b600080fd5b6101ec60048036038101906101e7919061358b565b610722565b005b3480156101fa57600080fd5b506102156004803603810190610210919061358b565b610c3f565b6040516102229190613a79565b60405180910390f35b61024560048036038101906102409190613562565b610ccc565b005b34801561025357600080fd5b5061025c61111e565b6040516102699190613a79565b60405180910390f35b34801561027e57600080fd5b50610287611124565b6040516102949190613a94565b60405180910390f35b6102a56111ae565b005b3480156102b357600080fd5b506102bc611b13565b6040516102c99190613a79565b60405180910390f35b6102da611b19565b005b3480156102e857600080fd5b506102f1611ea3565b6040516102fe919061389b565b60405180910390f35b34801561031357600080fd5b5061032e6004803603810190610329919061358b565b611ebb565b60405161033b9190613a79565b60405180910390f35b34801561035057600080fd5b5061036b6004803603810190610366919061358b565b611f48565b6040516103789190613a94565b60405180910390f35b34801561038d57600080fd5b506103a860048036038101906103a39190613539565b611fe2565b6040516103b59190613a79565b60405180910390f35b3480156103ca57600080fd5b506103e560048036038101906103e09190613562565b612063565b6040516103f29190613880565b60405180910390f35b34801561040757600080fd5b506104106120a2565b005b34801561041e57600080fd5b506104396004803603810190610434919061358b565b612227565b6040516104469190613a79565b60405180910390f35b34801561045b57600080fd5b506104766004803603810190610471919061358b565b6122b4565b6040516104839190613a94565b60405180910390f35b34801561049857600080fd5b506104a161234e565b6040516104ae9190613a79565b60405180910390f35b3480156104c357600080fd5b506104cc612354565b6040516104d99190613a79565b60405180910390f35b3480156104ee57600080fd5b506104f761235a565b005b34801561050557600080fd5b5061050e612748565b60405161051b9190613a79565b60405180910390f35b34801561053057600080fd5b5061053961274e565b6040516105469190613a79565b60405180910390f35b34801561055b57600080fd5b506105766004803603810190610571919061358b565b612754565b6040516105839190613943565b60405180910390f35b34801561059857600080fd5b506105a16127ee565b6040516105ae9190613a79565b60405180910390f35b3480156105c357600080fd5b506105de60048036038101906105d9919061358b565b6127f4565b6040516105eb9190613a79565b60405180910390f35b34801561060057600080fd5b5061061b60048036038101906106169190613539565b612881565b604051610630999897969594939291906138b6565b60405180910390f35b34801561064557600080fd5b5061064e612916565b60405161065b9190613a79565b60405180910390f35b34801561067057600080fd5b506106796129b8565b6040516106869190613a79565b60405180910390f35b34801561069b57600080fd5b506106a46129be565b6040516106b1919061395e565b60405180910390f35b3480156106c657600080fd5b506106e160048036038101906106dc919061358b565b6129d1565b6040516106ee9190613a79565b60405180910390f35b34801561070357600080fd5b5061070c612a5e565b604051610719919061389b565b60405180910390f35b34600254600c54600081830190508084146107a5576040517f08c379a00000000000000000000000000000000000000000000000000000000081526004018080602001828103825260108152602001807f4d6f6e746f20696e636f72726563746f0000000000000000000000000000000081525060200191505060405180910390fd5b60008060028111156107b357fe5b600a60009054906101000a900460ff1660028111156107ce57fe5b1461080e576040517f08c379a0000000000000000000000000000000000000000000000000000000008152600401610805906139b9565b60405180910390fd5b6000803373ffffffffffffffffffffffffffffffffffffffff1673ffffffffffffffffffffffffffffffffffffffff16815260200190815260200160002060070160009054906101000a900460ff161561089d576040517f08c379a000000000000000000000000000000000000000000000000000000000815260040161089490613979565b60405180910390fd5b600454600554106108e3576040517f08c379a00000000000000000000000000000000000000000000000000000000081526004016108da90613a19565b60405180910390fd5b600073ffffffffffffffffffffffffffffffffffffffff1660086001880360ff168154811061090e57fe5b9060005260206000200160009054906101000a900473ffffffffffffffffffffffffffffffffffffffff1673ffffffffffffffffffffffffffffffffffffffff161461098f576040517f08c379a000000000000000000000000000000000000000000000000000000000815260040161098690613999565b60405180910390fd5b6005600081548092919060010191905055506040518061012001604052803373ffffffffffffffffffffffffffffffffffffffff1681526020018760ff1681526020016002548152602001600081526020016000815260200160008152602001600060ff16815260200160008152602001600115158152506000803373ffffffffffffffffffffffffffffffffffffffff1673ffffffffffffffffffffffffffffffffffffffff16815260200190815260200160002060008201518160000160006101000a81548173ffffffffffffffffffffffffffffffffffffffff021916908373ffffffffffffffffffffffffffffffffffffffff16021790555060208201518160000160146101000a81548160ff021916908360ff16021790555060408201518160010155606082015181600201556080820151816003015560a0820151816004015560c08201518160050160006101000a81548160ff021916908360ff16021790555060e082015181600601556101008201518160070160006101000a81548160ff02191690831515021790555090505034600954016009819055506000600254340390507384052cec1d08cf2eb93ffbab096b88b455bb9eee73ffffffffffffffffffffffffffffffffffffffff166108fc829081150290604051600060405180830381858888f19350505050158015610b92573d6000803e3d6000fd5b503360086001890360ff1681548110610ba757fe5b9060005260206000200160006101000a81548173ffffffffffffffffffffffffffffffffffffffff021916908373ffffffffffffffffffffffffffffffffffffffff1602179055508660ff163373ffffffffffffffffffffffffffffffffffffffff167f721da55c3f9ea8457b79364e644713bdb29658b1a884fe72b2503e61fa80c19760405160405180910390a350505050505050565b60008060086001840360ff1681548110610c5557fe5b9060005260206000200160009054906101000a900473ffffffffffffffffffffffffffffffffffffffff1690506000808273ffffffffffffffffffffffffffffffffffffffff1673ffffffffffffffffffffffffffffffffffffffff16815260200190815260200160002060060154915050919050565b600160009054906101000a900473ffffffffffffffffffffffffffffffffffffffff168073ffffffffffffffffffffffffffffffffffffffff163373ffffffffffffffffffffffffffffffffffffffff1614610d73576040517f08c379a0000000000000000000000000000000000000000000000000000000008152600401808060200182810382526025815260200180613ba86025913960400191505060405180910390fd5b6000806002811115610d8157fe5b600a60009054906101000a900460ff166002811115610d9c57fe5b14610ddc576040517f08c379a0000000000000000000000000000000000000000000000000000000008152600401610dd3906139b9565b60405180910390fd5b600073ffffffffffffffffffffffffffffffffffffffff1660086001850381548110610e0457fe5b9060005260206000200160009054906101000a900473ffffffffffffffffffffffffffffffffffffffff1673ffffffffffffffffffffffffffffffffffffffff161415610e86576040517f08c379a0000000000000000000000000000000000000000000000000000000008152600401610e7d906139d9565b60405180910390fd5b600060086001850381548110610e9857fe5b9060005260206000200160009054906101000a900473ffffffffffffffffffffffffffffffffffffffff16905060008060008373ffffffffffffffffffffffffffffffffffffffff1673ffffffffffffffffffffffffffffffffffffffff1681526020019081526020016000206001015411156110515760008060008373ffffffffffffffffffffffffffffffffffffffff1673ffffffffffffffffffffffffffffffffffffffff16815260200190815260200160002060010154905060008060008473ffffffffffffffffffffffffffffffffffffffff1673ffffffffffffffffffffffffffffffffffffffff1681526020019081526020016000206001018190555080600954036009819055506000808373ffffffffffffffffffffffffffffffffffffffff1673ffffffffffffffffffffffffffffffffffffffff16815260200190815260200160002060000160009054906101000a900473ffffffffffffffffffffffffffffffffffffffff1673ffffffffffffffffffffffffffffffffffffffff166108fc829081150290604051600060405180830381858888f1935050505015801561104e573d6000803e3d6000fd5b50505b60006008600186038154811061106357fe5b9060005260206000200160006101000a81548173ffffffffffffffffffffffffffffffffffffffff021916908373ffffffffffffffffffffffffffffffffffffffff1602179055506005600081548092919060019003919050555060008060008373ffffffffffffffffffffffffffffffffffffffff1673ffffffffffffffffffffffffffffffffffffffff16815260200190815260200160002060070160006101000a81548160ff02191690831515021790555050505050565b60025481565b6000600180600281111561113457fe5b600a60009054906101000a900460ff16600281111561114f57fe5b1461118f576040517f08c379a0000000000000000000000000000000000000000000000000000000008152600401611186906139b9565b60405180910390fd5b60006001600b546007544203816111a257fe5b04019050809250505090565b6000803373ffffffffffffffffffffffffffffffffffffffff1673ffffffffffffffffffffffffffffffffffffffff16815260200190815260200160002060070160009054906101000a900460ff166001151581151514611277576040517f08c379a00000000000000000000000000000000000000000000000000000000081526004018080602001828103825260158152602001807f5573756172696f206e6f207265676973747261646f000000000000000000000081525060200191505060405180910390fd5b600180600281111561128557fe5b600a60009054906101000a900460ff1660028111156112a057fe5b146112e0576040517f08c379a00000000000000000000000000000000000000000000000000000000081526004016112d7906139b9565b60405180910390fd5b6112e8612916565b34111561132a576040517f08c379a000000000000000000000000000000000000000000000000000000000815260040161132190613a39565b60405180910390fd5b6000611334611124565b90508060ff16600654101561134c5761134b612a84565b5b600060086001600654038154811061136057fe5b9060005260206000200160009054906101000a900473ffffffffffffffffffffffffffffffffffffffff1690506000349050806000803373ffffffffffffffffffffffffffffffffffffffff1673ffffffffffffffffffffffffffffffffffffffff1681526020019081526020016000206004016000828254019250508190555060006113ec33611fe2565b90506000806000803373ffffffffffffffffffffffffffffffffffffffff1673ffffffffffffffffffffffffffffffffffffffff168152602001908152602001600020600301548311611442576000915061166c565b6000803373ffffffffffffffffffffffffffffffffffffffff1673ffffffffffffffffffffffffffffffffffffffff16815260200190815260200160002060030154830391503373ffffffffffffffffffffffffffffffffffffffff168573ffffffffffffffffffffffffffffffffffffffff161461166b57838210156114cb578190506114cf565b8390505b806000803373ffffffffffffffffffffffffffffffffffffffff1673ffffffffffffffffffffffffffffffffffffffff16815260200190815260200160002060040154036000803373ffffffffffffffffffffffffffffffffffffffff1673ffffffffffffffffffffffffffffffffffffffff16815260200190815260200160002060040181905550806000808773ffffffffffffffffffffffffffffffffffffffff1673ffffffffffffffffffffffffffffffffffffffff16815260200190815260200160002060020154016000808773ffffffffffffffffffffffffffffffffffffffff1673ffffffffffffffffffffffffffffffffffffffff16815260200190815260200160002060020181905550806000803373ffffffffffffffffffffffffffffffffffffffff1673ffffffffffffffffffffffffffffffffffffffff16815260200190815260200160002060030154016000803373ffffffffffffffffffffffffffffffffffffffff1673ffffffffffffffffffffffffffffffffffffffff168152602001908152602001600020600301819055505b5b60008060003373ffffffffffffffffffffffffffffffffffffffff1673ffffffffffffffffffffffffffffffffffffffff168152602001908152602001600020600601541180156116fe575060008060003373ffffffffffffffffffffffffffffffffffffffff1673ffffffffffffffffffffffffffffffffffffffff16815260200190815260200160002060040154115b156118b25760008060003373ffffffffffffffffffffffffffffffffffffffff1673ffffffffffffffffffffffffffffffffffffffff168152602001908152602001600020600401546000803373ffffffffffffffffffffffffffffffffffffffff1673ffffffffffffffffffffffffffffffffffffffff16815260200190815260200160002060060154116117d7576000803373ffffffffffffffffffffffffffffffffffffffff1673ffffffffffffffffffffffffffffffffffffffff16815260200190815260200160002060060154905061181c565b6000803373ffffffffffffffffffffffffffffffffffffffff1673ffffffffffffffffffffffffffffffffffffffff1681526020019081526020016000206004015490505b806000803373ffffffffffffffffffffffffffffffffffffffff1673ffffffffffffffffffffffffffffffffffffffff16815260200190815260200160002060040154036000803373ffffffffffffffffffffffffffffffffffffffff1673ffffffffffffffffffffffffffffffffffffffff168152602001908152602001600020600401819055508060095401600981905550505b60008060003373ffffffffffffffffffffffffffffffffffffffff1673ffffffffffffffffffffffffffffffffffffffff1681526020019081526020016000206001015460025403905060008111801561194d575060008060003373ffffffffffffffffffffffffffffffffffffffff1673ffffffffffffffffffffffffffffffffffffffff16815260200190815260200160002060040154115b15611b085760008060003373ffffffffffffffffffffffffffffffffffffffff1673ffffffffffffffffffffffffffffffffffffffff1681526020019081526020016000206004015482116119a4578190506119e9565b6000803373ffffffffffffffffffffffffffffffffffffffff1673ffffffffffffffffffffffffffffffffffffffff1681526020019081526020016000206004015490505b806000803373ffffffffffffffffffffffffffffffffffffffff1673ffffffffffffffffffffffffffffffffffffffff16815260200190815260200160002060040154036000803373ffffffffffffffffffffffffffffffffffffffff1673ffffffffffffffffffffffffffffffffffffffff168152602001908152602001600020600401819055508060095401600981905550806000803373ffffffffffffffffffffffffffffffffffffffff1673ffffffffffffffffffffffffffffffffffffffff16815260200190815260200160002060010154016000803373ffffffffffffffffffffffffffffffffffffffff1673ffffffffffffffffffffffffffffffffffffffff16815260200190815260200160002060010181905550505b505050505050505050565b600b5481565b6000803373ffffffffffffffffffffffffffffffffffffffff1673ffffffffffffffffffffffffffffffffffffffff16815260200190815260200160002060070160009054906101000a900460ff166001151581151514611be2576040517f08c379a00000000000000000000000000000000000000000000000000000000081526004018080602001828103825260158152602001807f5573756172696f206e6f207265676973747261646f000000000000000000000081525060200191505060405180910390fd5b6001806002811115611bf057fe5b600a60009054906101000a900460ff166002811115611c0b57fe5b14611c4b576040517f08c379a0000000000000000000000000000000000000000000000000000000008152600401611c42906139b9565b60405180910390fd5b60008060003373ffffffffffffffffffffffffffffffffffffffff1673ffffffffffffffffffffffffffffffffffffffff16815260200190815260200160002060000160149054906101000a900460ff1690506000611ca8611124565b90508160ff168160ff1611611cf2576040517f08c379a0000000000000000000000000000000000000000000000000000000008152600401611ce9906139f9565b60405180910390fd5b8060ff166006541015611d0857611d07612a84565b5b6000803373ffffffffffffffffffffffffffffffffffffffff1673ffffffffffffffffffffffffffffffffffffffff16815260200190815260200160002060030154611d5333611fe2565b1115611d6357611d6233613299565b5b60008060003373ffffffffffffffffffffffffffffffffffffffff1673ffffffffffffffffffffffffffffffffffffffff16815260200190815260200160002060020154905060008060003373ffffffffffffffffffffffffffffffffffffffff1673ffffffffffffffffffffffffffffffffffffffff168152602001908152602001600020600201819055506000803373ffffffffffffffffffffffffffffffffffffffff1673ffffffffffffffffffffffffffffffffffffffff16815260200190815260200160002060000160009054906101000a900473ffffffffffffffffffffffffffffffffffffffff1673ffffffffffffffffffffffffffffffffffffffff166108fc829081150290604051600060405180830381858888f19350505050158015611e97573d6000803e3d6000fd5b50600090505050505050565b7384052cec1d08cf2eb93ffbab096b88b455bb9eee81565b60008060086001840360ff1681548110611ed157fe5b9060005260206000200160009054906101000a900473ffffffffffffffffffffffffffffffffffffffff1690506000808273ffffffffffffffffffffffffffffffffffffffff1673ffffffffffffffffffffffffffffffffffffffff16815260200190815260200160002060030154915050919050565b60008060086001840360ff1681548110611f5e57fe5b9060005260206000200160009054906101000a900473ffffffffffffffffffffffffffffffffffffffff1690506000808273ffffffffffffffffffffffffffffffffffffffff1673ffffffffffffffffffffffffffffffffffffffff16815260200190815260200160002060050160009054906101000a900460ff16915050919050565b6000806006546000808573ffffffffffffffffffffffffffffffffffffffff1673ffffffffffffffffffffffffffffffffffffffff16815260200190815260200160002060000160149054906101000a900460ff1660ff16116120505760016006540360035402905061205a565b6006546003540290505b80915050919050565b6008818154811061207357600080fd5b906000526020600020016000915054906101000a900473ffffffffffffffffffffffffffffffffffffffff1681565b600160009054906101000a900473ffffffffffffffffffffffffffffffffffffffff168073ffffffffffffffffffffffffffffffffffffffff163373ffffffffffffffffffffffffffffffffffffffff1614612149576040517f08c379a0000000000000000000000000000000000000000000000000000000008152600401808060200182810382526025815260200180613ba86025913960400191505060405180910390fd5b600080600281111561215757fe5b600a60009054906101000a900460ff16600281111561217257fe5b146121b2576040517f08c379a00000000000000000000000000000000000000000000000000000000081526004016121a9906139b9565b60405180910390fd5b600454600554146121f8576040517f08c379a00000000000000000000000000000000000000000000000000000000081526004016121ef90613a59565b60405180910390fd5b6001600a60006101000a81548160ff0219169083600281111561221757fe5b0217905550426007819055505050565b60008060086001840360ff168154811061223d57fe5b9060005260206000200160009054906101000a900473ffffffffffffffffffffffffffffffffffffffff1690506000808273ffffffffffffffffffffffffffffffffffffffff1673ffffffffffffffffffffffffffffffffffffffff16815260200190815260200160002060010154915050919050565b60008060086001840360ff16815481106122ca57fe5b9060005260206000200160009054906101000a900473ffffffffffffffffffffffffffffffffffffffff1690506000808273ffffffffffffffffffffffffffffffffffffffff1673ffffffffffffffffffffffffffffffffffffffff16815260200190815260200160002060000160149054906101000a900460ff16915050919050565b60045481565b60035481565b600180600281111561236857fe5b600a60009054906101000a900460ff16600281111561238357fe5b146123c3576040517f08c379a00000000000000000000000000000000000000000000000000000000081526004016123ba906139b9565b60405180910390fd5b6004546123ce611124565b60ff16116123db57600080fd5b6123e3612a84565b6000805b6004548160ff16101561249057600060088260ff168154811061240657fe5b9060005260206000200160009054906101000a900473ffffffffffffffffffffffffffffffffffffffff1690506000808273ffffffffffffffffffffffffffffffffffffffff1673ffffffffffffffffffffffffffffffffffffffff168152602001908152602001600020600101548301925061248281613299565b5080806001019150506123e7565b5060005b6004548160ff16101561271f57600060088260ff16815481106124b357fe5b9060005260206000200160009054906101000a900473ffffffffffffffffffffffffffffffffffffffff1690506000836000808473ffffffffffffffffffffffffffffffffffffffff1673ffffffffffffffffffffffffffffffffffffffff168152602001908152602001600020600101548161252c57fe5b049050600060095482026000808573ffffffffffffffffffffffffffffffffffffffff1673ffffffffffffffffffffffffffffffffffffffff1681526020019081526020016000206002015401905060008060008573ffffffffffffffffffffffffffffffffffffffff1673ffffffffffffffffffffffffffffffffffffffff1681526020019081526020016000206002018190555060008060008573ffffffffffffffffffffffffffffffffffffffff1673ffffffffffffffffffffffffffffffffffffffff168152602001908152602001600020600101819055506000808473ffffffffffffffffffffffffffffffffffffffff1673ffffffffffffffffffffffffffffffffffffffff16815260200190815260200160002060000160009054906101000a900473ffffffffffffffffffffffffffffffffffffffff1673ffffffffffffffffffffffffffffffffffffffff166108fc829081150290604051600060405180830381858888f193505050501580156126b0573d6000803e3d6000fd5b5060008060008573ffffffffffffffffffffffffffffffffffffffff1673ffffffffffffffffffffffffffffffffffffffff16815260200190815260200160002060070160006101000a81548160ff021916908315150217905550600090505050508080600101915050612494565b506002600a60006101000a81548160ff0219169083600281111561273f57fe5b02179055505050565b600c5481565b60075481565b60008060086001840360ff168154811061276a57fe5b9060005260206000200160009054906101000a900473ffffffffffffffffffffffffffffffffffffffff1690506000808273ffffffffffffffffffffffffffffffffffffffff1673ffffffffffffffffffffffffffffffffffffffff16815260200190815260200160002060070160009054906101000a900460ff16915050919050565b60065481565b60008060086001840360ff168154811061280a57fe5b9060005260206000200160009054906101000a900473ffffffffffffffffffffffffffffffffffffffff1690506000808273ffffffffffffffffffffffffffffffffffffffff1673ffffffffffffffffffffffffffffffffffffffff16815260200190815260200160002060020154915050919050565b60006020528060005260406000206000915090508060000160009054906101000a900473ffffffffffffffffffffffffffffffffffffffff16908060000160149054906101000a900460ff16908060010154908060020154908060030154908060040154908060050160009054906101000a900460ff16908060060154908060070160009054906101000a900460ff16905089565b60008060016004540360035402905060008060003373ffffffffffffffffffffffffffffffffffffffff1673ffffffffffffffffffffffffffffffffffffffff168152602001908152602001600020600401546000803373ffffffffffffffffffffffffffffffffffffffff1673ffffffffffffffffffffffffffffffffffffffff168152602001908152602001600020600301548303039050809250505090565b60095481565b600a60009054906101000a900460ff1681565b60008060086001840360ff16815481106129e757fe5b9060005260206000200160009054906101000a900473ffffffffffffffffffffffffffffffffffffffff1690506000808273ffffffffffffffffffffffffffffffffffffffff1673ffffffffffffffffffffffffffffffffffffffff16815260200190815260200160002060040154915050919050565b600160009054906101000a900473ffffffffffffffffffffffffffffffffffffffff1681565b6001806002811115612a9257fe5b600a60009054906101000a900460ff166002811115612aad57fe5b14612aed576040517f08c379a0000000000000000000000000000000000000000000000000000000008152600401612ae4906139b9565b60405180910390fd5b60005b6004548160ff16101561328357600060088260ff1681548110612b0f57fe5b9060005260206000200160009054906101000a900473ffffffffffffffffffffffffffffffffffffffff1690506000600860016006540381548110612b5057fe5b9060005260206000200160009054906101000a900473ffffffffffffffffffffffffffffffffffffffff1690506000612b8883611fe2565b905060008273ffffffffffffffffffffffffffffffffffffffff168473ffffffffffffffffffffffffffffffffffffffff1614613272576000808573ffffffffffffffffffffffffffffffffffffffff1673ffffffffffffffffffffffffffffffffffffffff16815260200190815260200160002060030154821115612c53576000808573ffffffffffffffffffffffffffffffffffffffff1673ffffffffffffffffffffffffffffffffffffffff1681526020019081526020016000206003015482039050612c58565b600090505b60008111156132715760008060008673ffffffffffffffffffffffffffffffffffffffff1673ffffffffffffffffffffffffffffffffffffffff168152602001908152602001600020600401541115612ee05760008060008673ffffffffffffffffffffffffffffffffffffffff1673ffffffffffffffffffffffffffffffffffffffff16815260200190815260200160002060040154821015612cfe57819050612d43565b6000808673ffffffffffffffffffffffffffffffffffffffff1673ffffffffffffffffffffffffffffffffffffffff1681526020019081526020016000206004015490505b806000808773ffffffffffffffffffffffffffffffffffffffff1673ffffffffffffffffffffffffffffffffffffffff16815260200190815260200160002060040154036000808773ffffffffffffffffffffffffffffffffffffffff1673ffffffffffffffffffffffffffffffffffffffff16815260200190815260200160002060040181905550806000808773ffffffffffffffffffffffffffffffffffffffff1673ffffffffffffffffffffffffffffffffffffffff16815260200190815260200160002060030154016000808773ffffffffffffffffffffffffffffffffffffffff1673ffffffffffffffffffffffffffffffffffffffff16815260200190815260200160002060030181905550806000808673ffffffffffffffffffffffffffffffffffffffff1673ffffffffffffffffffffffffffffffffffffffff16815260200190815260200160002060020154016000808673ffffffffffffffffffffffffffffffffffffffff1673ffffffffffffffffffffffffffffffffffffffff16815260200190815260200160002060020181905550505b6000808573ffffffffffffffffffffffffffffffffffffffff1673ffffffffffffffffffffffffffffffffffffffff16815260200190815260200160002060030154612f2b85611fe2565b0390506000811115613270576000808573ffffffffffffffffffffffffffffffffffffffff1673ffffffffffffffffffffffffffffffffffffffff168152602001908152602001600020600501600081819054906101000a900460ff168092919060010191906101000a81548160ff021916908360ff160217905550506000816000808773ffffffffffffffffffffffffffffffffffffffff1673ffffffffffffffffffffffffffffffffffffffff1681526020019081526020016000206001015410612ffa5781905061303f565b6000808673ffffffffffffffffffffffffffffffffffffffff1673ffffffffffffffffffffffffffffffffffffffff1681526020019081526020016000206001015490505b806000808773ffffffffffffffffffffffffffffffffffffffff1673ffffffffffffffffffffffffffffffffffffffff16815260200190815260200160002060010154036000808773ffffffffffffffffffffffffffffffffffffffff1673ffffffffffffffffffffffffffffffffffffffff16815260200190815260200160002060010181905550806000808773ffffffffffffffffffffffffffffffffffffffff1673ffffffffffffffffffffffffffffffffffffffff16815260200190815260200160002060030154016000808773ffffffffffffffffffffffffffffffffffffffff1673ffffffffffffffffffffffffffffffffffffffff168152602001908152602001600020600301819055508160095403600981905550816000808673ffffffffffffffffffffffffffffffffffffffff1673ffffffffffffffffffffffffffffffffffffffff16815260200190815260200160002060020154016000808673ffffffffffffffffffffffffffffffffffffffff1673ffffffffffffffffffffffffffffffffffffffff16815260200190815260200160002060020181905550816000808773ffffffffffffffffffffffffffffffffffffffff1673ffffffffffffffffffffffffffffffffffffffff16815260200190815260200160002060060154016000808773ffffffffffffffffffffffffffffffffffffffff1673ffffffffffffffffffffffffffffffffffffffff16815260200190815260200160002060060181905550505b5b5b505050508080600101915050612af0565b5060066000815480929190600101919050555050565b60018060028111156132a757fe5b600a60009054906101000a900460ff1660028111156132c257fe5b14613302576040517f08c379a00000000000000000000000000000000000000000000000000000000081526004016132f9906139b9565b60405180910390fd5b60008060008473ffffffffffffffffffffffffffffffffffffffff1673ffffffffffffffffffffffffffffffffffffffff16815260200190815260200160002060010154600254039050806000808573ffffffffffffffffffffffffffffffffffffffff1673ffffffffffffffffffffffffffffffffffffffff168152602001908152602001600020600601546000808673ffffffffffffffffffffffffffffffffffffffff1673ffffffffffffffffffffffffffffffffffffffff1681526020019081526020016000206002015403036000808573ffffffffffffffffffffffffffffffffffffffff1673ffffffffffffffffffffffffffffffffffffffff16815260200190815260200160002060020181905550806000808573ffffffffffffffffffffffffffffffffffffffff1673ffffffffffffffffffffffffffffffffffffffff1681526020019081526020016000206006015460095401016009819055506002546000808573ffffffffffffffffffffffffffffffffffffffff1673ffffffffffffffffffffffffffffffffffffffff1681526020019081526020016000206001018190555060008060008573ffffffffffffffffffffffffffffffffffffffff1673ffffffffffffffffffffffffffffffffffffffff16815260200190815260200160002060060181905550505050565b60008135905061350981613b62565b92915050565b60008135905061351e81613b79565b92915050565b60008135905061353381613b90565b92915050565b60006020828403121561354b57600080fd5b6000613559848285016134fa565b91505092915050565b60006020828403121561357457600080fd5b60006135828482850161350f565b91505092915050565b60006020828403121561359d57600080fd5b60006135ab84828501613524565b91505092915050565b6135bd81613ad2565b82525050565b6135cc81613ac0565b82525050565b6135db81613ae4565b82525050565b6135ea81613b3a565b82525050565b60006135fd602183613aaf565b91507f5961206573746173207265676973747261646f20656e206573746120726f6e6460008301527f61000000000000000000000000000000000000000000000000000000000000006020830152604082019050919050565b6000613663601a83613aaf565b91507f45737465206c756761722079612065737461206f63757061646f0000000000006000830152602082019050919050565b60006136a3602983613aaf565b91507f537461676520696e636f72726563746f207061726120656a656375746172206c60008301527f612066756e63696f6e00000000000000000000000000000000000000000000006020830152604082019050919050565b6000613709601583613aaf565b91507f45737465207475726e6f206573746120766163696f00000000000000000000006000830152602082019050919050565b6000613749601a83613aaf565b91507f4573706572612061206c6c656761722061207475207475726e6f0000000000006000830152602082019050919050565b6000613789601683613aaf565b91507f456c20677275706f206573746120636f6d706c65746f000000000000000000006000830152602082019050919050565b60006137c9603083613aaf565b91507f596f752061726520706179696e67206d6f7265207468616e2074686520746f7460008301527f616c20736176696e6720616d6f756e74000000000000000000000000000000006020830152604082019050919050565b600061382f601b83613aaf565b91507f41756e20686179206c7567617265732073696e20617369676e617200000000006000830152602082019050919050565b61386b81613b23565b82525050565b61387a81613b2d565b82525050565b600060208201905061389560008301846135c3565b92915050565b60006020820190506138b060008301846135b4565b92915050565b6000610120820190506138cc600083018c6135b4565b6138d9602083018b613871565b6138e6604083018a613862565b6138f36060830189613862565b6139006080830188613862565b61390d60a0830187613862565b61391a60c0830186613871565b61392760e0830185613862565b6139356101008301846135d2565b9a9950505050505050505050565b600060208201905061395860008301846135d2565b92915050565b600060208201905061397360008301846135e1565b92915050565b60006020820190508181036000830152613992816135f0565b9050919050565b600060208201905081810360008301526139b281613656565b9050919050565b600060208201905081810360008301526139d281613696565b9050919050565b600060208201905081810360008301526139f2816136fc565b9050919050565b60006020820190508181036000830152613a128161373c565b9050919050565b60006020820190508181036000830152613a328161377c565b9050919050565b60006020820190508181036000830152613a52816137bc565b9050919050565b60006020820190508181036000830152613a7281613822565b9050919050565b6000602082019050613a8e6000830184613862565b92915050565b6000602082019050613aa96000830184613871565b92915050565b600082825260208201905092915050565b6000613acb82613b03565b9050919050565b6000613add82613b03565b9050919050565b60008115159050919050565b6000819050613afe82613b4e565b919050565b600073ffffffffffffffffffffffffffffffffffffffff82169050919050565b6000819050919050565b600060ff82169050919050565b6000613b4582613af0565b9050919050565bfe5b60038110613b5f57613b5e613b4c565b5b50565b613b6b81613ac0565b8114613b7657600080fd5b50565b613b8281613b23565b8114613b8d57600080fd5b50565b613b9981613b2d565b8114613ba457600080fd5b5056fe536f6c6f20656c2061646d696e207075656465206c6c616d6172206c612066756e63696f6ea26469706673582212206c42cd036daeb28983d1988b80df3ac74c111bcf1fdccc7c343ed46512758f3e64736f6c63430007040033",
  "immutableReferences": {},
  "source": "// SPDX-License-Identifier: MIT\npragma solidity ^0.7.4;\npragma experimental ABIEncoderV2;\n\nimport \"./Modifiers.sol\";\n\ncontract SavingGroups is Modifiers{\n    enum Stages {\n        //Stages of the round\n        Setup,\n        Save,\n        Finished\n    }\n\n    struct User {\n        //Information from each user\n        address payable userAddr;\n        uint8 userTurn;\n        uint256 availableCashIn; //amount available in CashIn\n        uint256 availableSavings;//Amount Available to withdraw\n        uint256 amountPaid; //Amount paid by the user\n        //uint256 assingnedPayments; //posiblemente se quita.\n        uint256 unassignedPayments;\n        uint8 latePayments; //late Payments incurred by the user\n        uint256 owedTotalCashIn; // amount taken in credit from others cashIn\n        bool isActive; //defines if the user is participating in the current round\n    }\n\n    mapping(address => User) public users;\n    address payable public admin; //The user that deploy the contract is the administrator\n\n    //Constructor deployment variables\n    uint256 public cashIn; //amount to be payed as commitment at the begining of the saving circle\n    uint256 public saveAmount; //Payment on each round/cycle\n    uint256 public groupSize; //Number of slots for users to participate on the saving circle\n\n    //Counters and flags\n    uint256 usersCounter = 0;\n    uint256 public turn = 1; //Current cycle/round in the saving circle\n    uint256 public startTime;\n    address[] public addressOrderList;\n    uint256 public totalCashIn = 0;\n    Stages public stage;\n\n    //Time constants in seconds\n    // Weekly by Default\n    uint256 public payTime = 86400 * 7;\n    uint256 public feeCost = 0;\n    address payable public constant devAddress = 0x84052CEc1d08cF2eB93ffBaB096b88b455Bb9EEE;\n\n     // BloinxEvents\n    event RegisterUser(address indexed user, uint256 indexed turn);\n    event RemoveUser(address indexed user, uint256 indexed turn);\n    event PayTurn(address indexed user);\n    event PayLateTurn(address indexed user, uint256 indexed turn);\n\n    constructor(\n        uint256 _cashIn,\n        uint256 _saveAmount,\n        uint256 _groupSize,\n        address payable _admin,\n        uint256 _payTime) public {\n        require(_admin != address(0), \"La direccion del administrador no puede ser cero\");\n        require(_groupSize > 1 && _groupSize <= 10, \"El tamanio del grupo debe ser mayor a uno y menor o igual a 10\");\n        admin = _admin;\n        cashIn = _cashIn * 1e18; \n        saveAmount = _saveAmount * 1e18;\n        groupSize = _groupSize;\n        stage = Stages.Setup;\n        addressOrderList = new address[](_groupSize);\n        require(_payTime > 0, \"El tiempo para pagar no puede ser menor a un dia\");\n        payTime = 86400 * _payTime;\n        feeCost = (saveAmount / 10000) * 500; // calculate 5% fee\n    }\n\n    modifier atStage(Stages _stage) {\n        require(stage == _stage, \"Stage incorrecto para ejecutar la funcion\");\n        _;\n    }\n\n    function registerUser(uint8 _userTurn)\n        external\n        payable\n        isPayAmountCorrect(msg.value, cashIn, feeCost)\n        atStage(Stages.Setup) {\n        require(!users[msg.sender].isActive,\"Ya estas registrado en esta ronda\");    \n        require(usersCounter < groupSize, \"El grupo esta completo\"); //the saving circle is full\n        require(addressOrderList[_userTurn-1]==address(0), \"Este lugar ya esta ocupado\" );\n        usersCounter++;\n        users[msg.sender] = User(msg.sender, _userTurn, cashIn, 0, 0, 0, 0, 0, true); //create user\n        totalCashIn = totalCashIn + msg.value;\n        uint256 totalFee = msg.value - cashIn;\n        devAddress.transfer(totalFee);\n        addressOrderList[_userTurn-1]=msg.sender; //store user\n        emit RegisterUser(msg.sender, _userTurn);\n    }\n\n\n    function removeUser(uint256 _userTurn)\n        external\n        payable\n        onlyAdmin(admin)\n        atStage(Stages.Setup) {\n        require(addressOrderList[_userTurn-1]!=address(0), \"Este turno esta vacio\");\n        address removeAddress=addressOrderList[_userTurn-1];\n        if(users[removeAddress].availableCashIn >0){\n          //if user has cashIn available, send it back \n          uint256 availableCashInTemp = users[removeAddress].availableCashIn;\n          users[removeAddress].availableCashIn = 0;\n          totalCashIn = totalCashIn - availableCashInTemp;\n          users[removeAddress].userAddr.transfer(availableCashInTemp);\n        }\n      addressOrderList[_userTurn-1]=address(0); //set address in turn to 0x00..\n      usersCounter--;\n      users[removeAddress].isActive = false;  // tendra que poner turno en 0?\n     \n    }\n\n    function startRound()\n        external\n        onlyAdmin(admin)\n        atStage(Stages.Setup) {\n        require(usersCounter == groupSize, \"Aun hay lugares sin asignar\");\n        stage = Stages.Save;\n        startTime= block.timestamp;\n    }\n\n\n    //Permite adelantar pagos o hacer abonos chiquitos\n    //Primero se verifica si hay pagos pendientes al da y se abonan, si sobra se verifica si se debe algo al CashIn y se abona\n    function addPayment() \n        external\n        payable\n        isRegisteredUser(users[msg.sender].isActive)\n        atStage(Stages.Save) {\n        //users make the payment for the cycle     \n        require(msg.value <= futurePayments(), \"You are paying more than the total saving amount\");\n        \n        //First transaction that will complete saving of currentTurn and will trigger next turn \n        uint8 realTurn = getRealTurn();\n        if (turn < realTurn){\n            completeSavingsAndAdvanceTurn(); \n        }\n        \n        address userInTurn = addressOrderList[turn-1];\n        uint256 deposit = msg.value;\n        users[msg.sender].unassignedPayments+= deposit;\n        \n    \n        //If userInTurn = msg.sender : se queda en unassigned\n        uint256 obligation = obligationAtTime(msg.sender);\n        uint256 debt;\n        uint256 paymentToTurn;\n        \n        // PAGO DEUDA DEL TURNO CORRIENTE\n        if (obligation <= users[msg.sender].amountPaid){  //no hay deuda del turno corriente\n            debt = 0; \n        } else {  //hay deuda del turno corriente\n            debt = obligation - users[msg.sender].amountPaid; \n            \n            if (userInTurn != msg.sender){\n                if (debt < deposit) { \n                    paymentToTurn = debt;\n                } else {\n                    paymentToTurn = deposit;\n                }\n                \n            //Si no he cubierto todos mis pagos hasta el da se asignan al usuario en turno.\n                users[msg.sender].unassignedPayments = users[msg.sender].unassignedPayments - paymentToTurn;\n                users[userInTurn].availableSavings = users[userInTurn].availableSavings + paymentToTurn;\n                //users[msg.sender].assingnedPayments = users[msg.sender].assingnedPayments + paymentToTurn;\n                users[msg.sender].amountPaid = users[msg.sender].amountPaid + paymentToTurn;\n\n            }\n        }\n        \n        //PAGO DEUDA DEL CASHIN TOTAL\n        if (users[msg.sender].owedTotalCashIn > 0 && users[msg.sender].unassignedPayments > 0 ){\n            uint256 paymentDebtOthers;\n            if (users[msg.sender].owedTotalCashIn <= users[msg.sender].unassignedPayments){ //unnasigned excede o iguala la deuda del cashIn\n                paymentDebtOthers = users[msg.sender].owedTotalCashIn;\n            } else {\n                paymentDebtOthers = users[msg.sender].unassignedPayments;  //cubre parcialmente la deuda del cashIn\n            }\n            \n            users[msg.sender].unassignedPayments = users[msg.sender].unassignedPayments - paymentDebtOthers;\n            totalCashIn = totalCashIn + paymentDebtOthers;\n            //users[msg.sender].assingnedPayments = users[msg.sender].assingnedPayments + paymentDebtOthers;\n        }\n\n        //Si tengo deuda en el cashIn. Si hay excedente se queda en saldo por asignar\n        uint256 debtCashIn = cashIn - users[msg.sender].availableCashIn;\n        if (debtCashIn > 0 && users[msg.sender].unassignedPayments > 0 ){\n            //Si me alcanza para pagar toda la deuda del CashIn y me sobra\n            uint256 paymentCashInTemp;\n            if (debtCashIn <= users[msg.sender].unassignedPayments){ //unnasigned excede o iguala la deuda del cashIn\n                paymentCashInTemp = debtCashIn;\n            } else {\n                paymentCashInTemp = users[msg.sender].unassignedPayments;  //cubre parcialmente la deuda del cashIn\n            }\n            \n            users[msg.sender].unassignedPayments = users[msg.sender].unassignedPayments - paymentCashInTemp;\n            totalCashIn = totalCashIn + paymentCashInTemp;\n            users[msg.sender].availableCashIn = users[msg.sender].availableCashIn + paymentCashInTemp;\n            //users[msg.sender].assingnedPayments = users[msg.sender].assingnedPayments + paymentCashInTemp;\n        } \n\n    }\n    \n\n    function withdrawTurn()   \n        external\n        payable\n        isRegisteredUser(users[msg.sender].isActive)\n        atStage(Stages.Save){  \n        uint8 senderTurn = users[msg.sender].userTurn;\n        uint8 realTurn = getRealTurn();\n        require(realTurn > senderTurn, \"Espera a llegar a tu turno\");  //turn = turno actual de la rosca\n        \n        //First transaction that will complete saving of currentTurn and will trigger next turn \n        //Because this runs each user action, we are sure the user in turn has its availableSavings complete\n        if (turn < realTurn){\n            completeSavingsAndAdvanceTurn(); \n        }\n\n        // Paga adeudos pendientes de availableSavings\n        if (obligationAtTime(msg.sender) > users[msg.sender].amountPaid){\n            payLateFromSavings(msg.sender);\n        }\n       \n        uint256 savedAmountTemp = users[msg.sender].availableSavings;\n        users[msg.sender].availableSavings = 0;\n        users[msg.sender].userAddr.transfer(savedAmountTemp);\n        savedAmountTemp=0;    \n    }\n\n\n    //Esta funcion se verifica que daba correr cada que se reliza un movimiento por parte de un usuario, \n    //solo correr si es la primera vez que se corre en un turno, ya sea accin de retiro o pago.\n    function completeSavingsAndAdvanceTurn() private atStage(Stages.Save) {\n        \n        for (uint8 i = 0; i < groupSize; i++) {\n            address useraddress = addressOrderList[i];\n            address userInTurn = addressOrderList[turn-1];\n            uint256 obligation = obligationAtTime(useraddress);\n            uint256 debtUser;\n                \n            if(useraddress != userInTurn){  \n                //Assign unassignedPayments\n                \n                if (obligation > users[useraddress].amountPaid){  //Si hay monto pendiente por cubrir el turno\n                    debtUser = obligation - users[useraddress].amountPaid; //Monto pendiente por asignar \n                } else {\n                    debtUser = 0;\n                }\n                \n                //Si el usuario debe\n                if (debtUser>0){\n                    \n                    //Asignamos pagos pendientes\n                    if(users[useraddress].unassignedPayments > 0){\n                        uint256 toAssign;\n                        \n                        if (debtUser < users[useraddress].unassignedPayments) { //se paga toda la deuda y sigue con saldo a favor\n                            toAssign = debtUser;\n                        } else {\n                            toAssign = users[useraddress].unassignedPayments;\n                            \n                        }  \n                        users[useraddress].unassignedPayments = users[useraddress].unassignedPayments - toAssign;\n                        users[useraddress].amountPaid = users[useraddress].amountPaid + toAssign;\n                        users[userInTurn].availableSavings = users[userInTurn].availableSavings + toAssign; \n                        //users[useraddress].assingnedPayments = users[useraddress].assingnedPayments + toAssign; \n                    }\n                    \n                    //Recalculamos la deuda despus de asingacin\n                    debtUser =  obligationAtTime(useraddress) - users[useraddress].amountPaid;\n                    \n                    // Si an sigue habiendo deuda se paga del cashIn\n                    if (debtUser>0){\n                        users[useraddress].latePayments++; //Se marca deudor\n                        uint256 tempCashIn;\n                        //Si el cashIn del usuario alcanza para pagar la deuda (1 o menos atrasado)\n                        if (users[useraddress].availableCashIn >= debtUser ){\n                            tempCashIn= debtUser;\n                        }else{  //ms de 1 atrasado\n                            tempCashIn= users[useraddress].availableCashIn; \n                        }\n                        \n                        users[useraddress].availableCashIn = users[useraddress].availableCashIn-tempCashIn; \n                        users[useraddress].amountPaid = users[useraddress].amountPaid + tempCashIn;\n                        totalCashIn = totalCashIn - debtUser;\n                        users[userInTurn].availableSavings = users[userInTurn].availableSavings + debtUser ;\n                        users[useraddress].owedTotalCashIn = users[useraddress].owedTotalCashIn + debtUser;  //Lo que se debe a la bolsa de CashIn\n    \n                    }\n    \n                }\n                \n            }    \n        }\n        turn++;\n    \n    }\n\n    function payLateFromSavings(address _userAddress) internal atStage(Stages.Save){  //savings are complete at the time this function runs\n        uint256 debtOwnCashIn = cashIn - users[_userAddress].availableCashIn;\n        users[_userAddress].availableSavings = users[_userAddress].availableSavings-users[_userAddress].owedTotalCashIn - debtOwnCashIn;\n        totalCashIn = totalCashIn + users[_userAddress].owedTotalCashIn + debtOwnCashIn;\n        users[_userAddress].availableCashIn = cashIn;\n        users[_userAddress].owedTotalCashIn = 0;\n        } \n\n    //Cunto le falta por ahorrar total\n    function futurePayments() public view returns (uint256) {\n        uint256 totalSaving = (saveAmount*(groupSize-1));\n        uint256 futurePayment = totalSaving - users[msg.sender].amountPaid - users[msg.sender].unassignedPayments;\n        return futurePayment;\n    }\n\n    //Returns the total payment the user should have paid at the moment\n    function obligationAtTime(address userAddress) public view returns (uint256) {\n        uint256 expectedObligation;\n        if (users[userAddress].userTurn <= turn){\n            expectedObligation =  saveAmount * (turn-1);\n        } else{\n            expectedObligation =  saveAmount * (turn);\n        }\n        return expectedObligation;\n    }\n\n    function getRealTurn() public view atStage(Stages.Save) returns (uint8){\n        uint8 realTurn = uint8((block.timestamp - startTime) / payTime)+1;\n        return (realTurn);\n    }\n\n    function endRound() public atStage(Stages.Save) {\n        require(getRealTurn() > groupSize);\n        completeSavingsAndAdvanceTurn(); \n        \n        uint256 sumAvailableCashIn = 0;\n        for (uint8 i = 0; i < groupSize; i++) {\n            address userAddr = addressOrderList[i];\n            sumAvailableCashIn += users[userAddr].availableCashIn;\n            payLateFromSavings(userAddr);\n            \n        }\n        \n        for (uint8 i = 0; i < groupSize; i++) {\n            address userAddr = addressOrderList[i];\n            uint256 realCashInProp = users[userAddr].availableCashIn/sumAvailableCashIn; \n            uint256 amountTemp = users[userAddr].availableSavings + (realCashInProp * totalCashIn); \n            users[userAddr].availableSavings = 0;\n            users[userAddr].availableCashIn = 0;\n            users[userAddr].userAddr.transfer(amountTemp);\n            users[userAddr].isActive = false;\n            amountTemp=0;            \n        }\n        \n        stage = Stages.Finished;        \n\n    } \n    \n    //Getters\n    function getUserTurn(uint8 _userTurn) public view returns (uint8){\n        address userAddr = addressOrderList[_userTurn-1];\n        return(users[userAddr].userTurn);\n    }\n    \n    function getUserAvailableCashIn(uint8 _userTurn) public view returns (uint256){\n        address userAddr = addressOrderList[_userTurn-1];\n        return(users[userAddr].availableCashIn);\n    }\n        \n    function getUserAvailableSavings(uint8 _userTurn) public view returns (uint256){\n        address userAddr = addressOrderList[_userTurn-1];\n        return(users[userAddr].availableSavings);\n    }\n        \n    function getUserAmountPaid(uint8 _userTurn) public view returns (uint256){\n        address userAddr = addressOrderList[_userTurn-1];\n        return(users[userAddr].amountPaid);\n    }    \n        \n    function getUserUnassignedPayments(uint8 _userTurn) public view returns (uint256){\n        address userAddr = addressOrderList[_userTurn-1];\n        return(users[userAddr].unassignedPayments);\n    }        \n        \n    function getUserLatePayments(uint8 _userTurn) public view returns (uint8){\n        address userAddr = addressOrderList[_userTurn-1];\n        return(users[userAddr].latePayments);\n    }    \n    \n    function getUserOwedTotalCashIn(uint8 _userTurn) public view returns (uint256){\n        address userAddr = addressOrderList[_userTurn-1];\n        return(users[userAddr].owedTotalCashIn);\n    }    \n    \n    function getUserIsActive(uint8 _userTurn) public view returns (bool){\n        address userAddr = addressOrderList[_userTurn-1];\n        return(users[userAddr].isActive);\n    }\n\n}\n\n\n\n",
  "sourcePath": "/Users/artur/Desktop/Bloinx/bloinx-contracts/contracts/SavingGroups.sol",
  "compiler": {
    "name": "solc",
    "version": "0.7.4+commit.3f05b770.Emscripten.clang"
  },
  "schemaVersion": "3.4.2",
  "updatedAt": "2021-11-02T20:05:53.113Z",
  "devdoc": {
    "kind": "dev",
    "methods": {},
    "version": 1
  },
  "userdoc": {
    "kind": "user",
    "methods": {},
    "version": 1
  }
}