{
  "contractName": "SavingGroupsMXN",
  "abi": [
    {
      "inputs": [
        {
          "internalType": "uint256",
          "name": "_cashIn",
          "type": "uint256"
        },
        {
          "internalType": "uint256",
          "name": "_saveAmount",
          "type": "uint256"
        },
        {
          "internalType": "uint256",
          "name": "_groupSize",
          "type": "uint256"
        },
        {
          "internalType": "address",
          "name": "_admin",
          "type": "address"
        },
        {
          "internalType": "uint256",
          "name": "_adminFee",
          "type": "uint256"
        },
        {
          "internalType": "uint256",
          "name": "_payTime",
          "type": "uint256"
        },
        {
          "internalType": "contract ERC20",
          "name": "_token",
          "type": "address"
        },
        {
          "internalType": "contract BLXToken",
          "name": "_BLX",
          "type": "address"
        },
        {
          "internalType": "address",
          "name": "_devFund",
          "type": "address"
        },
        {
          "internalType": "uint256",
          "name": "_fee",
          "type": "uint256"
        }
      ],
      "stateMutability": "nonpayable",
      "type": "constructor"
    },
    {
      "anonymous": false,
      "inputs": [
        {
          "indexed": true,
          "internalType": "address",
          "name": "roundAddress",
          "type": "address"
        },
        {
          "indexed": true,
          "internalType": "uint256",
          "name": "funds",
          "type": "uint256"
        }
      ],
      "name": "EmergencyWithdraw",
      "type": "event"
    },
    {
      "anonymous": false,
      "inputs": [
        {
          "indexed": true,
          "internalType": "address",
          "name": "roundAddress",
          "type": "address"
        },
        {
          "indexed": true,
          "internalType": "uint256",
          "name": "startAt",
          "type": "uint256"
        },
        {
          "indexed": true,
          "internalType": "uint256",
          "name": "endAt",
          "type": "uint256"
        }
      ],
      "name": "EndRound",
      "type": "event"
    },
    {
      "anonymous": false,
      "inputs": [
        {
          "indexed": true,
          "internalType": "address",
          "name": "user",
          "type": "address"
        },
        {
          "indexed": true,
          "internalType": "uint8",
          "name": "turn",
          "type": "uint8"
        }
      ],
      "name": "LatePayment",
      "type": "event"
    },
    {
      "anonymous": false,
      "inputs": [
        {
          "indexed": true,
          "internalType": "address",
          "name": "user",
          "type": "address"
        },
        {
          "indexed": true,
          "internalType": "bool",
          "name": "success",
          "type": "bool"
        }
      ],
      "name": "PayCashIn",
      "type": "event"
    },
    {
      "anonymous": false,
      "inputs": [
        {
          "indexed": true,
          "internalType": "address",
          "name": "user",
          "type": "address"
        },
        {
          "indexed": true,
          "internalType": "bool",
          "name": "success",
          "type": "bool"
        }
      ],
      "name": "PayFee",
      "type": "event"
    },
    {
      "anonymous": false,
      "inputs": [
        {
          "indexed": true,
          "internalType": "address",
          "name": "user",
          "type": "address"
        },
        {
          "indexed": true,
          "internalType": "bool",
          "name": "success",
          "type": "bool"
        }
      ],
      "name": "PayTurn",
      "type": "event"
    },
    {
      "anonymous": false,
      "inputs": [
        {
          "indexed": true,
          "internalType": "address",
          "name": "user",
          "type": "address"
        },
        {
          "indexed": true,
          "internalType": "uint8",
          "name": "turn",
          "type": "uint8"
        }
      ],
      "name": "RegisterUser",
      "type": "event"
    },
    {
      "anonymous": false,
      "inputs": [
        {
          "indexed": true,
          "internalType": "address",
          "name": "removedBy",
          "type": "address"
        },
        {
          "indexed": true,
          "internalType": "address",
          "name": "user",
          "type": "address"
        },
        {
          "indexed": true,
          "internalType": "uint8",
          "name": "turn",
          "type": "uint8"
        }
      ],
      "name": "RemoveUser",
      "type": "event"
    },
    {
      "anonymous": false,
      "inputs": [
        {
          "indexed": true,
          "internalType": "uint256",
          "name": "saveAmount",
          "type": "uint256"
        },
        {
          "indexed": true,
          "internalType": "uint256",
          "name": "groupSize",
          "type": "uint256"
        }
      ],
      "name": "RoundCreated",
      "type": "event"
    },
    {
      "anonymous": false,
      "inputs": [
        {
          "indexed": true,
          "internalType": "address",
          "name": "user",
          "type": "address"
        },
        {
          "indexed": true,
          "internalType": "uint256",
          "name": "amount",
          "type": "uint256"
        },
        {
          "indexed": true,
          "internalType": "bool",
          "name": "success",
          "type": "bool"
        }
      ],
      "name": "WithdrawFunds",
      "type": "event"
    },
    {
      "inputs": [],
      "name": "BLX",
      "outputs": [
        {
          "internalType": "contract BLXToken",
          "name": "",
          "type": "address"
        }
      ],
      "stateMutability": "view",
      "type": "function"
    },
    {
      "inputs": [
        {
          "internalType": "uint256",
          "name": "",
          "type": "uint256"
        }
      ],
      "name": "addressOrderList",
      "outputs": [
        {
          "internalType": "address",
          "name": "",
          "type": "address"
        }
      ],
      "stateMutability": "view",
      "type": "function"
    },
    {
      "inputs": [],
      "name": "admin",
      "outputs": [
        {
          "internalType": "address",
          "name": "",
          "type": "address"
        }
      ],
      "stateMutability": "view",
      "type": "function"
    },
    {
      "inputs": [],
      "name": "adminFee",
      "outputs": [
        {
          "internalType": "uint256",
          "name": "",
          "type": "uint256"
        }
      ],
      "stateMutability": "view",
      "type": "function"
    },
    {
      "inputs": [],
      "name": "cashIn",
      "outputs": [
        {
          "internalType": "uint256",
          "name": "",
          "type": "uint256"
        }
      ],
      "stateMutability": "view",
      "type": "function"
    },
    {
      "inputs": [],
      "name": "devFund",
      "outputs": [
        {
          "internalType": "address",
          "name": "",
          "type": "address"
        }
      ],
      "stateMutability": "view",
      "type": "function"
    },
    {
      "inputs": [],
      "name": "fee",
      "outputs": [
        {
          "internalType": "uint256",
          "name": "",
          "type": "uint256"
        }
      ],
      "stateMutability": "view",
      "type": "function"
    },
    {
      "inputs": [],
      "name": "feeCost",
      "outputs": [
        {
          "internalType": "uint256",
          "name": "",
          "type": "uint256"
        }
      ],
      "stateMutability": "view",
      "type": "function"
    },
    {
      "inputs": [],
      "name": "groupSize",
      "outputs": [
        {
          "internalType": "uint256",
          "name": "",
          "type": "uint256"
        }
      ],
      "stateMutability": "view",
      "type": "function"
    },
    {
      "inputs": [],
      "name": "outOfFunds",
      "outputs": [
        {
          "internalType": "bool",
          "name": "",
          "type": "bool"
        }
      ],
      "stateMutability": "view",
      "type": "function"
    },
    {
      "inputs": [],
      "name": "payTime",
      "outputs": [
        {
          "internalType": "uint256",
          "name": "",
          "type": "uint256"
        }
      ],
      "stateMutability": "view",
      "type": "function"
    },
    {
      "inputs": [],
      "name": "saveAmount",
      "outputs": [
        {
          "internalType": "uint256",
          "name": "",
          "type": "uint256"
        }
      ],
      "stateMutability": "view",
      "type": "function"
    },
    {
      "inputs": [],
      "name": "stableToken",
      "outputs": [
        {
          "internalType": "contract ERC20",
          "name": "",
          "type": "address"
        }
      ],
      "stateMutability": "view",
      "type": "function"
    },
    {
      "inputs": [],
      "name": "stage",
      "outputs": [
        {
          "internalType": "enum SavingGroupsMXN.Stages",
          "name": "",
          "type": "uint8"
        }
      ],
      "stateMutability": "view",
      "type": "function"
    },
    {
      "inputs": [],
      "name": "startTime",
      "outputs": [
        {
          "internalType": "uint256",
          "name": "",
          "type": "uint256"
        }
      ],
      "stateMutability": "view",
      "type": "function"
    },
    {
      "inputs": [],
      "name": "totalCashIn",
      "outputs": [
        {
          "internalType": "uint256",
          "name": "",
          "type": "uint256"
        }
      ],
      "stateMutability": "view",
      "type": "function"
    },
    {
      "inputs": [],
      "name": "turn",
      "outputs": [
        {
          "internalType": "uint8",
          "name": "",
          "type": "uint8"
        }
      ],
      "stateMutability": "view",
      "type": "function"
    },
    {
      "inputs": [
        {
          "internalType": "address",
          "name": "",
          "type": "address"
        }
      ],
      "name": "users",
      "outputs": [
        {
          "internalType": "address",
          "name": "userAddr",
          "type": "address"
        },
        {
          "internalType": "uint8",
          "name": "userTurn",
          "type": "uint8"
        },
        {
          "internalType": "uint256",
          "name": "availableCashIn",
          "type": "uint256"
        },
        {
          "internalType": "uint256",
          "name": "availableSavings",
          "type": "uint256"
        },
        {
          "internalType": "uint256",
          "name": "assignedPayments",
          "type": "uint256"
        },
        {
          "internalType": "uint256",
          "name": "unassignedPayments",
          "type": "uint256"
        },
        {
          "internalType": "uint8",
          "name": "latePayments",
          "type": "uint8"
        },
        {
          "internalType": "uint256",
          "name": "owedTotalCashIn",
          "type": "uint256"
        },
        {
          "internalType": "bool",
          "name": "isActive",
          "type": "bool"
        },
        {
          "internalType": "uint256",
          "name": "withdrewAmount",
          "type": "uint256"
        }
      ],
      "stateMutability": "view",
      "type": "function"
    },
    {
      "inputs": [
        {
          "internalType": "uint8",
          "name": "_userTurn",
          "type": "uint8"
        }
      ],
      "name": "registerUser",
      "outputs": [],
      "stateMutability": "nonpayable",
      "type": "function"
    },
    {
      "inputs": [
        {
          "internalType": "uint8",
          "name": "_userTurn",
          "type": "uint8"
        }
      ],
      "name": "removeUser",
      "outputs": [],
      "stateMutability": "nonpayable",
      "type": "function"
    },
    {
      "inputs": [],
      "name": "startRound",
      "outputs": [],
      "stateMutability": "nonpayable",
      "type": "function"
    },
    {
      "inputs": [
        {
          "internalType": "uint256",
          "name": "_payAmount",
          "type": "uint256"
        }
      ],
      "name": "addPayment",
      "outputs": [],
      "stateMutability": "nonpayable",
      "type": "function"
    },
    {
      "inputs": [],
      "name": "withdrawTurn",
      "outputs": [],
      "stateMutability": "nonpayable",
      "type": "function"
    },
    {
      "inputs": [],
      "name": "emergencyWithdraw",
      "outputs": [],
      "stateMutability": "nonpayable",
      "type": "function"
    },
    {
      "inputs": [],
      "name": "endRound",
      "outputs": [],
      "stateMutability": "nonpayable",
      "type": "function"
    },
    {
      "inputs": [],
      "name": "futurePayments",
      "outputs": [
        {
          "internalType": "uint256",
          "name": "",
          "type": "uint256"
        }
      ],
      "stateMutability": "view",
      "type": "function"
    },
    {
      "inputs": [
        {
          "internalType": "address",
          "name": "userAddress",
          "type": "address"
        }
      ],
      "name": "obligationAtTime",
      "outputs": [
        {
          "internalType": "uint256",
          "name": "",
          "type": "uint256"
        }
      ],
      "stateMutability": "view",
      "type": "function"
    },
    {
      "inputs": [],
      "name": "getRealTurn",
      "outputs": [
        {
          "internalType": "uint8",
          "name": "",
          "type": "uint8"
        }
      ],
      "stateMutability": "view",
      "type": "function"
    },
    {
      "inputs": [
        {
          "internalType": "uint8",
          "name": "_userTurn",
          "type": "uint8"
        }
      ],
      "name": "getUserAvailableCashIn",
      "outputs": [
        {
          "internalType": "uint256",
          "name": "",
          "type": "uint256"
        }
      ],
      "stateMutability": "view",
      "type": "function"
    },
    {
      "inputs": [
        {
          "internalType": "uint8",
          "name": "_userTurn",
          "type": "uint8"
        }
      ],
      "name": "getUserAvailableSavings",
      "outputs": [
        {
          "internalType": "uint256",
          "name": "",
          "type": "uint256"
        }
      ],
      "stateMutability": "view",
      "type": "function"
    },
    {
      "inputs": [
        {
          "internalType": "uint8",
          "name": "_userTurn",
          "type": "uint8"
        }
      ],
      "name": "getUserAmountPaid",
      "outputs": [
        {
          "internalType": "uint256",
          "name": "",
          "type": "uint256"
        }
      ],
      "stateMutability": "view",
      "type": "function"
    },
    {
      "inputs": [
        {
          "internalType": "uint8",
          "name": "_userTurn",
          "type": "uint8"
        }
      ],
      "name": "getUserUnassignedPayments",
      "outputs": [
        {
          "internalType": "uint256",
          "name": "",
          "type": "uint256"
        }
      ],
      "stateMutability": "view",
      "type": "function"
    },
    {
      "inputs": [
        {
          "internalType": "uint8",
          "name": "_userTurn",
          "type": "uint8"
        }
      ],
      "name": "getUserLatePayments",
      "outputs": [
        {
          "internalType": "uint8",
          "name": "",
          "type": "uint8"
        }
      ],
      "stateMutability": "view",
      "type": "function"
    },
    {
      "inputs": [
        {
          "internalType": "uint8",
          "name": "_userTurn",
          "type": "uint8"
        }
      ],
      "name": "getUserOwedTotalCashIn",
      "outputs": [
        {
          "internalType": "uint256",
          "name": "",
          "type": "uint256"
        }
      ],
      "stateMutability": "view",
      "type": "function"
    },
    {
      "inputs": [
        {
          "internalType": "uint8",
          "name": "_userTurn",
          "type": "uint8"
        }
      ],
      "name": "getUserIsActive",
      "outputs": [
        {
          "internalType": "bool",
          "name": "",
          "type": "bool"
        }
      ],
      "stateMutability": "view",
      "type": "function"
    }
  ],
  "bytecode": "0x6080604052600060078190556008805460ff19166001179055600b819055600c805461ff0019169055600d819055600e819055600f553480156200004257600080fd5b506040516200303d3803806200303d8339810160408190526200006591620005f3565b60108054600160a060020a031916600160a060020a03868116919091179091558716620000f3576040517f08c379a000000000000000000000000000000000000000000000000000000000815260206004820152601460248201527f616464726573732063616e74206265207a65726f00000000000000000000000060448201526064015b60405180910390fd5b600188118015620001055750600c8811155b6200016d576040517f08c379a000000000000000000000000000000000000000000000000000000000815260206004820152601060248201527f67726f75702073697a65206572726f72000000000000000000000000000000006044820152606401620000ea565b60028a1015620001da576040517f08c379a000000000000000000000000000000000000000000000000000000000815260206004820152601160248201527f6465706f73697420717479206572726f720000000000000000000000000000006044820152606401620000ea565b600289101562000247576040517f08c379a000000000000000000000000000000000000000000000000000000000815260206004820152601160248201527f7061796d656e7420717479206572726f720000000000000000000000000000006044820152606401620000ea565b60648611156200025657600080fd5b60018054600160a060020a03808a16600160a060020a031992831617909255600588905560048a81556006805486851690841617905560118054878516931692909217909155601054604080517f313ce5670000000000000000000000000000000000000000000000000000000081529051919093169263313ce56792818101926020929091908290030181865afa158015620002f7573d6000803e3d6000fd5b505050506040513d601f19601f820116820180604052508101906200031d91906200069a565b6200032a90600a620007f7565b62000336908b62000808565b600255601054604080517f313ce5670000000000000000000000000000000000000000000000000000000081529051600160a060020a039092169163313ce567916004808201926020929091908290030181865afa1580156200039d573d6000803e3d6000fd5b505050506040513d601f19601f82011682018060405250810190620003c391906200069a565b620003d090600a620007f7565b620003dc908a62000808565b600355600c805460ff191690558767ffffffffffffffff81111562000405576200040562000822565b6040519080825280602002602001820160405280156200042f578160200160208202803683370190505b5080516200044691600a9160209091019062000559565b5060008511620004b3576040517f08c379a000000000000000000000000000000000000000000000000000000000815260206004820152600d60248201527f70617974696d65206572726f72000000000000000000000000000000000000006044820152606401620000ea565b620004c085603c62000808565b600d55600354612710908290620004d990606462000808565b620004e5919062000808565b620004f1919062000851565b600f5560128054600160a060020a03191673171b16562ea3476f5c61d1b8dad031dba07685451790556004546003546040517fe934619c48e1b0b21b662adf6b7c08ad37e6f0d120f40a505503b4fd3bcfec5890600090a3505050505050505050506200088d565b828054828255906000526020600020908101928215620005b1579160200282015b82811115620005b15782518254600160a060020a031916600160a060020a039091161782556020909201916001909101906200057a565b50620005bf929150620005c3565b5090565b5b80821115620005bf5760008155600101620005c4565b600160a060020a0381168114620005f057600080fd5b50565b6000806000806000806000806000806101408b8d0312156200061457600080fd5b8a51995060208b0151985060408b0151975060608b01516200063681620005da565b8097505060808b0151955060a08b0151945060c08b01516200065881620005da565b60e08c01519094506200066b81620005da565b6101008c01519093506200067f81620005da565b809250506101208b015190509295989b9194979a5092959850565b600060208284031215620006ad57600080fd5b815160ff81168114620006bf57600080fd5b9392505050565b7f4e487b7100000000000000000000000000000000000000000000000000000000600052601160045260246000fd5b600181815b80851115620007385781600019048211156200071a576200071a620006c6565b808516156200072857918102915b60029094049390800290620006fa565b509250929050565b6000826200075157506001620007f1565b816200076057506000620007f1565b81600181146200077957600281146200078457620007a5565b6001915050620007f1565b60ff841115620007985762000798620006c6565b8360020a915050620007f1565b5060208310610133831016604e8410600b8410161715620007ca575081810a620007f1565b620007d68383620006f5565b8060001904821115620007ed57620007ed620006c6565b0290505b92915050565b6000620006bf60ff84168362000740565b8082028115828204841417620007f157620007f1620006c6565b7f4e487b7100000000000000000000000000000000000000000000000000000000600052604160045260246000fd5b60008262000888577f4e487b7100000000000000000000000000000000000000000000000000000000600052601260045260246000fd5b500490565b6127a0806200089d6000396000f3fe608060405234801561001057600080fd5b506004361061022e576000357c010000000000000000000000000000000000000000000000000000000090048063749aa2d911610142578063a9d75b2b116100ca578063c949cb8311610099578063c949cb83146104ec578063db2e21bc146104ff578063ddca3f4314610507578063e8f4963114610510578063f851a4401461052357600080fd5b8063a9d75b2b146104ae578063b4501f39146104c1578063b4bde59e146104c9578063c040e6b8146104d257600080fd5b80638930361d116101115780638930361d146103a85780638b299903146103bb578063a0a8427e146103c8578063a0be06f9146103db578063a87430ba146103e457600080fd5b8063749aa2d91461036c5780637826e78f1461037457806378e979251461037d57806385f0f3781461038657600080fd5b80634390d2a8116101c55780635394dda8116101945780635394dda81461032c57806355e3f0861461033f5780635b6397e11461034757806363b635ea1461035a578063743c81ab1461036357600080fd5b80634390d2a8146102c8578063466afa0d146102f357806347f121a214610306578063504fc51d1461031957600080fd5b80632055baf4116102015780632055baf41461028a5780632d50e80d146102a457806330fceb6c146102ad5780634210a8d1146102b557600080fd5b806302b8c8cd1461023357806303ee306114610248578063086a29e71461026e5780631e58061514610281575b600080fd5b610246610241366004612533565b610536565b005b61025b610256366004612533565b6108fb565b6040519081526020015b60405180910390f35b61024661027c366004612533565b610949565b61025b60025481565b610292610c9c565b60405160ff9091168152602001610265565b61025b600d5481565b610246610d07565b61025b6102c3366004612533565b610f59565b6006546102db90600160a060020a031681565b604051600160a060020a039091168152602001610265565b610292610301366004612533565b610fa7565b6011546102db90600160a060020a031681565b61025b61032736600461255d565b610ff8565b6102db61033a366004612586565b611072565b61024661109c565b61025b610355366004612533565b61119f565b61025b60045481565b61025b60035481565b6102466111ed565b61025b600f5481565b61025b60095481565b600c5461039890610100900460ff1681565b6040519015158152602001610265565b6103986103b6366004612533565b61164f565b6008546102929060ff1681565b61025b6103d6366004612533565b6116a0565b61025b60055481565b61044c6103f236600461255d565b600060208190529081526040902080546001820154600283015460038401546004850154600586015460068701546007880154600890980154600160a060020a0388169860ff60a060020a9099048916989384169316908a565b60408051600160a060020a03909b168b5260ff998a1660208c01528a01979097526060890195909552608088019390935260a08701919091529390931660c085015260e084019290925290151561010083015261012082015261014001610265565b6010546102db90600160a060020a031681565b61025b6116ee565b61025b600b5481565b600c546104df9060ff1681565b60405161026591906125b8565b6102466104fa366004612586565b61174f565b610246611b7b565b61025b600e5481565b61025b61051e366004612533565b611ec1565b6001546102db90600160a060020a031681565b600080600c5460ff1660038111156105505761055061259f565b146105795760405160e560020a62461bcd028152600401610570906125e3565b60405180910390fd5b3360009081526020819052604090206007015460ff16156105df5760405160e560020a62461bcd02815260206004820152601260248201527f616c7265616479207265676973746572656400000000000000000000000000006044820152606401610570565b600454600754106106355760405160e560020a62461bcd02815260206004820152600d60248201527f67726f75702069732066756c6c000000000000000000000000000000000000006044820152606401610570565b6000600a610644600185612633565b60ff16815481106106575761065761264c565b600091825260209091200154600160a060020a0316146106bc5760405160e560020a62461bcd02815260206004820152600a60248201527f7475726e2074616b656e000000000000000000000000000000000000000000006044820152606401610570565b600780549060006106cc83612665565b909155505060408051610140810182523380825260ff8086166020808501918252600280548688019081526000606088018181526080890182815260a08a0183815260c08b0184815260e08c0185815260016101008e018181526101208f018881529d8852998790529d86209c518d549a518c1660a060020a0274ffffffffffffffffffffffffffffffffffffffffff19909b16600160a060020a039190911617999099178c5594519b8b019b909b5590518985015551600389015597516004880155516005870180549190951660ff1991821617909455915160068601555160078501805491151591909316179091559051600890920191909155546107d4903090611f0f565b6040519091508115159033907f4480e10f92b8eb473ee375c618f546a95bb106e9ac08855a51628a55f2f043e290600090a3600654600f5460009161082491600160a060020a0390911690611f0f565b6040519091508115159033907ffcc9de8628256fd80a029af5f9f600bdfc8ec089f618a40d63f7063060d227a590600090a3600254600b600082825461086a919061267e565b90915550339050600a61087e600187612633565b60ff16815481106108915761089161264c565b60009182526020822001805473ffffffffffffffffffffffffffffffffffffffff1916600160a060020a03939093169290921790915560405160ff86169133917f976bbd2f6af68a7eee78f5300f40d037367b165e65f157e6af4ae073b2befd499190a350505050565b600080600a61090b600185612633565b60ff168154811061091e5761091e61264c565b6000918252602080832090910154600160a060020a0316825281905260409020600601549392505050565b600080600c5460ff1660038111156109635761096361259f565b146109835760405160e560020a62461bcd028152600401610570906125e3565b600154600160a060020a03163314806109cf5750600a6109a4600184612633565b60ff16815481106109b7576109b761264c565b600091825260209091200154600160a060020a031633145b610a1e5760405160e560020a62461bcd02815260206004820152600d60248201527f6e6f74206175746f72697a6564000000000000000000000000000000000000006044820152606401610570565b6000600a610a2d600185612633565b60ff1681548110610a4057610a4061264c565b600091825260209091200154600160a060020a031603610aa55760405160e560020a62461bcd02815260206004820152600a60248201527f7475726e20656d707479000000000000000000000000000000000000000000006044820152606401610570565b600a610ab2600184612633565b60ff1681548110610ac557610ac561264c565b600091825260209091200154600154600160a060020a03918216911603610b315760405160e560020a62461bcd02815260206004820152600b60248201527f6e6f7420616c6c6f7765640000000000000000000000000000000000000000006044820152606401610570565b6000600a610b40600185612633565b60ff1681548110610b5357610b5361264c565b6000918252602080832090910154600160a060020a03168083529082905260409091206001015490915015610bdb57600160a060020a03811660009081526020819052604081206001018054919055600b54610bb0908290612691565b600b55600160a060020a03808316600090815260208190526040902054610bd8911682611fb2565b50505b6000600a610bea600186612633565b60ff1681548110610bfd57610bfd61264c565b60009182526020822001805473ffffffffffffffffffffffffffffffffffffffff1916600160a060020a0393909316929092179091556007805491610c41836126a4565b9091555050600160a060020a038116600081815260208190526040808220600701805460ff191690555160ff8616929133917fadfd51f69b0ad07e1815c54508f0be97ccfacda3e7553aef7b19e0cfc374be2b9190a4505050565b6000600180600c5460ff166003811115610cb857610cb861259f565b14610cd85760405160e560020a62461bcd028152600401610570906125e3565b6000600d5460095442610ceb9190612691565b610cf591906126bb565b610d009060016126e0565b9250505090565b3360009081526020819052604090206007015460ff16801515600114610d725760405160e560020a62461bcd02815260206004820152601560248201527f5573756172696f206e6f207265676973747261646f00000000000000000000006044820152606401610570565b600180600c5460ff166003811115610d8c57610d8c61259f565b14610dac5760405160e560020a62461bcd028152600401610570906125e3565b3360009081526020819052604081205460a060020a900460ff1690610dcf610c9c565b90508160ff168160ff1611610e295760405160e560020a62461bcd02815260206004820152600e60248201527f4e6f206573207475207475726e6f0000000000000000000000000000000000006044820152606401610570565b3360009081526020819052604090206008015415610e4657600080fd5b60085460ff80831691161015610e6557600854610e659060ff16612008565b3360008181526020819052604090206003015490610e8290610ff8565b1115610e9157610e9133612461565b336000908152602081905260408120600281018054908390556008909101805491928392610ec090849061267e565b909155505033600090815260208190526040812054610ee890600160a060020a031683611fb2565b33600090815260208190526040808220549051929350831515928592600160a060020a03909216917fd62c1f6f3c4444a52e394381f609a885a10cc992ad4b59f0815f22db3cc5923291a4600c54610100900460ff1615610f5157600c805460ff191660031790555b505050505050565b600080600a610f69600185612633565b60ff1681548110610f7c57610f7c61264c565b6000918252602080832090910154600160a060020a0316825281905260409020600301549392505050565b600080600a610fb7600185612633565b60ff1681548110610fca57610fca61264c565b6000918252602080832090910154600160a060020a03168252819052604090206005015460ff169392505050565b600854600160a060020a0382166000908152602081905260408120549091829160ff91821660a060020a909104909116116110565760085461103f9060019060ff16612633565b60ff1660035461104f91906126f9565b905061106c565b6008546003546110699160ff16906126f9565b90505b92915050565b600a818154811061108257600080fd5b600091825260209091200154600160a060020a0316905081565b600154600160a060020a03163381146110fa5760405160e560020a62461bcd02815260206004820152600e60248201527f4e6f7420617574686f72697a65640000000000000000000000000000000000006044820152606401610570565b600080600c5460ff1660038111156111145761111461259f565b146111345760405160e560020a62461bcd028152600401610570906125e3565b6004546007541461118a5760405160e560020a62461bcd02815260206004820152601060248201527f756e61737369676e6564207475726e73000000000000000000000000000000006044820152606401610570565b5050600c805460ff1916600117905542600955565b600080600a6111af600185612633565b60ff16815481106111c2576111c261264c565b6000918252602080832090910154600160a060020a0316825281905260409020600101549392505050565b600180600c5460ff1660038111156112075761120761259f565b146112275760405160e560020a62461bcd028152600401610570906125e3565b600454611232610c9c565b60ff16116112855760405160e560020a62461bcd02815260206004820152601060248201527f4e6f2068612066696e616c697a61646f000000000000000000000000000000006044820152606401610570565b60085460ff165b6004548160ff16116112b3576112a181612008565b806112ab81612710565b91505061128c565b506000805b6004548160ff161015611358576000600a8260ff16815481106112dd576112dd61264c565b6000918252602080832090910154600160a060020a031680835290829052604090912060068101546002909101549192501161131c5761131c81612461565b600160a060020a038116600090815260208190526040902060010154611342908461267e565b925050808061135090612710565b9150506112b8565b50600c54610100900460ff166115665760008060005b6004548160ff16101561153b576000600a8260ff16815481106113935761139361264c565b6000918252602080832090910154600b54600160a060020a0390911680845291839052604083206001015491935087916113cd91906126f9565b6113d791906126bb565b600160a060020a038316600090815260208190526040812060018101829055600701805460ff191690556005549192509060649061141590846126f9565b61141f91906126bb565b905061142b818761267e565b600160a060020a038416600090815260208190526040812060020154919750906114558385612691565b61145f919061267e565b600160a060020a03808616600090815260208190526040812060028101919091555491925061148f911682611fb2565b50600160a060020a03841660009081526020819052604081205460a060020a900460ff16806114bf86600a6126f9565b6114c991906126f9565b6114d391906126f9565b90506114e0600a826126bb565b6114ea908861267e565b60095460405191985060009550859250429130907f52a298e98008bccb662279d4de296612fe9d9fe846a899e25d485e12a0152545908590a45050505050808061153390612710565b91505061136e565b5060015461155290600160a060020a031683611fb2565b5050600c805460ff19166002179055505050565b60005b6004548160ff16101561163d576000600a8260ff168154811061158e5761158e61264c565b6000918252602080832090910154600b54600160a060020a0390911680845291839052604083206001015491935085916115c891906126f9565b6115d291906126bb565b600160a060020a0383166000908152602081905260409020600201546115f8919061267e565b5050600160a060020a03166000908152602081905260408120600281018290556001810191909155600701805460ff191690558061163581612710565b915050611569565b5050600c805460ff1916600317905550565b600080600a61165f600185612633565b60ff16815481106116725761167261264c565b6000918252602080832090910154600160a060020a03168252819052604090206007015460ff169392505050565b600080600a6116b0600185612633565b60ff16815481106116c3576116c361264c565b6000918252602080832090910154600160a060020a0316825281905260409020600201549392505050565b60008060016004546117009190612691565b60035461170d91906126f9565b33600090815260208190526040812060068101546004820154600390920154939450919261173b9085612691565b6117459190612691565b610d00919061267e565b3360009081526020819052604090206007015460ff168015156001146117ba5760405160e560020a62461bcd02815260206004820152601560248201527f5573756172696f206e6f207265676973747261646f00000000000000000000006044820152606401610570565b600180600c5460ff1660038111156117d4576117d461259f565b146117f45760405160e560020a62461bcd028152600401610570906125e3565b6117fc6116ee565b831115801561180b5750600083115b61185a5760405160e560020a62461bcd02815260206004820152600f60248201527f5061676f20696e636f72726563746f00000000000000000000000000000000006044820152606401610570565b6000611864610c9c565b60085490915060ff80831691161015611886576008546118869060ff16612008565b600854600090600a9061189e9060019060ff16612633565b60ff16815481106118b1576118b161264c565b600091825260208083209091015433835290829052604082206004018054600160a060020a039092169350879283926118eb90849061267e565b90915550600090506118fc33610ff8565b33600090815260208190526040812060030154919250908190831161192457600091506119e4565b336000908152602081905260409020600301546119419084612691565b9150600160a060020a03851633146119e45783821015611962575080611965565b50825b3360009081526020819052604081206004018054839290611987908490612691565b9091555050600160a060020a038516600090815260208190526040812060020180548392906119b790849061267e565b909155505033600090815260208190526040812060030180548392906119de90849061267e565b90915550505b3360009081526020819052604090206006015415801590611a1657503360009081526020819052604090206004015415155b15611ac957336000908152602081905260408120600481015460069091015411611a53575033600090815260208190526040902060060154611a68565b50336000908152602081905260409020600401545b3360009081526020819052604081206004018054839290611a8a908490612691565b9091555050600b54611a9d90829061267e565b600b553360009081526020819052604081206006018054839290611ac2908490612691565b9091555050505b600254336000908152602081905260409020600601541015611b1d5733600090815260208190526040902060060154600254611b059190612691565b33600090815260208190526040902060010155611b31565b336000908152602081905260408120600101555b6000611b3d308b611f0f565b6040519091508115159033907f02d1bc4c41f0968b82fd72dc5877b3df473c2bcab943abd81229c5b825b2132190600090a350505050505050505050565b600380600c5460ff166003811115611b9557611b9561259f565b14611bb55760405160e560020a62461bcd028152600401610570906125e3565b6010546040517f70a08231000000000000000000000000000000000000000000000000000000008152306004820152600091600160a060020a0316906370a0823190602401602060405180830381865afa158015611c17573d6000803e3d6000fd5b505050506040513d601f19601f82011682018060405250810190611c3b919061272f565b11611c8b5760405160e560020a62461bcd02815260206004820152600d60248201527f656d7074792062616c616e6365000000000000000000000000000000000000006044820152606401610570565b60085460ff165b6004548160ff1611611cb957611ca781612008565b80611cb181612710565b915050611c92565b506010546040517f70a08231000000000000000000000000000000000000000000000000000000008152306004820152600091600160a060020a0316906370a0823190602401602060405180830381865afa158015611d1c573d6000803e3d6000fd5b505050506040513d601f19601f82011682018060405250810190611d40919061272f565b905060005b6004548160ff161015611e71576000600a8260ff1681548110611d6a57611d6a61264c565b600091825260209091200154600160a060020a03169050611d8a81612461565b600160a060020a038116600090815260208190526040902060080154158015611db35750600083115b15611e5e57600160a060020a0381166000908152602081905260409020600201548310611e3757600160a060020a0380821660009081526020819052604090208054600290910154611e09929190911690611fb2565b50600160a060020a038116600090815260208190526040902060020154611e309084612691565b9250611e5e565b600160a060020a03808216600090815260208190526040902054611e5c911684611fb2565b505b5080611e6981612710565b915050611d45565b508015611e9057600654611e8e90600160a060020a031682611fb2565b505b604051819030907f5fafa99d0643513820be26656b45130b01e1c03062e1266bf36f88cbd3bd969590600090a35050565b600080600a611ed1600185612633565b60ff1681548110611ee457611ee461264c565b6000918252602080832090910154600160a060020a0316825281905260409020600401549392505050565b6010546040517f23b872dd000000000000000000000000000000000000000000000000000000008152336004820152600160a060020a0384811660248301526044820184905260009283929116906323b872dd906064015b6020604051808303816000875af1158015611f86573d6000803e3d6000fd5b505050506040513d601f19601f82011682018060405250810190611faa9190612748565b949350505050565b6010546040517fa9059cbb000000000000000000000000000000000000000000000000000000008152600160a060020a03848116600483015260248201849052600092839291169063a9059cbb90604401611f67565b6000600a612017600184612633565b60ff168154811061202a5761202a61264c565b6000918252602082200154600160a060020a031691505b6004548160ff161015612430576000600a8260ff16815481106120665761206661264c565b6000918252602082200154600160a060020a0316915061208582610ff8565b9050600084600160a060020a031683600160a060020a03161461241a57600160a060020a0383166000908152602081905260409020600301548211156120f257600160a060020a0383166000908152602081905260409020600301546120eb9083612691565b90506120f6565b5060005b801561241a57600160a060020a0383166000908152602081905260409020600401541561223357600160a060020a038316600090815260208190526040812060040154821015612147575080612165565b50600160a060020a0383166000908152602081905260409020600401545b600160a060020a03841660009081526020819052604090206004015461218c908290612691565b600160a060020a03851660009081526020819052604090206004810191909155600301546121bb90829061267e565b600160a060020a0380861660009081526020819052604080822060030193909355908816815220600201546121f190829061267e565b600160a060020a03808816600090815260208190526040808220600201939093559086168152206003015461222585610ff8565b61222f9190612691565b9150505b801561241a57600160a060020a0383166000908152602081905260408120600501805460ff169161226383612710565b82546101009290920a60ff81810219909316918316021790915560085433600090815260208190526040808220549051929093169350600160a060020a03909216917f9cb2653410f99cbecfa3f17c1cd571dd8b8def58653878d6dae9d0c08400531c91a380600b541061237e5780600b60008282546122e39190612691565b9091555050600160a060020a0383166000908152602081905260408120600301805483929061231390849061267e565b9091555050600160a060020a0383166000908152602081905260408120600601805483929061234390849061267e565b9091555050600160a060020a0385166000908152602081905260408120600201805483929061237390849061267e565b9091555061238e9050565b600c805461ff0019166101001790555b600254600160a060020a03841660009081526020819052604090206006015410156123fd57600160a060020a0383166000908152602081905260409020600601546002546123dc9190612691565b600160a060020a03841660009081526020819052604090206001015561241a565b600160a060020a0383166000908152602081905260408120600101555b505050808061242890612710565b915050612041565b506008805460ff1690600061244483612710565b91906101000a81548160ff021916908360ff160217905550505050565b600160a060020a038116600090815260208190526040902060068101546002909101541061252157600160a060020a0381166000908152602081905260408120600681015460029091018054919290916124bc908490612691565b9091555050600160a060020a038116600090815260208190526040812060060154600b8054919290916124f090849061267e565b9091555050600254600160a060020a0382166000908152602081905260408120600181019290925560069091015550565b600c805461ff00191661010017905550565b60006020828403121561254557600080fd5b813560ff8116811461255657600080fd5b9392505050565b60006020828403121561256f57600080fd5b8135600160a060020a038116811461255657600080fd5b60006020828403121561259857600080fd5b5035919050565b60e060020a634e487b7102600052602160045260246000fd5b60208101600483106125dd5760e060020a634e487b7102600052602160045260246000fd5b91905290565b60208082526010908201527f537461676520696e636f72726563746f00000000000000000000000000000000604082015260600190565b60e060020a634e487b7102600052601160045260246000fd5b60ff828116828216039081111561106c5761106c61261a565b60e060020a634e487b7102600052603260045260246000fd5b6000600182016126775761267761261a565b5060010190565b8082018082111561106c5761106c61261a565b8181038181111561106c5761106c61261a565b6000816126b3576126b361261a565b506000190190565b6000826126db5760e060020a634e487b7102600052601260045260246000fd5b500490565b60ff818116838216019081111561106c5761106c61261a565b808202811582820484141761106c5761106c61261a565b600060ff821660ff81036127265761272661261a565b60010192915050565b60006020828403121561274157600080fd5b5051919050565b60006020828403121561275a57600080fd5b8151801515811461255657600080fdfea2646970667358221220dc4287778b2c2532e24c7ad082671ebbb86c8e3dc192b6bc2f27733f8ae8fe2464736f6c63430008140033",
  "immutableReferences": {},
  "source": "// SPDX-License-Identifier: BSD 3-Clause License\npragma solidity ^0.8.18;\n\nimport \"./Modifiers.sol\";\nimport \"./BLXToken.sol\";\nimport \"@chainlink/contracts/src/v0.8/interfaces/AggregatorV3Interface.sol\";\n\ncontract SavingGroupsMXN is Modifiers {\n    enum Stages {\n        //Stages of the round\n        Setup,\n        Save,\n        Finished,\n        Emergency\n    }\n\n    struct User {\n        //Information from each user\n        address userAddr;\n        uint8 userTurn;\n        uint256 availableCashIn; //amount available in CashIn\n        uint256 availableSavings; //Amount Available to withdraw\n        uint256 assignedPayments; //Assigned either by payment or debt\n        uint256 unassignedPayments;\n        uint8 latePayments; //late Payments incurred by the user\n        uint256 owedTotalCashIn; // amount taken in credit from others cashIn\n        bool isActive; //defines if the user is participating in the current round\n        uint256 withdrewAmount;\n    }\n\n    mapping(address => User) public users;\n    address public admin; //The user that deploy the contract is the administrator\n\n    //Constructor deployment variables\n    uint256 public cashIn; //amount to be payed as commitment at the begining of the saving circle\n    uint256 public saveAmount; //Payment on each round/cycle\n    uint256 public groupSize; //Number of slots for users to participate on the saving circle\n    uint256 public adminFee; //The fee the admin will charge to the users, it will be taken from the users cashin\n    address public devFund; // fees will be sent here\n\n    //Counters and flags\n    uint256 usersCounter = 0;\n    uint8 public turn = 1; //Current cycle/round in the saving circle\n    uint256 public startTime;\n    address[] public addressOrderList;\n    uint256 public totalCashIn = 0;\n    Stages public stage;\n    bool public outOfFunds = false;\n\n    //Time constants in seconds\n    // Weekly by Default\n    uint256 public payTime = 0;\n    uint256 public fee = 0;\n    uint256 public feeCost = 0;\n    ERC20 public stableToken; // USDC Polygon Muimbai 0x0FA8781a83E46826621b3BC094Ea2A0212e71B23\n    BLXToken public BLX;\n    AggregatorV3Interface internal priceFeed;\n\n    // BloinxEvents\n    event RoundCreated(uint256 indexed saveAmount, uint256 indexed groupSize);\n    event RegisterUser(address indexed user, uint8 indexed turn);\n    event PayCashIn(address indexed user, bool indexed success);\n    event PayFee(address indexed user, bool indexed success);\n    event RemoveUser(\n        address indexed removedBy,\n        address indexed user,\n        uint8 indexed turn\n    );\n    event PayTurn(address indexed user, bool indexed success);\n    event LatePayment(address indexed user, uint8 indexed turn);\n    event WithdrawFunds(\n        address indexed user,\n        uint256 indexed amount,\n        bool indexed success\n    );\n    event EndRound(\n        address indexed roundAddress,\n        uint256 indexed startAt,\n        uint256 indexed endAt\n    );\n    event EmergencyWithdraw(\n        address indexed roundAddress,\n        uint256 indexed funds\n    );\n\n    constructor(\n        uint256 _cashIn,\n        uint256 _saveAmount,\n        uint256 _groupSize,\n        address _admin,\n        uint256 _adminFee,\n        uint256 _payTime,\n        ERC20 _token,\n        BLXToken _BLX,\n        address _devFund,\n        uint256 _fee\n    ) public {\n        stableToken = _token;\n        require(_admin != address(0), \"address cant be zero\");\n        require(_groupSize > 1 && _groupSize <= 12, \"group size error\");\n        require(_cashIn >= 2, \"deposit qty error\");\n        require(_saveAmount >= 2, \"payment qty error\");\n        require(_adminFee <= 100);\n        admin = _admin;\n        adminFee = _adminFee;\n        groupSize = _groupSize;\n        devFund = _devFund;\n        BLX = _BLX;\n        cashIn = _cashIn * 10 ** stableToken.decimals();\n        saveAmount = _saveAmount * 10 ** stableToken.decimals();\n        stage = Stages.Setup;\n        addressOrderList = new address[](_groupSize);\n        require(_payTime > 0, \"paytime error\");\n        payTime = _payTime * 60; //86400;\n        feeCost = (saveAmount * 100 * _fee) / 10000; // calculate 5% fee\n        // Data Feed MXN/USD\n        priceFeed = AggregatorV3Interface(\n            0x171b16562EA3476F5C61d1b8dad031DbA0768545\n            // Mumbai DAI/USD\n            // 0x0FCAa9c899EC5A91eBc3D5Dd869De833b06fB046\n        );\n        emit RoundCreated(saveAmount, groupSize);\n    }\n\n    modifier atStage(Stages _stage) {\n        require(stage == _stage, \"Stage incorrecto\");\n        _;\n    }\n\n    function registerUser(uint8 _userTurn) external atStage(Stages.Setup) {\n        require(!users[msg.sender].isActive, \"already registered\");\n        require(usersCounter < groupSize, \"group is full\"); //the saving circle is full\n        require(addressOrderList[_userTurn - 1] == address(0), \"turn taken\");\n        usersCounter++;\n        users[msg.sender] = User(\n            msg.sender,\n            _userTurn,\n            cashIn,\n            0,\n            0,\n            0,\n            0,\n            0,\n            true,\n            0\n        ); //create user\n        bool registerSuccess = transferFrom(address(this), cashIn);\n        emit PayCashIn(msg.sender, registerSuccess);\n        bool payFeeSuccess = transferFrom(devFund, feeCost);\n        emit PayFee(msg.sender, payFeeSuccess);\n        totalCashIn += cashIn;\n        addressOrderList[_userTurn - 1] = msg.sender; //store user\n        emit RegisterUser(msg.sender, _userTurn);\n    }\n\n    function removeUser(uint8 _userTurn) external atStage(Stages.Setup) {\n        require(\n            msg.sender == admin ||\n                msg.sender == addressOrderList[_userTurn - 1],\n            \"not autorized\"\n        );\n        require(addressOrderList[_userTurn - 1] != address(0), \"turn empty\");\n        require(admin != addressOrderList[_userTurn - 1], \"not allowed\");\n        address removeAddress = addressOrderList[_userTurn - 1];\n        if (users[removeAddress].availableCashIn > 0) {\n            //if user has cashIn available, send it back\n            uint256 availableCashInTemp = users[removeAddress].availableCashIn;\n            users[removeAddress].availableCashIn = 0;\n            totalCashIn = totalCashIn - availableCashInTemp;\n            transferTo(users[removeAddress].userAddr, availableCashInTemp);\n        }\n        addressOrderList[_userTurn - 1] = address(0); //set address in turn to 0x00..\n        usersCounter--;\n        users[removeAddress].isActive = false; // tendra que poner turno en 0?\n        emit RemoveUser(msg.sender, removeAddress, _userTurn);\n    }\n\n    function startRound() external onlyAdmin(admin) atStage(Stages.Setup) {\n        require(usersCounter == groupSize, \"unassigned turns\");\n        stage = Stages.Save;\n        startTime = block.timestamp;\n    }\n\n    //Permite adelantar pagos o hacer abonos chiquitos\n    /*\n\t\tPrimero se verifica si hay pagos pendientes al da\n\t\ty se abonan, si sobra se verifica si se debe algo al CashIn y se abona\n\t\t*/\n    function addPayment(\n        uint256 _payAmount\n    )\n        external\n        isRegisteredUser(users[msg.sender].isActive)\n        atStage(Stages.Save)\n    {\n        //users make the payment for the cycle\n        require(\n            _payAmount <= futurePayments() && _payAmount > 0,\n            \"Pago incorrecto\"\n        );\n\n        //First transaction that will complete saving of currentTurn and will trigger next turn\n        uint8 realTurn = getRealTurn();\n        if (turn < realTurn) {\n            completeSavingsAndAdvanceTurn(turn);\n        }\n\n        address userInTurn = addressOrderList[turn - 1];\n        uint256 deposit = _payAmount;\n        users[msg.sender].unassignedPayments += deposit;\n\n        uint256 obligation = obligationAtTime(msg.sender);\n        uint256 debtToTurn;\n        uint256 paymentToTurn;\n\n        //Detecting place to assign\n\n        //checking debt in current turn:\n\n        if (obligation <= users[msg.sender].assignedPayments) {\n            //no hay deuda del turno corriente\n            debtToTurn = 0;\n        } else {\n            //hay deuda del turno corriente\n            debtToTurn = obligation - users[msg.sender].assignedPayments;\n\n            //checking debt in Total CashIn: (owedTotalCashIn)\n\n            //PAYMENTS: first: current turn debt, then totalCashIn\n\n            if (userInTurn != msg.sender) {\n                if (debtToTurn < deposit) {\n                    paymentToTurn = debtToTurn;\n                } else {\n                    paymentToTurn = deposit;\n                }\n\n                //Si no he cubierto todos mis pagos hasta el da se asignan al usuario en turno.\n                users[msg.sender].unassignedPayments -= paymentToTurn;\n                users[userInTurn].availableSavings += paymentToTurn;\n                users[msg.sender].assignedPayments += paymentToTurn;\n            }\n        }\n\n        //PAGO DEUDA DEL CASHIN TOTAL\n        if (\n            users[msg.sender].owedTotalCashIn > 0 &&\n            users[msg.sender].unassignedPayments > 0\n        ) {\n            uint256 paymentTotalCashIn;\n            //unnasigned excede o iguala la deuda del cashIn\n            if (\n                users[msg.sender].owedTotalCashIn <=\n                users[msg.sender].unassignedPayments\n            ) {\n                paymentTotalCashIn = users[msg.sender].owedTotalCashIn;\n            } else {\n                paymentTotalCashIn = users[msg.sender].unassignedPayments; //cubre parcialmente la deuda del cashIn\n            }\n\n            users[msg.sender].unassignedPayments -= paymentTotalCashIn;\n            totalCashIn = totalCashIn + paymentTotalCashIn;\n            users[msg.sender].owedTotalCashIn -= paymentTotalCashIn;\n        }\n\n        //update my own availableCashIn\n        if (users[msg.sender].owedTotalCashIn < cashIn) {\n            users[msg.sender].availableCashIn =\n                cashIn -\n                users[msg.sender].owedTotalCashIn;\n        } else {\n            users[msg.sender].availableCashIn = 0;\n        }\n        bool success = transferFrom(address(this), _payAmount);\n        emit PayTurn(msg.sender, success);\n    }\n\n    function withdrawTurn()\n        external\n        isRegisteredUser(users[msg.sender].isActive)\n        atStage(Stages.Save)\n    {\n        uint8 senderTurn = users[msg.sender].userTurn;\n\n        uint8 realTurn = getRealTurn();\n        require(realTurn > senderTurn, \"No es tu turno\"); //turn = turno actual de la rosca\n        require(users[msg.sender].withdrewAmount == 0);\n        //First transaction that will complete saving of currentTurn and will trigger next turn\n        //Because this runs each user action, we are sure the user in turn has its availableSavings complete\n        if (turn < realTurn) {\n            completeSavingsAndAdvanceTurn(turn);\n        }\n\n        // Paga adeudos pendientes de availableSavings\n        if (obligationAtTime(msg.sender) > users[msg.sender].assignedPayments) {\n            payLateFromSavings(msg.sender);\n        }\n\n        uint256 savedAmountTemp = 0;\n        savedAmountTemp = users[msg.sender].availableSavings;\n        users[msg.sender].availableSavings = 0;\n        users[msg.sender].withdrewAmount += savedAmountTemp;\n        bool success = transferTo(users[msg.sender].userAddr, savedAmountTemp);\n        emit WithdrawFunds(\n            users[msg.sender].userAddr,\n            savedAmountTemp,\n            success\n        );\n        if (outOfFunds) {\n            stage = Stages.Emergency;\n        }\n    }\n\n    function transferFrom(\n        address _to,\n        uint256 _payAmount\n    ) internal returns (bool) {\n        bool success = stableToken.transferFrom(msg.sender, _to, _payAmount);\n        return success;\n    }\n\n    function transferTo(address _to, uint256 _amount) internal returns (bool) {\n        bool success = stableToken.transfer(_to, _amount);\n        return success;\n    }\n\n    //Esta funcion se verifica que daba correr cada que se reliza un movimiento por parte de un usuario,\n    //solo correr si es la primera vez que se corre en un turno, ya sea accin de retiro o pago.\n    function completeSavingsAndAdvanceTurn(uint8 turno) private {\n        address userInTurn = addressOrderList[turno - 1];\n        for (uint8 i = 0; i < groupSize; i++) {\n            address useraddress = addressOrderList[i]; // 3\n            uint256 obligation = obligationAtTime(useraddress);\n            uint256 debtUser;\n\n            if (useraddress != userInTurn) {\n                //Assign unassignedPayments\n                if (obligation > users[useraddress].assignedPayments) {\n                    //Si hay monto pendiente por cubrir el turno\n                    debtUser = obligation - users[useraddress].assignedPayments; //Monto pendiente por asignar\n                } else {\n                    debtUser = 0;\n                }\n                //Si el usuario debe\n                if (debtUser > 0) {\n                    //Asignamos pagos pendientes\n                    if (users[useraddress].unassignedPayments > 0) {\n                        uint256 toAssign;\n                        //se paga toda la deuda y sigue con saldo a favor\n                        if (debtUser < users[useraddress].unassignedPayments) {\n                            toAssign = debtUser;\n                        } else {\n                            toAssign = users[useraddress].unassignedPayments;\n                        }\n                        users[useraddress].unassignedPayments =\n                            users[useraddress].unassignedPayments -\n                            toAssign;\n                        users[useraddress].assignedPayments =\n                            users[useraddress].assignedPayments +\n                            toAssign;\n                        users[userInTurn].availableSavings =\n                            users[userInTurn].availableSavings +\n                            toAssign;\n                        //Recalculamos la deuda despus de asingacin para pagar con deuda\n                        debtUser =\n                            obligationAtTime(useraddress) -\n                            users[useraddress].assignedPayments;\n                    }\n\n                    // Si an sigue habiendo deuda se paga del cashIn\n                    if (debtUser > 0) {\n                        users[useraddress].latePayments++; //Se marca deudor\n                        emit LatePayment(users[msg.sender].userAddr, turn);\n                        if (totalCashIn >= debtUser) {\n                            totalCashIn -= debtUser;\n                            users[useraddress].assignedPayments += debtUser;\n                            users[useraddress].owedTotalCashIn += debtUser; //Lo que se debe a la bolsa de CashIn\n                            users[userInTurn].availableSavings += debtUser;\n                        } else {\n                            //se traban los fondos\n                            outOfFunds = true;\n                        }\n                        //update my own availableCashIn\n                        if (users[useraddress].owedTotalCashIn < cashIn) {\n                            users[useraddress].availableCashIn =\n                                cashIn -\n                                users[useraddress].owedTotalCashIn;\n                        } else {\n                            users[useraddress].availableCashIn = 0;\n                        }\n                    }\n                }\n            }\n        }\n        turn++;\n    }\n\n    function payLateFromSavings(address _userAddress) internal {\n        if (\n            users[_userAddress].availableSavings >=\n            users[_userAddress].owedTotalCashIn\n        ) {\n            users[_userAddress].availableSavings -= users[_userAddress]\n                .owedTotalCashIn;\n            totalCashIn += users[_userAddress].owedTotalCashIn;\n            users[_userAddress].availableCashIn = cashIn;\n            users[_userAddress].owedTotalCashIn = 0;\n        } else {\n            outOfFunds = true;\n        }\n    }\n\n    function emergencyWithdraw() public atStage(Stages.Emergency) {\n        require(stableToken.balanceOf(address(this)) > 0, \"empty balance\");\n        for (uint8 turno = turn; turno <= groupSize; turno++) {\n            completeSavingsAndAdvanceTurn(turno);\n        }\n        uint256 saldoAtorado = stableToken.balanceOf(address(this));\n        for (uint8 i = 0; i < groupSize; i++) {\n            address userAddr = addressOrderList[i];\n            payLateFromSavings(userAddr);\n            if (users[userAddr].withdrewAmount == 0 && saldoAtorado > 0) {\n                if (users[userAddr].availableSavings <= saldoAtorado) {\n                    transferTo(\n                        users[userAddr].userAddr,\n                        users[userAddr].availableSavings\n                    );\n                    saldoAtorado -= users[userAddr].availableSavings;\n                } else {\n                    transferTo(users[userAddr].userAddr, saldoAtorado);\n                }\n            }\n        }\n        if (saldoAtorado > 0) {\n            transferTo(devFund, saldoAtorado);\n        }\n        emit EmergencyWithdraw(address(this), saldoAtorado);\n    }\n\n    function endRound() public atStage(Stages.Save) {\n        require(getRealTurn() > groupSize, \"No ha finalizado\");\n        for (uint8 turno = turn; turno <= groupSize; turno++) {\n            completeSavingsAndAdvanceTurn(turno);\n        }\n\n        uint256 sumAvailableCashIn = 0;\n        for (uint8 i = 0; i < groupSize; i++) {\n            address userAddr = addressOrderList[i];\n            if (\n                users[userAddr].availableSavings >=\n                users[userAddr].owedTotalCashIn\n            ) {\n                payLateFromSavings(userAddr);\n            }\n            sumAvailableCashIn += users[userAddr].availableCashIn;\n        }\n        if (!outOfFunds) {\n            uint256 totalAdminFee = 0;\n            uint256 amountDevFund = 0;\n            for (uint8 i = 0; i < groupSize; i++) {\n                address userAddr = addressOrderList[i];\n                uint256 cashInReturn = ((users[userAddr].availableCashIn *\n                    totalCashIn) / sumAvailableCashIn);\n                users[userAddr].availableCashIn = 0;\n                users[userAddr].isActive = false;\n                uint256 amountTempAdmin = (cashInReturn * adminFee) / 100;\n                totalAdminFee += amountTempAdmin;\n                uint256 amountTempUsr = cashInReturn -\n                    amountTempAdmin +\n                    users[userAddr].availableSavings;\n                users[userAddr].availableSavings = 0;\n                transferTo(users[userAddr].userAddr, amountTempUsr);\n                uint256 reward = (10 *\n                    cashInReturn *\n                    users[userAddr].userTurn *\n                    users[userAddr].userTurn);\n                //BLX.mint(users[userAddr].userAddr, reward);\n                amountDevFund += reward / 10;\n                cashInReturn = 0;\n                reward = 0;\n                emit EndRound(address(this), startTime, block.timestamp);\n            }\n            transferTo(admin, totalAdminFee);\n            //BLX.mint(devFund, amountDevFund);\n            stage = Stages.Finished;\n        } else {\n            for (uint8 i = 0; i < groupSize; i++) {\n                address userAddr = addressOrderList[i];\n                uint256 amountTemp = users[userAddr].availableSavings +\n                    ((users[userAddr].availableCashIn * totalCashIn) /\n                        sumAvailableCashIn);\n                users[userAddr].availableSavings = 0;\n                users[userAddr].availableCashIn = 0;\n                users[userAddr].isActive = false;\n                amountTemp = 0;\n            }\n            stage = Stages.Emergency;\n        }\n    }\n\n    //Getters\n    //Cunto le falta por ahorrar total\n    function futurePayments() public view returns (uint256) {\n        uint256 totalSaving = (saveAmount * (groupSize - 1));\n        uint256 futurePayment = totalSaving -\n            users[msg.sender].assignedPayments -\n            users[msg.sender].unassignedPayments +\n            users[msg.sender].owedTotalCashIn;\n        return futurePayment;\n    }\n\n    //Returns the total payment the user should have paid at the moment\n    function obligationAtTime(\n        address userAddress\n    ) public view returns (uint256) {\n        uint256 expectedObligation;\n        if (users[userAddress].userTurn <= turn) {\n            expectedObligation = saveAmount * (turn - 1);\n        } else {\n            expectedObligation = saveAmount * (turn);\n        }\n        return expectedObligation;\n    }\n\n    function getRealTurn() public view atStage(Stages.Save) returns (uint8) {\n        uint8 realTurn = uint8((block.timestamp - startTime) / payTime) + 1;\n        return (realTurn);\n    }\n\n    function getUserAvailableCashIn(\n        uint8 _userTurn\n    ) public view returns (uint256) {\n        address userAddr = addressOrderList[_userTurn - 1];\n        return (users[userAddr].availableCashIn);\n    }\n\n    function getUserAvailableSavings(\n        uint8 _userTurn\n    ) public view returns (uint256) {\n        address userAddr = addressOrderList[_userTurn - 1];\n        return (users[userAddr].availableSavings);\n    }\n\n    function getUserAmountPaid(uint8 _userTurn) public view returns (uint256) {\n        address userAddr = addressOrderList[_userTurn - 1];\n        return (users[userAddr].assignedPayments);\n    }\n\n    function getUserUnassignedPayments(\n        uint8 _userTurn\n    ) public view returns (uint256) {\n        address userAddr = addressOrderList[_userTurn - 1];\n        return (users[userAddr].unassignedPayments);\n    }\n\n    function getUserLatePayments(uint8 _userTurn) public view returns (uint8) {\n        address userAddr = addressOrderList[_userTurn - 1];\n        return (users[userAddr].latePayments);\n    }\n\n    function getUserOwedTotalCashIn(\n        uint8 _userTurn\n    ) public view returns (uint256) {\n        address userAddr = addressOrderList[_userTurn - 1];\n        return (users[userAddr].owedTotalCashIn);\n    }\n\n    function getUserIsActive(uint8 _userTurn) public view returns (bool) {\n        address userAddr = addressOrderList[_userTurn - 1];\n        return (users[userAddr].isActive);\n    }\n\n    function getLatestPrice() internal view returns (int) {\n        // prettier-ignore\n        (\n            /* uint80 roundID */,\n            int price,\n            /*uint startedAt*/,\n            /*uint timeStamp*/,\n            /*uint80 answeredInRound*/\n        ) = priceFeed.latestRoundData();\n        // este resultado se debe multiplicar por 10 ** -8, para que de el valor de 1 MXN en USD ej. 0.055 usd = 1 MXN\n        return price;\n    }\n}\n",
  "sourcePath": "/Users/artur/Desktop/Bloinx/bloinx-contracts/contracts/SavingGroupsMXN.sol",
  "compiler": {
    "name": "solc",
    "version": "0.8.20+commit.a1b79de6.Emscripten.clang"
  },
  "schemaVersion": "3.4.12",
  "updatedAt": "2023-05-24T18:36:39.817Z",
  "devdoc": {
    "kind": "dev",
    "methods": {},
    "version": 1
  },
  "userdoc": {
    "kind": "user",
    "methods": {},
    "version": 1
  }
}