{
  "contractName": "SavingGroups",
  "abi": [
    {
      "inputs": [
        {
          "internalType": "uint256",
          "name": "_cashIn",
          "type": "uint256"
        },
        {
          "internalType": "uint256",
          "name": "_saveAmount",
          "type": "uint256"
        },
        {
          "internalType": "uint256",
          "name": "_groupSize",
          "type": "uint256"
        },
        {
          "internalType": "address payable",
          "name": "_admin",
          "type": "address"
        },
        {
          "internalType": "uint256",
          "name": "_payTime",
          "type": "uint256"
        },
        {
          "internalType": "uint256",
          "name": "_withdrawTime",
          "type": "uint256"
        }
      ],
      "stateMutability": "nonpayable",
      "type": "constructor"
    },
    {
      "inputs": [
        {
          "internalType": "uint256",
          "name": "",
          "type": "uint256"
        }
      ],
      "name": "addressOrderList",
      "outputs": [
        {
          "internalType": "address",
          "name": "",
          "type": "address"
        }
      ],
      "stateMutability": "view",
      "type": "function"
    },
    {
      "inputs": [],
      "name": "admin",
      "outputs": [
        {
          "internalType": "address payable",
          "name": "",
          "type": "address"
        }
      ],
      "stateMutability": "view",
      "type": "function"
    },
    {
      "inputs": [],
      "name": "cashOutUsers",
      "outputs": [
        {
          "internalType": "uint256",
          "name": "",
          "type": "uint256"
        }
      ],
      "stateMutability": "view",
      "type": "function"
    },
    {
      "inputs": [],
      "name": "groupSize",
      "outputs": [
        {
          "internalType": "uint256",
          "name": "",
          "type": "uint256"
        }
      ],
      "stateMutability": "view",
      "type": "function"
    },
    {
      "inputs": [
        {
          "internalType": "uint256",
          "name": "",
          "type": "uint256"
        }
      ],
      "name": "latePaymentsList",
      "outputs": [
        {
          "internalType": "uint256",
          "name": "",
          "type": "uint256"
        }
      ],
      "stateMutability": "view",
      "type": "function"
    },
    {
      "inputs": [],
      "name": "payTime",
      "outputs": [
        {
          "internalType": "uint256",
          "name": "",
          "type": "uint256"
        }
      ],
      "stateMutability": "view",
      "type": "function"
    },
    {
      "inputs": [],
      "name": "stage",
      "outputs": [
        {
          "internalType": "enum SavingGroups.Stages",
          "name": "",
          "type": "uint8"
        }
      ],
      "stateMutability": "view",
      "type": "function"
    },
    {
      "inputs": [],
      "name": "startTime",
      "outputs": [
        {
          "internalType": "uint256",
          "name": "",
          "type": "uint256"
        }
      ],
      "stateMutability": "view",
      "type": "function"
    },
    {
      "inputs": [],
      "name": "totalCashIn",
      "outputs": [
        {
          "internalType": "uint256",
          "name": "",
          "type": "uint256"
        }
      ],
      "stateMutability": "view",
      "type": "function"
    },
    {
      "inputs": [],
      "name": "totalSaveAmount",
      "outputs": [
        {
          "internalType": "uint256",
          "name": "",
          "type": "uint256"
        }
      ],
      "stateMutability": "view",
      "type": "function"
    },
    {
      "inputs": [],
      "name": "turn",
      "outputs": [
        {
          "internalType": "uint256",
          "name": "",
          "type": "uint256"
        }
      ],
      "stateMutability": "view",
      "type": "function"
    },
    {
      "inputs": [
        {
          "internalType": "address",
          "name": "",
          "type": "address"
        }
      ],
      "name": "users",
      "outputs": [
        {
          "internalType": "address payable",
          "name": "userAddr",
          "type": "address"
        },
        {
          "internalType": "bool",
          "name": "saveAmountFlag",
          "type": "bool"
        },
        {
          "internalType": "bool",
          "name": "currentRoundFlag",
          "type": "bool"
        },
        {
          "internalType": "uint8",
          "name": "latePayments",
          "type": "uint8"
        }
      ],
      "stateMutability": "view",
      "type": "function"
    },
    {
      "inputs": [],
      "name": "withdrawTime",
      "outputs": [
        {
          "internalType": "uint256",
          "name": "",
          "type": "uint256"
        }
      ],
      "stateMutability": "view",
      "type": "function"
    },
    {
      "inputs": [
        {
          "internalType": "uint256",
          "name": "_userTurn",
          "type": "uint256"
        }
      ],
      "name": "registerUser",
      "outputs": [],
      "stateMutability": "payable",
      "type": "function"
    },
    {
      "inputs": [
        {
          "internalType": "uint256",
          "name": "_userTurn",
          "type": "uint256"
        }
      ],
      "name": "removeUser",
      "outputs": [],
      "stateMutability": "payable",
      "type": "function"
    },
    {
      "inputs": [],
      "name": "startRound",
      "outputs": [],
      "stateMutability": "nonpayable",
      "type": "function"
    },
    {
      "inputs": [],
      "name": "payTurn",
      "outputs": [],
      "stateMutability": "payable",
      "type": "function"
    },
    {
      "inputs": [],
      "name": "payLateTurn",
      "outputs": [],
      "stateMutability": "payable",
      "type": "function"
    },
    {
      "inputs": [],
      "name": "withdrawTurn",
      "outputs": [],
      "stateMutability": "payable",
      "type": "function"
    },
    {
      "inputs": [],
      "name": "advanceTurn",
      "outputs": [],
      "stateMutability": "payable",
      "type": "function"
    },
    {
      "inputs": [],
      "name": "withdrawCashIn",
      "outputs": [],
      "stateMutability": "payable",
      "type": "function"
    },
    {
      "inputs": [],
      "name": "restartRound",
      "outputs": [],
      "stateMutability": "payable",
      "type": "function"
    },
    {
      "inputs": [],
      "name": "payCashIn",
      "outputs": [],
      "stateMutability": "payable",
      "type": "function"
    }
  ],
  "bytecode": "0x608060405260006005556001600655600060085560006009556000600b5562093a80600f5562093a806010553480156200003857600080fd5b506040516200362c3803806200362c83398181016040528101906200005e91906200045c565b600073ffffffffffffffffffffffffffffffffffffffff168373ffffffffffffffffffffffffffffffffffffffff161415620000d1576040517f08c379a0000000000000000000000000000000000000000000000000000000008152600401620000c890620006f8565b60405180910390fd5b600184118015620000e35750600a8411155b62000125576040517f08c379a00000000000000000000000000000000000000000000000000000000081526004016200011c9062000692565b60405180910390fd5b82600160006101000a81548173ffffffffffffffffffffffffffffffffffffffff021916908373ffffffffffffffffffffffffffffffffffffffff16021790555067016345785d8a0000860260028190555067016345785d8a00008502600381905550836004819055506000600a819055506000600e60006101000a81548160ff02191690836002811115620001b757fe5b02179055508367ffffffffffffffff81118015620001d457600080fd5b50604051908082528060200260200182016040528015620002045781602001602082028036833780820191505090505b50600c90805190602001906200021c9291906200032e565b508367ffffffffffffffff811180156200023557600080fd5b50604051908082528060200260200182016040528015620002655781602001602082028036833780820191505090505b50600d90805190602001906200027d929190620003bd565b5060008211620002c4576040517f08c379a0000000000000000000000000000000000000000000000000000000008152600401620002bb90620006b4565b60405180910390fd5b600081116200030a576040517f08c379a00000000000000000000000000000000000000000000000000000000081526004016200030190620006d6565b60405180910390fd5b816201518002600f819055508062015180026010819055505050505050506200079d565b828054828255906000526020600020908101928215620003aa579160200282015b82811115620003a95782518260006101000a81548173ffffffffffffffffffffffffffffffffffffffff021916908373ffffffffffffffffffffffffffffffffffffffff160217905550916020019190600101906200034f565b5b509050620003b991906200040f565b5090565b828054828255906000526020600020908101928215620003fc579160200282015b82811115620003fb578251825591602001919060010190620003de565b5b5090506200040b91906200040f565b5090565b5b808211156200042a57600081600090555060010162000410565b5090565b6000815190506200043f8162000769565b92915050565b600081519050620004568162000783565b92915050565b60008060008060008060c087890312156200047657600080fd5b60006200048689828a0162000445565b96505060206200049989828a0162000445565b9550506040620004ac89828a0162000445565b9450506060620004bf89828a016200042e565b9350506080620004d289828a0162000445565b92505060a0620004e589828a0162000445565b9150509295509295509295565b600062000501603e836200071a565b91507f456c2074616d616e696f2064656c20677275706f206465626520736572206d6160008301527f796f72206120756e6f2079206d656e6f72206f20696775616c206120313000006020830152604082019050919050565b6000620005696030836200071a565b91507f456c207469656d706f2070617261207061676172206e6f20707565646520736560008301527f72206d656e6f72206120756e20646961000000000000000000000000000000006020830152604082019050919050565b6000620005d1603d836200071a565b91507f456c207469656d706f20706172612072657469726172206c6f7320666f6e646f60008301527f73206e6f20707565646520736572206d656e6f72206120756e206469610000006020830152604082019050919050565b6000620006396030836200071a565b91507f4c6120646972656363696f6e2064656c2061646d696e6973747261646f72206e60008301527f6f20707565646520736572206365726f000000000000000000000000000000006020830152604082019050919050565b60006020820190508181036000830152620006ad81620004f2565b9050919050565b60006020820190508181036000830152620006cf816200055a565b9050919050565b60006020820190508181036000830152620006f181620005c2565b9050919050565b6000602082019050818103600083015262000713816200062a565b9050919050565b600082825260208201905092915050565b600062000738826200073f565b9050919050565b600073ffffffffffffffffffffffffffffffffffffffff82169050919050565b6000819050919050565b62000774816200072b565b81146200078057600080fd5b50565b6200078e816200075f565b81146200079a57600080fd5b50565b612e7f80620007ad6000396000f3fe6080604052600436106101405760003560e01c806364f9a17c116100b6578063a87430ba1161006f578063a87430ba1461034c578063b4bde59e1461038c578063b6a26cab146103b7578063b842478b146103c1578063c040e6b8146103ec578063f851a4401461041757610140565b806364f9a17c146102ad5780636f3d7e64146102d857806371c5061c146102e257806378e97925146102ec5780637dab7531146103175780638b2999031461032157610140565b80632eb1bf15116101085780632eb1bf15146101bc57806330fceb6c146101f957806345cb3dde146102035780635394dda81461022e57806355e3f0861461026b57806363b635ea1461028257610140565b806311dc470314610145578063193e76c7146101615780631bbfae0e1461016b5780632d14252f146101875780632d50e80d14610191575b600080fd5b61015f600480360381019061015a919061275a565b610442565b005b6101696107f7565b005b6101856004803603810190610180919061275a565b610b71565b005b61018f610ec4565b005b34801561019d57600080fd5b506101a6611220565b6040516101b39190612d05565b60405180910390f35b3480156101c857600080fd5b506101e360048036038101906101de919061275a565b611226565b6040516101f09190612d05565b60405180910390f35b61020161124a565b005b34801561020f57600080fd5b5061021861162d565b6040516102259190612d05565b60405180910390f35b34801561023a57600080fd5b506102556004803603810190610250919061275a565b611633565b6040516102629190612b0f565b60405180910390f35b34801561027757600080fd5b50610280611672565b005b34801561028e57600080fd5b506102976117c1565b6040516102a49190612d05565b60405180910390f35b3480156102b957600080fd5b506102c26117c7565b6040516102cf9190612d05565b60405180910390f35b6102e06117cd565b005b6102ea611a5e565b005b3480156102f857600080fd5b50610301611ccd565b60405161030e9190612d05565b60405180910390f35b61031f611cd3565b005b34801561032d57600080fd5b50610336611fd4565b6040516103439190612d05565b60405180910390f35b34801561035857600080fd5b50610373600480360381019061036e9190612731565b611fda565b6040516103839493929190612b45565b60405180910390f35b34801561039857600080fd5b506103a1612051565b6040516103ae9190612d05565b60405180910390f35b6103bf612057565b005b3480156103cd57600080fd5b506103d66122ac565b6040516103e39190612d05565b60405180910390f35b3480156103f857600080fd5b506104016122b2565b60405161040e9190612b8a565b60405180910390f35b34801561042357600080fd5b5061042c6122c5565b6040516104399190612b2a565b60405180910390f35b600160009054906101000a900473ffffffffffffffffffffffffffffffffffffffff168073ffffffffffffffffffffffffffffffffffffffff163373ffffffffffffffffffffffffffffffffffffffff16146104e9576040517f08c379a0000000000000000000000000000000000000000000000000000000008152600401808060200182810382526025815260200180612e026025913960400191505060405180910390fd5b60008060028111156104f757fe5b600e60009054906101000a900460ff16600281111561051257fe5b1461051c57600080fd5b600073ffffffffffffffffffffffffffffffffffffffff16600c600185038154811061054457fe5b9060005260206000200160009054906101000a900473ffffffffffffffffffffffffffffffffffffffff1673ffffffffffffffffffffffffffffffffffffffff1614156105c6576040517f08c379a00000000000000000000000000000000000000000000000000000000081526004016105bd90612c25565b60405180910390fd5b6000600c60018503815481106105d857fe5b9060005260206000200160009054906101000a900473ffffffffffffffffffffffffffffffffffffffff16905060008060008373ffffffffffffffffffffffffffffffffffffffff1673ffffffffffffffffffffffffffffffffffffffff16815260200190815260200160002060000160169054906101000a900460ff1660ff16141561071757600254600954036009819055506000808273ffffffffffffffffffffffffffffffffffffffff1673ffffffffffffffffffffffffffffffffffffffff16815260200190815260200160002060000160009054906101000a900473ffffffffffffffffffffffffffffffffffffffff1673ffffffffffffffffffffffffffffffffffffffff166108fc6002549081150290604051600060405180830381858888f19350505050158015610715573d6000803e3d6000fd5b505b6000600c600186038154811061072957fe5b9060005260206000200160006101000a81548173ffffffffffffffffffffffffffffffffffffffff021916908373ffffffffffffffffffffffffffffffffffffffff16021790555060056000815480929190600190039190505550600a600081548092919060019003919050555060008060008373ffffffffffffffffffffffffffffffffffffffff1673ffffffffffffffffffffffffffffffffffffffff16815260200190815260200160002060000160156101000a81548160ff02191690831515021790555050505050565b6000803373ffffffffffffffffffffffffffffffffffffffff1673ffffffffffffffffffffffffffffffffffffffff16815260200190815260200160002060000160159054906101000a900460ff1660011515811515146108c0576040517f08c379a00000000000000000000000000000000000000000000000000000000081526004018080602001828103825260158152602001807f5573756172696f206e6f207265676973747261646f000000000000000000000081525060200191505060405180910390fd5b34600254808214610939576040517f08c379a00000000000000000000000000000000000000000000000000000000081526004018080602001828103825260148152602001807f466f6e646f7320496e737566696369656e74657300000000000000000000000081525060200191505060405180910390fd5b600c6001600654038154811061094b57fe5b9060005260206000200160009054906101000a900473ffffffffffffffffffffffffffffffffffffffff168073ffffffffffffffffffffffffffffffffffffffff163373ffffffffffffffffffffffffffffffffffffffff161415610a18576040517f08c379a000000000000000000000000000000000000000000000000000000000815260040180806020018281038252601a8152602001807f456e2065737465207475726e6f206e6f206465706f736974617300000000000081525060200191505060405180910390fd5b6001806002811115610a2657fe5b600e60009054906101000a900460ff166002811115610a4157fe5b14610a4b57600080fd5b6000803373ffffffffffffffffffffffffffffffffffffffff1673ffffffffffffffffffffffffffffffffffffffff16815260200190815260200160002060000160149054906101000a900460ff1615610ada576040517f08c379a0000000000000000000000000000000000000000000000000000000008152600401610ad190612c85565b60405180910390fd5b60105460016006540302600f54600654026007540101421115610b0457610aff611cd3565b610b6a565b346008540160088190555060016000803373ffffffffffffffffffffffffffffffffffffffff1673ffffffffffffffffffffffffffffffffffffffff16815260200190815260200160002060000160146101000a81548160ff0219169083151502179055505b5050505050565b34600254808214610bea576040517f08c379a00000000000000000000000000000000000000000000000000000000081526004018080602001828103825260148152602001807f466f6e646f7320496e737566696369656e74657300000000000000000000000081525060200191505060405180910390fd5b6000806002811115610bf857fe5b600e60009054906101000a900460ff166002811115610c1357fe5b14610c1d57600080fd5b60045460055410610c63576040517f08c379a0000000000000000000000000000000000000000000000000000000008152600401610c5a90612c65565b60405180910390fd5b600073ffffffffffffffffffffffffffffffffffffffff16600c6001860381548110610c8b57fe5b9060005260206000200160009054906101000a900473ffffffffffffffffffffffffffffffffffffffff1673ffffffffffffffffffffffffffffffffffffffff1614610d0c576040517f08c379a0000000000000000000000000000000000000000000000000000000008152600401610d0390612be5565b60405180910390fd5b6005600081548092919060010191905055503460095401600981905550600a6000815480929190600101919050555060405180608001604052803373ffffffffffffffffffffffffffffffffffffffff168152602001600015158152602001600115158152602001600060ff168152506000803373ffffffffffffffffffffffffffffffffffffffff1673ffffffffffffffffffffffffffffffffffffffff16815260200190815260200160002060008201518160000160006101000a81548173ffffffffffffffffffffffffffffffffffffffff021916908373ffffffffffffffffffffffffffffffffffffffff16021790555060208201518160000160146101000a81548160ff02191690831515021790555060408201518160000160156101000a81548160ff02191690831515021790555060608201518160000160166101000a81548160ff021916908360ff16021790555090505033600c6001860381548110610e7657fe5b9060005260206000200160006101000a81548173ffffffffffffffffffffffffffffffffffffffff021916908373ffffffffffffffffffffffffffffffffffffffff16021790555050505050565b6002806002811115610ed257fe5b600e60009054906101000a900460ff166002811115610eed57fe5b14610ef757600080fd5b600160009054906101000a900473ffffffffffffffffffffffffffffffffffffffff168073ffffffffffffffffffffffffffffffffffffffff163373ffffffffffffffffffffffffffffffffffffffff1614610f9e576040517f08c379a0000000000000000000000000000000000000000000000000000000008152600401808060200182810382526025815260200180612e026025913960400191505060405180910390fd5b600a5460095481610fab57fe5b04600b8190555060005b6004548160ff1610156111ef576000600c8260ff1681548110610fd457fe5b9060005260206000200160009054906101000a900473ffffffffffffffffffffffffffffffffffffffff169050600a546002540260095410156111875760008060008373ffffffffffffffffffffffffffffffffffffffff1673ffffffffffffffffffffffffffffffffffffffff16815260200190815260200160002060000160169054906101000a900460ff1660ff161415611123576000808273ffffffffffffffffffffffffffffffffffffffff1673ffffffffffffffffffffffffffffffffffffffff16815260200190815260200160002060000160009054906101000a900473ffffffffffffffffffffffffffffffffffffffff1673ffffffffffffffffffffffffffffffffffffffff166108fc600b549081150290604051600060405180830381858888f19350505050158015611114573d6000803e3d6000fd5b50600b54600954036009819055505b60016000808373ffffffffffffffffffffffffffffffffffffffff1673ffffffffffffffffffffffffffffffffffffffff16815260200190815260200160002060000160166101000a81548160ff021916908360ff1602179055506111866122eb565b5b60008060008373ffffffffffffffffffffffffffffffffffffffff1673ffffffffffffffffffffffffffffffffffffffff16815260200190815260200160002060000160146101000a81548160ff021916908315150217905550508080600101915050610fb5565b5060016006819055506000600e60006101000a81548160ff0219169083600281111561121757fe5b02179055505050565b600f5481565b600d818154811061123657600080fd5b906000526020600020016000915090505481565b6000803373ffffffffffffffffffffffffffffffffffffffff1673ffffffffffffffffffffffffffffffffffffffff16815260200190815260200160002060000160159054906101000a900460ff166001151581151514611313576040517f08c379a00000000000000000000000000000000000000000000000000000000081526004018080602001828103825260158152602001807f5573756172696f206e6f207265676973747261646f000000000000000000000081525060200191505060405180910390fd5b600180600281111561132157fe5b600e60009054906101000a900460ff16600281111561133c57fe5b1461134657600080fd5b600c6001600654038154811061135857fe5b9060005260206000200160009054906101000a900473ffffffffffffffffffffffffffffffffffffffff168073ffffffffffffffffffffffffffffffffffffffff163373ffffffffffffffffffffffffffffffffffffffff1614611407576040517f08c379a0000000000000000000000000000000000000000000000000000000008152600401808060200182810382526023815260200180612e276023913960400191505060405180910390fd5b60105460065402600f5460065402600754010142111561145c576040517f08c379a000000000000000000000000000000000000000000000000000000000815260040161145390612cc5565b60405180910390fd5b4260105460016006540302600f5460065402600754010110801561148a575060035460016004540302600854105b15611498576114976123c1565b5b60035460016004540302600854146114e5576040517f08c379a00000000000000000000000000000000000000000000000000000000081526004016114dc90612c45565b60405180910390fd5b6000600c600160065403815481106114f957fe5b9060005260206000200160009054906101000a900473ffffffffffffffffffffffffffffffffffffffff1690506000808273ffffffffffffffffffffffffffffffffffffffff1673ffffffffffffffffffffffffffffffffffffffff16815260200190815260200160002060000160009054906101000a900473ffffffffffffffffffffffffffffffffffffffff1673ffffffffffffffffffffffffffffffffffffffff166108fc6008549081150290604051600060405180830381858888f193505050501580156115cf573d6000803e3d6000fd5b5060006008819055506004546006541061160c576002600e60006101000a81548160ff0219169083600281111561160257fe5b0217905550611615565b61161461264d565b5b60066000815480929190600101919050555050505050565b60105481565b600c818154811061164357600080fd5b906000526020600020016000915054906101000a900473ffffffffffffffffffffffffffffffffffffffff1681565b600160009054906101000a900473ffffffffffffffffffffffffffffffffffffffff168073ffffffffffffffffffffffffffffffffffffffff163373ffffffffffffffffffffffffffffffffffffffff1614611719576040517f08c379a0000000000000000000000000000000000000000000000000000000008152600401808060200182810382526025815260200180612e026025913960400191505060405180910390fd5b600080600281111561172757fe5b600e60009054906101000a900460ff16600281111561174257fe5b1461174c57600080fd5b600454600a5414611792576040517f08c379a000000000000000000000000000000000000000000000000000000000815260040161178990612c05565b60405180910390fd5b6001600e60006101000a81548160ff021916908360028111156117b157fe5b0217905550426007819055505050565b60045481565b60085481565b600160009054906101000a900473ffffffffffffffffffffffffffffffffffffffff168073ffffffffffffffffffffffffffffffffffffffff163373ffffffffffffffffffffffffffffffffffffffff1614611874576040517f08c379a0000000000000000000000000000000000000000000000000000000008152600401808060200182810382526025815260200180612e026025913960400191505060405180910390fd5b600180600281111561188257fe5b600e60009054906101000a900460ff16600281111561189d57fe5b146118a757600080fd5b4260105460065402600f54600654026007540101106118fb576040517f08c379a00000000000000000000000000000000000000000000000000000000081526004016118f290612bc5565b60405180910390fd5b600354600160045403026008541015611917576119166123c1565b5b6000600c6001600654038154811061192b57fe5b9060005260206000200160009054906101000a900473ffffffffffffffffffffffffffffffffffffffff1690506000808273ffffffffffffffffffffffffffffffffffffffff1673ffffffffffffffffffffffffffffffffffffffff16815260200190815260200160002060000160009054906101000a900473ffffffffffffffffffffffffffffffffffffffff1673ffffffffffffffffffffffffffffffffffffffff166108fc6008549081150290604051600060405180830381858888f19350505050158015611a01573d6000803e3d6000fd5b50600060088190555060045460065410611a3e576002600e60006101000a81548160ff02191690836002811115611a3457fe5b0217905550611a47565b611a4661264d565b5b600660008154809291906001019190505550505050565b6000806002811115611a6c57fe5b600e60009054906101000a900460ff166002811115611a8757fe5b14611a9157600080fd5b6000803373ffffffffffffffffffffffffffffffffffffffff1673ffffffffffffffffffffffffffffffffffffffff16815260200190815260200160002060000160159054906101000a900460ff166001151581151514611b5a576040517f08c379a00000000000000000000000000000000000000000000000000000000081526004018080602001828103825260158152602001807f5573756172696f206e6f207265676973747261646f000000000000000000000081525060200191505060405180910390fd5b60008060003373ffffffffffffffffffffffffffffffffffffffff1673ffffffffffffffffffffffffffffffffffffffff16815260200190815260200160002060000160169054906101000a900460ff1660ff1611611bee576040517f08c379a0000000000000000000000000000000000000000000000000000000008152600401611be590612ca5565b60405180910390fd5b6002543414611c32576040517f08c379a0000000000000000000000000000000000000000000000000000000008152600401611c2990612ce5565b60405180910390fd5b34600954016009819055506000803373ffffffffffffffffffffffffffffffffffffffff1673ffffffffffffffffffffffffffffffffffffffff168152602001908152602001600020600001601681819054906101000a900460ff16809291906001900391906101000a81548160ff021916908360ff16021790555050611cb76122eb565b600a600081548092919060010191905055505050565b60075481565b6000803373ffffffffffffffffffffffffffffffffffffffff1673ffffffffffffffffffffffffffffffffffffffff16815260200190815260200160002060000160159054906101000a900460ff166001151581151514611d9c576040517f08c379a00000000000000000000000000000000000000000000000000000000081526004018080602001828103825260158152602001807f5573756172696f206e6f207265676973747261646f000000000000000000000081525060200191505060405180910390fd5b34600254808214611e15576040517f08c379a00000000000000000000000000000000000000000000000000000000081526004018080602001828103825260148152602001807f466f6e646f7320496e737566696369656e74657300000000000000000000000081525060200191505060405180910390fd5b6001806002811115611e2357fe5b600e60009054906101000a900460ff166002811115611e3e57fe5b14611e4857600080fd5b60008060003373ffffffffffffffffffffffffffffffffffffffff1673ffffffffffffffffffffffffffffffffffffffff16815260200190815260200160002060000160169054906101000a900460ff1660ff1611611edc576040517f08c379a0000000000000000000000000000000000000000000000000000000008152600401611ed390612ba5565b60405180910390fd5b34600954016009819055506000803373ffffffffffffffffffffffffffffffffffffffff1673ffffffffffffffffffffffffffffffffffffffff168152602001908152602001600020600001601681819054906101000a900460ff16809291906001900391906101000a81548160ff021916908360ff16021790555050611f616122eb565b60008060003373ffffffffffffffffffffffffffffffffffffffff1673ffffffffffffffffffffffffffffffffffffffff16815260200190815260200160002060000160169054906101000a900460ff1660ff161415611fce57600a600081548092919060010191905055505b50505050565b60065481565b60006020528060005260406000206000915090508060000160009054906101000a900473ffffffffffffffffffffffffffffffffffffffff16908060000160149054906101000a900460ff16908060000160159054906101000a900460ff16908060000160169054906101000a900460ff16905084565b60095481565b600280600281111561206557fe5b600e60009054906101000a900460ff16600281111561208057fe5b1461208a57600080fd5b600160009054906101000a900473ffffffffffffffffffffffffffffffffffffffff168073ffffffffffffffffffffffffffffffffffffffff163373ffffffffffffffffffffffffffffffffffffffff1614612131576040517f08c379a0000000000000000000000000000000000000000000000000000000008152600401808060200182810382526025815260200180612e026025913960400191505060405180910390fd5b600a546009548161213e57fe5b04600b8190555060005b6004548160ff1610156122a7576000600c8260ff168154811061216757fe5b9060005260206000200160009054906101000a900473ffffffffffffffffffffffffffffffffffffffff16905060008060008373ffffffffffffffffffffffffffffffffffffffff1673ffffffffffffffffffffffffffffffffffffffff16815260200190815260200160002060000160169054906101000a900460ff1660ff161415612299576000808273ffffffffffffffffffffffffffffffffffffffff1673ffffffffffffffffffffffffffffffffffffffff16815260200190815260200160002060000160009054906101000a900473ffffffffffffffffffffffffffffffffffffffff1673ffffffffffffffffffffffffffffffffffffffff166108fc600b549081150290604051600060405180830381858888f19350505050158015612297573d6000803e3d6000fd5b505b508080600101915050612148565b505050565b600a5481565b600e60009054906101000a900460ff1681565b600160009054906101000a900473ffffffffffffffffffffffffffffffffffffffff1681565b60005b6004548160ff1610156123be576000600c8260ff168154811061230d57fe5b9060005260206000200160009054906101000a900473ffffffffffffffffffffffffffffffffffffffff16905060008060008373ffffffffffffffffffffffffffffffffffffffff1673ffffffffffffffffffffffffffffffffffffffff16815260200190815260200160002060000160169054906101000a900460ff1660ff16905080600d8460ff16815481106123a157fe5b9060005260206000200181905550505080806001019150506122ee565b50565b60005b6004548160ff16101561264a576000600c8260ff16815481106123e357fe5b9060005260206000200160009054906101000a900473ffffffffffffffffffffffffffffffffffffffff1690506000808273ffffffffffffffffffffffffffffffffffffffff1673ffffffffffffffffffffffffffffffffffffffff16815260200190815260200160002060000160149054906101000a900460ff1615801561253557506000808273ffffffffffffffffffffffffffffffffffffffff1673ffffffffffffffffffffffffffffffffffffffff16815260200190815260200160002060000160009054906101000a900473ffffffffffffffffffffffffffffffffffffffff1673ffffffffffffffffffffffffffffffffffffffff16600c600160065403815481106124f157fe5b9060005260206000200160009054906101000a900473ffffffffffffffffffffffffffffffffffffffff1673ffffffffffffffffffffffffffffffffffffffff1614155b1561263c57600354600954036009819055506003546008540160088190555060008060008373ffffffffffffffffffffffffffffffffffffffff1673ffffffffffffffffffffffffffffffffffffffff16815260200190815260200160002060000160169054906101000a900460ff1660ff1614156125c257600a60008154809291906001900391905055505b6000808273ffffffffffffffffffffffffffffffffffffffff1673ffffffffffffffffffffffffffffffffffffffff168152602001908152602001600020600001601681819054906101000a900460ff168092919060010191906101000a81548160ff021916908360ff1602179055505061263b6122eb565b5b5080806001019150506123c4565b50565b60005b6004548160ff161015612704576000600c8260ff168154811061266f57fe5b9060005260206000200160009054906101000a900473ffffffffffffffffffffffffffffffffffffffff16905060008060008373ffffffffffffffffffffffffffffffffffffffff1673ffffffffffffffffffffffffffffffffffffffff16815260200190815260200160002060000160146101000a81548160ff021916908315150217905550508080600101915050612650565b50565b60008135905061271681612dd3565b92915050565b60008135905061272b81612dea565b92915050565b60006020828403121561274357600080fd5b600061275184828501612707565b91505092915050565b60006020828403121561276c57600080fd5b600061277a8482850161271c565b91505092915050565b61278c81612d43565b82525050565b61279b81612d31565b82525050565b6127aa81612d55565b82525050565b6127b981612dab565b82525050565b60006127cc601b83612d20565b91507f457374617320616c20636f727269656e746520656e207061676f7300000000006000830152602082019050919050565b600061280c602583612d20565b91507f456c207573756172696f20656e207475726e6f2061756e20707565646520726560008301527f74697261720000000000000000000000000000000000000000000000000000006020830152604082019050919050565b6000612872601a83612d20565b91507f45737465206c756761722079612065737461206f63757061646f0000000000006000830152602082019050919050565b60006128b2603e83612d20565b91507f41756e20686179206c7567617265732073696e20617369676e6172206f20616c60008301527f677569656e206e6f2068612070616761646f206c6120676172616e74696100006020830152604082019050919050565b6000612918601583612d20565b91507f45737465207475726e6f206573746120766163696f00000000000000000000006000830152602082019050919050565b6000612958602b83612d20565b91507f4573706572612061207175652074656e67616d6f7320656c206d6f6e746f206460008301527f652074752061686f72726f0000000000000000000000000000000000000000006020830152604082019050919050565b60006129be601683612d20565b91507f456c20677275706f206573746120636f6d706c65746f000000000000000000006000830152602082019050919050565b60006129fe601783612d20565b91507f59612061686f7272617374652065737465207475726e6f0000000000000000006000830152602082019050919050565b6000612a3e601e83612d20565b91507f59612074656e656d6f732072656769737261646f2074752043617368496e00006000830152602082019050919050565b6000612a7e601b83612d20565b91507f5465726d696e6f20656c207469656d706f2064652072657469726f00000000006000830152602082019050919050565b6000612abe601483612d20565b91507f466f6e646f7320496e737566696369656e7465730000000000000000000000006000830152602082019050919050565b612afa81612d94565b82525050565b612b0981612d9e565b82525050565b6000602082019050612b246000830184612792565b92915050565b6000602082019050612b3f6000830184612783565b92915050565b6000608082019050612b5a6000830187612783565b612b6760208301866127a1565b612b7460408301856127a1565b612b816060830184612b00565b95945050505050565b6000602082019050612b9f60008301846127b0565b92915050565b60006020820190508181036000830152612bbe816127bf565b9050919050565b60006020820190508181036000830152612bde816127ff565b9050919050565b60006020820190508181036000830152612bfe81612865565b9050919050565b60006020820190508181036000830152612c1e816128a5565b9050919050565b60006020820190508181036000830152612c3e8161290b565b9050919050565b60006020820190508181036000830152612c5e8161294b565b9050919050565b60006020820190508181036000830152612c7e816129b1565b9050919050565b60006020820190508181036000830152612c9e816129f1565b9050919050565b60006020820190508181036000830152612cbe81612a31565b9050919050565b60006020820190508181036000830152612cde81612a71565b9050919050565b60006020820190508181036000830152612cfe81612ab1565b9050919050565b6000602082019050612d1a6000830184612af1565b92915050565b600082825260208201905092915050565b6000612d3c82612d74565b9050919050565b6000612d4e82612d74565b9050919050565b60008115159050919050565b6000819050612d6f82612dbf565b919050565b600073ffffffffffffffffffffffffffffffffffffffff82169050919050565b6000819050919050565b600060ff82169050919050565b6000612db682612d61565b9050919050565bfe5b60038110612dd057612dcf612dbd565b5b50565b612ddc81612d31565b8114612de757600080fd5b50565b612df381612d94565b8114612dfe57600080fd5b5056fe536f6c6f20656c2061646d696e207075656465206c6c616d6172206c612066756e63696f6e44656265732065737065726172207475207475726e6f20706172612072657469726172a264697066735822122082b13dc858b4e7fe689b931b6a430efdfd705dba8fb48fc6e26f2706a183d14664736f6c63430007040033",
  "immutableReferences": {},
  "source": "// SPDX-License-Identifier: MIT\npragma solidity ^0.7.4;\npragma experimental ABIEncoderV2;\n\nimport \"./Ownable.sol\";\n\ncontract SavingGroups is Ownable{\n    enum Stages {\n        //Stages of the round\n        Setup,\n        Save,\n        Finished\n    }\n\n    struct User {\n        //Information from each user\n        address payable userAddr;\n        bool saveAmountFlag;\n        bool currentRoundFlag; //defines if the user is participating in the current round\n        uint8 latePayments;\n    }\n\n    mapping(address => User) public users;\n    address payable public admin; //The user that deploy the contract is the administrator\n\n    //Constructor deployment variables\n    uint256 cashIn; //amount to be payed as commitment at the begining of the saving circle\n    uint256 saveAmount; //Payment on each round/cycle\n    uint256 public groupSize; //Number of slots for users to participate on the saving circle\n\n    //Counters and flags\n    uint256 usersCounter = 0;\n    uint256 public turn = 1; //Current cycle/round in the saving circle\n    uint256 public startTime;\n    uint256 public totalSaveAmount = 0; //Collective saving on the round\n    uint256 public totalCashIn = 0;\n    uint256 public cashOutUsers;\n    uint256 cashOut=0;\n    address[] public addressOrderList;\n    uint256[] public latePaymentsList;\n    Stages public stage;\n\n    //Time constants in seconds\n    // Weekly by Default\n    uint256 public payTime = 86400 * 7;\n    uint256 public withdrawTime = 86400 * 7;\n\n    constructor(\n        uint256 _cashIn,\n        uint256 _saveAmount,\n        uint256 _groupSize,\n        address payable _admin,\n        uint256 _payTime,\n        uint256 _withdrawTime\n    ) public {\n        require(_admin != address(0), \"La direccion del administrador no puede ser cero\");\n        require(_groupSize > 1 && _groupSize <= 10, \"El tamanio del grupo debe ser mayor a uno y menor o igual a 10\");\n        admin = _admin;\n        cashIn = _cashIn * 1e17;\n        saveAmount = _saveAmount * 1e17;\n        groupSize = _groupSize;\n        cashOutUsers = 0;\n        stage = Stages.Setup;\n        addressOrderList = new address[](_groupSize);\n        latePaymentsList = new uint256[](_groupSize);\n        require(_payTime > 0, \"El tiempo para pagar no puede ser menor a un dia\");\n        require(_withdrawTime > 0, \"El tiempo para retirar los fondos no puede ser menor a un dia\");\n        payTime = 86400 * _payTime;\n        withdrawTime = 86400 * _withdrawTime;\n    }\n\n    modifier atStage(Stages _stage) {\n        require(stage == _stage);\n        _;\n    }\n\n    function registerUser(uint256 _userTurn)\n        external\n        payable\n        isPayAmountCorrect(msg.value, cashIn)\n        atStage(Stages.Setup)\n    {\n        require(usersCounter < groupSize, \"El grupo esta completo\"); //the saving circle is full\n        require(addressOrderList[_userTurn-1]==address(0), \"Este lugar ya esta ocupado\" );\n        usersCounter++;\n        totalCashIn = totalCashIn + msg.value;\n        cashOutUsers++;\n        users[msg.sender] = User(\n            msg.sender,\n            false,\n            true,\n            0\n        );\n        addressOrderList[_userTurn-1]=msg.sender; //store user\n    }\n\n    function removeUser(uint256 _userTurn)\n        external\n        payable\n        onlyAdmin(admin)\n        atStage(Stages.Setup)\n    {\n      require(addressOrderList[_userTurn-1]!=address(0), \"Este turno esta vacio\");\n      address removeAddress=addressOrderList[_userTurn-1];\n      if(users[removeAddress].latePayments == 0){\n          totalCashIn = totalCashIn - cashIn;\n          users[removeAddress].userAddr.transfer(cashIn);\n      }\n      addressOrderList[_userTurn-1]=address(0);\n      usersCounter--;\n      cashOutUsers--;\n      users[removeAddress].currentRoundFlag = false;\n    }\n\n    function startRound()\n        external\n        onlyAdmin(admin)\n        atStage(Stages.Setup)\n    {\n        require(cashOutUsers == groupSize, \"Aun hay lugares sin asignar o alguien no ha pagado la garantia\");\n        stage = Stages.Save;\n        startTime= block.timestamp;\n    }\n\n    function payTurn()\n        external\n        payable\n        isRegisteredUser(users[msg.sender].currentRoundFlag)\n        isPayAmountCorrect(msg.value, cashIn)\n        isNotUsersTurn(addressOrderList[turn - 1])\n        atStage(Stages.Save)\n    {\n        //users make the payment for the cycle\n        require(\n            !users[msg.sender].saveAmountFlag,\n            \"Ya ahorraste este turno\"\n        ); //you have already saved this round\n         if(block.timestamp > startTime + turn*payTime + (turn-1)*withdrawTime) {\n            payLateTurn();\n        } else {\n            totalSaveAmount = totalSaveAmount + msg.value;\n            users[msg.sender].saveAmountFlag = true;\n        }\n    }\n\n    function payLateTurn()\n        public\n        payable\n        isRegisteredUser(users[msg.sender].currentRoundFlag)\n        isPayAmountCorrect(msg.value, cashIn)\n        atStage(Stages.Save)\n    {\n        //users make the payment for the cycle\n        require(\n            users[msg.sender].latePayments > 0,\n            \"Estas al corriente en pagos\"\n        ); //you have already saved this round\n        totalCashIn = totalCashIn + msg.value;\n        users[msg.sender].latePayments--;\n        updateLatePayments();\n        if (users[msg.sender].latePayments == 0) { //Issue: si alguien se pone al corriente pero hay alguien mas atrazado no se prende su bandera\n            cashOutUsers++;\n        }\n    }\n\n    function withdrawTurn()\n        external\n        payable\n        isRegisteredUser(users[msg.sender].currentRoundFlag)\n        atStage(Stages.Save)\n        isUsersTurn(addressOrderList[turn - 1])\n    {\n        require(block.timestamp <= startTime + turn*payTime + turn*withdrawTime , \"Termino el tiempo de retiro\");\n        if (\n            startTime + turn*payTime + (turn-1)*withdrawTime < block.timestamp && totalSaveAmount < (groupSize-1) * saveAmount\n        ) {\n            findLateUser();\n        }\n        require(\n            totalSaveAmount == (groupSize-1) * saveAmount,\n            \"Espera a que tengamos el monto de tu ahorro\"\n        ); //Se debe estar en fase de pago\n        address addressUserInTurn = addressOrderList[turn - 1];\n        users[addressUserInTurn].userAddr.transfer(totalSaveAmount);\n        totalSaveAmount = 0;\n        if (turn >= groupSize) {\n            stage = Stages.Finished;\n        } else {\n            newTurn();\n        }\n        turn++;\n    }\n\n    function newTurn() private {\n        //repeats the save and pay stages according to the saving circle size\n        for (uint8 i = 0; i < groupSize; i++) {\n            address useraddress = addressOrderList[i];\n            users[useraddress].saveAmountFlag = false;\n        }\n    }\n\n    function findLateUser() private{\n      for (uint8 i = 0; i < groupSize; i++) {\n          address useraddress = addressOrderList[i];\n          if (!users[useraddress].saveAmountFlag &&\n          addressOrderList[turn - 1] != users[useraddress].userAddr\n          ) {\n              totalCashIn = totalCashIn - saveAmount;\n              totalSaveAmount = totalSaveAmount + saveAmount;\n                if(users[useraddress].latePayments==0){\n                  cashOutUsers--;\n              }\n              users[useraddress].latePayments++;\n              updateLatePayments();\n          }\n       }\n    }\n\n    function advanceTurn()\n        external\n        payable\n        onlyAdmin(admin)\n        atStage(Stages.Save)\n    {\n        require(startTime + turn*payTime + turn*withdrawTime < block.timestamp , \"El usuario en turno aun puede retirar\");\n        if (\n            totalSaveAmount < (groupSize-1) * saveAmount\n            )\n        {\n          findLateUser();\n        }\n\n        address addressUserInTurn = addressOrderList[turn - 1];\n        users[addressUserInTurn].userAddr.transfer(totalSaveAmount);\n        totalSaveAmount = 0;\n        if (turn >= groupSize) {\n            stage = Stages.Finished;\n        } else {\n            newTurn();\n        }\n        turn++;\n    }\n\n    function withdrawCashIn()\n        external\n        payable\n        atStage(Stages.Finished)\n        onlyAdmin(admin)\n    {\n        //When all the rounds are done the admin sends the cash in to the users\n        cashOut=totalCashIn/cashOutUsers;\n        for (uint8 i = 0; i < groupSize; i++) {\n            address useraddress = addressOrderList[i];\n            if (users[useraddress].latePayments == 0) {\n                users[useraddress].userAddr.transfer(cashOut);\n            }\n        }\n    }\n\n    function restartRound()\n        external\n        payable\n        atStage(Stages.Finished)\n        onlyAdmin(admin)\n    {\n        cashOut=totalCashIn/cashOutUsers;\n        for(uint8 i = 0; i<groupSize; i++){\n            address useraddress = addressOrderList[i];\n            if(totalCashIn<cashIn*cashOutUsers){\n                if (users[useraddress].latePayments == 0) {\n                    users[useraddress].userAddr.transfer(cashOut);\n                    totalCashIn=totalCashIn-cashOut;\n                }\n                users[useraddress].latePayments = 1;\n                updateLatePayments();\n            }\n            users[useraddress].saveAmountFlag = false;\n        }\n        turn = 1;\n        stage = Stages.Setup;\n    }\n\n    function payCashIn()\n        external\n        payable\n        atStage(Stages.Setup)\n        isRegisteredUser(users[msg.sender].currentRoundFlag)\n    {       //Receive the comitment payment\n        require(users[msg.sender].latePayments > 0, \"Ya tenemos regisrado tu CashIn\"); //you have payed the cash in\n        require(msg.value == cashIn, 'Fondos Insuficientes');   //insufucuent funds\n        totalCashIn = totalCashIn + msg.value;\n        users[msg.sender].latePayments--;\n        updateLatePayments();\n        cashOutUsers++;\n    }\n\n    function updateLatePayments() private{\n        for (uint8 i = 0; i<groupSize; i++){\n            address updateAddress=addressOrderList[i];\n            uint256 latePayment_=users[updateAddress].latePayments;\n            latePaymentsList[i]=latePayment_;\n        }\n    }\n}\n",
  "sourcePath": "/Users/artur/Desktop/Bloinx/bloinx-contracts/contracts/SavingGroups.sol",
  "compiler": {
    "name": "solc",
    "version": "0.7.4+commit.3f05b770.Emscripten.clang"
  },
  "schemaVersion": "3.4.2",
  "updatedAt": "2021-09-22T03:28:39.341Z",
  "devdoc": {
    "kind": "dev",
    "methods": {},
    "version": 1
  },
  "userdoc": {
    "kind": "user",
    "methods": {},
    "version": 1
  }
}